:020000040800F2
:1000000000C000207D5B00083D58000841580008F2
:1000100045580008495800084D58000800000000E5
:10002000000000000000000000000000515800081F
:100030005558000800000000595800085D58000895
:10004000C55B0008C55B0008C55B0008C55B000810
:10005000C55B0008C55B0008C55B0008C55B000800
:10006000C55B0008C55B0008C55B0008ED570008CC
:10007000C55B0008C55B000885580008915800085A
:10008000C55B0008C55B0008C55B0008C55B0008D0
:10009000C55B0008C55B0008C55B0008C55B0008C0
:1000A000C55B0008C55B0008C55B0008C55B0008B0
:1000B000C55B0008C55B0008C55B00086D580008FB
:1000C00079580008C55B0008C55B0008C55B0008DF
:1000D000C55B0008C55B0008C55B0008C55B000880
:1000E000C55B0008C55B0008C55B0008C55B000870
:1000F000C55B0008C55B0008C55B0008C55B000860
:10010000C55B0008C55B0008C55B0008C55B00084F
:10011000C55B0008C55B0008C55B0008C55B00083F
:10012000C55B0008C55B0008C55B0008C55B00082F
:1001300000000000000000000000000000000000BF
:1001400000000000000000000000000000000000AF
:10015000000000000000000000000000000000009F
:10016000000000000000000000000000000000008F
:10017000000000000000000000000000000000007F
:10018000000000000000000000000000000000006F
:10019000000000000000000000000000000000005F
:1001A000000000000000000000000000000000004F
:1001B000000000000000000000000000000000003F
:1001C000000000000000000000000000000000002F
:1001D000000000000000000000000000000000001F
:0401E0005FF8E0F1F3
:1001E4000348044B834202D0034B03B118477047C2
:1001F4005C0000205C000020000000000548064967
:10020400091A891001EBD171491002D0034B03B1D3
:10021400184770475C0000205C00002000000000CC
:1002240010B5064C237843B9FFF7DAFF044B13B13A
:100234000448AFF300800123237010BD5C0000204C
:1002440000000000C85B000808B5044B1BB104495A
:100254000448AFF30080BDE80840CFE70000000089
:1002640060000020C85B000870B50D4E0D4D761B74
:10027400B61006D00024013455F8043B9847A64232
:10028400F9D1094E094D05F09DFC761BB61006D038
:100294000024013455F8043B9847A642F9D170BDB7
:1002A400C05C0008C05C0008C45C0008C05C0008B6
:1002B400844641EA000313F0030349D1403A23D3AF
:1002C4000B6803604B6843608B688360CB68C360D2
:1002D4000B6903614B6943618B698361CB69C361BA
:1002E4000B6A03624B6A43628B6A8362CB6AC362A2
:1002F4000B6B03634B6B43638B6B8363CB6BC3638A
:1003040040304031403ADBD230320BD30B680360CB
:100314004B6843608B688360CB68C36010301031D6
:10032400103AF3D20C3205D351F8043B40F8043BA5
:10033400043AF9D2043208D0D2071CBF11F8013BA9
:1003440000F8013B01D30B8803806046704700BF6F
:10035400082A13D38B07B1D010F00303AED0C3F136
:100364000403D21ADB071CBF11F8013B00F8013B60
:10037400A4D331F8023B20F8023B9FE7043AD9D3D7
:10038400013A11F8013B00F8013BF9D20B780370F4
:100394004B7843708B7883706046704781F00041DE
:1003A40002E000BF83F0004330B54FEA41044FEA56
:1003B400430594EA050F08BF90EA020F1FBF54EAF1
:1003C400000C55EA020C7FEA645C7FEA655C00F08D
:1003D400E2804FEA5454D4EB5555B8BF6D420CDD5E
:1003E4002C4480EA020281EA030382EA000083EAE1
:1003F400010180EA020281EA0303362D88BF30BD81
:1004040011F0004F4FEA01314FF4801C4CEA1131D6
:1004140002D0404261EB410113F0004F4FEA033335
:100424004CEA133302D0524263EB430394EA050FC0
:1004340000F0A780A4F10104D5F1200E0DDB02FA2F
:100444000EFC22FA05F2801841F1000103FA0EF2C3
:10045400801843FA05F359410EE0A5F120050EF189
:10046400200E012A03FA0EFC28BF4CF0020C43FABA
:1004740005F3C01851EBE37101F0004507D54FF0C7
:10048400000EDCF1000C7EEB00006EEB0101B1F517
:10049400801F1BD3B1F5001F0CD349085FEA30005D
:1004A4004FEA3C0C04F101044FEA445212F5800F68
:1004B40080F09A80BCF1004F08BF5FEA500C50F105
:1004C400000041EB045141EA050130BD5FEA4C0CE8
:1004D400404141EB010111F4801FA4F10104E9D171
:1004E40091F0000F04BF01460020B1FA81F308BF68
:1004F4002033A3F10B03B3F120020CDA0C3208DD34
:1005040002F1140CC2F10C0201FA0CF021FA02F10E
:100514000CE002F11402D8BFC2F1200C01FA02F17E
:1005240020FA0CFCDCBF41EA0C019040E41AA2BFA3
:1005340001EB0451294330BD6FEA04041F3C1CDA6B
:100544000C340EDC04F11404C4F1200220FA04F08B
:1005540001FA02F340EA030021FA04F345EA030135
:1005640030BDC4F10C04C4F1200220FA02F001FAF7
:1005740004F340EA0300294630BD21FA04F0294679
:1005840030BD94F0000F83F4801306BF81F4801112
:100594000134013D4EE77FEA645C18BF7FEA655C85
:1005A40029D094EA050F08BF90EA020F05D054EA57
:1005B400000C04BF1946104630BD91EA030F1EBF5C
:1005C4000021002030BD5FEA545C05D14000494160
:1005D40028BF41F0004130BD14F580043CBF01F553
:1005E400801130BD01F0004545F0FE4141F4700139
:1005F4004FF0000030BD7FEA645C1ABF1946104614
:100604007FEA655C1CBF0B46024650EA013406BF14
:1006140052EA033591EA030F41F4002130BD00BFD3
:1006240090F0000F04BF0021704730B54FF4806490
:1006340004F132044FF000054FF0000150E700BF11
:1006440090F0000F04BF0021704730B54FF4806470
:1006540004F1320410F0004548BF40424FF000015D
:100664003EE700BF42004FEAE2014FEA31014FEAA0
:1006740002701FBF12F07F4393F07F4F81F06051EF
:10068400704732F07F4208BF704793F07F4F04BF3A
:1006940041F40021704730B54FF4607401F0004517
:1006A40021F000411CE700BF50EA010208BF704777
:1006B40030B54FF000050AE050EA010208BF704768
:1006C40030B511F0004502D5404261EB41014FF4D1
:1006D400806404F132045FEA915C3FF4D8AE4FF0D9
:1006E40003025FEADC0C18BF03325FEADC0C18BFBC
:1006F400033202EBDC02C2F1200300FA03FC20FA0D
:1007040002F001FA03FE40EA0E0021FA02F1144459
:10071400BDE600BF70B54FF0FF0C4CF4E06C1CEA72
:1007240011541DBF1CEA135594EA0C0F95EA0C0FE3
:1007340000F0DEF82C4481EA030621EA4C5123EA56
:100744004C5350EA013518BF52EA033541F4801185
:1007540043F4801338D0A0FB02CE4FF00005E1FB38
:1007640002E506F00042E0FB03E54FF00006E1FB82
:1007740003569CF0000F18BF4EF0010EA4F1FF04C5
:10078400B6F5007F64F5407404D25FEA4E0E6D4105
:1007940046EB060642EAC62141EA55514FEAC52016
:1007A40040EA5E504FEACE2EB4F1FD0C88BFBCF592
:1007B400E06F1ED8BEF1004F08BF5FEA500E50F143
:1007C400000041EB045170BD06F0004646EA010109
:1007D40040EA020081EA0301B4EB5C04C2BFD4EB3B
:1007E4000C0541EA045170BD41F480114FF0000E34
:1007F400013C00F3AB8014F1360FDEBF002001F0A2
:10080400004170BDC4F10004203C35DA0C341BDC1B
:1008140004F11404C4F1200500FA05F320FA04F0ED
:1008240001FA05F240EA020001F0004221F0004121
:1008340010EBD37021FA04F642EB06015EEA430E94
:1008440008BF20EAD37070BDC4F10C04C4F12005C4
:1008540000FA04F320FA05F001FA04F240EA020077
:1008640001F0004110EBD37041F100015EEA430E48
:1008740008BF20EAD37070BDC4F1200500FA05F268
:100884004EEA020E20FA04F301FA05F243EA0203E7
:1008940021FA04F001F0004121FA04F220EA0200F6
:1008A40000EBD3705EEA430E08BF20EAD37070BD3C
:1008B40094F0000F0FD101F00046400041EB01011C
:1008C40011F4801F08BF013CF7D041EA060195F0FE
:1008D400000F18BF704703F00046520043EB0303B8
:1008E40013F4801F08BF013DF7D043EA06037047A5
:1008F40094EA0C0F0CEA135518BF95EA0C0F0CD0B0
:1009040050EA410618BF52EA4306D1D181EA0301F5
:1009140001F000414FF0000070BD50EA410606BFEF
:100924001046194652EA430619D094EA0C0F02D134
:1009340050EA013613D195EA0C0F05D152EA033679
:100944001CBF104619460AD181EA030101F0004197
:1009540041F0FE4141F470014FF0000070BD41F0E0
:10096400FE4141F4780170BD70B54FF0FF0C4CF4BA
:10097400E06C1CEA11541DBF1CEA135594EA0C0FD9
:1009840095EA0C0F00F0A7F8A4EB050481EA030E26
:1009940052EA03354FEA013100F088804FEA03330D
:1009A4004FF0805545EA131343EA12634FEA0222DB
:1009B40045EA111545EA10654FEA00260EF000419C
:1009C4009D4208BF964244F1FD0404F5407402D2EE
:1009D4005B084FEA3202B61A65EB03055B084FEA7F
:1009E40032024FF480104FF4002CB6EB020E75EB7C
:1009F400030E22BFB61A754640EA0C005B084FEAA4
:100A04003202B6EB020E75EB030E22BFB61A754620
:100A140040EA5C005B084FEA3202B6EB020E75EB6B
:100A2400030E22BFB61A754640EA9C005B084FEAE3
:100A34003202B6EB020E75EB030E22BFB61A7546F0
:100A440040EADC0055EA060E18D04FEA051545EADF
:100A540016754FEA06164FEAC30343EA52734FEA88
:100A6400C2025FEA1C1CC0D111F4801F0BD141EA01
:100A740000014FF000004FF0004CB6E711F4801F66
:100A840004BF01430020B4F1FD0C88BFBCF5E06F46
:100A94003FF6AFAEB5EB030C04BFB6EB020C5FEA56
:100AA400500C50F1000041EB045170BD0EF0004EAB
:100AB4004EEA113114EB5C04C2BFD4EB0C0541EADD
:100AC400045170BD41F480114FF0000E013C90E6DA
:100AD40045EA060E8DE60CEA135594EA0C0F08BF9E
:100AE40095EA0C0F3FF43BAF94EA0C0F0AD150EA9D
:100AF40001347FF434AF95EA0C0F7FF425AF104630
:100B040019462CE795EA0C0F06D152EA03353FF457
:100B1400FDAE1046194622E750EA410618BF52EAD4
:100B240043067FF4C5AE50EA41047FF40DAF52EAA8
:100B340043057FF4EBAE12E74FF0FF3C06E000BF45
:100B44004FF0010C02E000BF4FF0010C4DF804CD52
:100B54004FEA410C7FEA6C5C4FEA430C18BF7FEA12
:100B64006C5C1BD001B050EA410C0CBF52EA430C40
:100B740091EA030F02BF90EA020F0020704710F1C0
:100B8400000F91EA030F58BF994208BF90422CBF4F
:100B9400D8176FEAE37040F0010070474FEA410C48
:100BA4007FEA6C5C02D150EA013C07D14FEA430C66
:100BB4007FEA6C5CD6D152EA033CD3D05DF8040BD7
:100BC400704700BF8446104662468C461946634609
:100BD40000E000BF01B5FFF7B7FF002848BF10F1E0
:100BE400000F01BD4DF808EDFFF7F4FF0CBF012025
:100BF40000205DF808FB00BF4DF808EDFFF7EAFFA1
:100C040034BF012000205DF808FB00BF4DF808ED5B
:100C1400FFF7E0FF94BF012000205DF808FB00BF50
:100C24004DF808EDFFF7CEFF94BF012000205DF8DA
:100C340008FB00BF4DF808EDFFF7C4FF34BF0120E7
:100C440000205DF808FB00BF4FEA410212F50012D4
:100C540015D211D56FF47873B3EB625212D94FEAFF
:100C6400C12343F0004343EA505311F0004F23FAE9
:100C740002F018BF404270474FF00000704750EA3E
:100C8400013005D111F0004008BF6FF000407047FB
:100C94004FF00000704700BF054B1A69120605D5D6
:100CA4000449054A596000205A6070470120704782
:100CB4000020024023016745AB89EFCD034A0020A1
:100CC400136943F080031361704700BF00200240A2
:100CD4002DE9F041036882B0DD07044630D5AB4905
:100CE4004A6802F00C02042A00F0DA804A6802F032
:100CF4000C02082A00F0D0806368B3F5803F00F04E
:100D04000F81002B00F02781B3F5A02F00F0B581EF
:100D14009E4B1A6822F480321A601A6822F48022E8
:100D24001A6000F083FF994D064605E000F07EFF4F
:100D3400801B642800F20B812B689A03F6D5236884
:100D44009F0728D5914A516811F00C0F00F0B68026
:100D5400516801F00C01082900F0AC802369002BD4
:100D640000F0418101228A4B884D1A6000F05EFF39
:100D7400064605E000F05AFF801B022800F2E780D7
:100D84002B689807F6D52B68626923F0F80343EAC9
:100D9400C2032B6023681A0722D5A369002B00F035
:100DA400988001227B4B794D1A6000F03FFF064684
:100DB40005E000F03BFF801B022800F2C8806B6A4C
:100DC4009B07F6D5744B754A1B68A2FB03235B0A89
:100DD400019300BF019B5A1E0192002BF9D1236895
:100DE4005D0739D5694BDA69D00040F1828000256E
:100DF4006B4B1A68D10540F19980E368012B0FD041
:100E0400002B00F0D180052B604B1A6A00F0FC80A7
:100E140022F001021A621A6A22F004021A6204E041
:100E24005A4A136A43F00103136200F0FFFE574E5F
:100E3400804641F2883706E000F0F8FEA0EB080097
:100E4400B84200F28480336A9B07F5D525B14F4A36
:100E5400D36923F08053D361E269CAB14B4D696809
:100E640001F00C01082930D0022A4FF000014D4A4C
:100E740000F0D280116000F0D9FE2C46054604E053
:100E840000F0D4FE401B022861D823689B01F7D4EC
:100E9400002002B0BDE8F0814A68D0037FF52CAF92
:100EA4003A4A126891037FF54BAF6268002A7FF4D7
:100EB40047AF0AE05268D6033FF550AF334A126891
:100EC400950721D52269012A1ED0012002B0BDE870
:100ED400F081304A2D4D136000F0A8FE064604E070
:100EE40000F0A4FE801B022831D86B6A9F07F7D458
:100EF40075E7DA69012542F08052DA61DB6903F0B3
:100F040080530093009B73E7204960690A6822F0CC
:100F1400F80242EAC0020A601A077FF561AF3CE7B3
:100F24001A4A136843F480331360FAE61A681E46BB
:100F340042F480721A6000F079FE07463368DA05DD
:100F44003FF55BAF00F072FEC01B6428F6D90320A6
:100F540002B0BDE8F08103F1804303F504331A685D
:100F64001D4622F480321A601A6822F480221A6024
:100F740000F05CFE064604E000F058FE801B642886
:100F8400E5D82B689B03F7D4D9E600BF00100240D4
:100F9400000042428004424220000020D34D6210EF
:100FA400007000406000424203F1804303F50433C3
:100FB4001A6A1E4622F001021A621A6A41F288383D
:100FC40022F004021A6200F031FE074604E000F049
:100FD4002DFEC01B4045BAD8336A9807F7D4002DBC
:100FE4003FF43AAF33E72B4A2B4D136000F01EFE5B
:100FF400064604E000F01AFE801B0228A7D82B68DE
:101004009907F7D42368C6E642F004021A621A6A02
:1010140042F001021A6208E7116000F007FE06467A
:1010240004E000F003FE801B022890D82B6899018D
:10103400F7D4226AB2F5803F05D16B68A16823F426
:1010440000330B436B600125134B606A59680243FC
:1010540021F4741111480A435A6005601C4600F0DB
:10106400E5FD054605E000F0E1FD401B02283FF6E2
:101074006EAF23689A01F6D50AE703F18043A3F51E
:101084003C331A6842F480221A601A6842F48032AF
:101094001A6046E6000042420010024060004242EC
:1010A400634A136803F007038B420BD2136823F0DF
:1010B40007030B431360136803F007038B4201D04B
:1010C400012070472DE9F041036886B09C0706D5DE
:1010D400584C8568626822F0F0022A436260DA079D
:1010E40004460E4625D54268524B012A1B6800F07F
:1010F4009980022A00F092809D072AD54D4D41F235
:1011040088386B6823F0030313436B6000F08EFD93
:1011140063680746012B64D0022B06D16CE000F013
:1011240085FDC01B404500F281806B6813F00C0FF5
:10113400F5D13F4A136803F00703B3420DD913688E
:1011440023F0070333431360136803F00703B34228
:1011540003D0012006B0BDE8F0812368580706D506
:101164003449E0684A6822F4E06202434A6019079D
:1011740007D5304A2169536823F4605343EAC10315
:10118400536040F201222C4B06ACADF804200FCB87
:1011940004E90F0027494A6802F00C03082B10D019
:1011A400264B244A264852682649C2F30312825C1D
:1011B4000020D3400B6000F009FD002006B0BDE81C
:1011C400F081C2F383432344D20313F8103C19D4AF
:1011D4001D4A02FB03F3E4E700F028FDC01B404571
:1011E40024D86B6803F00C03042BF5D1A1E700F0BD
:1011F4001DFDC01B404519D86B6803F00C03082B78
:10120400F5D196E74A680D49C2F34042224412F8E8
:10121400142CB1FBF2F203FB02F3C2E79F013FF58A
:101224006DAF96E79B033FF569AF92E7032091E723
:101234000020024000100240E05B000800127A0027
:10124400F05B00082000002000093D00014B1868F5
:10125400704700BF20000020044B05495B68054A25
:10126400C3F30223CB5C1068D840704700100240DF
:10127400005C000820000020704700BF00284ED00A
:1012840090F83D3070B503F0FF02044663B30223C7
:101294002268244E84F83D30B24213686168E068E5
:1012A400A56926D006F50066B24222D0B2F1804F7D
:1012B4000BD0A6F59836B24207D006F58066B24246
:1012C40003D006F58066B24207D1A66823F0700306
:1012D4003343266923F44073334323F080032B43C1
:1012E4001360D062916214E080F83C20FFF7C4FFE1
:1012F400CDE7A66823F070033343266923F44073D3
:10130400334323F080032B431360D06291626369FB
:10131400136301230020536184F83D3070BD012024
:10132400704700BF002C01400122036802FA01F15A
:101334001A6A0C4822EA01021A621A6A834241EAD2
:101344000201196208D0084A934205D01A680020A5
:1013540042F001021A6070475A6C42F400425A6427
:10136400F4E700BF002C01400034014090F83C3009
:10137400012B00F0C980F0B40223012480F83D3031
:1013840080F83C400C2A33D8DFE802F007323232CE
:1013940067323232933232323B0003688E681D6A00
:1013A4000F6825F001051D621A6A5D6822F00202C9
:1013B4009C6932436E4E24F07304B34244EA07043A
:1013C40000F0B98006F50066B34200F0B4804E68C0
:1013D4005D609C615E631A629C690D6944F0080457
:1013E4009C61996921F0040199619A692A439A617F
:1013F4000023F0BC012280F83C3080F83D201846E0
:10140400704703688E681D6A0F6825F480551D6255
:101414001A6A5D6822F40052DC6942EA0632544ECC
:1014240024F4E644B34244EA07246FD006F5006688
:10143400B3426BD04E685D60DC611E641A62DC6985
:101444000D6944F40064DC61D96921F48061D961D7
:10145400DA6942EA0522DA61CAE703688E681D6A1E
:101464000F6825F010051D621A6A5D6822F02002DB
:101474009C6942EA06123E4E24F4E644B34244EA2E
:10148400072465D006F50066B34261D04E685D60FE
:101494009C619E631A629C690D6944F400649C61BA
:1014A400996921F4806199619A6942EA05229A61F5
:1014B4009EE703688E681D6A0F6825F480751D62B7
:1014C4001A6A5D6822F40072DC6942EA0622284E38
:1014D40024F07304B34244EA07041DD006F5006601
:1014E400B34219D04E685D60DC61DE631A62DC6968
:1014F4000D6944F00804DC61D96921F00401D96163
:10150400DA692A43DA6173E7022070474E6925F4E9
:10151400804545EA86158DE7CE6822F4006242EAEA
:10152400062225F44055D1E905673E4322F4806242
:1015340045EA0615D6E7CE6822F00802324325F4C0
:101544004075D1E905673E4322F0040235433EE786
:10155400CE6822F0800242EA061225F4406CD1E9FA
:10156400056746EA070522F040024CEA85058DE747
:10157400002C014090F83C30F0B4012B44D00222FE
:101584000125036880F83D209A684C6822F07002B7
:101594000E68224322F007023243502C80F83C505C
:1015A4009A6048D020D9602C32D0702C0AD1D1E96D
:1015B40002520C6999682A4342EA042221F47F41C9
:1015C4000A439A60002101250C46DA6822F04002A1
:1015D400DA60DA6822F48042DA6080F83D5080F8FC
:1015E4003C102046F0BC7047402CEBD11D6A1C6AAD
:1015F4000E6924F001041C629A6922F0F00242EAA6
:1016040006129A611D62DDE702242046F0BC704791
:101614001C6A8D6824F010040E691C6299691A6AA8
:1016240021F4704122F0A00241EA063142EA051297
:1016340099611A62C6E71D6A1E6A8C6826F0010663
:101644000F691E629A6925F00A0122F0F002214313
:1016540042EA07129A611962B4E700BF04220368E0
:1016640002FA01F11A6A002022EA01021A621A6AD5
:10167400114319625A6C42F400425A641A6842F0E7
:1016840001021A60704700BF90F83C30012B22D051
:101694000246D1E9020310B4002423F44073034347
:1016A400486823F480630343086823F40063034316
:1016B400086923F480530343486923F40053034324
:1016C400886923F44043116803434B64204682F83D
:1016D4003C4010BC70470220704700BF90F83C307B
:1016E400012B1ED002460220F0B400250126136807
:1016F40082F83D005C680F6824F070045C605868F0
:101704004C6838435860986820F080009860996865
:1017140028462143996082F83D6082F83C50F0BC31
:1017240070470220704700BF90F82420012A2AD075
:10173400034601201A6883F824009068C00712D475
:101744001248806810F001000DD130B4104CA24250
:1017540012D001209A6A42F020029A62002230BC20
:1017640083F8242070479A6A012042F020029A628A
:10177400002283F82420704754680D6824F47021F3
:1017840029435160EAE70220704700BF0028014066
:10179400002401404FF6FF01064A0002D36800F41A
:1017A400E0600B4043F0BF6343F400330343D36072
:1017B400704700BF00ED00E0184B30B4DB68C3F3A2
:1017C4000223C3F10705042D03F1040428BF0425F3
:1017D400062C19D94FF0FF34033B9C4022EA040441
:1017E4004FF0FF32AA4021EA020101FA03F2224338
:1017F40012010028D2B20ADB00F1604000F561401A
:1018040080F8002330BC704700242346E8E7044BEB
:1018140000F00F0003441A7630BC704700ED00E07E
:10182400FCEC00E0012300F01F01034A40098B4057
:1018340042F82030704700BF00E100E00138B0F109
:10184400807F0DD230B4F02500220721054B064CD1
:10185400586084F82350104630BC9A601960704771
:101864000120704710E000E000ED00E0044A042885
:1018740013680CBF43F0040323F0040313607047A0
:1018840010E000E0704700BF08B5FFF7FBFF08BD9C
:101894002DE9F04F4FF0000883B04446DFF8F8C15B
:1018A400764EDFF8F8E103E00134102C00F0848078
:1018B40001230A68A3401A409342F5D14D68122DC2
:1018C40000F0A88000F28980022D00F09F807ED96C
:1018D400032D00F09880112D02D1CB6803F1040888
:1018E400FF2A6CD882460368A5004FF00F0909FA55
:1018F40005FB23EA0B0308FA05F52B43CAF800306D
:10190400D1F804A01AF0805FCED05D4F24F0030517
:10191400BB6905F1804543F00103BB61BB6905F573
:10192400803503F00103019304F0030B019B4FEA9C
:101934008B0BAB6809FA0BF9604523EA090318D04D
:1019440070456BD04F4FB84200F083804E4FB84281
:1019540000F086804D4FB84200F089804C4FB84269
:101964000CBF4FF005094FF0060909FA0BFB43EAD7
:101974000B03AB6033681AF4803F14BF13439343E3
:10198400336073681AF4003F14BF134393437360C6
:10199400B3681AF4801F14BF13439343B360F3680E
:1019A4001AF4001F04F1010414BF1A4323EA0202CB
:1019B400102CF2607FF47CAF03B0BDE8F08F04F12B
:1019C4008045083D4368AD0000F1040A8DE7ADB1E0
:1019D400012D85D1D1F80C8082E72E4FBD420DD068
:1019E4002AD9DFF8BC904D4508D009F580394D451A
:1019F40004D0A9F580194D457FF472AF8D68A5B95F
:101A04004FF004086CE74FF0000869E7CB6803F176
:101A1400080865E7CB6803F10C0861E74FF001099A
:101A240009FA0BFB43EA0B03A3E7012D0CBF036187
:101A340043614FF0080853E7DFF868904D45DDD067
:101A440009F580394D457FF44BAF8D68002DD7D013
:101A5400EBE74FF0020909FA0BFB43EA0B0388E7B3
:101A64004FF0030909FA0BFB43EA0B0381E74FF03C
:101A7400040909FA0BFB43EA0B037AE7000401406B
:101A84000010024000100140001401400018014001
:101A9400001C01400000211000080140000C01401E
:101AA40000003110000011108368194214BF012096
:101AB4000020704702B9090401617047C3685940A6
:101AC400C16070472DE9F0410446006882B0C50743
:101AD4002AD53A4BDA69D1003DD5394B00251A682D
:101AE400D20546D5354960680A6A12F440720FD0AF
:101AF40000F4407393420BD0012700260B6A314A4D
:101B040023F44070176016600862D80745D46068F3
:101B14002A4A136A23F44073034313621DB1D36941
:101B240023F08053D3612068830706D5234AA16834
:101B3400536823F440430B43536010F0100007D064
:101B440000201E4A6169536823F480030B435360E9
:101B540002B0BDE8F081DA69012542F08052DA6111
:101B6400DB6903F080530193019B154B1A68D2057E
:101B7400B8D41A681E4642F480721A6000F056F80F
:101B840007463368DB05ADD400F050F8C01B642869
:101B9400F7D9032002B0BDE8F0810E4600F046F804
:101BA40041F288378046336A9A07B0D400F03EF891
:101BB400A0EB0800B842F6D9EBE700BF00100240E2
:101BC4000070004040044242704700BF10B5044614
:101BD400074A084B1068A3FB00308009FFF72EFE6C
:101BE400214600224FF0FF30FFF7E6FD002010BD34
:101BF40020000020D34D6210074A08B51368032063
:101C040043F010031360FFF7C5FD0020FFF7DEFF6C
:101C1400FFF7DAFF002008BD00200240024A1368E3
:101C240001331360704700BF80000020014B186827
:101C3400704700BF8000002030B583B00190FFF7EB
:101C4400F5FF0546019C631C18BF0134FFF7EEFF46
:101C5400401BA042FAD303B030BD00BF704700BFA1
:101C6400002875D0836A70B50446002B66D02368BB
:101C74009A68D0074DD4A26AD20644D4A26A5B49BA
:101C840022F4885222F0020242F002028B42A26243
:101C9400E069626878D0D4E9021542EA4502B1F5F8
:101CA400807F42EA000260695DD0012900F08D80E6
:101CB400012800F0988058684D4920F46940586024
:101CC40000209D68294011439960D96A494D21F447
:101CD40070010143D9629B681D40AA423AD0012099
:101CE400A36A23F0120343F01003A362E36A0343DD
:101CF400E36270BDA36A43F01003A362E36A43F096
:101D04000103E362A36AA36A012043F01003A36200
:101D140070BD9A6822F001029A60FFF787FF0546BA
:101D240004E0FFF783FF401B0228E3D823689A6886
:101D3400D107F6D4A26AD206E5D49FE7C36280F83D
:101D44002430FFF78BFF23689A68D007E1D492E729
:101D5400012070470020E062A36A23F0030343F0EC
:101D64000103A36270BD012814D05868204920F4EF
:101D7400694040F48070586098680140114399604C
:101D8400216901390805A0E7B0F5402F08BF4FF4D9
:101D9400002080E70E46EDB9A069451E46EA4535A8
:101DA40045F400665D68124825F4694535435D6075
:101DB4009D68B1F5807F00EA050040EA0200986062
:101DC400DED00129DCD000207FE70128CDD14FF4FB
:101DD4008076E0E7A06A40F02000A062E06A40F06C
:101DE4000100E062DEE70026D5E700BF003C0140C9
:101DF400FDF7E1FFFE0E1FFF90F82430012B66D0A3
:101E04000023012170B5026882B0019393680446EF
:101E140080F82410D80720D4404B41481B689168AF
:101E2400A0FB030341F001019B0C91600193019B12
:101E34002BB1019B013B0193019B002BF9D1FFF7CF
:101E4400F5FE064604E0FFF7F1FE801B022832D8B7
:101E54002268956815F00105F5D0A36A314923F489
:101E6400407323F0010343F480738A42A36230D0A9
:101E7400A36A23F48013A3625368590535D4A36A73
:101E8400002113F4805318BFE36A84F8241018BFA8
:101E940023F00603E3626FF002031360936803F414
:101EA4006023B3F5602F27D00020936843F4801398
:101EB400936002B070BD0120A36A84F8245043F0FB
:101EC4001003A362E36A0343E36202B070BD02201D
:101ED4007047154B596811F4702FC9D0A16A41F4A9
:101EE4008011A1625B685B05C9D5A36A23F44053E2
:101EF40043F48053A362C2E70A4B9A4206D00020FF
:101F0400936843F4A003936002B070BDA3F58063AB
:101F14005B6813F4702FC7D1F1E700BF20000020E5
:101F240083DE1B430028014000240140002270B4DA
:101F340090F8243083B0012B01925FD001234D68C7
:101F44000468062D80F824300A6805EB85034FF0F9
:101F54001F0625D90C2D47D8233B256B9E4025EA27
:101F6400060502FA03F32B432363092A8B684FF017
:101F7400070602EB420123D91E39E5688E408B40E7
:101F840025EA06010B43E360A2F11003012B22D9D9
:101F94000023002280F82420184603B070BC704748
:101FA400053B656B9E4025EA060502FA03F32B43C5
:101FB400092A63634FF007068B6802EB4201DBD802
:101FC40025698E408B4025EA06010B432361A2F16B
:101FD4001003012BDCD81A4B9C4214D0826A0123D3
:101FE40042F020028262D4E7413BE56A9E4025EA42
:101FF400060502FA03F32B43E362B6E7022318460D
:1020040003B070BC7047A3681B02C1D4A368102A34
:1020140043F40003A360BBD10A4B0B4A1B68A2FB29
:1020240003239B0C03EB83035B000193019B002BB5
:10203400AED0019B013B0193019B002BF9D1A7E793
:10204400002401402000002083DE1B43704700BFB2
:1020540000285BD090F83D3070B503F0FF020446D1
:10206400002B4ED02423226884F83D3013682F4D72
:1020740023F001031360FFF7EFF82D4A2368A2FB56
:1020840000126168920CA9425A6024D84900B0FB3E
:10209400F1F0C0F30B01032998BF042001321A6246
:1020A4000022D4E9071620253143D861D4E903601E
:1020B40019603043D4E9051631439860D960196832
:1020C400104641F001011960226484F83D502263F6
:1020D40084F83E2070BD4FF4967505FB02F2154E50
:1020E400A568A6FB0262920901321A6285B901EB66
:1020F4004101B0FBF1F0C0F30B02AAB140F400407F
:10210400CEE780F83C20FFF7A1FFABE70120704742
:1021140001EB810101EB8101B0FBF1F0C0F30B0293
:1021240012B140F44040BBE70120B9E7A0860100AA
:1021340083DE1B43D34D62102DE9F047044682B081
:1021440099460F4690460A9DFFF770FD94F83D307E
:10215400202B03D0022002B0BDE8F087064605E03C
:10216400FFF764FD801B192800F2C98023689A696F
:10217400D24312F0020AF3D094F83C20012AE9D0A9
:1021840001211A6884F83C10D00702D41A680A4363
:102194001A6000214FF0210C10201A6822F400620A
:1021A4001A609A4A84F83DC084F83E002164A4F879
:1021B4002A90E262618DE26AC4F82480042A2185AF
:1021C4006DD0012A6BD012F5803F68D0226B122AA1
:1021D40065D0691C40F086805A69D207FCD5226913
:1021E400B2F5804F40F0BD8007F0FE071F61691C07
:1021F40004D091E05A69570500F195805A69920715
:10220400F8D5002201925A6901929A690192019AC1
:10221400228D002A00F0D6806A1C03D044E05A695B
:10222400500525D45A691706F9D5606A278D421CD2
:1022340062620278791E1A61628D89B2013A92B2A1
:1022440062855A69218552070AD549B1821C6262A6
:102254004278023F1A61628D2785013A92B2628503
:102264006F1C30D15A695007D2D45A695105F9D537
:1022740000226FF48065042020215D61206484F8CD
:102284003C20226384F83D10236C042B40F08D80A5
:1022940022680120136843F4007313605BE71A6833
:1022A40042F480721A6094E75A691106BDD45A69DF
:1022B4005105DDD4002D7AD0FFF7B8FC801B854290
:1022C40075D32368A8E75A695207A1D45A695205FD
:1022D400CED4002D6BD0FFF7A9FC801B854266D3BA
:1022E4002368BDE75A69D0073FF579AF002D4AD07E
:1022F400FFF79CFC801B854245D3236869E72023B4
:102304000220C4F830A084F83CA084F83D3084F85E
:102314003EA002B0BDE8F0875A6990073FF571AF5F
:102324005A69500539D500216FF4806604252020B0
:102334001A6842F400721A605E61256484F83C10E5
:10234400216384F83D00236C236C042B08BF012017
:102354004FF0000318BF032084F83C3002B0BDE8FE
:10236400F087FA1102F0060242F0F0021A616A1CC8
:1023740003D034E05A695105D5D45A691007F9D508
:10238400FFB21F6133E700232022236384F83C302B
:1023940084F83D2084F83E30D6E775B3FFF746FC59
:1023A400801B854229D3236821E70320D3E620211B
:1023B4000022236C84F83C200B432364226384F8BA
:1023C4003D1061E720251968104641F40071196039
:1023D40084F83D5084F83C2084F83E20BBE65A69DA
:1023E4001207CDD45A6951059DD435B1FFF71EFCAF
:1023F400801B854201D32368B9E70023202223638D
:1024040084F83C3084F83D209DE700BF0000FFFFC6
:102414002DE9F047044686B099460F4690460E9D36
:10242400FFF704FC94F83D30202B03D0022006B0C3
:10243400BDE8F087064604E0FFF7F8FB801B192887
:1024440075D822689369DB4313F0020AF4D094F838
:102454003C30012BEAD00121136884F83C10D807E2
:1024640002D413680B431360102000214FF0220C98
:10247400136823F4006313609E4B84F83DC084F812
:102484003E002164A4F82A90E362608DE16A136837
:10249400042943F48063C4F824802085136035D074
:1024A400012933D011F5803F30D0236B112B2DD06F
:1024B4006B1C30D15369D807FCD52369B3F5804F21
:1024C40060D147F00103DBB213616B1C03D0B5E1AB
:1024D4005369580538D453699F07F9D5238D002BC8
:1024E40040F08A8001935369019393690193019B9E
:1024F400136843F40073136000232022184684F801
:102504003D2084F83C3084F83E3090E7136843F46F
:1025140080731360CCE75369D907CED4002D61D002
:10252400FFF784FB801B85425CD32268C0E720232D
:102534000220C4F830A084F83CA084F83D3084F82C
:102544003EA006B0BDE8F08700216FF48066042544
:102554002020136843F4007313605661256484F8E3
:102564003C10216384F83D00236C236C042B08BFCA
:1025740001204FF0000318BF032084F83C3006B05C
:10258400BDE8F0874FEAE71808F0060848F0F003C2
:102594001361681C03D062E153695B05D4D45369A9
:1025A4001907F9D5FFB217616B1C03D068E15369B1
:1025B4005805C9D453699F07F9D500230593536976
:1025C400059393690593059B136843F48073136023
:1025D4006B1C40F079815369DF07FCD548F0F103A7
:1025E400136172E700232022236384F83C3084F8CB
:1025F4003D2084F83E30B8E7012B7DD0022B00F05B
:102604004F810020116841F4806111600490516988
:10261400049192690492049A002B3FF46DAF032B4A
:102624007ED8012B00F0E580022B49D0681C22687B
:1026340040F0A48053695907FCD5136823F48063E0
:10264400136072B62268636A1269591C61621A7057
:10265400638D228D013B013A9BB2228563856F1CF9
:10266400226840F0A38053695807FCD51368616A57
:1026740043F40073136013694A1C62620B70638D28
:10268400228D013B9BB2013A6385228562B62268A2
:10269400636A1269591C61621A70628D238D013A52
:1026A400013B92B29BB262852385B5E753695F070C
:1026B4000CD4002D6DD0FFF7B9FA801B854268D386
:1026C400691C2268F2D153695B07FCD572B6236892
:1026D400616A1A68481C42F400721A601B696062DD
:1026E4000B70638D228D013B013A9BB22285638579
:1026F400CCE700BF0000FFFF136823F4806313607E
:1027040072B60022236802925A6902929A6902926E
:10271400029A1A6842F400721A6062B6238D7BE74B
:1027240045B950E05A69D00677D4FFF77FFA801B89
:10273400A8424FD823685A695706F3D5626A1B69C1
:10274400511C61621370628D2168013A92B2238D2B
:1027540062854A69013B9BB2520723857FF55CAFD2
:10276400636A0A69591C61621A70238D628D013B88
:10277400013A9BB292B2238562854DE753695B07A8
:102784003FF55BAF2DB1FFF751FA801B8542BFF4D3
:102794004DAF002320220320236384F83C3084F8C7
:1027A4003D2084F83E3006B0BDE8F08753695907F0
:1027B4003FF55CAF002DECD0FFF738FA801B854263
:1027C400BFF44DAFE5E723685A695106B6D45A6998
:1027D400D20622D420220021236C84F83C10134317
:1027E400236484F83D20236C202B0CBF032001209C
:1027F4001DE645B91DE05A69D7060ED4FFF716FA4F
:10280400801B8542E6D323685A695206F3D5626A6F
:102814001B69511C61621370A7E700226FF010005E
:1028240020215861226484F83C20226384F83D10FE
:10283400D9E723685A695006C9D5E8E75369990767
:102844003FF54CAE536959053FF57EAE002D4AD095
:10285400FFF7ECF9801B854245D3226835E65369BE
:1028640018073FF59FAE53695B053FF56DAE002D2C
:1028740039D0FFF7DBF9801B854234D3226888E620
:10288400536999073FF599AE536959053FF55CAE15
:102894004DB3FFF7CBF9801B854224D3226883E62E
:1028A400136843F40063136072B600222368039232
:1028B4005A6903929A690392039A1A6822F480620D
:1028C4001A6062B6238DA7E65369D8073FF586AE32
:1028D400002D3FF487AEFFF7A9F9801B8542FFF472
:1028E40081AE226874E600232022236384F83C30FE
:1028F40084F83D2038E600BF704700BF704700BF32
:10290400704700BF704700BF704700BF704700BFEB
:10291400704700BF704700BF704700BF704700BFDB
:10292400F0B5044603688DB09E695A69586894F8F6
:102934003E10C9B210293DD040293BD099491140DD
:10294400002900F0C680870500F183819649974DE0
:1029540031401540002900F0338195491140002988
:1029640000F08581460540F18281002D40F082818E
:1029740094F83D10628DC9B292B2CAB1626A501C19
:10298400606212781A61628D013A92B26285628D38
:1029940092B26AB929290BD1212528215A682046E7
:1029A40022F480625A60256384F83D10FFF7A8FF83
:1029B4000DB0F0BD12F0011F41D0810500F12F814F
:1029C4007C491140002943D07749784D3140154066
:1029D40000295AD076491140002952D0460550D5D5
:1029E400002D00F0A1818005E2D5E16A94F83D2034
:1029F400212ADDD1628D92B2002A40F0438104295C
:102A040005D0082903D011F5803F40F065830021EB
:102A140020205A6822F4E0625A601A6842F4007274
:102A24001A60216384F83D0094F83E302046402B20
:102A340084F83E1000F0EA82FFF75EFFB8E75D49D4
:102A4400114029B18705BFD5616CC9B21961BBE7D3
:102A5400544911400029B7D08505B5D594F83E10E6
:102A6400E76AD4F830C094F83D50C9B2222D00F082
:102A7400948100210A9159690A9199690A910A99E4
:102A8400A2E7002DAFD10DB0F0BD4B491140E1B12B
:102A940041051AD5002D00F01481820588D5E06A1D
:102AA400628D616A92B2032A01F1010500F0F78197
:102AB400628D92B2022A00F00B821B6965620B7070
:102AC400638D013B9BB2638572E7002DE5D10DB0A8
:102AD400F0BD3A4F1740002F3FF438AF85057FF51E
:102AE40035AF94F83D005A681D4622F4E0625A60FE
:102AF4000B915A69C0B20B921A6842F001021A6033
:102B04000B9A1A6822F480621A605A6812050ED56C
:102B140094F83D20222A00F0D58194F83D202A2AF9
:102B240000F0D081626B1268526892B26285628D45
:102B340092B2E2B15A69570709D5626A1B69511CFE
:102B440061621370638D2568013B9BB263856B6979
:102B54005E0608D5636A2A69591C61621A70638D1E
:102B6400013B9BB26385236C43F004032364236C11
:102B7400002B40F03081A0F12802022A40F26E813D
:102B8400236B222B02D022287FF412AF00232022B1
:102B94002363204684F83D2084F83E30FFF7B2FEDC
:102BA40006E700BF02000100040010000400010059
:102BB4008000010008000100400001001000010035
:102BC400AC491140002967D0410565D5002D66D177
:102BD40094F83D10628DC9B292B2002A3FF4E8AE77
:102BE400626A1B69501C60621370638D013B9BB267
:102BF4006385638D9BB2002B7FF4DAAE2A297FF4C0
:102C0400D7AE2225282122682046536823F4806306
:102C14005360256384F83D10FFF774FEC8E694F80A
:102C24003E10402900F02C812169B1F5804F00F05D
:102C3400A880216D002900F02A81216D01297FF4EB
:102C4400C3AE616CC91101F0060141F0F1011961D3
:102C5400BAE699699B6981F004011E06C1F38001FB
:102C640054BFA289228B2046FFF74EFEA0E6002D1A
:102C74003FF49EAE80057FF59BAE628D92B2002A32
:102C84003FF496AE626A511C616212781A61638DD8
:102C9400013B9BB263858BE6002D3FF489AE820530
:102CA4007FF586AE628D92B2002A3FF481AE626AED
:102CB4001B69511C61621370638D013B9BB2638578
:102CC40076E694F83D20222A7FF472AE628D92B2A9
:102CD400032AECD8023A012AE26A40F26E8100210A
:102CE4002025022A1A68606A14BF22F4806242F422
:102CF40080621A605A6822F4E0625A601B69421CBE
:102D040062620370638D2046013B9BB2638584F845
:102D14003D50216394F83E3084F83E10402B00F07F
:102D24000881FFF7EBFD43E694F83D20258D94F8E8
:102D34003E10D2B2C9B2E06A002D40F0FD80212AD3
:102D440000F04B8140297FF433AE222A7FF430AE69
:102D5400628D92B2002A00F03B8194F83E20402A12
:102D640090D1226D002A40F00382E26C012AA26C09
:102D740000F02882C2F307221A61236D0133236510
:102D840016E694F83D102129616C16BF41F001014B
:102D940001F0FE01C9B2196116E6256D15B9402985
:102DA40000F03781256D25B92169B1F5404F00F058
:102DB4006A81618D89B2002940F0DC8002915969F1
:102DC4000291996902910299196841F4007119609C
:102DD40000212165F8E594F83D202368293A012A69
:102DE40040F2E58094F83D20602A05D05A68150524
:102DF4005CBF202284F83D200022226384F83E2018
:102E04001A6822F400621A605A6812F4006200F030
:102E14009780616B5A6891F8210022F400620128BE
:102E24005A6000F0FD80144B08464B6300F0A4FB8D
:102E340050B120252268606B1368416B23F00103B5
:102E4400136084F83D50884794F83D30282B7FF474
:102E5400AFAD236C5F077FF5ABAD0023202207499C
:102E64002046E162236384F83D2084F83E30FFF776
:102E74004DFD9DE540000100F93100080000FFFF11
:102E8400216DC9B9616C01F0FE0119619CE5616CA9
:102E9400C91101F0060141F0F001196194E504281B
:102EA40005D0082803D010F5803F7FF406AE1A68D9
:102EB40022F480621A6000E6616C41F00101C9B23B
:102EC400196181E5A26B1268526892B262852EE69E
:102ED400042846D0082844D010F5803F41D01A6811
:102EE400022814BF22F4806242F480621A605A6895
:102EF40022F440725A60202000221B6965620B7024
:102F0400638D2168013B9BB26385636A09695D1C1B
:102F140065621970638D013B9BB2638584F83D0043
:102F2400226394F83E302046402B84F83E207FF400
:102F3400F8AEFFF7EFFC3BE5212A3FF409AF01E7C8
:102F440094F83D10602900F089805A69520604D52E
:102F5400626A1B69511C616213702046FFF7DCFC36
:102F640072E75A6822F440725A601A6842F4007296
:102F74001A60C0E7618D89B2012900F09280618DE9
:102F840089B2022900F0B580196841F480611960A2
:102F940059680F0503D5596841F4805159600021DF
:102FA40009915969099199690991099910E70021D1
:102FB4002822216384F83D2022E7022A1A6800F0BF
:102FC400F28022F480621A601A6842F400621A6085
:102FD4005A6822F480625A60EAE404283FF417AD88
:102FE40008283FF414AD10F5803F3FF410AD1126CE
:102FF40020215A68204622F4E0625A60266384F84D
:103004003E5084F83D10FFF777FCD1E4FFF780FCD5
:10301400CEE4009559690091996900910099D3E42F
:10302400A36B734A18465A6300F0A6FA00283FF4CB
:103034000BAF23685A69500605D5626A1B69511C97
:1030440061621370236820211A68A06B22F00102C8
:103054001A60436B84F83D109847F5E6202184F804
:103064003D1022645A69510605D5626A1B69511CD8
:103074006162137023681A68204622F001021A6004
:10308400FFF74CFCE0E601955969019199690191BA
:103094000199196841F480711960216D013121652C
:1030A40092E417F5803F4FD0042F3DD0082F3BD03A
:1030B400BCF1120F38D0E16A0229196814BF21F457
:1030C400806141F48061196000210591596905917D
:1030D4009969059105997BE61126202559682046B2
:1030E40021F4E0615960266384F83E2084F83D5061
:1030F400A2E4E16A0025022919684AD041F400617A
:103104001960079559690791996907910799196891
:1031140021F480611960596809057FF559AE596831
:1031240041F48051596053E60025196821F4806107
:103134001960069559690691996906910699196865
:1031440041F40071196043E6196821F48061196043
:10315400596811F400612AD00025196821F48061AE
:1031640019600395596903919969039103992FE6AD
:10317400226D012A2DD0226D022A7FF419AC94F815
:103184003D20222A2DD094F83D20212A7FF410AC32
:1031940078E541F480611960089559690891996945
:1031A40008910899B7E742F480621A6010E7049125
:1031B40059690491996904910499196841F4007159
:1031C400196005E6D2B21A61236D02332365FFF755
:1031D400EFBBA26CD2B21A61236D01332365FFF7F2
:1031E400E7BB1A6842F480721A60FFF7E1BB00BFC4
:1031F400F931000838B50023406A0268456B11684C
:10320400846B21F480611160438590F83D106B63F9
:1032140060294FF02001636380F83D1080F83E3050
:1032240006D0136823F001031360FFF775FB38BD64
:103234000364136823F001031360FFF76FFB38BDC9
:103244000268F8B553690446A2485168034203F47E
:10325400813028D0CD0526D56FF48076256C45F0D5
:10326400010525645661156845F40045156000287C
:1032740000F0A2806FF40075206C13F4823F40F0DC
:1032840002002064556103F484351FD145B1CE0595
:1032940006D56FF40061236C43F008032364516185
:1032A400236C6BBBF8BD50B1C805E3D413F4823F63
:1032B40003F48435EAD0236C002BF3D020E013F41C
:1032C400823F03F48435E1D0CF05E9D594F83E007C
:1032D400638D94F83D1020289BB2C9B2266B71D03F
:1032E400236C43F00403236494F83E30102B00F065
:1032F40097806FF480635361002DD1D02268C8E7B2
:1033040094F83D202368293A012A40F28E8094F8EB
:103314003D20602A05D05A6815055CBF202284F838
:103324003D200022226384F83E201A6822F40062C1
:103334001A605A6812F4006222D194F83D10602990
:1033440079D05A69520604D5626A1B69511C6162BC
:1033540013702046FFF7E0FA94F83D30282BA1D1F2
:10336400236C5B079ED5002320225B492046E16243
:10337400236384F83D2084F83E30FFF7C7FAF8BD94
:10338400616B5A6891F8210022F4006201285A60A6
:1033940066D0524B08464B6300F0EEF80028DBD0B1
:1033A40020252268606B1368416B23F001031360CE
:1033B40084F83D508847CFE713F4823F03F4843503
:1033C40084D163E7002B8BD101F0F703212B03D0C9
:1033D400282985D1212E83D194F83D30E16ADBB2CE
:1033E40004295BD0082959D0212B82D10020202622
:1033F4006FF48061384FE762236384F83D6084F89A
:103404003E005368204623F4E0635360516113681F
:103414000B401360FFF774FA002D3FF441AF6DE7E2
:10342400136843F40073136063E7002128222163C7
:1034340084F83D2079E7202184F83D1022645A69FC
:10344400510605D5626A1B69511C616213702368B9
:103454001A68204622F001021A60FFF75FFA7BE740
:10346400A36B1E4A18465A6300F086F800283FF4FE
:1034740073AF23685A69500605D5626A1B69511CEB
:1034840061621370236820211A68A06B22F0010284
:103494001A60436B84F83D1098475DE7282BA3D14D
:1034A4006FF48060002120260B4BE362536823F401
:1034B400E063536050611368034013602046216346
:1034C40084F83D6084F83E10FFF720FA002D3FF4A5
:1034D400E7AE13E7000101000000FFFFF931000827
:1034E40000283AD003461E4A0068F0B490422BD913
:1034F4001C491D4A0144A2FB01211C4F09098900F2
:103504000024D3E9012601253243DE6819643243DD
:10351400D3E9046132439E690A4301683243DE6998
:1035240021F47F51324321F030010A43DF6302600A
:103534002046C3E90A44C3E90C449C6383F8204051
:1035440083F82150F0BC70470949074A0144A2FBA3
:10355400012109098900074FD2E70120704700BF04
:1035640007040240F8FBFDBFCDCCCCCC00040240E4
:10357400F8FFFDBF0000024090F8213010B5022B87
:1035840004D0042201248263204610BD0368464906
:103594001A688B4222F00E021A601A6822F00102A5
:1035A4001A60424A24D9934255D0143293425CD0D3
:1035B4001432934260D01432934250D01432934266
:1035C4005FD01432934262D08B4266D002F56772A8
:1035D400934240D01432934247D0143293424BD09A
:1035E4001432934214BF4FF480334FF4805333E0CA
:1035F400934222D01432934239D01432934238D0B9
:10360400143293422ED0143293423DD0143293425A
:1036140040D08B4244D002F5677293420DD01432ED
:10362400934224D01432934223D01432934214BFD1
:103634004FF480334FF4805300E001231C4A53605D
:1036440001220024436B80F8212080F82040B3B18C
:103654009847204610BD0123164A5360F0E74FF403
:103664008053F9E74FF48053E8E71023F4E710237D
:10367400E4E74FF48073E1E74FF48073ECE71C4612
:1036840082E74FF48033E7E74FF48033D6E74FF413
:103694008013E1E74FF48013D0E74FF08073DBE74A
:1036A4004FF08073CAE700BF800002400800024068
:1036B4000000024000040240042270B4D0E90F610B
:1036C400346803688A4022421D6842D06A0740D5A4
:1036D4001A68910603D41A6822F004021A609C4AFC
:1036E4009C49934240F292808B4200F0F080143166
:1036F4008B4200F0F48014318B4200F0E3801431EB
:103704008B4200F0F78014318B4200F0FF801431BB
:103714008B4200F00481934200F00D8102F5627245
:10372400934200F0D4801432934200F0D8801432D3
:10373400934200F0C7801432934214BF4FF48023A5
:103744004FF48043844A5360C36A002B5CD170BC3D
:10375400704702228A4022423FD0AA073DD51A6808
:10376400910606D401211A6822F00A021A6080F830
:103774002110774A774993426FD98B4200F0A98090
:1037840014318B4200F0998014318B4200F0A980EF
:1037940014318B4200F0B18014318B4200F0BC80B4
:1037A40014318B4200F0C480934200F0CD8002F5C6
:1037B4006272934200F08D80143293427DD01432B1
:1037C400934200F08E801432934214BF4FF40032BF
:1037D4004FF40052604B5A6064E008228A4022424F
:1037E400B5D02A07B3D5012200251C6802FA01F1DD
:1037F40024F00E041C60036B7160826380F8212046
:1038040080F82050002BA2D070BC18478B425CD0AB
:1038140014318B4261D014318B4250D014318B421D
:1038240065D014318B426ED014318B427AD09342DE
:1038340000F08480494A934247D0143293424CD0DA
:10384400143293423BD01432934214BF4FF480237A
:103854004FF48043424A536076E78B423BD01431A5
:103864008B4228D014318B423ED014318B4247D046
:1038740014318B424DD014318B4256D0934260D0D8
:10388400364A934227D01432934214D014329342CE
:103894002AD01432934214BF4FF400324FF4005232
:1038A4002F4B5A600022836A80F82020002B3FF4BB
:1038B4004EAF70BC18472022F2E720228AE74FF46B
:1038C4008063C7E74FF480633CE70423C2E7042323
:1038D40038E702227EE70222E2E74023BAE74023E8
:1038E40030E74FF4007275E74FF40072D8E74FF4F5
:1038F4008043AFE74FF4804324E74FF4005269E775
:103904004FF40052CCE74FF48023A3E74FF4802315
:1039140018E74FF40032C3E74FF400325AE74FF48C
:1039240080030FE74FF4800394E74FF40012B7E7E6
:103934004FF400124EE74FF0806303E74FF08063CB
:1039440088E74FF00072ABE74FF0007242E700BF28
:1039540080000240080002400004024008040240C3
:103964000000024038B50124826990F914301568CA
:10397400AC4064B2CD074CBF2343A3430124DBB264
:10398400037555685BB2AC408D074CBF2343A3431A
:103994000124DBB2037595685BB2AC404D074CBFA4
:1039A4002343A34311F0080F4FF00101DBB2037569
:1039B400D2685BB201FA02F1084C14BF0B438B438B
:1039C400D9B2237801750BB1012038BD203000F045
:1039D400A9FD0028F9D00120207038BD780000200E
:1039E4002DE9F041012704468269037D9069834DE6
:1039F40007FA00F023EA00035BB295F800C0D8B2DE
:103A040082B08846207504F12006BCF1000F55D021
:103A1400116907FA01F123EA01035BB223755169C5
:103A240007FA01F11943C9B2217501239269934040
:103A34001943217501274146304600F089FDA369E9
:103A440098F80020DB6807FA03F3134088F8003085
:103A5400A269D268134188F80030A069237D826985
:103A640095F800C007FA02F223EA02035BB2D9B266
:103A74002175BCF1000F4BD0826997403B432375FD
:103A840001270DF10701304600F062FDA069237D96
:103A9400826995F800C007FA02F223EA02035BB2D6
:103AA400D9B22175BCF1000F22D04269974023EAB4
:103AB40007032375002002B0BDE8F08101463046BB
:103AC40000F030FDA269002853D01369217D2F70C6
:103AD4009F4021EA070121750120536900FA03F38D
:103AE400194349B221759369984001432175A1E7AF
:103AF400304600F017FDA36938B300205B69227DCE
:103B04002F709F4022EA0707277502B0BDE8F081B5
:103B1400304600F007FDA36930B19B69227D2F7008
:103B24009F4017432775ABE79969227D07FA01F196
:103B340011432B78C9B22175002BA1D1304600F076
:103B4400F1FC00289CD02F709AE75B69217D07FA6D
:103B540003F32A7821EA03012175002AAAD1304609
:103B640000F0E0FC0028A5D000202F7002B0BDE8D2
:103B7400F0811369217D07FA03F3287821EA030110
:103B840021750028A8D1304600F0CCFCA26940B1D0
:103B94005169237D07FA01F11943C9B22F702175C8
:103BA40043E7536994F814C007FA03F141EA0C019E
:103BB4002878C9B2217500287FF437AF304600F069
:103BC400B1FCA36930B19969237D2F708F401F43E5
:103BD40027752FE79969227D07FA01F111432B78A4
:103BE400C9B22175002B7FF425AF304600F09AFC52
:103BF40000283FF41FAF2F701CE700BF780000209F
:103C04002DE9F041044601278069237D8269B74E7E
:103C140007FA02F223EA02035BB296F800C0DAB2B2
:103C240082B00D462275BCF1000F00F04E8102698E
:103C3400974023EA07032375012729092046FFF744
:103C440091FEA269217D9369307807FA03F30B434F
:103C54005BB2D9B22175002800F05981926997406E
:103C640023EA07032375012729462046FFF77AFE36
:103C7400A269217D9369307807FA03F30B435BB2A1
:103C8400D9B22175002800F033819269974023EA64
:103C9400070323750DF106012046FFF7A1FEFDF78A
:103CA400C5FF9DF806508046012D40F0978004F131
:103CB400200753E0116905FA01F123EA01035BB21D
:103CC4002375516905FA01F11943C9B22175936944
:103CD40005FA03F3194321750DF10601384600F086
:103CE40037FCA069237D8169D0F80CC005FA01F185
:103CF4009DF8062023EA010305FA0CF10A405BB2A1
:103D040096F800E0D9B242FA0CF221758DF806203B
:103D1400BEF1000F66D0826905FA02F213432375DF
:103D24000DF10701384600F013FCA069237D826978
:103D340096F800C005FA02F223EA02035BB2D9B294
:103D44002175BCF1000F37D0426905FA02F223EA6B
:103D5400020323759DF80630012B3FD1FDF766FF62
:103D6400636AA0EB0800984238D2A269237D916966
:103D7400307805FA01F123EA01035BB2D9B2217567
:103D8400002897D1384600F0CDFBA269217D136944
:103D9400002844D005FA03F321EA030135702175A4
:103DA400536905FA03F3194349B22175936905FA76
:103DB40003F3194321758FE7384600F0B3FB00285D
:103DC40043D0A269237D5269357005FA02F223EAD1
:103DD400020323759DF80630012BBFD0002002B0EA
:103DE400BDE8F081384600F09DFBA369227D30B127
:103DF4009B69357005FA03F31343237590E79969BA
:103E0400337805FA01F11143C9B22175002B87D12A
:103E1400384600F087FB002882D0357080E705FA29
:103E240003F3307821EA030121750028B8D138461C
:103E340000F078FBA269E0B15369207D05FA03F133
:103E44000143C9B23570217541E7A369217D5B69DE
:103E5400327805FA03F321EA03012175002A7FF47D
:103E640079AF384600F05EFB00283FF473AF35703D
:103E740070E7536994F814C005FA03F141EA0C01A0
:103E84003078C9B2217500287FF421AF384600F09C
:103E940049FBA369227D30B19B69357005FA03F3B0
:103EA4001343237518E79969337805FA01F111432F
:103EB400C9B22175002B7FF40FAF384600F032FBF6
:103EC40000283FF409AF357006E704F120081146D5
:103ED400404600F027FBA36900284ED01A69237DD1
:103EE4003770974023EA07072775A5E67800002076
:103EF40004F12005284600F015FB50B3A269237D88
:103F040092693770974023EA07072775C2E604F1E0
:103F14002008404600F006FBA36938B19A69237D66
:103F24003770974023EA070727759CE69B69217D34
:103F340007FA03F3327821EA03012175002A7FF49A
:103F440092AE404600F0EEFA00283FF48CAE377093
:103F540089E6A369217D9B69327807FA03F321EA94
:103F640003012175002A7FF495AE284600F0DAFAA1
:103F740000283FF48FAE37708CE61B69217D07FA69
:103F840003F3327821EA03012175002A7FF454AE49
:103F9400404600F0C7FA00283FF44EAE37704BE6B7
:103FA4002DE9F04100230125027F4570C370837021
:103FB40012B10120BDE8F081AF4B00F120070446A7
:103FC4008361384600F0A6FA0028F2D13220FDF7CA
:103FD40033FEA069237D0269A84E05FA02F223EAA2
:103FE40002035BB23278D9B22175002A00F0A680B0
:103FF400426905FA02F223EA02035BB2237582697D
:10400400954023EA05052575012503212046FFF780
:10401400A9FCA369227D9969337805FA01F111435A
:10402400C9B22175002B00F0BD8001252846FDF79B
:1040340003FEA369217D9B69327805FA03F321EA23
:1040440003012175002A00F0A58001250520FDF754
:10405400F3FD03212046FFF785FCA369227D9969BE
:10406400337805FA01F11143C9B22175002B00F030
:10407400898001252846FDF7DFFDA369217D9B6921
:10408400327805FA03F321EA03012175002A72D07C
:1040940001252846FDF7D0FD03212046FFF762FCE9
:1040A400A369227D9969337805FA01F11143C9B2F4
:1040B4002175002B00F0858001252846FDF7BCFD05
:1040C400A369217D9B69327805FA03F321EA030190
:1040D4002175002A6ED001252846FDF7ADFD022189
:1040E4002046FFF73FFCA369227D9969337805FADE
:1040F40001F11143C9B22175002B6AD0012528466C
:10410400FDF79AFDA369217D9B69327805FA03F3D3
:1041140021EA030121753AB30120FDF78DFD3378BF
:10412400002B5DD0012363700123A169227DC9693D
:104134008B40134323750020BDE8F081384600F01E
:10414400F1F9A369002800F09B805A69217D35703C
:10415400954021EA0501217501229B6902FA03F3C6
:1041640021EA030121754FE7384600F0DBF9002806
:10417400D2D03570D0E7384600F0D4F9002887D083
:10418400357085E7384600F0CDF900283FF471AF6B
:1041940035706EE7384600F0C5F900283FF455AF96
:1041A400357052E7384600F0BDF900283FF43DAFC2
:1041B40035703AE7384600F0B5F900288BD03570F1
:1041C40089E7384600F0AEF900283FF475AF357042
:1041D40072E7384600F0A6F900288FD035708DE7D5
:1041E40021782046C900C9B241F02001FFF708FD3B
:1041F400A178E378490041F008013578C9B2194340
:104204008DB92046FFF7FCFC3378002B63D10121E4
:104214002046FFF7F5FC3378002B5CD106212046BD
:10422400FFF7EEFC35784FF0010884F80180002D8B
:104234007FF47AAFA378E17803FA08F343F00C0330
:10424400DBB219432046FFF7DBFCA369227DD96961
:10425400337808FA01F11143C9B22175002B7FF4B8
:104264006AAF384600F05EF900283FF464AF86F880
:10427400008028469EE600BF000000207800002051
:104284005A69217D05FA02F2307821EA020121758A
:1042940000287FF461AF384600F044F9A36938B1CF
:1042A4009A69237D3570954023EA05052575ABE6AB
:1042B4009B69217D05FA03F3327821EA0301217514
:1042C400002A7FF4A1AE384600F02CF900283FF410
:1042D4009BAE357098E60123A2696370D169227D93
:1042E4008B401343237526E7054B1B780BB1012044
:1042F400704701EB821161F07F01C9B2FFF780BC06
:1043040078000020002900F0F7802DE9F0470446EA
:1043140001257A4E82B04F1E01F14F0817F8013F74
:10432400002B7ED00DF107012046FFF759FBFDF766
:104334007DFC9DF807308146012B09D00FE00DF17B
:1043440007012046FFF74CFB9DF80730012B06D1EF
:10435400FDF76CFC636AA0EB09009842EFD3A069F7
:10436400237D826996F800C005FA02F223EA02036B
:104374005BB2D9B297F800902175BCF1000F64D0FC
:10438400026905FA02F2134323754FEA1911204614
:10439400FFF7E8FAA269217D9369307805FA03F3FF
:1043A4000B435BB2D9B2217500285DD0926905FA3E
:1043B40002F223EA0203237549462046FFF7D2FAA4
:1043C400A269217D9369307805FA03F30B435BB24C
:1043D400D9B2217548B3926905FA02F223EA0203BD
:1043E40023750DF107012046FFF7FAFAFDF71EFCCD
:1043F4009DF807308146012B09D00FE00DF107012C
:104404002046FFF7EDFA9DF80730012B06D1FDF7A2
:104414000DFC636AA0EB09009842EFD3B8457FF422
:104424007DAF002002B0BDE8F08704F120094846C2
:1044340000F078F840B3A269237D9269357005FADB
:1044440002F223EA02032375CBE704F1200A504663
:1044540000F068F8A369227D40B31B69357005FA42
:1044640003F31343237590E704F1200A504600F048
:1044740059F868B3A269237D9269357005FA02F28E
:1044840023EA0203237597E7A369217D9B693278A8
:1044940005FA03F321EA03012175002AA1D1484654
:1044A40000F040F800289CD035709AE719693378F9
:1044B40005FA01F11143C9B22175002B7FF465AFF0
:1044C400504600F02FF800283FF45FAF35705CE7EA
:1044D400A369217D9B69327805FA03F321EA03017C
:1044E4002175002A7FF468AF504600F01BF80028BD
:1044F4003FF462AF35705FE700207047780000201A
:10450400034B1B780BB1012070470121FFF778BBE7
:104514007800002002460378002003F0070313709C
:10452400704700BF10B5044610F8083B84B06468B7
:1045340004AA5B0002F8011D43F04001009401232A
:10454400FDF7FAFD003018BF012004B010BD00BF14
:10455400034610B513F8082B446882B05000009449
:104564000A4640F0400118460123FDF751FF003090
:1045740018BF012002B010BD30B44FF41F054FF036
:1045840000640E4B0E4A19680E4841F0010119608F
:1045940059680A405A601A6822F0847222F4803200
:1045A4001A601A6822F480221A605A6822F4FE0201
:1045B4005A609D60846030BC704700BF00100240A8
:1045C4000000FFF800ED00E001212DE9F043494D22
:1045D4008BB0EB69042243F48003EB61EB690E209A
:1045E40003F480030193019B6B6900240B436B610B
:1045F4006B69414E0B400293029BFDF7DDF80E20E0
:10460400FDF710F9032201210F20FDF7D5F80F2043
:10461400FDF708F94FF480433849394A3046C6E972
:1046240000123361C6E90244C6E90544C6E90744F9
:10463400FDF70EFD0121122003224FF440674FF0D5
:1046440080094FF480586B690B436B616B690B40B5
:104654000393039BAB6943F00803AB61AB69CDE9FA
:10466400070103F0080306A9049326480697049B50
:104674000992FDF70DF9EB69234F43F48003EB61D5
:10468400EB69224A03F4800305933846059B3A609C
:10469400C7E90144C7E90444BC61C7F80C90C7F8F2
:1046A4001C80FEF71DFF1023194D1A4A2846C5E940
:1046B4000023B7637E62C5F80C90AC60C5E904447E
:1046C400C5E90648FEF70CFF224621462120756302
:1046D4006E62FDF771F82120FDF7A4F82246214609
:1046E4002220FDF769F82220FDF79CF80BB0BDE805
:1046F400F08300BF00100240F80000200058004082
:10470400A0860100000C01408C01002058000240EA
:10471400D00100204400024020222DE9F04F4FF048
:10472400020800267F4B8BB099690AAC41F0040162
:10473400996199697C4F01F0040103910399996986
:10474400384641F00801996199694FF0800B01F0F6
:104754000801049104999969744D41F0100199611B
:104764009B6944F8102D03F0100305932146019230
:10477400059BCDE90766CDF82480FDF789F8402331
:10478400214638460693FDF783F821463846CDF88E
:1047940018B0FDF77DF84FF4806321462846069350
:1047A400FDF776F84FF400634FF4805A214628460B
:1047B40006F1804606F584360693FDF769F821462E
:1047C4002846CDF818A0FDF763F821463046CDF809
:1047D40018A0FDF75DF8214630464FF00109CDF8E9
:1047E4001880FDF755F80423214638460693CDF882
:1047F4001C90FDF74DF81023214630460693FDF733
:1048040047F8019A214630460692FDF741F8032302
:1048140021462846CDE90693FDF73AF8214630466D
:10482400CDF81890FDF734F808232146284606935E
:10483400FDF72EF821462846CDF81880FDF728F814
:104844001023214628460693FDF722F8019A2146B3
:1048540028460692FDF71CF80423214628460693B1
:10486400FDF716F80823214630460693FDF710F8A5
:104874000423214630460693FDF70AF840234FF4FB
:10488400807A21462846CDE90638FDF701F821460D
:104894002846CDF818B0FCF7FBFF28462146CDF892
:1048A40018A0FCF7F5FF21463046CDF818B0FCF708
:1048B400EFFF21463846CDF81890FCF7E9FF214672
:1048C4003846CDF81880FCF7E3FF21463046CDF892
:1048D40018A0FCF7DDFF4FF4007321463046069321
:1048E400FCF7D6FF4FF48063304621460693FCF76D
:1048F400CFFF4FF40053214638460693FCF7C8FF18
:104904004FF48043214638460693FCF7C1FF4FF429
:104914000043214638460693FCF7BAFF0BB0BDE8C6
:10492400F08F00BF00100240000C01400010014055
:104934002DE9F04F00244FF020084FF4FA63704A39
:104944009BB091696F4E41F4006191619169DFF808
:10495400BC9101F40061039103999169746041F47D
:10496400005191619269304602F400520492C6E902
:1049740002830193049A3461C6E90544C6F80090A1
:10498400FCF77CFC102205A9304608274FF0600B89
:10499400CDE90524FCF7A2FE4FF4007322460CA9CE
:1049A40030461293CDE90D44CDE91044CDF830B032
:1049B4000F97FCF7DBFC0CA930460422FCF7D6FC6D
:1049C4003A460CA93046FCF7D1FC4FF400624FF490
:1049D40080634D4D13A93046CDE91323DFF830A190
:1049E400CDE91548CDE917441994FCF74DFE019B18
:1049F4002846EB60C5E90148C5E90444AC61C5F843
:104A040000A0FCF73BFC802305A92846CDE90583DB
:104A1400FCF764FE05231AA941F84C3D2846089486
:104A2400FCF7A8FD4FF4007322460CA92846129304
:104A3400CDE90CB4CDE90E47CDE91044FCF796FC62
:104A44000CA928460422FCF791FC3A460CA92846F6
:104A5400FCF78CFC4FF4006C4FF4806313A92846D8
:104A6400CDE913C3CDE91548CDE917441994FCF7F2
:104A74000BFEDAF84430214623F40043CAF84430EC
:104A8400D9F84430284623F40043C9F84430FCF7ED
:104A94004BFC28460421FCF747FC39462846FCF722
:104AA40043FC21462846FCF7D9FD28460421FCF79F
:104AB400D5FD39462846FCF7D1FD21463046FCF7A2
:104AC40033FC30460421FCF72FFC39463046FCF712
:104AD4002BFC21463046FCF7C1FD30460421FCF78F
:104AE400BDFD39463046FCF7B9FD01212B6832681B
:104AF400196313680B4313601BB0BDE8F08F00BF4C
:104B0400001002404C010020DC020020002C014077
:104B1400003401402DE9F0434FF48077424E0025E4
:104B24004FF005084FF44022B369404C43F400733E
:104B3400B361B369A7604FF4C02787B03C4903F45D
:104B4400007301932046019B2160E261E560656189
:104B54006560C4F81080FDF783F8364A06A95368E7
:104B6400204643F48023536041F8187DFCF7DCFDB4
:104B74000E2201234FF0020903A920460392CDE936
:104B84000433FDF7D3F903A920460B27CDE90359D4
:104B9400FDF7CCF9032303A9CDF8149020464FF078
:104BA4000C09CDE90373FDF7C1F904230DEB0901E9
:104BB4002046CDE90393FDF7B9F90DEB0901204631
:104BC400CDE90398FDF7B2F940F6A22C22681A4BFE
:104BD4009168DFF86CE041F4807191609168174C42
:104BE40041F00101916071692A4641F0010171614E
:104BF4007069294600F00100029002981D60C3F814
:104C04000480C3F808E0DC60C3F800C01C683846C0
:104C140044F001041C60FCF7CFFD3846FCF702FEAB
:104C240007B0BDE8F08300BF00100240140200206A
:104C340000240140000001400800024088020020D6
:104C44004C2401404FF48070F0B5002305274FF445
:104C54006025254A254C9169A06041F480619161E9
:104C6400926985B0224902F4806200922046009A3B
:104C74002160E561E360636163602761FCF7F0FF35
:104C84000F22012301A9204601920225CDE9023316
:104C9400FDF74CF90D2301A92046CDE90135032682
:104CA400FDF744F90A2301A92046CDE9013603950D
:104CB400FDF73CF9042320460DEB0301CDE9015334
:104CC400FDF734F901A92046CDE90167FDF72EF976
:104CD40023689A6842F480729A609A6842F00102EA
:104CE4009A6005B0F0BD00BF00100240C80000206B
:104CF4000028014070B5052306461D4C542284F853
:104D0400201004F128001B496362FBF7D1FA731EDB
:104D1400032B05D8DFE803F029262302032323709D
:104D2400002513482577FFF73BF91148FFF7E8FB07
:104D34000520FCF781FF2A4629460D48FFF7D4FADF
:104D44000D490B48FFF7DEFA294672080848FFF7B9
:104D5400CBFABDE8704009490548FFF7D3BA0223EE
:104D64002370DDE701232370DAE700232370D7E7FC
:104D74001C030020F8000020085C0008145C0008F4
:104D840070B5002000F0E0FC00F0BAFE0023164CE1
:104D94001A46202115482370FCF78CFE00F0A6FC6F
:104DA40000F0FCFC114C124E02212046FCF77CFE64
:104DB4000028F9D000F094FC0546002005F548656C
:104DC40000F0C2FC04E002212046FCF76DFE20B195
:104DD40000F086FCA842F6D370BD304600F0A4FC77
:104DE400012000F0B1FCDFE7A0030020000801402F
:104DF4007D5A000870B5002000F0A6FC00F086FE85
:104E04000023164C1A46202115482370FCF752FE45
:104E140000F06CFC00F0C2FC114C124E0221204642
:104E2400FCF742FE0028F9D000F05AFC05460020A9
:104E340005F5486500F088FC04E002212046FCF7F3
:104E440033FE20B100F04CFCA842F6D370BD3046CE
:104E540000F06AFC012000F077FCDFE7A0030020EB
:104E6400000801407D5A0008F0B54E4D97B0FCF79C
:104E7400C3FEAB69032043F00103AB61AB690224B9
:104E840003F001030093009BFCF784FC00226FF005
:104E94000B001146FCF790FC00226FF00A0011464B
:104EA400FCF78AFC00226FF009001146FCF784FC31
:104EB40000226FF004001146FCF77EFC00226FF024
:104EC40003001146FCF778FC00226FF00100114644
:104ED400FCF772FC00224FF0FF301146FCF76CFC2B
:104EE4000026012710224FF460130CA80C9413948D
:104EF400CDE91072CDE91463FBF7EAFE0F224FF4FB
:104F04008063214601A80192CDE9024604930596E7
:104F1400FCF7C6F84FF4404306A808930694FCF740
:104F2400D1FDFCF793F9204B204CA3FB0030800902
:104F3400FCF784FC0420FCF799FC324631464FF020
:104F4400FF30FCF739FC6B6923F001036B61FFF759
:104F5400E3FBFFF7EDFCFFF7DDFDFFF773FE3A46D9
:104F640020212046FCF7A6FD1148FCF745FF114817
:104F7400FCF742FF104800F0D7FB3A4604210F48E3
:104F8400FCF798FDFFF720FB3220FCF755FE00F0FC
:104F9400BFFD02212046FCF787FD0028F9D117B098
:104FA400F0BD00BF00100240D34D62100008014064
:104FB40014020020C8000020E9590008000C014038
:104FC40001222DE9F84F414BDFF81C91DFF81C81D9
:104FD400DFF81CA13E4DDFF81CB11A70FFF744FF47
:104FE40000F0BAFD012000F0AFFB3A4F0320FCF7BC
:104FF40023FE00F08FFD02212846FCF755FDB8B3CF
:1050040000F06EFB0646002006F5FA4400F09CFB17
:1050140004E002212846FCF747FD08B300F060FBDA
:10502400A042F6D306F51C362B4806F5807600F030
:105034007BFB05E002212846FCF736FD002842D020
:1050440000F04EFBB042F5D3244800F06DFB022182
:105054002846FCF729FD0028F9D1FFF7CBFEBDE770
:10506400384600F061FB012000F06EFB00F082FD89
:10507400D9F80030D8F800209A4217D8DAF800207E
:10508400012AB3D95B4505D901230133DBB293422D
:10509400FBD3ABE7124B586800F046FB114B1B687F
:1050A4000A2BA2D90A230F4A13609EE70C4B1868F7
:1050B40000F03AFB002000F047FBC820FCF7BCFDE1
:1050C400FFF75EFE8AE7FFF75BFE87E7A003002099
:1050D400000801407D5A0008355A0008B15A0008FA
:1050E4004C0000200804002034000020B05C0008BC
:1050F400BC5C00085ED0130040F2DE32036810B4DA
:10510400934224DCA2F2BC729342B8BF134603F567
:105114007A7240F2DE314368134C8B42626319DCCD
:10512400124A9342B8BF134603F57A7240F2DE3155
:1051340083680D488B4282630FDC0C4A10BC934297
:10514400B8BF1346084A03F57A73D363704740F235
:10515400C672DEE740F2C672E8E740F2C673024A5E
:1051640010BCD363704700BF002C014022FCFFFF3A
:1051740040F2DE32036810B4934224DCA2F2BC7223
:105184009342B8BF134603F57A7240F2DE314368A6
:10519400134C8B42626319DC124A9342B8BF134624
:1051A40003F57A7240F2DE3183680D488B428263E4
:1051B4000FDC0C4A10BC9342B8BF1346084A03F5EF
:1051C4007A73D363704740F2C672DEE740F2C67268
:1051D400E8E740F2C673024A10BCD363704700BFCD
:1051E4000034014022FCFFFF0B4A0C48916893688D
:1051F40081F08001926883F04003C1F3C011C3F3CE
:10520400801303EB410382F02002C2F3401200EB4F
:105214004303985C704700BF000C01402C5C0008FD
:105224000B4A0C489168936881F48051926883F426
:105234000063C1F30031C3F3C02303EB410382F4E1
:105244008062C2F3802200EB4303985C704700BF86
:10525400001001402C5C0008704700BF014B404225
:10526400186070470C040020014B5860704700BF61
:105274000C040020054A064B12680421A3FB0232E9
:105284000448C2F38022FCF715BC00BF7C00002058
:10529400D34D6210000C0140054A536C18B923F435
:1052A40000435364704743F400435364704700BFA2
:1052B40000340140054A536C18B923F40043536485
:1052C400704743F400435364704700BF002C01400F
:1052D400164B1B68B3F5806F23D2154A154B126821
:1052E40010B41888148859882044401018805488B1
:1052F40098882144491059809488D98820444010C2
:105304009880D488188921444910D98014895989EE
:10531400204440101881528910BC0A4452105A810A
:105324007047054B054A1A60704700BF7C00002097
:1053340024000020280000204000002045530008DD
:105344000A232DE9F04F4FF0080B4FF00609002413
:105354008DB00293B64BB74EDFF818A30393B64B48
:105364004FEA840853F82430984756F82430B34A57
:10537400013346F82430135D0546834271D0135D32
:10538400AF490133A1FB0301890801EB4101A3EB00
:105394004103DBB256F824009D42AA4A18BF40429A
:1053A40052F824204AF824009047002346F8243079
:1053B400A24B1D55A44B02991B68A4485B5A425A40
:1053C400A3499B1A002BA34AB8BF5B42A2FB032349
:1053D400A14A1B0942F824300868049583428CBF13
:1053E40000200120039B98479C4B9D491B689A48C9
:1053F40051F824101F465AF8242056F8243050F847
:105404002400009009A8B8479DF82C30F3B15AF84D
:105414002400FBF715F900220023FBF7EDFB00281D
:1054240040F02D815AF82400FBF70AF900220023EA
:10543400FBF700FC50B10135814BA3FB0537BB08DA
:1054440003EB4307A5EB47030493DDB2DDE9091041
:105454004342052D00F2DD80DFE805F08E716253D2
:10546400433756F824205AF82430002BB8BF5B4247
:105474009A429FD9734B5AF8240058F80370FBF7EB
:10548400DFF800220023FBF7B7FB002840F01B8164
:105494005AF82400FBF7D4F800220023FBF7CAFBD8
:1054A4000022002800F00D816E4B56F82400CDE94F
:1054B4000423FBF7B5F8DDE90423FBF72BF9FBF72D
:1054C400C3FB4AF82400B84774E700255AF824C0FF
:1054D4004A42AC45CDE90615089240F3E9804518E7
:1054E40057E000225AF82430C1F1000C934206918F
:1054F400CDE907C240F39780ACEB000302460D46AA
:1055040047E000255AF82420C1F1000CAA42089172
:10551400CDE9065C40F3C6801D460A18634638E0B0
:105524004FF0000C5AF824204D426245CDE907C1E2
:10553400069540F3B5800A46052361460AE0002239
:105544005AF824304D429342CDE90712069540F3B0
:10555400B4800523049F1F44394BA3FB07C39B0856
:1055640003EB4303A7EB4303013B042B0FD8DFE812
:1055740003F08CB0AD8F880000255AF824C04A424D
:10558400AC45CDE906510892E3DC1D467EE0121AD3
:105594004318CDE90653344B089253F8083006A853
:1055A4009847294B294F1868244B37F80950195D3F
:1055B40030F8092030F80B3037F80B00521B1B1A57
:1055C400052904D8DFE801F020171704041B002381
:1055D400264A42F80830029BA9F10409023BABF1C8
:1055E400040B0293002C47D1214A08F104039B5871
:1055F40001240393B3E61D4B43F80820EBE79B1A01
:105604001A4A42F80830E6E7D31A184A42F8083032
:10561400E1E700225AF82430CDE9062293420892A9
:105624003ADC944611460D460123614692E700BFD9
:105634009D520008EC030020245C000804040020B0
:10564400ABAAAAAA3C5C0008240000202800002081
:10565400080400201F85EB51E40300203C000020D7
:10566400FC0300200000F03F345C0008F403002039
:10567400445C0008140400200DB0BDE8F08F05352B
:10568400DAE6121A05440B4683E72D1A431880E71D
:105694000B1A294645187CE705231146154659E798
:1056A4000A1876E70A46294601230D46614651E762
:1056B400AC4601230D4661464CE70B4602462D1AC3
:1056C40067E70023F1E60022044BEEE602440B1ADE
:1056D4005FE702442D1A0B465BE700BF0000F0BFF2
:1056E400014B1868704700BF7C00002010B4044BC5
:1056F400044C00221C601021034810BCFCF7DAB9EA
:10570400380000205D5200080008014000200349D1
:10571400034B044A08601A60704700BF7C000020F5
:1057240040000020D552000838B5054D2B6883424F
:1057340005D00446034B186800F04EF92C6038BDC0
:10574400380000207C0000200F4B104A1968914259
:1057540019D0A8B930B504460D4A85B00D4D1A606C
:1057640001A82B78CDE901440394FFF701FD01A8BA
:105774006B78CDE901440394FFF7BEFC05B030BD5E
:10578400054A1A607047704740000020D55200084F
:105794005D5200080404002045530008014B024AEE
:1057A4001A607047400000207952000810F57A7F93
:1057B40004DBB0F57A7F10DC404201E04FF47A70EC
:1057C400074A084B9142B8BF1146B1F57A7FA8BF8A
:1057D4004FF47A711860596070470148F0E700BFD0
:1057E40018FCFFFFFC03002002220D4B10B50D4CEA
:1057F4005A6023680C4A01332360136898470B4BA3
:105804001B68984723689B0608D10949094A0B6815
:105814009289C3EB832302EB93230B6010BD00BF7B
:10582400000002407C0000204000002038000020DE
:105834003400002088020020704700BFFEE700BF4C
:10584400FEE700BFFEE700BFFEE700BF704700BFF2
:10585400704700BF704700BF08B5FCF7DFF9BDE82B
:105864000840FCF711B800BF0148FDF759B800BF64
:10587400F80000200148FDF7E3BC00BFF800002059
:105884000148FDF719BF00BFD00100200148FDF712
:1058940013BF00BF8C0100200022C0E90012027275
:1058A400704700BF0022C0E900220272704700BFA7
:1058B40010B40024064B446003FB01F1054B047251
:1058C40083FB0143C917C1EB6331016010BC70470E
:1058D400A08601009F95F51D00224FF47A71027293
:1058E400C0E90012704700BF632A08D900230029C9
:1058F400B8BF0731C910C0E9001303727047002311
:10590400C0E9001303727047054B00EB40008000B0
:105914001A18926818580349034B08601A607047B4
:10592400745C00083C0000200804002008B5FFF760
:10593400D7FE084B084A1B68C01AA2FB0032920526
:1059440001D4C30700D408BD1021BDE808400348B2
:10595400FCF7B4B8A8040020FB0E2A31000801406B
:1059640008B5FFF7BDFE084B084A1B68C01AA2FB26
:105974000032D20401D4830700D108BD1021BDE850
:1059840008400348FCF79AB8A80400203FCB9EC403
:105994000008014008B5FFF7A3FE0B4B0B4A1B6838
:1059A400C01AA2FB0032D30507D4094BA3FB002382
:1059B4005B0803EB4303984200D108BD1021BDE806
:1059C40008400448FCF77AB8A8040020D34D6210BC
:1059D400ABAAAAAA00080140014B1860704700BF97
:1059E400A804002008B5FFF77BFE0E4B1B68C01A05
:1059F400B0F5485F11D20C4BA3FB00235B0AC3F143
:105A04000803B0FBF3F203FB120000B908BD102138
:105A1400BDE808400548FCF751B8BDE80840FFF769
:105A240065BE00BFA80400201F85EB51000801409B
:105A340008B5FFF755FE0D4B1B68C01AB0F5485F5B
:105A440010D20B4BA3FB00235B0A0133B0FBF3F230
:105A540003FB120000B908BD1021BDE80840054849
:105A6400FCF72CB8BDE80840FFF740BEA8040020AE
:105A74001F85EB510008014008B5FFF731FE094BC3
:105A84001B68C01AB0F57A6F08D2830700D108BD2D
:105A94001021BDE808400448FCF710B8BDE80840F0
:105AA400FFF724BEA80400200008014008B5FFF752
:105AB40017FE0C4A0C4B1268801AA3FB0023DB0967
:105AC400022B0BD0032B0BD0012B09D0430707D09B
