:020000040800F2
:1000000000C00020B937000831330008353300083C
:10001000393300083D330008413300080000000078
:100020000000000000000000000000004533000850
:1000300049330008000000004D3300085133000828
:1000400001380008013800080138000801380008AC
:10005000013800080138000801380008013800089C
:10006000013800080138000801380008E1320008B2
:10007000013800080138000801380008013800087C
:10008000013800080138000801380008013800086C
:10009000013800080138000801380008013800085C
:1000A000013800080138000801380008013800084C
:1000B000013800080138000801380008013800083C
:1000C000013800080138000801380008013800082C
:1000D000013800080138000801380008013800081C
:1000E000013800080138000801380008013800080C
:1000F00001380008013800080138000801380008FC
:1001000001380008013800080138000801380008EB
:1001100001380008013800080138000801380008DB
:1001200001380008013800080138000801380008CB
:1001300000000000000000000000000000000000BF
:1001400000000000000000000000000000000000AF
:10015000000000000000000000000000000000009F
:10016000000000000000000000000000000000008F
:10017000000000000000000000000000000000007F
:10018000000000000000000000000000000000006F
:10019000000000000000000000000000000000005F
:1001A000000000000000000000000000000000004F
:1001B000000000000000000000000000000000003F
:1001C000000000000000000000000000000000002F
:1001D000000000000000000000000000000000001F
:0401E0005FF8E0F1F3
:1001E8000348044B834202D0034B03B118477047BE
:1001F8003C0000203C0000200000000005480649A3
:10020800091A891001EBD171491002D0034B03B1CF
:10021800184770473C0000203C0000200000000008
:1002280010B5064C237843B9FFF7DAFF044B13B136
:100238000448AFF300800123237010BD3C00002068
:10024800000000000438000808B5044B1BB104493D
:100258000448AFF30080BDE80840CFE70000000085
:10026800400000200438000870B50D4E0D4D761B77
:10027800B61006D00024013455F8043B9847A6422E
:10028800F9D1094E094D03F0B9FA761BB61006D01C
:100298000024013455F8043B9847A642F9D170BDB3
:1002A800E0380008E0380008E4380008E0380008C2
:1002B80081F0004102E000BF83F0004330B54FEA0F
:1002C80041044FEA430594EA050F08BF90EA020F7C
:1002D8001FBF54EA000C55EA020C7FEA645C7FEA0F
:1002E800655C00F0E2804FEA5454D4EB5555B8BF32
:1002F8006D420CDD2C4480EA020281EA030382EAA3
:10030800000083EA010180EA020281EA0303362D34
:1003180088BF30BD11F0004F4FEA01314FF4801C07
:100328004CEA113102D0404261EB410113F0004F19
:100338004FEA03334CEA133302D0524263EB4303D0
:1003480094EA050F00F0A780A4F10104D5F1200E6E
:100358000DDB02FA0EFC22FA05F2801841F10001C9
:1003680003FA0EF2801843FA05F359410EE0A5F19D
:1003780020050EF1200E012A03FA0EFC28BF4CF0CE
:10038800020C43FA05F3C01851EBE37101F0004584
:1003980007D54FF0000EDCF1000C7EEB00006EEB91
:1003A8000101B1F5801F1BD3B1F5001F0CD349081B
:1003B8005FEA30004FEA3C0C04F101044FEA445272
:1003C80012F5800F80F09A80BCF1004F08BF5FEAF9
:1003D800500C50F1000041EB045141EA050130BDD9
:1003E8005FEA4C0C404141EB010111F4801FA4F17C
:1003F8000104E9D191F0000F04BF01460020B1FAD1
:1004080081F308BF2033A3F10B03B3F120020CDA08
:100418000C3208DD02F1140CC2F10C0201FA0CF0E6
:1004280021FA02F10CE002F11402D8BFC2F1200C4B
:1004380001FA02F120FA0CFCDCBF41EA0C01904001
:10044800E41AA2BF01EB0451294330BD6FEA04044A
:100458001F3C1CDA0C340EDC04F11404C4F1200235
:1004680020FA04F001FA02F340EA030021FA04F347
:1004780045EA030130BDC4F10C04C4F1200220FA9E
:1004880002F001FA04F340EA0300294630BD21FADC
:1004980004F0294630BD94F0000F83F4801306BFA2
:1004A80081F480110134013D4EE77FEA645C18BF96
:1004B8007FEA655C29D094EA050F08BF90EA020F2D
:1004C80005D054EA000C04BF1946104630BD91EA25
:1004D800030F1EBF0021002030BD5FEA545C05D128
:1004E8004000494128BF41F0004130BD14F5800467
:1004F8003CBF01F5801130BD01F0004545F0FE41DB
:1005080041F470014FF0000030BD7FEA645C1ABF0F
:10051800194610467FEA655C1CBF0B46024650EA46
:10052800013406BF52EA033591EA030F41F4002172
:1005380030BD00BF90F0000F04BF0021704730B5F8
:100548004FF4806404F132044FF000054FF00001CD
:1005580050E700BF90F0000F04BF0021704730B58E
:100568004FF4806404F1320410F0004548BF404263
:100578004FF000013EE700BF42004FEAE2014FEAB8
:1005880031014FEA02701FBF12F07F4393F07F4F93
:1005980081F06051704732F07F4208BF704793F096
:1005A8007F4F04BF41F40021704730B54FF46074A9
:1005B80001F0004521F000411CE700BF50EA0102AC
:1005C80008BF704730B54FF000050AE050EA010255
:1005D80008BF704730B511F0004502D5404261EBC5
:1005E80041014FF4806404F132045FEA915C3FF406
:1005F800D8AE4FF003025FEADC0C18BF03325FEAA3
:10060800DC0C18BF033202EBDC02C2F1200300FA53
:1006180003FC20FA02F001FA03FE40EA0E0021FA78
:1006280002F11444BDE600BF70B54FF0FF0C4CF466
:10063800E06C1CEA11541DBF1CEA135594EA0C0F18
:1006480095EA0C0F00F0DEF82C4481EA030621EA53
:100658004C5123EA4C5350EA013518BF52EA03358E
:1006680041F4801143F4801338D0A0FB02CE4FF040
:100678000005E1FB02E506F00042E0FB03E54FF070
:100688000006E1FB03569CF0000F18BF4EF0010E68
:10069800A4F1FF04B6F5007F64F5407404D25FEA64
:1006A8004E0E6D4146EB060642EAC62141EA555117
:1006B8004FEAC52040EA5E504FEACE2EB4F1FD0C59
:1006C80088BFBCF5E06F1ED8BEF1004F08BF5FEAD7
:1006D800500E50F1000041EB045170BD06F0004689
:1006E80046EA010140EA020081EA0301B4EB5C0436
:1006F800C2BFD4EB0C0541EA045170BD41F480112E
:100708004FF0000E013C00F3AB8014F1360FDEBF52
:10071800002001F0004170BDC4F10004203C35DA2E
:100728000C341BDC04F11404C4F1200500FA05F3B1
:1007380020FA04F001FA05F240EA020001F0004252
:1007480021F0004110EBD37021FA04F642EB0601C8
:100758005EEA430E08BF20EAD37070BDC4F10C04F2
:10076800C4F1200500FA04F320FA05F001FA04F2B6
:1007780040EA020001F0004110EBD37041F10001A2
:100788005EEA430E08BF20EAD37070BDC4F12005AD
:1007980000FA05F24EEA020E20FA04F301FA05F215
:1007A80043EA020321FA04F001F0004121FA04F2BD
:1007B80020EA020000EBD3705EEA430E08BF20EA8D
:1007C800D37070BD94F0000F0FD101F000464000C7
:1007D80041EB010111F4801F08BF013CF7D041EA49
:1007E800060195F0000F18BF704703F0004652004D
:1007F80043EB030313F4801F08BF013DF7D043EA1E
:100808000603704794EA0C0F0CEA135518BF95EAD3
:100818000C0F0CD050EA410618BF52EA4306D1D15A
:1008280081EA030101F000414FF0000070BD50EA79
:10083800410606BF1046194652EA430619D094EA03
:100848000C0F02D150EA013613D195EA0C0F05D1ED
:1008580052EA03361CBF104619460AD181EA030141
:1008680001F0004141F0FE4141F470014FF00000F9
:1008780070BD41F0FE4141F4780170BD70B54FF094
:10088800FF0C4CF4E06C1CEA11541DBF1CEA135514
:1008980094EA0C0F95EA0C0F00F0A7F8A4EB0504F6
:1008A80081EA030E52EA03354FEA013100F08880ED
:1008B8004FEA03334FF0805545EA131343EA1263B6
:1008C8004FEA022245EA111545EA10654FEA00266B
:1008D8000EF000419D4208BF964244F1FD0404F524
:1008E800407402D25B084FEA3202B61A65EB030580
:1008F8005B084FEA32024FF480104FF4002CB6EB3D
:10090800020E75EB030E22BFB61A754640EA0C00BC
:100918005B084FEA3202B6EB020E75EB030E22BFFC
:10092800B61A754640EA5C005B084FEA3202B6EB3D
:10093800020E75EB030E22BFB61A754640EA9C00FC
:100948005B084FEA3202B6EB020E75EB030E22BFCC
:10095800B61A754640EADC0055EA060E18D04FEA8A
:10096800051545EA16754FEA06164FEAC30343EA2A
:1009780052734FEAC2025FEA1C1CC0D111F4801FF7
:100988000BD141EA00014FF000004FF0004CB6E7F0
:1009980011F4801F04BF01430020B4F1FD0C88BF8F
:1009A800BCF5E06F3FF6AFAEB5EB030C04BFB6EB9A
:1009B800020C5FEA500C50F1000041EB045170BD8D
:1009C8000EF0004E4EEA113114EB5C04C2BFD4EBBA
:1009D8000C0541EA045170BD41F480114FF0000E3E
:1009E800013C90E645EA060E8DE60CEA135594EABA
:1009F8000C0F08BF95EA0C0F3FF43BAF94EA0C0FBD
:100A08000AD150EA01347FF434AF95EA0C0F7FF431
:100A180025AF104619462CE795EA0C0F06D152EA85
:100A280003353FF4FDAE1046194622E750EA410669
:100A380018BF52EA43067FF4C5AE50EA41047FF47A
:100A48000DAF52EA43057FF4EBAE12E74FF0FF3CDF
:100A580006E000BF4FF0010C02E000BF4FF0010CB0
:100A68004DF804CD4FEA410C7FEA6C5C4FEA430C29
:100A780018BF7FEA6C5C1BD001B050EA410C0CBF78
:100A880052EA430C91EA030F02BF90EA020F0020DA
:100A9800704710F1000F91EA030F58BF994208BF41
:100AA80090422CBFD8176FEAE37040F001007047FE
:100AB8004FEA410C7FEA6C5C02D150EA013C07D155
:100AC8004FEA430C7FEA6C5CD6D152EA033CD3D0A0
:100AD8005DF8040B704700BF8446104662468C469A
:100AE8001946634600E000BF01B5FFF7B7FF0028CD
:100AF80048BF10F1000F01BD4DF808EDFFF7F4FFF6
:100B08000CBF012000205DF808FB00BF4DF808ED80
:100B1800FFF7EAFF34BF012000205DF808FB00BFA3
:100B28004DF808EDFFF7E0FF94BF012000205DF8C5
:100B380008FB00BF4DF808EDFFF7CEFF94BF01207A
:100B480000205DF808FB00BF4DF808EDFFF7C4FF73
:100B580034BF012000205DF808FB00BF4FEA4102C6
:100B680012F5001215D211D56FF47873B3EB6252F7
:100B780012D94FEAC12343F0004343EA505311F01E
:100B8800004F23FA02F018BF404270474FF00000B0
:100B9800704750EA013005D111F0004008BF6FF0EE
:100BA800004070474FF00000704700BF054B1A69BE
:100BB800120605D50449054A596000205A60704755
:100BC800012070470020024023016745AB89EFCD23
:100BD800034A0020136943F080031361704700BF84
:100BE800002002402DE9F041036882B0DD07044689
:100BF80030D5AB494A6802F00C02042A00F0DA80CA
:100C08004A6802F00C02082A00F0D0806368B3F545
:100C1800803F00F00F81002B00F02781B3F5A02F53
:100C280000F0B5819E4B1A6822F480321A601A6867
:100C380022F480221A6000F083FF994D064605E0F1
:100C480000F07EFF801B642800F20B812B689A035A
:100C5800F6D523689F0728D5914A516811F00C0FE3
:100C680000F0B680516801F00C01082900F0AC8052
:100C78002369002B00F0418101228A4B884D1A60BC
:100C880000F05EFF064605E000F05AFF801B0228D0
:100C980000F2E7802B689807F6D52B68626923F085
:100CA800F80343EAC2032B6023681A0722D5A36915
:100CB800002B00F0988001227B4B794D1A6000F0E0
:100CC8003FFF064605E000F03BFF801B022800F2CC
:100CD800C8806B6A9B07F6D5744B754A1B68A2FBE4
:100CE80003235B0A019300BF019B5A1E0192002B4C
:100CF800F9D123685D0739D5694BDA69D00040F12D
:100D0800828000256B4B1A68D10540F19980E36811
:100D1800012B0FD0002B00F0D180052B604B1A6AF5
:100D280000F0FC8022F001021A621A6A22F0040222
:100D38001A6204E05A4A136A43F00103136200F08E
:100D4800FFFE574E804641F2883706E000F0F8FE75
:100D5800A0EB0800B84200F28480336A9B07F5D5FF
:100D680025B14F4AD36923F08053D361E269CAB1F0
:100D78004B4D696801F00C01082930D0022A4FF068
:100D880000014D4A00F0D280116000F0D9FE2C46D7
:100D9800054604E000F0D4FE401B022861D8236811
:100DA8009B01F7D4002002B0BDE8F0814A68D00367
:100DB8007FF52CAF3A4A126891037FF54BAF626812
:100DC800002A7FF447AF0AE05268D6033FF550AFD8
:100DD800334A1268950721D52269012A1ED00120BD
:100DE80002B0BDE8F081304A2D4D136000F0A8FE36
:100DF800064604E000F0A4FE801B022831D86B6A86
:100E08009F07F7D475E7DA69012542F08052DA6165
:100E1800DB6903F080530093009B73E72049606906
:100E28000A6822F0F80242EAC0020A601A077FF54F
:100E380061AF3CE71A4A136843F480331360FAE65B
:100E48001A681E4642F480721A6000F079FE07465E
:100E58003368DA053FF55BAF00F072FEC01B64280B
:100E6800F6D9032002B0BDE8F08103F1804303F511
:100E780004331A681D4622F480321A601A6822F474
:100E880080221A6000F05CFE064604E000F058FE7E
:100E9800801B6428E5D82B689B03F7D4D9E600BFEC
:100EA800001002400000424280044242000000203C
:100EB800D34D6210007000406000424203F180434D
:100EC80003F504331A6A1E4622F001021A621A6AEE
:100ED80041F2883822F004021A6200F031FE074617
:100EE80004E000F02DFEC01B4045BAD8336A9807CD
:100EF800F7D4002D3FF43AAF33E72B4A2B4D13605C
:100F080000F01EFE064604E000F01AFE801B0228D0
:100F1800A7D82B689907F7D42368C6E642F00402DD
:100F28001A621A6A42F001021A6208E7116000F0B8
:100F380007FE064604E000F003FE801B022890D856
:100F48002B689901F7D4226AB2F5803F05D16B6806
:100F5800A16823F400330B436B600125134B606ACF
:100F68005968024321F4741111480A435A60056014
:100F78001C4600F0E5FD054605E000F0E1FD401BDC
:100F880002283FF66EAF23689A01F6D50AE703F107
:100F98008043A3F53C331A6842F480221A601A6829
:100FA80042F480321A6046E60000424200100240D5
:100FB80060004242634A136803F007038B420BD276
:100FC800136823F007030B431360136803F0070348
:100FD8008B4201D0012070472DE9F041036886B0AB
:100FE8009C0706D5584C8568626822F0F0022A43AF
:100FF8006260DA0704460E4625D54268524B012A3C
:101008001B6800F09980022A00F092809D072AD57B
:101018004D4D41F288386B6823F0030313436B602E
:1010280000F08EFD63680746012B64D0022B06D1C1
:101038006CE000F085FDC01B404500F281806B68C4
:1010480013F00C0FF5D13F4A136803F00703B342BE
:101058000DD9136823F0070333431360136803F0B3
:101068000703B34203D0012006B0BDE8F08123682E
:10107800580706D53449E0684A6822F4E06202431A
:101088004A60190707D5304A2169536823F4605329
:1010980043EAC103536040F201222C4B06ACADF881
:1010A80004200FCB04E90F0027494A6802F00C031B
:1010B800082B10D0264B244A264852682649C2F3EA
:1010C8000312825C0020D3400B6000F009FD002071
:1010D80006B0BDE8F081C2F383432344D20313F87A
:1010E800103C19D41D4A02FB03F3E4E700F028FD85
:1010F800C01B404524D86B6803F00C03042BF5D1C2
:10110800A1E700F01DFDC01B404519D86B6803F02E
:101118000C03082BF5D196E74A680D49C2F3404203
:10112800224412F8142CB1FBF2F203FB02F3C2E7DB
:101138009F013FF56DAF96E79B033FF569AF92E7D7
:10114800032091E700200240001002401C380008EC
:1011580000127A002C3800080000002000093D0029
:10116800014B1868704700BF00000020044B054978
:101178005B68054AC3F30223CB5C1068D84070470C
:10118800001002403C38000800000020704700BFF3
:1011980000284ED090F83D3070B503F0FF020446A9
:1011A80063B302232268244E84F83D30B2421368A8
:1011B8006168E068A56926D006F50066B24222D0CB
:1011C800B2F1804F0BD0A6F59836B24207D006F59B
:1011D8008066B24203D006F58066B24207D1A6689F
:1011E80023F070033343266923F44073334323F019
:1011F80080032B431360D062916214E080F83C2096
:10120800FFF7C4FFCDE7A66823F0700333432669D0
:1012180023F44073334323F080032B431360D062DD
:1012280091626369136301230020536184F83D30A0
:1012380070BD0120704700BF002C014001220368E7
:1012480002FA01F11A6A0C4822EA01021A621A6AC1
:10125800834241EA0201196208D0084A934205D044
:101268001A68002042F001021A6070475A6C42F472
:1012780000425A64F4E700BF002C014000340140EA
:1012880090F83C30012B00F0C980F0B4022301240F
:1012980080F83D3080F83C400C2A33D8DFE802F073
:1012A8000732323267323232933232323B000368CD
:1012B8008E681D6A0F6825F001051D621A6A5D684F
:1012C80022F002029C6932436E4E24F07304B3424A
:1012D80044EA070400F0B98006F50066B34200F05E
:1012E800B4804E685D609C615E631A629C690D699A
:1012F80044F008049C61996921F0040199619A6994
:101308002A439A610023F0BC012280F83C3080F81F
:101318003D201846704703688E681D6A0F6825F4DB
:1013280080551D621A6A5D6822F40052DC6942EA3F
:101338000632544E24F4E644B34244EA07246FD0FC
:1013480006F50066B3426BD04E685D60DC611E64D2
:101358001A62DC690D6944F40064DC61D96921F41E
:101368008061D961DA6942EA0522DA61CAE703686D
:101378008E681D6A0F6825F010051D621A6A5D687F
:1013880022F020029C6942EA06123E4E24F4E6440A
:10139800B34244EA072465D006F50066B34261D03B
:1013A8004E685D609C619E631A629C690D6944F495
:1013B80000649C61996921F4806199619A6942EAA3
:1013C80005229A619EE703688E681D6A0F6825F4F6
:1013D80080751D621A6A5D6822F40072DC6942EA4F
:1013E8000622284E24F07304B34244EA07041DD0B1
:1013F80006F50066B34219D04E685D60DC61DE63B5
:101408001A62DC690D6944F00804DC61D96921F0CD
:101418000401D961DA692A43DA6173E70220704767
:101428004E6925F4804545EA86158DE7CE6822F495
:10143800006242EA062225F44055D1E905673E4399
:1014480022F4806245EA0615D6E7CE6822F0080243
:10145800324325F44075D1E905673E4322F0040282
:1014680035433EE7CE6822F0800242EA061225F4B0
:10147800406CD1E9056746EA070522F040024CEACC
:1014880085058DE7002C014090F83C30F0B4012B25
:1014980044D002220125036880F83D209A684C68F0
:1014A80022F070020E68224322F007023243502CC9
:1014B80080F83C509A6048D020D9602C32D0702CEB
:1014C8000AD1D1E902520C6999682A4342EA0422F6
:1014D80021F47F410A439A60002101250C46DA680D
:1014E80022F04002DA60DA6822F48042DA6080F89A
:1014F8003D5080F83C102046F0BC7047402CEBD1A2
:101508001D6A1C6A0E6924F001041C629A6922F0A3
:10151800F00242EA06129A611D62DDE702242046C3
:10152800F0BC70471C6A8D6824F010040E691C62B8
:1015380099691A6A21F4704122F0A00241EA063141
:1015480042EA051299611A62C6E71D6A1E6A8C682A
:1015580026F001060F691E629A6925F00A0122F039
:10156800F002214342EA07129A611962B4E700BF08
:101578000422036802FA01F11A6A002022EA010231
:101588001A621A6A114319625A6C42F400425A6488
:101598001A6842F001021A60704700BF90F83C30A8
:1015A800012B22D00246D1E9020310B4002423F40F
:1015B80040730343486823F480630343086823F4B3
:1015C80000630343086923F480530343486923F401
:1015D80000530343886923F44043116803434B6471
:1015E800204682F83C4010BC70470220704700BF7C
:1015F80090F83C30012B1ED002460220F0B40025A2
:101608000126136882F83D005C680F6824F07004B6
:101618005C6058684C6838435860986820F08000CF
:101628009860996828462143996082F83D6082F85D
:101638003C50F0BC70470220704700BF90F824204F
:10164800012A2AD0034601201A6883F824009068EA
:10165800C00712D41248806810F001000DD130B4D0
:10166800104CA24212D001209A6A42F020029A62DB
:10167800002230BC83F8242070479A6A012042F087
:1016880020029A62002283F82420704754680D686B
:1016980024F4702129435160EAE70220704700BF13
:1016A80000280140002401404FF6FF01064A0002CD
:1016B800D36800F4E0600B4043F0BF6343F40033A9
:1016C8000343D360704700BF00ED00E0184B30B40F
:1016D800DB68C3F30223C3F10705042D03F10404F7
:1016E80028BF0425062C19D94FF0FF34033B9C4032
:1016F80022EA04044FF0FF32AA4021EA020101FA6B
:1017080003F2224312010028D2B20ADB00F1604042
:1017180000F5614080F8002330BC70470024234660
:10172800E8E7044B00F00F0003441A7630BC70471A
:1017380000ED00E0FCEC00E0012300F01F01034A8B
:1017480040098B4042F82030704700BF00E100E0BC
:101758000138B0F1807F0DD230B4F0250022072186
:10176800054B064C586084F82350104630BC9A60EC
:10177800196070470120704710E000E000ED00E0BC
:10178800044A042813680CBF43F0040323F004033D
:101798001360704710E000E0704700BF08B5FFF71E
:1017A800FBFF08BD2DE9F04F4FF0000883B0444619
:1017B800DFF8F8C1764EDFF8F8E103E00134102CC9
:1017C80000F0848001230A68A3401A409342F5D1AF
:1017D8004D68122D00F0A88000F28980022D00F0DB
:1017E8009F807ED9032D00F09880112D02D1CB68FF
:1017F80003F10408FF2A6CD882460368A5004FF05D
:101808000F0909FA05FB23EA0B0308FA05F52B4330
:10181800CAF80030D1F804A01AF0805FCED05D4F2E
:1018280024F00305BB6905F1804543F00103BB6162
:10183800BB6905F5803503F00103019304F0030B40
:10184800019B4FEA8B0BAB6809FA0BF9604523EA59
:10185800090318D070456BD04F4FB84200F0838011
:101868004E4FB84200F086804D4FB84200F0898054
:101878004C4FB8420CBF4FF005094FF0060909FA62
:101888000BFB43EA0B03AB6033681AF4803F14BFC9
:1018980013439343336073681AF4003F14BF134330
:1018A80093437360B3681AF4801F14BF13439343C0
:1018B800B360F3681AF4001F04F1010414BF1A435B
:1018C80023EA0202102CF2607FF47CAF03B0BDE87B
:1018D800F08F04F18045083D4368AD0000F1040A2B
:1018E8008DE7ADB1012D85D1D1F80C8082E72E4F5F
:1018F800BD420DD02AD9DFF8BC904D4508D009F576
:1019080080394D4504D0A9F580194D457FF472AF53
:101918008D68A5B94FF004086CE74FF0000869E737
:10192800CB6803F1080865E7CB6803F10C0861E7A9
:101938004FF0010909FA0BFB43EA0B03A3E7012D5A
:101948000CBF036143614FF0080853E7DFF8689064
:101958004D45DDD009F580394D457FF44BAF8D6895
:10196800002DD7D0EBE74FF0020909FA0BFB43EA49
:101978000B0388E74FF0030909FA0BFB43EA0B0353
:1019880081E74FF0040909FA0BFB43EA0B037AE7F6
:101998000004014000100240001001400014014002
:1019A80000180140001C01400000211000080140FF
:1019B800000C01400000311000001110836819422A
:1019C80014BF01200020704702B909040161704763
:1019D800C3685940C16070472DE9F041044600686A
:1019E80082B0C5072AD53A4BDA69D1003DD5394BC3
:1019F80000251A68D20546D5354960680A6A12F486
:101A080040720FD000F4407393420BD00127002698
:101A18000B6A314A23F44070176016600862D807D1
:101A280045D460682A4A136A23F440730343136257
:101A38001DB1D36923F08053D3612068830706D58D
:101A4800234AA168536823F440430B43536010F0C2
:101A5800100007D000201E4A6169536823F48003F0
:101A68000B43536002B0BDE8F081DA69012542F00A
:101A78008052DA61DB6903F080530193019B154BB7
:101A88001A68D205B8D41A681E4642F480721A60E1
:101A980000F056F807463368DB05ADD400F050F87F
:101AA800C01B6428F7D9032002B0BDE8F0810E46B8
:101AB80000F046F841F288378046336A9A07B0D476
:101AC80000F03EF8A0EB0800B842F6D9EBE700BFFB
:101AD800001002400070004040044242704700BFBE
:101AE80010B50446074A084B1068A3FB003080096C
:101AF800FFF72EFE214600224FF0FF30FFF7E6FDEC
:101B0800002010BD00000020D34D6210074A08B520
:101B18001368032043F010031360FFF7C5FD00208E
:101B2800FFF7DEFFFFF7DAFF002008BD00200240C4
:101B3800024A136801331360704700BF5C0000203D
:101B4800014B1868704700BF5C00002030B583B0B7
:101B58000190FFF7F5FF0546019C631C18BF01348F
:101B6800FFF7EEFF401BA042FAD303B030BD00BF21
:101B7800704700BF002875D0836A70B50446002BF3
:101B880066D023689A68D0074DD4A26AD20644D496
:101B9800A26A5B4922F4885222F0020242F0020251
:101BA8008B42A262E069626878D0D4E9021542EA01
:101BB8004502B1F5807F42EA000260695DD00129E3
:101BC80000F08D80012800F0988058684D4920F475
:101BD8006940586000209D68294011439960D96A7E
:101BE800494D21F470010143D9629B681D40AA4206
:101BF8003AD00120A36A23F0120343F01003A36232
:101C0800E36A0343E36270BDA36A43F01003A3626F
:101C1800E36A43F00103E362A36AA36A012043F085
:101C28001003A36270BD9A6822F001029A60FFF760
:101C380087FF054604E0FFF783FF401B0228E3D82F
:101C480023689A68D107F6D4A26AD206E5D49FE73A
:101C5800C36280F82430FFF78BFF23689A68D007A7
:101C6800E1D492E7012070470020E062A36A23F0E4
:101C7800030343F00103A36270BD012814D0586820
:101C8800204920F4694040F4807058609868014009
:101C980011439960216901390805A0E7B0F5402F83
:101CA80008BF4FF4002080E70E46EDB9A069451E35
:101CB80046EA453545F400665D68124825F46945ED
:101CC80035435D609D68B1F5807F00EA050040EA14
:101CD80002009860DED00129DCD000207FE70128CF
:101CE800CDD14FF48076E0E7A06A40F02000A062F2
:101CF800E06A40F00100E062DEE70026D5E700BFB9
:101D0800003C0140FDF7E1FFFE0E1FFF90F8243074
:101D1800012B66D00023012170B5026882B00193BF
:101D28009368044680F82410D80720D4404B4148D3
:101D38001B689168A0FB030341F001019B0C9160B3
:101D48000193019B2BB1019B013B0193019B002B4C
:101D5800F9D1FFF7F5FE064604E0FFF7F1FE801B18
:101D6800022832D82268956815F00105F5D0A36AD3
:101D7800314923F4407323F0010343F480738A420A
:101D8800A36230D0A36A23F48013A3625368590571
:101D980035D4A36A002113F4805318BFE36A84F88A
:101DA800241018BF23F00603E3626FF002031360E8
:101DB800936803F46023B3F5602F27D0002093685D
:101DC80043F48013936002B070BD0120A36A84F8C5
:101DD800245043F01003A362E36A0343E36202B0B2
:101DE80070BD02207047154B596811F4702FC9D087
:101DF800A16A41F48011A1625B685B05C9D5A36A39
:101E080023F4405343F48053A362C2E70A4B9A4237
:101E180006D00020936843F4A003936002B070BD1D
:101E2800A3F580635B6813F4702FC7D1F1E700BF97
:101E38000000002083DE1B430028014000240140ED
:101E4800002270B490F8243083B0012B01925FD047
:101E580001234D680468062D80F824300A6805EBD4
:101E680085034FF01F0625D90C2D47D8233B256B3A
:101E78009E4025EA060502FA03F32B432363092A49
:101E88008B684FF0070602EB420123D91E39E5683B
:101E98008E408B4025EA06010B43E360A2F1100354
:101EA800012B22D90023002280F82420184603B0F1
:101EB80070BC7047053B656B9E4025EA060502FA33
:101EC80003F32B43092A63634FF007068B6802EB81
:101ED8004201DBD825698E408B4025EA06010B4379
:101EE8002361A2F11003012BDCD81A4B9C4214D0B9
:101EF800826A012342F020028262D4E7413BE56A0C
:101F08009E4025EA060502FA03F32B43E362B6E78F
:101F18000223184603B070BC7047A3681B02C1D4E3
:101F2800A368102A43F40003A360BBD10A4B0B4AF1
:101F38001B68A2FB03239B0C03EB83035B00019349
:101F4800019B002BAED0019B013B0193019B002B11
:101F5800F9D1A7E7002401400000002083DE1B43DD
:101F6800704700BF00285BD090F83D3070B503F093
:101F7800FF020446002B4ED02423226884F83D300B
:101F880013682F4D23F001031360FFF7EFF82D4A74
:101F98002368A2FB00126168920CA9425A6024D8F7
:101FA8004900B0FBF1F0C0F30B01032998BF0420EE
:101FB80001321A620022D4E9071620253143D8617C
:101FC800D4E9036019603043D4E9051631439860B9
:101FD800D9601968104641F001011960226484F83B
:101FE8003D50226384F83E2070BD4FF4967505FB82
:101FF80002F2154EA568A6FB0262920901321A6226
:1020080085B901EB4101B0FBF1F0C0F30B02AAB1B5
:1020180040F40040CEE780F83C20FFF7A1FFABE793
:102028000120704701EB810101EB8101B0FBF1F068
:10203800C0F30B0212B140F44040BBE70120B9E7FE
:10204800A086010083DE1B43D34D621000283AD0DE
:1020580003461E4A0068F0B490422BD91C491D4A19
:102068000144A2FB01211C4F090989000024D3E97E
:10207800012601253243DE6819643243D3E904613D
:1020880032439E690A4301683243DE6921F47F5175
:10209800324321F030010A43DF6302602046C3E97E
:1020A8000A44C3E90C449C6383F8204083F8215018
:1020B800F0BC70470949074A0144A2FB01210909FC
:1020C8008900074FD2E70120704700BF070402408C
:1020D800F8FBFDBFCDCCCCCC00040240F8FFFDBF1F
:1020E8000000024030B44FF41F054FF000640E4B5F
:1020F8000E4A19680E4841F00101196059680A40F2
:102108005A601A6822F0847222F480321A601A68BF
:1021180022F480221A605A6822F4FE025A609D60F6
:10212800846030BC704700BF001002400000FFF818
:1021380000ED00E001212DE9F043494D8BB0EB693A
:10214800042243F48003EB61EB690E2003F480035F
:102158000193019B6B6900240B436B616B69414ED2
:102168000B400293029BFFF7B1FA0E20FFF7E4FA47
:10217800032201210F20FFF7A9FA0F20FFF7DCFA4D
:102188004FF480433849394A3046C6E90012336172
:10219800C6E90244C6E90544C6E90744FFF7E2FE7A
:1021A8000121122003224FF440674FF080094FF4B9
:1021B80080586B690B436B616B690B400393039BFE
:1021C800AB6943F00803AB61AB69CDE9070103F0E4
:1021D800080306A9049326480697049B0992FFF76B
:1021E800E1FAEB69234F43F48003EB61EB69224A80
:1021F80003F4800305933846059B3A60C7E9014418
:10220800C7E90444BC61C7F80C90C7F81C80FFF705
:102218001DFF1023194D1A4A2846C5E90023B76344
:102228007E62C5F80C90AC60C5E90444C5E906486F
:10223800FFF70CFF22462146212075636E62FFF7E7
:1022480045FA2120FFF778FA224621462220FFF797
:102258003DFA2220FFF770FA0BB0BDE8F08300BF0B
:1022680000100240D400002000580040A086010061
:10227800000C01406801002058000240AC01002019
:102288004400024020222DE9F04F4FF002080026BA
:102298007F4B8BB099690AAC41F004019961996947
:1022A8007C4F01F00401039103999969384641F084
:1022B8000801996199694FF0800B01F008010491B8
:1022C80004999969744D41F0100199619B6944F82A
:1022D800102D03F01003059321460192059BCDE9CB
:1022E8000766CDF82480FFF75DFA4023214638467B
:1022F8000693FFF757FA21463846CDF818B0FFF78E
:1023080051FA4FF48063214628460693FFF74AFAAC
:102318004FF400634FF4805A2146284606F1804660
:1023280006F584360693FFF73DFA21462846CDF890
:1023380018A0FFF737FA21463046CDF818A0FFF766
:1023480031FA214630464FF00109CDF81880FFF7E1
:1023580029FA0423214638460693CDF81C90FFF746
:1023680021FA1023214630460693FFF71BFA019AFB
:10237800214630460692FFF715FA032321462846E0
:10238800CDE90693FFF70EFA21463046CDF81890AE
:10239800FFF708FA0823214628460693FFF702FAB2
:1023A80021462846CDF81880FFF7FCF9102321466E
:1023B80028460693FFF7F6F9019A21462846069221
:1023C800FFF7F0F90423214628460693FFF7EAF9B8
:1023D8000823214630460693FFF7E4F904232146F3
:1023E80030460693FFF7DEF940234FF4807A214602
:1023F8002846CDE90638FFF7D5F921462846CDF815
:1024080018B0FFF7CFF928462146CDF818A0FFF7F6
:10241800C9F921463046CDF818B0FFF7C3F921466F
:102428003846CDF81890FFF7BDF921463846CDF863
:102438001880FFF7B7F921463046CDF818A0FFF706
:10244800B1F94FF40073214630460693FFF7AAF915
:102458004FF48063304621460693FFF7A3F94FF403
:102468000053214638460693FFF79CF94FF4804302
:10247800214638460693FFF795F94FF40043214665
:1024880038460693FFF78EF90BB0BDE8F08F00BF12
:1024980000100240000C0140001001402DE9F04FEF
:1024A80000244FF020084FF4FA63704A9BB09169FA
:1024B8006F4E41F4006191619169DFF8BC9101F4BC
:1024C8000061039103999169746041F4005191612D
:1024D8009269304602F400520492C6E902830193DD
:1024E800049A3461C6E90544C6F80090FEF750FE28
:1024F800102205A9304608274FF0600BCDE90524C6
:10250800FFF776F84FF4007322460CA93046129371
:10251800CDE90D44CDE91044CDF830B00F97FEF762
:10252800AFFE0CA930460422FEF7AAFE3A460CA9D3
:102538003046FEF7A5FE4FF400624FF480634D4D20
:1025480013A93046CDE91323DFF830A1CDE91548AA
:10255800CDE917441994FFF721F8019B2846EB6051
:10256800C5E90148C5E90444AC61C5F800A0FEF717
:102578000FFE802305A92846CDE90583FFF738F823
:1025880005231AA941F84C3D28460894FEF77CFF1C
:102598004FF4007322460CA928461293CDE90CB4D7
:1025A800CDE90E47CDE91044FEF76AFE0CA928468E
:1025B8000422FEF765FE3A460CA92846FEF760FE9F
:1025C8004FF4006C4FF4806313A92846CDE913C378
:1025D800CDE91548CDE917441994FEF7DFFFDAF87D
:1025E8004430214623F40043CAF84430D9F8443033
:1025F800284623F40043C9F84430FEF71FFE284656
:102608000421FEF71BFE39462846FEF717FE214631
:102618002846FEF7ADFF28460421FEF7A9FF3946F4
:102628002846FEF7A5FF21463046FEF707FE30464E
:102638000421FEF703FE39463046FEF7FFFD21462A
:102648003046FEF795FF30460421FEF791FF3946E4
:102658003046FEF78DFF01212B6832681963136835
:102668000B4313601BB0BDE8F08F00BF00100240A1
:1026780028010020B8020020002C0140003401404D
:102688002DE9F0434FF48077424E00254FF00508BE
:102698004FF44022B369404C43F40073B361B3690B
:1026A800A7604FF4C02787B03C4903F40073019337
:1026B8002046019B2160E261E56065616560C4F8C0
:1026C8001080FFF757FA364A06A95368204643F4A4
:1026D8008023536041F8187DFEF7B0FF0E220123D6
:1026E8004FF0020903A920460392CDE90433FFF70E
:1026F800A7FB03A920460B27CDE90359FFF7A0FB49
:10270800032303A9CDF8149020464FF00C09CDE916
:102718000373FFF795FB04230DEB09012046CDE970
:102728000393FFF78DFB0DEB09012046CDE90398D4
:10273800FFF786FB40F6A22C22681A4B9168DFF857
:102748006CE041F4807191609168174C41F001018F
:10275800916071692A4641F00101716170692946E9
:1027680000F00100029002981D60C3F80480C3F8CD
:1027780008E0DC60C3F800C01C68384644F0010477
:102788001C60FEF7A3FF3846FEF7D6FF07B0BDE88A
:10279800F08300BF00100240F00100200024014037
:1027A8000000014008000240640200204C2401405F
:1027B8004FF48070F0B5002305274FF46025254AB3
:1027C800254C9169A06041F480619161926985B05E
:1027D800224902F4806200922046009A2160E56155
:1027E800E360636163602761FFF7C4F90F22012387
:1027F80001A9204601920225CDE90233FFF720FB0B
:102808000D2301A92046CDE901350326FFF718FB62
:102818000A2301A92046CDE901360395FFF710FBED
:10282800042320460DEB0301CDE90153FFF708FB14
:1028380001A92046CDE90167FFF702FB23689A68E2
:1028480042F480729A609A6842F001029A6005B078
:10285800F0BD00BF00100240A40000200028014085
:1028680070B5002000F0E8FC00F0AAFE0023164C2A
:102878001A46202115482370FFF7A6F800F0AEFC91
:1028880000F004FD114C124E02212046FFF796F885
:102898000028F9D000F09CFC0546002005F54865A5
:1028A80000F0CAFC04E002212046FFF787F820B1B7
:1028B80000F08EFCA842F6D370BD304600F0ACFCA8
:1028C800012000F0B9FCDFE77C030020000801408C
:1028D8004135000870B5002000F0AEFC00F076FE2F
:1028E8000023164C1A46202115482370FFF76CF870
:1028F80000F074FC00F0CAFC114C124E0221204674
:10290800FFF75CF80028F9D000F062FC05460020CB
:1029180005F5486500F090FC04E002212046FFF729
:102928004DF820B100F054FCA842F6D370BD3046F3
:1029380000F072FC012000F07FFCDFE77C03002040
:102948000008014041350008F0B54E4D97B0FFF73B
:10295800DDF8AB69032043F00103AB61AB690224E6
:1029680003F001030093009BFEF79EFE00226FF028
:102978000B001146FEF7AAFE00226FF00A0011466E
:10298800FEF7A4FE00226FF009001146FEF79EFE36
:1029980000226FF004001146FEF798FE00226FF047
:1029A80003001146FEF792FE00226FF00100114667
:1029B800FEF78CFE00224FF0FF301146FEF786FE30
:1029C8000026012710224FF460130CA80C941394CE
:1029D800CDE91072CDE91463FEF704F90F224FF424
:1029E8008063214601A80192CDE902460493059629
:1029F800FEF7E0FA4FF4404306A808930694FEF762
:102A0800EBFFFEF7ADFB204B204CA3FB0030800909
:102A1800FEF79EFE0420FEF7B3FE324631464FF025
:102A2800FF30FEF753FE6B6923F001036B61FFF77C
:102A380029FCFFF733FDFFF723FEFFF7B9FE3A46FF
:102A480020212046FEF7C0FF1148FFF75FF9114823
:102A5800FFF75CF9104800F0DFFB3A4604210F4805
:102A6800FEF7B2FFFFF766FB3220FFF76FF800F0C2
:102A7800AFFD02212046FEF7A1FF0028F9D117B0CB
:102A8800F0BD00BF00100240D34D621000080140A5
:102A9800F0010020A4000020AD340008000C014023
:102AA80001222DE9F84F414BDFF81C91DFF81C811A
:102AB800DFF81CA13E4DDFF81CB11A70FFF744FF88
:102AC80000F070FE012000F0B7FB3A4F0320FFF73B
:102AD8003DF800F07FFD02212846FEF76FFFB8B3EE
:102AE80000F076FB0646002006F5FA4400F0A4FB49
:102AF80004E002212846FEF761FF08B300F068FBF6
:102B0800A042F6D306F51C362B4806F5807600F071
:102B180083FB05E002212846FEF750FF002842D03B
:102B280000F056FBB042F5D3244800F075FB0221B3
:102B38002846FEF743FF0028F9D1FFF7CBFEBDE793
:102B4800384600F069FB012000F076FB00F02EFE0D
:102B5800D9F80030D8F800209A4217D8DAF80020BF
:102B6800012AB3D95B4505D901230133DBB293426E
:102B7800FBD3ABE7124B586800F04EFB114B1B68B8
:102B88000A2BA2D90A230F4A13609EE70C4B186838
:102B980000F042FB002000F04FFBC820FEF7D6FFF4
:102BA800FFF75EFE8AE7FFF75BFE87E77C030020FE
:102BB8000008014041350008F9340008753500085F
:102BC8002C000020E403002014000020D038000866
:102BD800DC380008B5F1050040F2DE32036810B4B5
:102BE800934224DCA2F2BC729342B8BF134603F5A9
:102BF8007A7240F2DE314368134C8B42626319DC0F
:102C0800124A9342B8BF134603F57A7240F2DE3196
:102C180083680D488B4282630FDC0C4A10BC9342D8
:102C2800B8BF1346084A03F57A73D363704740F276
:102C3800C672DEE740F2C672E8E740F2C673024A9F
:102C480010BCD363704700BF002C014022FCFFFF7B
:102C580040F2DE32036810B4934224DCA2F2BC7264
:102C68009342B8BF134603F57A7240F2DE314368E7
:102C7800134C8B42626319DC124A9342B8BF134665
:102C880003F57A7240F2DE3183680D488B42826325
:102C98000FDC0C4A10BC9342B8BF1346084A03F530
:102CA8007A73D363704740F2C672DEE740F2C672A9
:102CB800E8E740F2C673024A10BCD363704700BF0E
:102CC8000034014022FCFFFF0B4A0C4891689368CE
:102CD80081F08001926883F04003C1F3C011C3F30F
:102CE800801303EB410382F02002C2F3401200EB91
:102CF8004303985C704700BF000C01404C38000843
:102D08000B4A0C489168936881F48051926883F467
:102D18000063C1F30031C3F3C02303EB410382F422
:102D28008062C2F3802200EB4303985C704700BFC7
:102D3800001001404C380008704700BF014B40426A
:102D480018607047E8030020014B5860704700BFC7
:102D5800E8030020054A064B12680421A3FB02324F
:102D68000448C2F38022FEF72FBE00BF580000209F
:102D7800D34D6210000C0140054A536C18B923F476
:102D880000435364704743F400435364704700BFE3
:102D980000340140054A536C18B923F400435364C6
:102DA800704743F400435364704700BF002C014050
:102DB800164B1B68B3F5806F23D2154A154B126862
:102DC80010B41888148859882044401018805488F2
:102DD80098882144491059809488D9882044401003
:102DE8009880D488188921444910D9801489598930
:102DF800204440101881528910BC0A4452105A814C
:102E08007047054B054A1A60704700BF58000020FC
:102E1800040000200800002020000020292E0008BF
:102E28000A232DE9F04F4FF0080B4FF00609002454
:102E38008DB00293B44BB54EDFF80CA30393B44B9B
:102E48004FEA840853F82430984756F82430B14A9A
:102E5800013346F82430135D0546834276D0135D6E
:102E6800AD490133A1FB0301890801EB4101A3EB43
:102E78004103DBB256F824009D42A84A18BF4042DD
:102E880052F824204AF824009047002346F82430BA
:102E9800A04B1D55A24B02991A68A2480495435AA3
:102EA800505AC01A0028B8BF4042FDF753FB94A3FC
:102EB800D3E90023FDF7B8FBFDF750FE9A4B9B4A78
:102EC80043F824001368039A98428CBF002001201D
:102ED8009047974A97491268934851F82410174623
:102EE8005AF8242056F8243050F82400009009A8F5
:102EF800B8479DF82C30F3B15AF82400FDF72AFBA7
:102F080000220023FDF702FE002840F030815AF825
:102F18002400FDF71FFB00220023FDF715FE50B12A
:102F280001357D4BA3FB0537BB0803EB4307A5EB36
:102F380047030493DDB2DDE909104342052D00F291
:102F48000581DFE805F08E716253433756F8242077
:102F58005AF82430002BB8BF5B429A429AD96F4B7B
:102F68005AF8240058F80370FDF7F4FA00220023F9
:102F7800FDF7CCFD002840F01E815AF82400FDF72B
:102F8800E9FA00220023FDF7DFFD0022002800F007
:102F98001081694B56F82400CDE90423FDF7CAFADD
:102FA800DDE90423FDF740FBFDF7D8FD4AF82400CE
:102FB800B8476FE700255AF824C04A42AC45CDE926
:102FC8000615089240F3EC80451857E000225AF89D
:102FD8002430C1F1000C93420691CDE907C240F3B9
:102FE800BF80ACEB000302460D4647E000255AF8C7
:102FF8002420C1F1000CAA420891CDE9065C40F3F7
:10300800C9801D460A18634638E04FF0000C5AF88C
:1030180024204D426245CDE907C1069540F3B880AA
:103028000A46052361460AE000225AF824304D4238
:103038009342CDE90712069540F3B7800523049F14
:103048001F44354BA3FB07C39B0803EB4303A7EBC4
:103058004303013B042B0FD8DFE803F08FB3B09292
:103068008B0000255AF824C04A42AC45CDE90651E8
:103078000892E3DC1D4681E0121A4318CDE9065395
:103088002E4B089253F8083006A89847244B254F32
:103098001868204B37F80950195D30F8092030F8C6
:1030A8000B3037F80B00521B1B1A052904D8DFE830
:1030B80001F020171704041B0023214A42F80830A6
:1030C800029BA9F10409023BABF1040B0293002C0B
:1030D8004AD11C4A08F104039B5801240393AEE625
:1030E800174B43F80820EBE79B1A154A42F80830BB
:1030F800E6E7D31A124A42F80830E1E7AFF3008056
:103108007B14AE47E17A943F812D0008C803002064
:1031180044380008E0030020ABAAAAAA5C380008DB
:103128000400002008000020C0030020E403002061
:103138001C000020D80300200000F03F543800088D
:10314800D003002064380008F003002000225AF859
:103158002430CDE906229342089215DC94461146A4
:103168000D46012361466AE70DB0BDE8F08F0535CD
:10317800D7E6121A05440B4680E72D1A43187DE757
:103188000B1A2946451879E705231146154656E7CF
:103198000A1873E70A46294601230D4661464EE799
:1031A800AC4601230D46614649E70B4602462D1AF7
:1031B80064E70023EEE60022044BEBE602440B1A18
:1031C8005CE702442D1A0B4658E700BF0000F0BF29
:1031D800014B1868704700BF5800002010B4044B1A
:1031E800044C00221C601021034810BCFEF7ECBB05
:1031F80018000020412D0008000801400020034964
:10320800034B044A08601A60704700BF580000204A
:1032180020000020B92D000838B5054D2B688342E1
:1032280005D00446034B186800F036F92C6038BD09
:1032380018000020580000200F4B104A19689142CE
:1032480019D0A8B930B504460D4A85B00D4D1A609D
:1032580001A82B78CDE901440394FFF7F9FC01A8F4
:103268006B78CDE901440394FFF7B6FC05B030BD97
:10327800054A1A607047704720000020B92D0008E1
:10328800412D0008E0030020292E0008014B024AC6
:103298001A607047200000205D2D000810F57A7F25
:1032A80004DBB0F57A7F10DC404201E04FF47A701D
:1032B800074A084B9142B8BF1146B1F57A7FA8BFBB
:1032C8004FF47A711860596070470148F0E700BF01
:1032D80018FCFFFFD803002002220D4B10B50D4C3F
:1032E8005A6023680C4A01332360136898470B4BD4
:1032F8001B68984723689B0608D10949094A0B6847
:103308009289C3EB832302EB93230B6010BD00BFAC
:103318000000024058000020200000201800002073
:103328001400002064020020704700BFFEE700BFC1
:10333800FEE700BFFEE700BFFEE700BF704700BF23
:10334800704700BF704700BF08B5FEF7F1FBBDE846
:103358000840FEF723BA00BF0022C0E9001202723B
:10336800704700BF0022C0E900220272704700BF08
:1033780010B40024064B446003FB01F1054B0472B2
:1033880083FB0143C917C1EB6331016010BC70476F
:10339800A08601009F95F51D00224FF47A710272F4
:1033A800C0E90012704700BF632A08D9002300292A
:1033B800B8BF0731C910C0E9001303727047002372
:1033C800C0E9001303727047054B00EB4000800012
:1033D8001A18926818580349034B08601A60704716
:1033E800943800081C000020E403002008B5FFF70B
:1033F800EFFE084B084A1B68C01AA2FB0032920570
:1034080001D4C30700D408BD1021BDE80840034813
:10341800FEF7DEBA84040020FB0E2A3100080140C2
:1034280008B5FFF7D5FE084B084A1B68C01AA2FB6F
:103438000032D20401D4830700D108BD1021BDE8B1
:1034480008400348FEF7C4BA840400203FCB9EC45A
:103458000008014008B5FFF7BBFE0B4B0B4A1B6881
:10346800C01AA2FB0032D30507D4094BA3FB0023E3
:103478005B0803EB4303984200D108BD1021BDE867
:1034880008400448FEF7A4BA84040020D34D621013
:10349800ABAAAAAA00080140014B1860704700BFF8
:1034A8008404002008B5FFF793FE0E4B1B68C01A72
:1034B800B0F5485F11D20C4BA3FB00235B0AC3F1A4
:1034C8000803B0FBF3F203FB120000B908BD10219A
:1034D800BDE808400548FEF77BBABDE80840FFF79D
:1034E8007DBE00BF840400201F85EB510008014009
:1034F80008B5FFF76DFE0D4B1B68C01AB0F5485FA5
:1035080010D20B4BA3FB00235B0A0133B0FBF3F291
:1035180003FB120000B908BD1021BDE808400548AA
:10352800FEF756BABDE80840FFF758BE84040020ED
:103538001F85EB510008014008B5FFF749FE094B0C
:103548001B68C01AB0F57A6F08D2830700D108BD8E
:103558001021BDE808400448FEF73ABABDE8084023
:10356800FFF73CBE840400200008014008B5FFF7BF
:103578002FFE0C4A0C4B1268801AA3FB0023DB09B0
:10358800022B0BD0032B0BD0012B09D0430707D0FC
:10359800BDE8084010210548FEF71ABA8207F7D19E
:1035A80008BD00BF84040020D34D6210000801400C
:1035B80008B5FDF7FBFABDE80840FDF709BB00BFF9
:1035C800014B1B68184700BF38000020704700BF38
:1035D800FFF714BE6FF4FC622DE9F8436C4B5E688C
:1035E800F08883183E2B40F28D80A0F50060FCF730
:1035F800B1FF0022002304460D46FDF787FA002894
:1036080040F0B0800022002320462946FDF79CFAAE
:1036180038B12046294600225E4BFCF74DFE044691
:103628000D4620462946FDF799FA80EAE073A3EB98
:10363800E073B3F5F46F02467FDBFCF78BFF0022E3
:10364800002380468946FDF761FA0546002840F0C8
:103658009B804946404600220023FDF775FA4E4CF0
:103668004E49002808BF0C466FF4FC637088C318E5
:103678003E2B36D9A0F50060FCF76CFF0022002332
:1036880006460F46FDF742FA002874D100220023AF
:1036980030463946FDF758FA38B1304639460022E7
:1036A8003C4BFCF709FE06460F4630463946FDF707
:1036B80055FA80EAE073A3EBE073B3F5F46F0246C2
:1036C80023DBFCF747FF0022002306460F46FDF7E1
:1036D8001DFA78BB3046394600220023FDF734FA3C
:1036E80038B92846214600220023FCF79DFF0546ED
:1036F8000C4621462846FDF731FABDE8F843014655
:10370800FFF7CCBD0025254CAEE74FF47A7303FBD9
:1037180002F2234BD01783FB02131344C0EBA32000
:10372800FCF718FF0022002306460F46FDF7EEF9C6
:103738000028CFD004F10044DBE74FF47A7303FB91
:1037480002F2174BD01783FB02131344C0EBA320DC
:1037580000F57A7000EBD0704010FCF7FBFE0546D0
:103768000C4681E72046294600220A4BFCF7A6FDB5
:1037780004460D4655E7304639460022054BFCF70E
:103788009DFD06460F4690E700252C466CE700BFD6
:10379800240000200000404000408F4000407F404F
:1037A80099295D860320FFF70FBE00BF704700BF51
:1037B800002103E00B4B5B58435004310A480B4B84
:1037C80042189A42F6D30A4A02E0002342F8043B20
:1037D800084B9A42F9D3FEF785FCFCF745FDFFF745
:1037E8005FF97047E8380008000000203C0000201E
:1037F8003C00002088040020FEE70000F8B500BF68
:10380800F8BC08BC9E467047F8B500BFF8BC08BCB9
:043818009E46704711
:10381C0002030405060708090A0B0C0D0E0F101005
:10382C000000000000000000010203040607080964
:10383C000000000001020304D12C0008092D00082F
:10384C000202040300010502592C0008E12B0008B8
:10385C00452D0008512D0008812D00089D2D0008D4
:10386C00204F6666000000005354564F00000000C5
:10387C004C6F526100000000466173740000000040
:10388C0052616365000000006D3300086C3800085D
:10389C0000000000B1330008743800080500000077
:1038AC00613300087C3800081900000079330008E7
:1038BC008438000864000000A13300088C3800082C
:1038CC00C80000000D630500B6F10500D1500600DC
:0438DC0003000000E5
:0438E0005102000889
:0438E40029020008AD
:1038E80000A24A046402002000080008000800083A
:1038F8000008000800A01A00412D00086D330008D8
:10390800412D00086404002070020020F5330008EF
:0C3918005D34000829340008B9350008AF
:04000005080037B9FF
:00000001FF
