:020000040800F2
:1000000000C00020A1370008193500081D35000880
:1000100021350008253500082935000800000000BA
:100020000000000000000000000000002D35000866
:10003000313500080000000035350008393500086A
:10004000E9370008E9370008E9370008E937000810
:10005000E9370008E9370008E9370008E937000800
:10006000E9370008E9370008E9370008C934000813
:10007000E9370008E9370008E9370008E9370008E0
:100080004935000855350008E9370008E937000808
:10009000E9370008E9370008E9370008E9370008C0
:1000A000E9370008E9370008E9370008E9370008B0
:1000B000E9370008E9370008E9370008E9370008A0
:1000C000E9370008E9370008E9370008E937000890
:1000D000E9370008E9370008E9370008E937000880
:1000E000E9370008E9370008E9370008E937000870
:1000F000E9370008E9370008E9370008E937000860
:10010000E9370008E9370008E9370008E93700084F
:10011000E9370008E9370008E9370008E93700083F
:10012000E9370008E9370008E9370008E93700082F
:1001300000000000000000000000000000000000BF
:1001400000000000000000000000000000000000AF
:10015000000000000000000000000000000000009F
:10016000000000000000000000000000000000008F
:10017000000000000000000000000000000000007F
:10018000000000000000000000000000000000006F
:10019000000000000000000000000000000000005F
:1001A000000000000000000000000000000000004F
:1001B000000000000000000000000000000000003F
:1001C000000000000000000000000000000000002F
:1001D000000000000000000000000000000000001F
:0401E0005FF8E0F1F3
:1001E80010B5054C237833B9044B13B10448AFF369
:1001F80000800123237010BD3000002000000000A3
:100208003438000808B5034B1BB103490348AFF362
:10021800008008BD000000003400002034380008C9
:1002280081F0004102E000BF83F0004330B54FEA9F
:1002380041044FEA430594EA050F08BF90EA020F0C
:100248001FBF54EA000C55EA020C7FEA645C7FEA9F
:10025800655C00F0E2804FEA5454D4EB5555B8BFC2
:100268006D420CDD2C4480EA020281EA030382EA33
:10027800000083EA010180EA020281EA0303362DC5
:1002880088BF30BD11F0004F4FEA01314FF4801C98
:100298004CEA113102D0404261EB410113F0004FAA
:1002A8004FEA03334CEA133302D0524263EB430361
:1002B80094EA050F00F0A780A4F10104D5F1200EFF
:1002C8000DDB02FA0EFC22FA05F2801841F100015A
:1002D80003FA0EF2801843FA05F359410EE0A5F12E
:1002E80020050EF1200E012A03FA0EFC28BF4CF05F
:1002F800020C43FA05F3C01851EBE37101F0004515
:1003080007D54FF0000EDCF1000C7EEB00006EEB21
:100318000101B1F5801F1BD3B1F5001F0CD34908AB
:100328005FEA30004FEA3C0C04F101044FEA445202
:1003380012F5800F80F09A80BCF1004F08BF5FEA89
:10034800500C50F1000041EB045141EA050130BD69
:100358005FEA4C0C404141EB010111F4801FA4F10C
:100368000104E9D191F0000F04BF01460020B1FA61
:1003780081F308BF2033A3F10B03B3F120020CDA99
:100388000C3208DD02F1140CC2F10C0201FA0CF077
:1003980021FA02F10CE002F11402D8BFC2F1200CDC
:1003A80001FA02F120FA0CFCDCBF41EA0C01904092
:1003B800E41AA2BF01EB0451294330BD6FEA0404DB
:1003C8001F3C1CDA0C340EDC04F11404C4F12002C6
:1003D80020FA04F001FA02F340EA030021FA04F3D8
:1003E80045EA030130BDC4F10C04C4F1200220FA2F
:1003F80002F001FA04F340EA0300294630BD21FA6D
:1004080004F0294630BD94F0000F83F4801306BF32
:1004180081F480110134013D4EE77FEA645C18BF26
:100428007FEA655C29D094EA050F08BF90EA020FBD
:1004380005D054EA000C04BF1946104630BD91EAB5
:10044800030F1EBF0021002030BD5FEA545C05D1B8
:100458004000494128BF41F0004130BD14F58004F7
:100468003CBF01F5801130BD01F0004545F0FE416B
:1004780041F470014FF0000030BD7FEA645C1ABFA0
:10048800194610467FEA655C1CBF0B46024650EAD7
:10049800013406BF52EA033591EA030F41F4002103
:1004A80030BD00BF90F0000F04BF0021704730B589
:1004B8004FF4806404F132044FF000054FF000015E
:1004C80050E700BF90F0000F04BF0021704730B51F
:1004D8004FF4806404F1320410F0004548BF4042F4
:1004E8004FF000013EE700BF42004FEAE2014FEA49
:1004F80031014FEA02701FBF12F07F4393F07F4F24
:1005080081F06051704732F07F4208BF704793F026
:100518007F4F04BF41F40021704730B54FF4607439
:1005280001F0004521F000411CE700BF50EA01023C
:1005380008BF704730B54FF000050AE050EA0102E5
:1005480008BF704730B511F0004502D5404261EB55
:1005580041014FF4806404F132045FEA915C3FF496
:10056800D8AE4FF003025FEADC0C18BF03325FEA33
:10057800DC0C18BF033202EBDC02C2F1200300FAE4
:1005880003FC20FA02F001FA03FE40EA0E0021FA09
:1005980002F11444BDE600BF70B54FF0FF0C4CF4F7
:1005A800E06C1CEA11541DBF1CEA135594EA0C0FA9
:1005B80095EA0C0F00F0DEF82C4481EA030621EAE4
:1005C8004C5123EA4C5350EA013518BF52EA03351F
:1005D80041F4801143F4801338D0A0FB02CE4FF0D1
:1005E8000005E1FB02E506F00042E0FB03E54FF001
:1005F8000006E1FB03569CF0000F18BF4EF0010EF9
:10060800A4F1FF04B6F5007F64F5407404D25FEAF4
:100618004E0E6D4146EB060642EAC62141EA5551A7
:100628004FEAC52040EA5E504FEACE2EB4F1FD0CE9
:1006380088BFBCF5E06F1ED8BEF1004F08BF5FEA67
:10064800500E50F1000041EB045170BD06F0004619
:1006580046EA010140EA020081EA0301B4EB5C04C6
:10066800C2BFD4EB0C0541EA045170BD41F48011BE
:100678004FF0000E013C00F3AB8014F1360FDEBFE3
:10068800002001F0004170BDC4F10004203C35DABF
:100698000C341BDC04F11404C4F1200500FA05F342
:1006A80020FA04F001FA05F240EA020001F00042E3
:1006B80021F0004110EBD37021FA04F642EB060159
:1006C8005EEA430E08BF20EAD37070BDC4F10C0483
:1006D800C4F1200500FA04F320FA05F001FA04F247
:1006E80040EA020001F0004110EBD37041F1000133
:1006F8005EEA430E08BF20EAD37070BDC4F120053E
:1007080000FA05F24EEA020E20FA04F301FA05F2A5
:1007180043EA020321FA04F001F0004121FA04F24D
:1007280020EA020000EBD3705EEA430E08BF20EA1D
:10073800D37070BD94F0000F0FD101F00046400057
:1007480041EB010111F4801F08BF013CF7D041EAD9
:10075800060195F0000F18BF704703F000465200DD
:1007680043EB030313F4801F08BF013DF7D043EAAE
:100778000603704794EA0C0F0CEA135518BF95EA64
:100788000C0F0CD050EA410618BF52EA4306D1D1EB
:1007980081EA030101F000414FF0000070BD50EA0A
:1007A800410606BF1046194652EA430619D094EA94
:1007B8000C0F02D150EA013613D195EA0C0F05D17E
:1007C80052EA03361CBF104619460AD181EA0301D2
:1007D80001F0004141F0FE4141F470014FF000008A
:1007E80070BD41F0FE4141F4780170BD70B54FF025
:1007F800FF0C4CF4E06C1CEA11541DBF1CEA1355A5
:1008080094EA0C0F95EA0C0F00F0A7F8A4EB050486
:1008180081EA030E52EA03354FEA013100F088807D
:100828004FEA03334FF0805545EA131343EA126346
:100838004FEA022245EA111545EA10654FEA0026FB
:100848000EF000419D4208BF964244F1FD0404F5B4
:10085800407402D25B084FEA3202B61A65EB030510
:100868005B084FEA32024FF480104FF4002CB6EBCD
:10087800020E75EB030E22BFB61A754640EA0C004D
:100888005B084FEA3202B6EB020E75EB030E22BF8D
:10089800B61A754640EA5C005B084FEA3202B6EBCE
:1008A800020E75EB030E22BFB61A754640EA9C008D
:1008B8005B084FEA3202B6EB020E75EB030E22BF5D
:1008C800B61A754640EADC0055EA060E18D04FEA1B
:1008D800051545EA16754FEA06164FEAC30343EABB
:1008E80052734FEAC2025FEA1C1CC0D111F4801F88
:1008F8000BD141EA00014FF000004FF0004CB6E781
:1009080011F4801F04BF01430020B4F1FD0C88BF1F
:10091800BCF5E06F3FF6AFAEB5EB030C04BFB6EB2A
:10092800020C5FEA500C50F1000041EB045170BD1D
:100938000EF0004E4EEA113114EB5C04C2BFD4EB4A
:100948000C0541EA045170BD41F480114FF0000ECE
:10095800013C90E645EA060E8DE60CEA135594EA4A
:100968000C0F08BF95EA0C0F3FF43BAF94EA0C0F4D
:100978000AD150EA01347FF434AF95EA0C0F7FF4C2
:1009880025AF104619462CE795EA0C0F06D152EA16
:1009980003353FF4FDAE1046194622E750EA4106FA
:1009A80018BF52EA43067FF4C5AE50EA41047FF40B
:1009B8000DAF52EA43057FF4EBAE12E74FF0FF3C70
:1009C80006E000BF4FF0010C02E000BF4FF0010C41
:1009D8004DF804CD4FEA410C7FEA6C5C4FEA430CBA
:1009E80018BF7FEA6C5C1BD001B050EA410C0CBF09
:1009F80052EA430C91EA030F02BF90EA020F00206B
:100A0800704710F1000F91EA030F58BF994208BFD1
:100A180090422CBFD8176FEAE37040F0010070478E
:100A28004FEA410C7FEA6C5C02D150EA013C07D1E5
:100A38004FEA430C7FEA6C5CD6D152EA033CD3D030
:100A48005DF8040B704700BF8446104662468C462A
:100A58001946634600E000BF01B5FFF7B7FF00285D
:100A680048BF10F1000F01BD4DF808EDFFF7F4FF86
:100A78000CBF012000205DF808FB00BF4DF808ED11
:100A8800FFF7EAFF34BF012000205DF808FB00BF34
:100A98004DF808EDFFF7E0FF94BF012000205DF856
:100AA80008FB00BF4DF808EDFFF7CEFF94BF01200B
:100AB80000205DF808FB00BF4DF808EDFFF7C4FF04
:100AC80034BF012000205DF808FB00BF4FEA410257
:100AD80012F5001215D211D56FF47873B3EB625288
:100AE80012D94FEAC12343F0004343EA505311F0AF
:100AF800004F23FA02F018BF404270474FF0000041
:100B0800704750EA013005D111F0004008BF6FF07E
:100B1800004070474FF00000704700BF2DE9F041DA
:100B2800036882B0DD07044630D5AB494A6802F055
:100B38000C02042A00F0DA804A6802F00C02082A43
:100B480000F0D0806368B3F5803F00F00F81002B80
:100B580000F02781B3F5A02F00F0B5819E4B1A68ED
:100B680022F480321A601A6822F480221A6000F097
:100B780093FF994D064605E000F08EFF801B642820
:100B880000F20B812B689A03F6D523689F0728D5B6
:100B9800914A516811F00C0F00F0B680516801F0CD
:100BA8000C01082900F0AC802369002B00F041817A
:100BB80001228A4B884D1A6000F06EFF064605E058
:100BC80000F06AFF801B022800F2E7802B68980774
:100BD800F6D52B68626923F0F80343EAC2032B6059
:100BE80023681A0722D5A369002B00F098800122F8
:100BF8007B4B794D1A6000F04FFF064605E000F088
:100C08004BFF801B022800F2C8806B6A9B07F6D551
:100C1800744B754A1B68A2FB03235B0A019300BF50
:100C2800019B5A1E0192002BF9D123685D0739D523
:100C3800694BDA69D00040F1828000256B4B1A6855
:100C4800D10540F19980E368012B0FD0002B00F00B
:100C5800D180052B604B1A6A00F0FC8022F001025B
:100C68001A621A6A22F004021A6204E05A4A136AE3
:100C780043F00103136200F00FFF574E804641F224
:100C8800883706E000F008FFA0EB0800B84200F241
:100C98008480336A9B07F5D525B14F4AD36923F081
:100CA8008053D361E269CAB14B4D696801F00C0108
:100CB800082930D0022A4FF000014D4A00F0D280B6
:100CC800116000F0E9FE2C46054604E000F0E4FE61
:100CD800401B022861D823689B01F7D4002002B08A
:100CE800BDE8F0814A68D0037FF52CAF3A4A126814
:100CF80091037FF54BAF6268002A7FF447AF0AE0A3
:100D08005268D6033FF550AF334A1268950721D58C
:100D18002269012A1ED0012002B0BDE8F081304AC4
:100D28002D4D136000F0B8FE064604E000F0B4FE56
:100D3800801B022831D86B6A9F07F7D475E7DA69F8
:100D4800012542F08052DA61DB6903F08053009399
:100D5800009B73E7204960690A6822F0F80242EABA
:100D6800C0020A601A077FF561AF3CE71A4A1368A8
:100D780043F480331360FAE61A681E4642F4807220
:100D88001A6000F089FE07463368DA053FF55BAF65
:100D980000F082FEC01B6428F6D9032002B0BDE82B
:100DA800F08103F1804303F504331A681D4622F4E9
:100DB80080321A601A6822F480221A6000F06CFEF1
:100DC800064604E000F068FE801B6428E5D82B681E
:100DD8009B03F7D4D9E600BF00100240000042424E
:100DE8008004424200000020D34D62100070004091
:100DF8006000424203F1804303F504331A6A1E4639
:100E080022F001021A621A6A41F2883822F00402BA
:100E18001A6200F041FE074604E000F03DFEC01BE8
:100E28004045BAD8336A9807F7D4002D3FF43AAF53
:100E380033E72B4A2B4D136000F02EFE064604E0E4
:100E480000F02AFE801B0228A7D82B689907F7D440
:100E58002368C6E642F004021A621A6A42F00102E6
:100E68001A6208E7116000F017FE064604E000F079
:100E780013FE801B022890D82B689901F7D4226AA8
:100E8800B2F5803F05D16B68A16823F400330B43AA
:100E98006B600125134B606A5968024321F4741191
:100EA80011480A435A6005601C4600F0F5FD0546E6
:100EB80005E000F0F1FD401B02283FF66EAF236805
:100EC8009A01F6D50AE703F18043A3F53C331A6883
:100ED80042F480221A601A6842F480321A6046E6A8
:100EE800000042420010024060004242634A136818
:100EF80003F007038B420BD2136823F007030B435D
:100F08001360136803F007038B4201D00120704778
:100F18002DE9F041036886B09C0706D5584C8568D2
:100F2800626822F0F0022A436260DA0704460E463D
:100F380025D54268524B012A1B6800F09980022A85
:100F480000F092809D072AD54D4D41F288386B6894
:100F580023F0030313436B6000F09EFD63680746AC
:100F6800012B64D0022B06D16CE000F095FDC01B6C
:100F7800404500F281806B6813F00C0FF5D13F4AB1
:100F8800136803F00703B3420DD9136823F007036E
:100F980033431360136803F00703B34203D00120FF
:100FA80006B0BDE8F0812368580706D53449E068E3
:100FB8004A6822F4E06202434A60190707D5304ABA
:100FC8002169536823F4605343EAC103536040F234
:100FD80001222C4B06ACADF804200FCB04E90F001E
:100FE80027494A6802F00C03082B10D0264B244AE4
:100FF800264852682649C2F30312825C0020D34077
:101008000B6000F019FD002006B0BDE8F081C2F3C6
:1010180083432344D20313F8103C19D41D4A02FB1E
:1010280003F3E4E700F038FDC01B404524D86B68A3
:1010380003F00C03042BF5D1A1E700F02DFDC01B34
:10104800404519D86B6803F00C03082BF5D196E7D7
:101058004A680D49C2F34042224412F8142CB1FBED
:10106800F2F203FB02F3C2E79F013FF56DAF96E78B
:101078009B033FF569AF92E7032091E70020024008
:10108800001002404C38000800127A005C38000852
:101098000000002000093D00014B1868704700BFA0
:1010A80000000020044B05495B68054AC3F302238E
:1010B800CB5C1068D8407047001002406C380008BC
:1010C80000000020044B05495B68054AC3F3C223AE
:1010D800CB5C1068D8407047001002406C3800089C
:1010E80000000020704700BF00284ED090F83D3027
:1010F80070B503F0FF02044663B302232268244E4E
:1011080084F83D30B24213686168E068A56926D06A
:1011180006F50066B24222D0B2F1804F0BD0A6F598
:101128009836B24207D006F58066B24203D006F57B
:101138008066B24207D1A66823F07003334326695C
:1011480023F44073334323F080032B431360D062AE
:10115800916214E080F83C20FFF7C4FFCDE7A66851
:1011680023F070033343266923F44073334323F099
:1011780080032B431360D062916263691363012378
:101188000020536184F83D3070BD0120704700BFD6
:10119800002C01400122036802FA01F11A6A0C4886
:1011A80022EA01021A621A6A834241EA02011962BA
:1011B80008D0084A934205D01A68002042F001027C
:1011C8001A6070475A6C42F400425A64F4E700BF50
:1011D800002C01400034014090F83C30012B00F015
:1011E800C980F0B40223012480F83D3080F83C40E7
:1011F8000C2A33D8DFE802F0073232326732323253
:10120800933232323B0003688E681D6A0F6825F0FE
:1012180001051D621A6A5D6822F002029C69324368
:101228006E4E24F07304B34244EA070400F0B98018
:1012380006F50066B34200F0B4804E685D609C61BC
:101248005E631A629C690D6944F008049C6199699F
:1012580021F0040199619A692A439A610023F0BC3C
:10126800012280F83C3080F83D201846704703681A
:101278008E681D6A0F6825F480551D621A6A5D68BC
:1012880022F40052DC6942EA0632544E24F4E64461
:10129800B34244EA07246FD006F50066B3426BD028
:1012A8004E685D60DC611E641A62DC690D6944F495
:1012B8000064DC61D96921F48061D961DA6942EAA4
:1012C8000522DA61CAE703688E681D6A0F6825F08F
:1012D80010051D621A6A5D6822F020029C6942EAC4
:1012E80006123E4E24F4E644B34244EA072465D08D
:1012F80006F50066B34261D04E685D609C619E63EE
:101308001A629C690D6944F400649C61996921F42E
:10131800806199619A6942EA05229A619EE70368A9
:101328008E681D6A0F6825F480751D621A6A5D68EB
:1013380022F40072DC6942EA0622284E24F0730483
:10134800B34244EA07041DD006F50066B34219D03B
:101358004E685D60DC61DE631A62DC690D6944F029
:101368000804DC61D96921F00401D961DA692A43EA
:10137800DA6173E7022070474E6925F4804545EA33
:1013880086158DE7CE6822F4006242EA062225F42B
:101398004055D1E905673E4322F4806245EA0615C7
:1013A800D6E7CE6822F00802324325F44075D1E929
:1013B80005673E4322F0040235433EE7CE6822F03B
:1013C800800242EA061225F4406CD1E9056746EA34
:1013D800070522F040024CEA85058DE7002C014004
:1013E80090F83C30F0B4012B44D002220125036868
:1013F80080F83D209A684C6822F070020E682243FB
:1014080022F007023243502C80F83C509A6048D0B2
:1014180020D9602C32D0702C0AD1D1E902520C6943
:1014280099682A4342EA042221F47F410A439A60D8
:10143800002101250C46DA6822F04002DA60DA68F9
:1014480022F48042DA6080F83D5080F83C10204653
:10145800F0BC7047402CEBD11D6A1C6A0E6924F061
:1014680001041C629A6922F0F00242EA06129A61AB
:101478001D62DDE702242046F0BC70471C6A8D68B7
:1014880024F010040E691C6299691A6A21F47041EB
:1014980022F0A00241EA063142EA051299611A6275
:1014A800C6E71D6A1E6A8C6826F001060F691E626F
:1014B8009A6925F00A0122F0F002214342EA071254
:1014C8009A611962B4E700BF0422036802FA01F1C5
:1014D8001A6A002022EA01021A621A6A1143196282
:1014E8005A6C42F400425A641A6842F001021A60C7
:1014F800704700BF90F83C30012B22D00246D1E95A
:10150800020310B4002423F440730343486823F40F
:1015180080630343086823F400630343086923F4E2
:1015280080530343486923F400530343886923F431
:101538004043116803434B64204682F83C4010BC8A
:1015480070470220704700BF90F83C30012B1ED036
:1015580002460220F0B400250126136882F83D00F7
:101568005C680F6824F070045C6058684C68384305
:101578005860986820F08000986099682846214350
:10158800996082F83D6082F83C50F0BC70470220B8
:10159800704700BF90F82420012A2AD00346012072
:1015A8001A6883F824009068C00712D4124880682B
:1015B80010F001000DD130B4104CA24212D001201D
:1015C8009A6A42F020029A62002230BC83F82420F2
:1015D80070479A6A012042F020029A62002283F83A
:1015E8002420704754680D6824F470212943516001
:1015F800EAE70220704700BF0028014000240140AC
:101608004FF6FF01064A0002D36800F4E0600B4081
:1016180043F0BF6343F400330343D360704700BF14
:1016280000ED00E0184B30B4DB68C3F30223C3F1CC
:101638000705042D03F1040428BF0425062C19D935
:101648004FF0FF34033B9C4022EA04044FF0FF3282
:10165800AA4021EA020101FA03F2224312010028FA
:10166800D2B20ADB00F1604000F5614080F8002347
:1016780030BC704700242346E8E7044B00F00F0015
:1016880003441A7630BC704700ED00E0FCEC00E043
:10169800012300F01F01034A40098B4042F8203023
:1016A800704700BF00E100E00138B0F1807F0DD243
:1016B80030B4F02500220721054B064C586084F809
:1016C8002350104630BC9A6019607047012070475B
:1016D80010E000E000ED00E0044A042813680CBFA5
:1016E80043F0040323F004031360704710E000E0A4
:1016F800704700BF08B5FFF7FBFF08BD2DE9F04FA5
:101708004FF0000883B04446DFF8F8C1764EDFF8A2
:10171800F8E103E00134102C00F0848001230A680A
:10172800A3401A409342F5D14D68122D00F0A880CD
:1017380000F28980022D00F09F807ED9032D00F0F1
:101748009880112D02D1CB6803F10408FF2A6CD8C8
:1017580082460368A5004FF00F0909FA05FB23EA42
:101768000B0308FA05F52B43CAF80030D1F804A09A
:101778001AF0805FCED05D4F24F00305BB6905F1F8
:10178800804543F00103BB61BB6905F5803503F073
:101798000103019304F0030B019B4FEA8B0BAB6829
:1017A80009FA0BF9604523EA090318D070456BD094
:1017B8004F4FB84200F083804E4FB84200F0868009
:1017C8004D4FB84200F089804C4FB8420CBF4FF0E3
:1017D80005094FF0060909FA0BFB43EA0B03AB6056
:1017E80033681AF4803F14BF13439343336073681C
:1017F8001AF4003F14BF134393437360B3681AF499
:10180800801F14BF13439343B360F3681AF4001F97
:1018180004F1010414BF1A4323EA0202102CF260F7
:101828007FF47CAF03B0BDE8F08F04F18045083D3C
:101838004368AD0000F1040A8DE7ADB1012D85D1F3
:10184800D1F80C8082E72E4FBD420DD02AD9DFF89F
:10185800BC904D4508D009F580394D4504D0A9F50F
:1018680080194D457FF472AF8D68A5B94FF0040813
:101878006CE74FF0000869E7CB6803F1080865E7F3
:10188800CB6803F10C0861E74FF0010909FA0BFB7B
:1018980043EA0B03A3E7012D0CBF036143614FF03B
:1018A800080853E7DFF868904D45DDD009F5803921
:1018B8004D457FF44BAF8D68002DD7D0EBE74FF047
:1018C800020909FA0BFB43EA0B0388E74FF0030907
:1018D80009FA0BFB43EA0B0381E74FF0040909FA05
:1018E8000BFB43EA0B037AE70004014000100240B7
:1018F800001001400014014000180140001C014084
:101908000000211000080140000C014000003110C7
:10191800000011108368194214BF0120002070478D
:1019280002B9090401617047C3685940C160704732
:101938002DE9F0410446006882B0C5072AD53A4B24
:10194800DA69D1003DD5394B00251A68D20546D54C
:10195800354960680A6A12F440720FD000F4407387
:1019680093420BD0012700260B6A314A23F44070BA
:10197800176016600862D80745D460682A4A136A57
:1019880023F44073034313621DB1D36923F08053DA
:10199800D3612068830706D5234AA168536823F4D6
:1019A80040430B43536010F0100007D000201E4A3C
:1019B8006169536823F480030B43536002B0BDE8A8
:1019C800F081DA69012542F08052DA61DB6903F0BF
:1019D80080530193019B154B1A68D205B8D41A6835
:1019E8001E4642F480721A6000F056F807463368C3
:1019F800DB05ADD400F050F8C01B6428F7D90320EC
:101A080002B0BDE8F0810E4600F046F841F2883792
:101A18008046336A9A07B0D400F03EF8A0EB08007D
:101A2800B842F6D9EBE700BF001002400070004052
:101A380040044242704700BF10B50446074A084BAD
:101A48001068A3FB00308009FFF72EFE2146002214
:101A58004FF0FF30FFF7E6FD002010BD000000202A
:101A6800D34D6210074A08B51368032043F01003EA
:101A78001360FFF7C5FD0020FFF7DEFFFFF7DAFF71
:101A8800002008BD00200240024A13680133136099
:101A9800704700BF50000020014B1868704700BF16
:101AA8005000002030B583B00190FFF7F5FF0546E0
:101AB800019C631C18BF0134FFF7EEFF401BA042D6
:101AC800FAD303B030BD00BF704700BF002875D0FF
:101AD800836A70B50446002B66D023689A68D007DD
:101AE8004DD4A26AD20644D4A26A5B4922F4885231
:101AF80022F0020242F002028B42A262E0696268AE
:101B080078D0D4E9021542EA4502B1F5807F42EA6D
:101B1800000260695DD0012900F08D80012800F085
:101B2800988058684D4920F46940586000209D68A5
:101B3800294011439960D96A494D21F47001014344
:101B4800D9629B681D40AA423AD00120A36A23F0BB
:101B5800120343F01003A362E36A0343E36270BD18
:101B6800A36A43F01003A362E36A43F00103E3624C
:101B7800A36AA36A012043F01003A36270BD9A68A8
:101B880022F001029A60FFF787FF054604E0FFF79D
:101B980083FF401B0228E3D823689A68D107F6D44C
:101BA800A26AD206E5D49FE7C36280F82430FFF723
:101BB8008BFF23689A68D007E1D492E70120704729
:101BC8000020E062A36A23F0030343F00103A36249
:101BD80070BD012814D05868204920F4694040F4A9
:101BE80080705860986801401143996021690139F3
:101BF8000805A0E7B0F5402F08BF4FF4002080E7A4
:101C08000E46EDB9A069451E46EA453545F400661D
:101C18005D68124825F4694535435D609D68B1F5F6
:101C2800807F00EA050040EA02009860DED00129C2
:101C3800DCD000207FE70128CDD14FF48076E0E7A3
:101C4800A06A40F02000A062E06A40F00100E06273
:101C5800DEE70026D5E700BF003C0140FDF7E1FFC5
:101C6800FE0E1FFF90F82430012B66D000230121BF
:101C780070B5026882B001939368044680F8241016
:101C8800D80720D4404B41481B689168A0FB030348
:101C980041F001019B0C91600193019B2BB1019BC9
:101CA800013B0193019B002BF9D1FFF7F5FE064696
:101CB80004E0FFF7F1FE801B022832D822689568FD
:101CC80015F00105F5D0A36A314923F4407323F0D8
:101CD800010343F480738A42A36230D0A36A23F4D9
:101CE8008013A3625368590535D4A36A002113F4FD
:101CF800805318BFE36A84F8241018BF23F0060342
:101D0800E3626FF002031360936803F46023B3F592
:101D1800602F27D00020936843F48013936002B0AB
:101D280070BD0120A36A84F8245043F01003A36215
:101D3800E36A0343E36202B070BD02207047154BAB
:101D4800596811F4702FC9D0A16A41F48011A162B9
:101D58005B685B05C9D5A36A23F4405343F48053F9
:101D6800A362C2E70A4B9A4206D00020936843F464
:101D7800A003936002B070BDA3F580635B6813F4A1
:101D8800702FC7D1F1E700BF0000002083DE1B439E
:101D98000028014000240140002270B490F824304B
:101DA80083B0012B01925FD001234D680468062D92
:101DB80080F824300A6805EB85034FF01F0625D903
:101DC8000C2D47D8233B256B9E4025EA060502FAD1
:101DD80003F32B432363092A8B684FF0070602EBB2
:101DE800420123D91E39E5688E408B4025EA060159
:101DF8000B43E360A2F11003012B22D90023002238
:101E080080F82420184603B070BC7047053B656B0A
:101E18009E4025EA060502FA03F32B43092A636369
:101E28004FF007068B6802EB4201DBD825698E402C
:101E38008B4025EA06010B432361A2F11003012B15
:101E4800DCD81A4B9C4214D0826A012342F020024B
:101E58008262D4E7413BE56A9E4025EA060502FA1C
:101E680003F32B43E362B6E70223184603B070BCC2
:101E78007047A3681B02C1D4A368102A43F4000367
:101E8800A360BBD10A4B0B4A1B68A2FB03239B0C24
:101E980003EB83035B000193019B002BAED0019BF6
:101EA800013B0193019B002BF9D1A7E700240140D6
:101EB8000000002083DE1B43704700BF002800F0AD
:101EC8009C802DE9F84390F83930044603F0FF026E
:101ED800002B00F08D802422236884F83920DA68EA
:101EE800E06822F40052DA601969A26821F44051CE
:101EF80001431961D968D4E9045021F4B0512A4347
:101F080021F00C0102430A43DA605A69A0695B496F
:101F180022F4407202438B425A6170D0FFF7C2F834
:101F2800636800EB800000EB80009B00B0FBF3F3DC
:101F3800534F4FF06408A7FB03235B091D01FFF70C
:101F4800B1F8666800EB800000EB8000B600B0FBDB
:101F5800F6F6FFF7A7F8626800EB8000930000EB45
:101F68008000B0FBF3F3A7FB03235B0908FB1363B3
:101F78001B013233A7FB03235B0903F0F006FFF7CD
:101F880091F8626800EB800000EB80009300B0FBE2
:101F9800F3F9FFF787F8626800EB8000930000EB25
:101FA8008000B0FBF3F3A7FB03235B0908FB139343
:101FB8001B013233A7FB0323C3F3431333432B44DF
:101FC80020210025226828469360136923F4904352
:101FD8001361536923F02A035361D36843F4005310
:101FE800D360E56384F8391084F83A10BDE8F883C3
:101FF80080F83820FFF760FF6DE701207047FFF792
:1020080061F8636800EB800000EB80009B00B0FB88
:10201800F3F31B4F4FF06408A7FB03235B091D0173
:10202800FFF750F8666800EB800000EB8000B60010
:10203800B0FBF6F6FFF746F8626800EB8000930005
:1020480000EB8000B0FBF3F3A7FB03235B0908FB5D
:1020580013631B013233A7FB03235B0903F0F0066C
:10206800FFF730F8626800EB8000930000EB800017
:10207800B0FBF3F9FFF726F88DE700BF0038014001
:102088001F85EB51042270B4D0E90F6134680368EE
:102098008A4022421D6842D06A0740D51A689106D4
:1020A80003D41A6822F004021A609C4A9C4993429D
:1020B80040F292808B4200F0F08014318B4200F0A5
:1020C800F48014318B4200F0E38014318B4200F02D
:1020D800F78014318B4200F0FF8014318B4200F0FE
:1020E8000481934200F00D8102F56272934200F080
:1020F800D4801432934200F0D8801432934200F016
:10210800C7801432934214BF4FF480234FF48043A6
:10211800844A5360C36A002B5CD170BC70470222AA
:102128008A4022423FD0AA073DD51A68910606D4B4
:1021380001211A6822F00A021A6080F82110774AF1
:10214800774993426FD98B4200F0A98014318B42B2
:1021580000F0998014318B4200F0A98014318B4231
:1021680000F0B18014318B4200F0BC8014318B42F6
:1021780000F0C480934200F0CD8002F56272934271
:1021880000F08D80143293427DD01432934200F0D7
:102198008E801432934214BF4FF400324FF4005231
:1021A800604B5A6064E008228A402242B5D02A0770
:1021B800B3D5012200251C6802FA01F124F00E04AF
:1021C8001C60036B7160826380F8212080F82050C6
:1021D800002BA2D070BC18478B425CD014318B42C4
:1021E80061D014318B4250D014318B4265D01431F8
:1021F8008B426ED014318B427AD0934200F08480A7
:10220800494A934247D0143293424CD014329342F5
:102218003BD01432934214BF4FF480234FF48043D1
:10222800424A536076E78B423BD014318B4228D028
:1022380014318B423ED014318B4247D014318B423B
:102248004DD014318B4256D0934260D0364A9342D7
:1022580027D01432934214D0143293422AD0143225
:10226800934214BF4FF400324FF400522F4B5A6080
:102278000022836A80F82020002B3FF44EAF70BC08
:1022880018472022F2E720228AE74FF48063C7E745
:102298004FF480633CE70423C2E7042338E70222B3
:1022A8007EE70222E2E74023BAE7402330E74FF413
:1022B800007275E74FF40072D8E74FF48043AFE738
:1022C8004FF4804324E74FF4005269E74FF400527B
:1022D800CCE74FF48023A3E74FF4802318E74FF4AB
:1022E8000032C3E74FF400325AE74FF480030FE798
:1022F8004FF4800394E74FF40012B7E74FF400124D
:102308004EE74FF0806303E74FF0806388E74FF0B4
:102318000072ABE74FF0007242E700BF8000024056
:102328000800024000040240080402400000024085
:1023380030B44FF41F054FF000640E4B0E4A196875
:102348000E4841F00101196059680A405A601A683C
:1023580022F0847222F480321A601A6822F48022F1
:102368001A605A6822F4FE025A609D60846030BC8C
:10237800704700BF001002400000FFF800ED00E0C9
:102388004FF4E130F0B5082100241E4B97B0DA690C
:102398001D4D42F48022DA61DA69012702F48022B5
:1023A8000092009A5A69022642F001025A615B695A
:1023B800079003F00103019306A8019B0B91069572
:1023C800CDE908440A94CDE90C44FFF777FD4FF4B2
:1023D800806003226B6902A943F080036B6102905D
:1023E8000A480592CDE90367FFF788F99020702124
:1023F800074B084A04351C609D605C60186051609A
:1024080017B0F0BD0010024000480040000C014029
:102418001C0002400000024020222DE9F04F4FF03E
:10242800020800267F4B8BB099690AAC41F0040181
:10243800996199697C4F01F00401039103999969A5
:10244800384641F00801996199694FF0800B01F015
:102458000801049104999969744D41F0100199613A
:102468009B6944F8102D03F010030593214601924F
:10247800059BCDE90766CDF82480FFF73FF9402397
:10248800214638460693FFF739F921463846CDF8F4
:1024980018B0FFF733F94FF48063214628460693B6
:1024A800FFF72CF94FF400634FF4805A2146284671
:1024B80006F1804606F584360693FFF71FF9214694
:1024C8002846CDF818A0FFF719F921463046CDF86F
:1024D80018A0FFF713F9214630464FF00109CDF84F
:1024E8001880FFF70BF90423214638460693CDF8E8
:1024F8001C90FFF703F91023214630460693FFF797
:10250800FDF8019A214630460692FFF7F7F80323B3
:1025180021462846CDE90693FFF7F0F821463046D4
:10252800CDF81890FFF7EAF80823214628460693C5
:10253800FFF7E4F821462846CDF81880FFF7DEF8C3
:102548001023214628460693FFF7D8F8019A21461A
:1025580028460692FFF7D2F8042321462846069318
:10256800FFF7CCF80823214630460693FFF7C6F854
:102578000423214630460693FFF7C0F840234FF462
:10258800807A21462846CDE90638FFF7B7F8214674
:102598002846CDF818B0FFF7B1F828462146CDF8FF
:1025A80018A0FFF7ABF821463046CDF818B0FFF772
:1025B800A5F821463846CDF81890FFF79FF8214630
:1025C8003846CDF81880FFF799F821463046CDF8FF
:1025D80018A0FFF793F84FF400732146304606938E
:1025E800FFF78CF84FF48063304621460693FFF7D7
:1025F80085F84FF40053214638460693FFF77EF8D6
:102608004FF48043214638460693FFF777F84FF496
:102618000043214638460693FFF770F80BB0BDE833
:10262800F08F00BF00100240000C01400010014074
:102638002DE9F04F4FF47A7300244FF0200B4FF040
:10264800100A6F4A9BB091696E4E41F40061916126
:102658009169DFF8B88101F40061039103999169E8
:10266800304641F4005191619269C6E902B302F41F
:1026780000520492049A01937460C6E90444B46158
:10268800C6F80080FEF730FD05A93046CDE905A45F
:10269800FEF75AFF602308270C934FF40073224675
:1026A8000CA930461293CDE90D44CDE910440F979B
:1026B800FEF792FD0CA930460422FEF78DFD3A463E
:1026C8000CA93046FEF788FD4FF400624FF4806392
:1026D8004D4D13A93046CDE91323DFF83491CDE9E8
:1026E800154ACDE917441994FEF704FF019B2846C3
:1026F800EB60C5E9014BC5E90444AC61C5F800903D
:10270800FEF7F2FC802305A92846CDE905B3FEF7BC
:102718001BFF05231AA941F84C3D28460894FEF7EB
:102728005FFE6023CDE90C344FF4007322460CA9F8
:1027380028461293CDE90E47CDE91044FEF74CFD2B
:102748000CA928460422FEF747FD3A460CA928465C
:10275800FEF742FD4FF4006C4FF4806313A928463E
:10276800CDE913C3CDE9154ACDE917441994FEF70D
:10277800C1FED9F84430214623F40043C9F8443057
:10278800D8F84430284623F40043C8F84430FEF70C
:1027980001FD28460421FEF7FDFC39462846FEF7D0
:1027A800F9FC21462846FEF78FFE28460421FEF74D
:1027B8008BFE39462846FEF787FE21463046FEF74F
:1027C800E9FC30460421FEF7E5FC39463046FEF7C1
:1027D800E1FC21463046FEF777FE30460421FEF73D
:1027E80073FE39463046FEF76FFE01212B683268CA
:1027F800196313680B4313601BB0BDE8F08F00BF6B
:10280800001002401C010020AC020020002C0140F6
:10281800003401402DE9F0434FF48077424E002503
:102828004FF005084FF44022B369404C43F400735D
:10283800B361B369A7604FF4C02787B03C4903F47C
:10284800007301932046019B2160E261E5606561A8
:102858006560C4F81080FFF739F9364A06A953684D
:10286800204643F48023536041F8187DFEF792FE1A
:102878000E2201234FF0020903A920460392CDE955
:102888000433FFF789FA03A920460B27CDE903593A
:10289800FFF782FA032303A9CDF8149020464FF0DE
:1028A8000C09CDE90373FFF777FA04230DEB09014F
:1028B8002046CDE90393FFF76FFA0DEB0901204697
:1028C800CDE90398FFF768FA40F6A22C22681A4B64
:1028D8009168DFF86CE041F4807191609168174C61
:1028E80041F00101916071692A4641F0010171616D
:1028F8007069294600F00100029002981D60C3F833
:102908000480C3F808E0DC60C3F800C01C683846DF
:1029180044F001041C60FEF785FE3846FEF7B8FE59
:1029280007B0BDE8F08300BF00100240E4010020BA
:102938000024014000000140080002405802002025
:102948004C2401404FF48070F0B5002305274FF464
:102958006025254A254C9169A06041F48061916108
:10296800926985B0224902F4806200922046009A5A
:102978002160E561E360636163602761FFF7A6F8A2
:102988000F22012301A9204601920225CDE9023335
:10299800FFF702FA0D2301A92046CDE901350326E8
:1029A800FFF7FAF90A2301A92046CDE90136039574
:1029B800FFF7F2F9042320460DEB0301CDE901539B
:1029C800FFF7EAF901A92046CDE90167FFF7E4F925
:1029D80023689A6842F480729A609A6842F0010209
:1029E8009A6005B0F0BD00BF0010024098000020BA
:1029F8000028014070B5002000F012FD00222021BF
:102A08001448FEF78DFF00F0DDFC00F033FD114C9B
:102A1800114E02212046FEF77DFF0028F9D000F074
:102A2800CBFC0546002005F5C85500F0F9FC04E08C
:102A380002212046FEF76EFF20B100F0BDFCA8423F
:102A4800F6D370BD304600F0DBFC012000F0E8FC56
:102A5800DFE700BF000801402537000870B50020F7
:102A680000F0DEFC002220211448FEF759FF00F098
:102A7800A9FC00F0FFFC114C114E02212046FEF784
:102A880049FF0028F9D000F097FC0546002005F51D
:102A9800C85500F0C5FC04E002212046FEF73AFFC5
:102AA80020B100F089FCA842F6D370BD304600F092
:102AB800A7FC012000F0B4FCDFE700BF00080140DC
:102AC80025370008F0B54C4D97B0FEF7CBFFAB6942
:102AD800032043F00103AB61AB69022403F0010357
:102AE8000093009BFEF78CFD00226FF00B0011464F
:102AF800FEF798FD00226FF00A001146FEF792FDDE
:102B080000226FF009001146FEF78CFD00226FF0DD
:102B180004001146FEF786FD00226FF003001146FF
:102B2800FEF780FD00226FF001001146FEF77AFDE6
:102B380000224FF0FF301146FEF774FD00260127F2
:102B480010224FF460130CA80C941394CDE9107262
:102B5800CDE91463FDF7E2FF0F224FF480632146AD
:102B680001A80192CDE9024604930596FEF7BEF945
:102B78004FF4404306A808930694FEF7D9FEFEF7E3
:102B88008BFA1E4B1E4CA3FB00308009FEF78CFD10
:102B98000420FEF7A1FD324631464FF0FF30FEF724
:102BA80041FD6B6923F001036B61FFF735FCFFF70B
:102BB8003FFDFFF72FFEFFF7C5FEFFF7E1FB3A46A3
:102BC80020212046FEF7ACFE0E48FFF74BF80E48D2
:102BD800FFF748F80D4800F013FC3A4604210C486A
:102BE800FEF79EFE00F0D6FD02212046FEF792FE7B
:102BF8000028F9D117B0F0BD00100240D34D621083
:102C080000080140E40100209800002091360008E7
:102C1800000C01402DE9F84F4FF0000A4FF0000B6F
:102C2800654F664CFFF74EFF022000F0BFFC012005
:102C380000F0F6FB0320FEF735FF7B8A9BB2B3F565
:102C4800006644BF6FF4FF615E18FB89F6109BB203
:102C5800B3F50065304648BFA3F2FD75FDF732FCB9
:102C680052465B46AD1080468946FDF707FF0028AF
:102C780040F08380032E40F38B8052465B464046EB
:102C88004946FDF719FF38B14046494600224C4BEA
:102C9800FDF7CAFA8046894640464946FDF716FFC1
:102CA80006462846FDF70EFC52465B46FDF7E6FE53
:102CB80000285DD1042DCCBF00230123002B55D063
:102CC80030460025A91B00F0DDFB02212046FEF757
:102CD80021FEA8B300F070FB8046002008F57A4575
:102CE80000F09EFB04E002212046FEF713FE08B325
:102CF80000F062FBA842F6D308F59C26314806F599
:102D0800007600F07DFB05E002212046FEF702FE7A
:102D180000284DD000F050FBB042F5D32A4800F00F
:102D28006FFB02212046FEF7F5FD0028F9D1FFF7D9
:102D380095FE77E7254800F063FB012000F070FB63
:102D4800234B244A1B68934226D9234A93423FF6D1
:102D580071AF224B586800F053FB214B1B680A2BBC
:102D68007FF668AF0A231E4A136063E7A819A9E72C
:102D78002A1DB4BF00230123A0E703360ADA404620
:102D8800494600220E4BFDF751FA8046894683E7F3
:102D9800064686E7002684E7124800F031FB00204B
:102DA80000F03EFBC820FEF77DFEFFF723FE39E763
:102DB800FFF720FE36E700BF580200200008014058
:102DC80000001040DD360008593700082537000894
:102DD80014000020DB311300E16E140024000020F1
:102DE800100300201D3600080368B3F5F57F20DCCA
:102DF800154A9342B8BF134603F5FA72436813495C
:102E0800B3F5F57F4A6317DC0F4A9342B8BF134600
:102E180003F5FA7283680D49B3F5F57F8A630EDC12
:102E2800094A9342B8BF1346084A03F5FA73D363B5
:102E3800704740F2DE32E1E740F2DE32EAE740F284
:102E4800DE33024AD363704716FEFFFF002C0140B1
:102E58000368B3F5F57F20DC154A9342B8BF1346E3
:102E680003F5FA7243681349B3F5F57F4A6317DC33
:102E78000F4A9342B8BF134603F5FA7283680D49A7
:102E8800B3F5F57F8A630EDC094A9342B8BF13464F
:102E9800084A03F5FA73D363704740F2DE32E1E77C
:102EA80040F2DE32EAE740F2DE33024AD36370478B
:102EB80016FEFFFF003401400B4A0C4891689368E6
:102EC80081F08001926883F04003C1F3C011C3F31D
:102ED800801303EB410382F02002C2F3401200EB9F
:102EE8004303985C704700BF000C01407C38000821
:102EF8000B4A0C489168936881F48051926883F476
:102F08000063C1F30031C3F3C02303EB410382F430
:102F18008062C2F3802200EB4303985C704700BFD5
:102F2800001001407C380008704700BF014B404248
:102F38001860704714030020014B5860704700BFA9
:102F480014030020054A064B12680421A3FB023231
:102F58000448C2F3C022FEF7E3BC00BF4C000020C7
:102F6800D34D6210000C0140054A536C18B923F484
:102F780000435364704743F400435364704700BFF1
:102F880000340140054A536C18B923F400435364D4
:102F9800704743F400435364704700BF002C01405E
:102FA800164B1B68B3F5806F23D2154A154B126870
:102FB80010B4188814885988204440101880548800
:102FC80098882144491059809488D9882044401011
:102FD8009880D488188921444910D980148959893E
:102FE800204440101881528910BC0A4452105A815A
:102FF8007047054B054A1A60704700BF4C00002017
:1030080004000020080000202000002019300008DB
:1030180008232DE9F04F0A264FF0060B00248DB047
:103028000293B34BDFF808A30393B24BA70053F8FE
:10303800243098475AF82430AF4A01334AF82430EC
:10304800135D0546834200F08780135D5AF824001B
:10305800DBB2052B0EBF00230133DBB29D42A74A2A
:10306800A74B18BF404243F82400BA5890470023A2
:103078004AF82430A04B1D55A24BD3F80090A24B20
:1030880039F8060033F80680A0EB0800FDF71AFAB5
:1030980000220023FDF7F2FC00284FD139F8060082
:1030A800A0EB0800FDF70EFA8FA3D3E90023FDF784
:1030B80073FAFDF70BFD954B954A43F82400136806
:1030C800039A98428CBF002001209047914A8F486C
:1030D800D2F80080904A52F82410894A52F82420E5
:1030E8005AF8243050F82400009009A8C047DDE9B8
:1030F80009899DF82C30CBB1814A52F82400FDF79C
:10310800E1F900220023FDF7B9FC002840F0AF8068
:103118007B4B53F82400FDF7D5F900220023FDF777
:10312800CBFC18B1052D7AD00135EDB2052D00F292
:10313800AA80DFE805F074695E53489E39F80600F6
:10314800A8EB0000FDF7BEF967A3D3E90023FDF75C
:1031580023FAFDF7BBFCAEE769495AF8242051F879
:103168002430002BB8BF5B429A4285D9634B51F893
:10317800240057F80380FDF7A5F900220023FDF786
:103188007DFC002840F003815D4951F82400FDF7DB
:1031980099F900220023FDF78FFC0022002800F097
:1031A800F1805E4B5AF82400CDE90423FDF77AF943
:1031B800DDE90423FDF7F0F9FDF788FC504A42F8F1
:1031C8002400C04758E700239845C8F1000240F39F
:1031D800BE804B46A2EB090241462AE00021884501
:1031E800C8F1000240F3B08009EB0803A1EB090124
:1031F8001FE000229045C8F1000140F3B0804A4624
:10320800A1EB0901434614E000239845C8F10001E9
:1032180040F3A98009EB0802A3EB090309E00021A8
:103228008845C8F1000340F3968049464246A3EB1F
:10323800090308933A4BCDE90612DB5906A89847CB
:10324800304B029A18682C4B195D2F4B30F80BC085
:1032580033F80B50835A2C48805AACEB05021B1AE2
:10326800052926D8DFE801F0663636262639002DEE
:1032780064D100229045C8F1000362DD09EB080122
:10328800A2EB0902D5E7B8F1000FCCBF0523012353
:103298001D44244BA3FB05239B0803EB4303A5EB29
:1032A80043056B1E042B69D8DFE803F0787D646062
:1032B800740000231C4AD351029BABF1040B043B5E
:1032C8000293023E002C5FD1184B0437FB580124AF
:1032D8000393AAE6144BDA51EEE79B1A124AD3512C
:1032E800EAE700BFAFF300807B14AE47E17A943F72
:1032F800712F0008743800080C0300208C3800086F
:103308001C0300200400002008000020EC0200201C
:10331800100300201C000020040300200000F03FE0
:1033280084380008ABAAAAAAFC0200209438000836
:10333800F4020020D31A1E4AD351BDE7013DEDB275
:10334800F4E641464A4667E74346494698E709EBAB
:10335800080190466AE709EB0802984650E709EB2E
:103368000803884636E742464B463FE7002349466E
:103378001A4685E700224B4690462BE700234A462B
:10338800194649E700230DE70DB0BDE8F08F00228C
:10339800084B07E700234946984647E74FF00008DF
:1033A8004A4641462CE700224B4611461EE700BF1D
:1033B800FC0200200000F0BF014B1868704700BFF6
:1033C8004C00002010B4044B044C00221C60102157
:1033D800034810BCFEF7A4BA18000020312F0008DB
:1033E8000008014000200349034B044A08601A60A2
:1033F800704700BF4C00002020000020A92F0008C3
:1034080038B5054D2B68834205D00446034B186830
:1034180000F034F92C6038BD180000204C00002062
:103428000F4B104A1968914219D0A8B930B5044613
:103438000D4A85B00D4D1A6001A82B78CDE90144DD
:103448000394FFF705FD01A86B78CDE901440394C7
:10345800FFF7CAFC05B030BD054A1A6070477047CF
:1034680020000020A92F0008312F00080C0300209D
:1034780019300008014B024A1A60704720000020EA
:103488004D2F000810F57A7F04DBB0F57A7F10DC49
:10349800404201E04FF47A70074A084B9142B8BFA6
:1034A8001146B1F57A7FA8BF4FF47A711860596058
:1034B80070470148F0E700BF18FCFFFF0403002035
:1034C80002220D4B10B50D4C5A6023680C4A01338B
:1034D8002360136898470B4B1B68984723689B0623
:1034E80008D10949094A0B689289C3EB832302EB87
:1034F80093230B6010BD00BF000002404C00002069
:10350800200000201800002014000020580200208D
:10351800704700BFFEE700BFFEE700BFFEE700BF41
:10352800FEE700BF704700BF704700BF704700BF8D
:1035380008B5FEF7A9FABDE80840FEF7DBB800BFFA
:103548000148FEF79FBD00BF540000200148FEF768
:1035580099BD00BF140200200022C0E900120272C7
:10356800704700BF0022C0E900220272704700BF06
:1035780000224FF4FA710272C0E90012704700BFCE
:10358800632A08D900230029B8BF0731C910C0E948
:103598000013037270470023C0E9001303727047D9
:1035A8000022C0E900120272704700BF054B00EB11
:1035B800400080001A18926818580349034B0860A5
:1035C8001A607047C43800081C000020100300204F
:1035D80008B5FFF7F1FE0B4B0B4A1B68C01AA2FB9C
:1035E8000032930507D4094BA3FB00235B0803EBC8
:1035F8004303984200D108BD1021BDE808400448A3
:10360800FEF792B924030020D34D6210ABAAAAAAF0
:103618000008014008B5FFF7CFFE084B084A1B68B1
:10362800C01AA2FB0032D20401D4C30700D408BDDB
:103638001021BDE808400348FEF776B924030020AE
:103648003FCB9EC40008014008B5FFF7B5FE084B04
:10365800084A1B68C01AA2FB0032920401D48307EF
:1036680000D108BD1021BDE808400348FEF75CB949
:10367800240300203FCB9EC400080140014B186082
:10368800704700BF2403002008B5FFF795FE0E4BD6
:103698001B68C01AB0F5C84F11D20C4BA3FB00230E
:1036A8009B0AC3F10803B0FBF3F203FB120000B955
:1036B80008BD1021BDE808400548FEF735B9BDE84A
:1036C8000840FFF77FBE00BF240300201F85EB5191
:1036D8000008014008B5FFF76FFE0D4B1B68C01AC4
:1036E800B0F5C84F10D20B4BA3FB00239B0A013344
:1036F800B0FBF3F203FB120000B908BD1021BDE8CE
:1037080008400548FEF710B9BDE80840FFF75ABE63
:10371800240300201F85EB510008014008B5FFF77E
:103728004BFE094B1B68C01AB0F5FA5F08D2830735
:1037380000D108BD1021BDE808400448FEF7F4B8E0
:10374800BDE80840FFF73EBE240300200008014002
:1037580008B5FFF731FE0C4A0C4B1268801AA3FB20
:1037680000231B0A022B0BD0032B0BD0012B09D0F3
:10377800430707D0BDE8084010210548FEF7D4B834
:103788008207F7D108BD00BF24030020D34D621083
:1037980000080140FFF726BE002103E00B4B5B58F1
:1037A800435004310A480B4B42189A42F6D30A4A4E
:1037B80002E0002342F8043B084B9A42F9D3FEF793
:1037C800B7FD00F00FF8FFF725FA70470839000831
:1037D80000000020300000203000002028030020D6
:1037E800FEE7000070B500250C4E0D4CA41BA4107C
:1037F800A54209D100F01AF800250A4E0A4CA41B6C
:10380800A410A54205D170BD56F82530984701355A
:10381800EEE756F8253098470135F2E700390008F9
:10382800003900080039000804390008F8B500BF5D
:10383800F8BC08BC9E467047F8B500BFF8BC08BC89
:043848009E467047E1
:10384C0002030405060708090A0B0C0D0E0F1010D5
:10385C000000000000000000010203040607080934
:10386C000000000001020304C12E0008F92E00081C
:10387C000202040300010502592E0008F12D000874
:10388C00352F0008412F0008712F00088D2F0008DC
:10389C00204F6666000000005354564F0000000095
:1038AC004C6F526100000000466173740000000010
:1038BC0052616365000000006D3500089C380008FB
:1038CC000000000089350008A4380008050000003D
:1038DC0061350008AC3800080F000000A93500085D
:1038EC00B43800081400000079350008BC38000812
:0438FC003C0000008C
:043900000D020008AC
:04390400E9010008CD
:1039080000A24A0458020020000800080008000825
:103918000008000800A01A00312F00086D350008C3
:10392800312F00081D360008D93500085136000827
:04000005080037A117
:00000001FF
