:020000040800F2
:1000000000C00020515F0008C1580008C558000812
:10001000C9580008CD580008D15800080000000059
:10002000000000000000000000000000D55800089B
:10003000D958000800000000DD580008E158000809
:10004000995F0008995F0008995F0008995F0008B0
:10005000995F0008995F0008995F0008995F0008A0
:10006000995F0008995F0008995F000871580008BF
:10007000995F0008995F00080959000815590008A0
:10008000995F0008995F0008995F0008995F000870
:10009000995F0008995F0008995F0008995F000860
:1000A000995F0008995F0008995F0008995F000850
:1000B000995F0008995F0008995F0008F1580008EF
:1000C000FD580008995F0008995F0008995F0008D3
:1000D000995F0008995F0008995F0008995F000820
:1000E000995F0008995F0008995F0008995F000810
:1000F000995F0008995F0008995F0008995F000800
:10010000995F0008995F0008995F0008995F0008EF
:10011000995F0008995F0008995F0008995F0008DF
:10012000995F0008995F0008995F0008995F0008CF
:1001300000000000000000000000000000000000BF
:1001400000000000000000000000000000000000AF
:10015000000000000000000000000000000000009F
:10016000000000000000000000000000000000008F
:10017000000000000000000000000000000000007F
:10018000000000000000000000000000000000006F
:10019000000000000000000000000000000000005F
:1001A000000000000000000000000000000000004F
:1001B000000000000000000000000000000000003F
:1001C000000000000000000000000000000000002F
:1001D000000000000000000000000000000000001F
:0401E0005FF8E0F1F3
:1001E4000348044B834202D0034B03B118477047C2
:1001F400C8000020C800002000000000054806498F
:10020400091A891001EBD171491002D0034B03B1D3
:1002140018477047C8000020C800002000000000F4
:1002240010B5064C237843B9FFF7DAFF044B13B13A
:100234000448AFF300800123237010BDC8000020E0
:10024400000000009C5F000808B5044B1BB1044982
:100254000448AFF30080BDE80840CFE70000000089
:10026400CC0000209C5F000870B50D4E0D4D761B30
:10027400B61006D00024013455F8043B9847A64232
:10028400F9D1094E094D05F087FE761BB61006D04C
:100294000024013455F8043B9847A642F9D170BDB7
:1002A4009460000894600008986000089460000856
:1002B400844641EA000313F0030349D1403A23D3AF
:1002C4000B6803604B6843608B688360CB68C360D2
:1002D4000B6903614B6943618B698361CB69C361BA
:1002E4000B6A03624B6A43628B6A8362CB6AC362A2
:1002F4000B6B03634B6B43638B6B8363CB6BC3638A
:1003040040304031403ADBD230320BD30B680360CB
:100314004B6843608B688360CB68C36010301031D6
:10032400103AF3D20C3205D351F8043B40F8043BA5
:10033400043AF9D2043208D0D2071CBF11F8013BA9
:1003440000F8013B01D30B8803806046704700BF6F
:10035400082A13D38B07B1D010F00303AED0C3F136
:100364000403D21ADB071CBF11F8013B00F8013B60
:10037400A4D331F8023B20F8023B9FE7043AD9D3D7
:10038400013A11F8013B00F8013BF9D20B780370F4
:100394004B7843708B78837060467047F8B5044699
:1003A4000D4600F029F8134B064693F900300F462A
:1003B40001330DD022462B462046294600F030FD5D
:1003C40030B9204629460022002300F001FD10B96F
:1003D40030463946F8BD00F061FD0022002321219A
:1003E40001601046194600F0ABFB06460F46304646
:1003F4003946F8BD640000202DE9F0415C4E0C46FE
:100404008E43054600F09C8000290B46024652DDCF
:100414005FEA215E00F0A580C3F31303AEF2FF3E52
:1004240043F48013D10F1EF0010F01EB43034FEA95
:10043400420403D0E40F04EB430394004FF0000C98
:10044400162566464FF400124FEA6E0EB118994213
:1004540002DC5B1A8E1894445B00013D03EBD473F9
:100464004FEA52024FEA4404F0D12F4620204FF0C5
:10047400004209E041D0E10F01384FEA520201EB9A
:1004840043034FEA440441D0B34202EB0501F1DDDA
:10049400002901EB020509DBB0469B1BA14288BF82
:1004A40003F1FF334646641A1744E4E7002DF3DBF7
:1004B40006F10108F1E721F00046064337D0002990
:1004C40048D1D40A153B52052146002CF9D0E50247
:1004D40049D4002000E028464900CC0200F101057F
:1004E400F9D50C461146AA40C5F1200521FA05F5B7
:1004F400A3EB000E45EA04038EE7A142BBD8002912
:1005040001EB0205D2DB98460023CBE7234310D14D
:1005140078084FEA6C0303F17F5303F5001303EBF0
:100524000E5739461CF0010F18BF40F00040BDE8DB
:10053400F0817B1C16BF781C0CF1010C4008E8E725
:1005440002460B4600F0D2F92A46234600F018F87A
:10055400BDE8F08100F012F802460B4600F0F0FA14
:10056400E5E77346B5E7114620254FF0FF30BDE7B8
:100574000000F07F81F0004102E000BF83F00043FF
:1005840030B54FEA41044FEA430594EA050F08BF2A
:1005940090EA020F1FBF54EA000C55EA020C7FEAEE
:1005A400645C7FEA655C00F0E2804FEA5454D4EB6B
:1005B4005555B8BF6D420CDD2C4480EA020281EA35
:1005C400030382EA000083EA010180EA020281EA6D
:1005D4000303362D88BF30BD11F0004F4FEA0131BF
:1005E4004FF4801C4CEA113102D0404261EB4101CE
:1005F40013F0004F4FEA03334CEA133302D0524254
:1006040063EB430394EA050F00F0A780A4F101040F
:10061400D5F1200E0DDB02FA0EFC22FA05F2801849
:1006240041F1000103FA0EF2801843FA05F359412F
:100634000EE0A5F120050EF1200E012A03FA0EFCAE
:1006440028BF4CF0020C43FA05F3C01851EBE371D8
:1006540001F0004507D54FF0000EDCF1000C7EEBF5
:1006640000006EEB0101B1F5801F1BD3B1F5001F33
:100674000CD349085FEA30004FEA3C0C04F1010452
:100684004FEA445212F5800F80F09A80BCF1004F7B
:1006940008BF5FEA500C50F1000041EB045141EAFD
:1006A400050130BD5FEA4C0C404141EB010111F4FE
:1006B400801FA4F10104E9D191F0000F04BF0146A9
:1006C4000020B1FA81F308BF2033A3F10B03B3F187
:1006D40020020CDA0C3208DD02F1140CC2F10C0217
:1006E40001FA0CF021FA02F10CE002F11402D8BF75
:1006F400C2F1200C01FA02F120FA0CFCDCBF41EA41
:100704000C019040E41AA2BF01EB0451294330BD0F
:100714006FEA04041F3C1CDA0C340EDC04F11404EC
:10072400C4F1200220FA04F001FA02F340EA0300C3
:1007340021FA04F345EA030130BDC4F10C04C4F109
:10074400200220FA02F001FA04F340EA03002946E9
:1007540030BD21FA04F0294630BD94F0000F83F433
:10076400801306BF81F480110134013D4EE77FEA16
:10077400645C18BF7FEA655C29D094EA050F08BF62
:1007840090EA020F05D054EA000C04BF1946104643
:1007940030BD91EA030F1EBF0021002030BD5FEA87
:1007A400545C05D14000494128BF41F0004130BDAF
:1007B40014F580043CBF01F5801130BD01F0004503
:1007C40045F0FE4141F470014FF0000030BD7FEA76
:1007D400645C1ABF194610467FEA655C1CBF0B4671
:1007E400024650EA013406BF52EA033591EA030F88
:1007F40041F4002130BD00BF90F0000F04BF002180
:10080400704730B54FF4806404F132044FF00005B2
:100814004FF0000150E700BF90F0000F04BF00212B
:10082400704730B54FF4806404F1320410F0004591
:1008340048BF40424FF000013EE700BF42004FEA8C
:10084400E2014FEA31014FEA02701FBF12F07F4309
:1008540093F07F4F81F06051704732F07F4208BFC0
:10086400704793F07F4F04BF41F40021704730B5C7
:100874004FF4607401F0004521F000411CE700BF13
:1008840050EA010208BF704730B54FF000050AE096
:1008940050EA010208BF704730B511F0004502D597
:1008A400404261EB41014FF4806404F132045FEA99
:1008B400915C3FF4D8AE4FF003025FEADC0C18BF42
:1008C40003325FEADC0C18BF033202EBDC02C2F134
:1008D400200300FA03FC20FA02F001FA03FE40EAC6
:1008E4000E0021FA02F11444BDE600BF70B54FF0CA
:1008F400FF0C4CF4E06C1CEA11541DBF1CEA1355A8
:1009040094EA0C0F95EA0C0F00F0DEF82C4481EA0F
:10091400030621EA4C5123EA4C5350EA013518BF2F
:1009240052EA033541F4801143F4801338D0A0FB1C
:1009340002CE4FF00005E1FB02E506F00042E0FBC9
:1009440003E54FF00006E1FB03569CF0000F18BFCF
:100954004EF0010EA4F1FF04B6F5007F64F5407477
:1009640004D25FEA4E0E6D4146EB060642EAC6210A
:1009740041EA55514FEAC52040EA5E504FEACE2E77
:10098400B4F1FD0C88BFBCF5E06F1ED8BEF1004F7A
:1009940008BF5FEA500E50F1000041EB045170BDF6
:1009A40006F0004646EA010140EA020081EA03013A
:1009B400B4EB5C04C2BFD4EB0C0541EA045170BD36
:1009C40041F480114FF0000E013C00F3AB8014F1B0
:1009D400360FDEBF002001F0004170BDC4F10004F9
:1009E400203C35DA0C341BDC04F11404C4F120057A
:1009F40000FA05F320FA04F001FA05F240EA0200D5
:100A040001F0004221F0004110EBD37021FA04F60A
:100A140042EB06015EEA430E08BF20EAD37070BDC4
:100A2400C4F10C04C4F1200500FA04F320FA05F023
:100A340001FA04F240EA020001F0004110EBD37025
:100A440041F100015EEA430E08BF20EAD37070BD95
:100A5400C4F1200500FA05F24EEA020E20FA04F36E
:100A640001FA05F243EA020321FA04F001F000411D
:100A740021FA04F220EA020000EBD3705EEA430E8E
:100A840008BF20EAD37070BD94F0000F0FD101F0BD
:100A94000046400041EB010111F4801F08BF013CF6
:100AA400F7D041EA060195F0000F18BF704703F034
:100AB4000046520043EB030313F4801F08BF013DBB
:100AC400F7D043EA0603704794EA0C0F0CEA135577
:100AD40018BF95EA0C0F0CD050EA410618BF52EA31
:100AE4004306D1D181EA030101F000414FF0000037
:100AF40070BD50EA410606BF1046194652EA430645
:100B040019D094EA0C0F02D150EA013613D195EAB8
:100B14000C0F05D152EA03361CBF104619460AD100
:100B240081EA030101F0004141F0FE4141F470010A
:100B34004FF0000070BD41F0FE4141F4780170BDFA
:100B440070B54FF0FF0C4CF4E06C1CEA11541DBF5F
:100B54001CEA135594EA0C0F95EA0C0F00F0A7F861
:100B6400A4EB050481EA030E52EA03354FEA01318E
:100B740000F088804FEA03334FF0805545EA1313A1
:100B840043EA12634FEA022245EA111545EA106569
:100B94004FEA00260EF000419D4208BF964244F100
:100BA400FD0404F5407402D25B084FEA3202B61A1F
:100BB40065EB03055B084FEA32024FF480104FF4F3
:100BC400002CB6EB020E75EB030E22BFB61A754667
:100BD40040EA0C005B084FEA3202B6EB020E75EBFA
:100BE400030E22BFB61A754640EA5C005B084FEA62
:100BF4003202B6EB020E75EB030E22BFB61A75462F
:100C040040EA9C005B084FEA3202B6EB020E75EB39
:100C1400030E22BFB61A754640EADC0055EA060EFA
:100C240018D04FEA051545EA16754FEA06164FEA3D
:100C3400C30343EA52734FEAC2025FEA1C1CC0D1E9
:100C440011F4801F0BD141EA00014FF000004FF076
:100C5400004CB6E711F4801F04BF01430020B4F137
:100C6400FD0C88BFBCF5E06F3FF6AFAEB5EB030CEF
:100C740004BFB6EB020C5FEA500C50F1000041EBEC
:100C8400045170BD0EF0004E4EEA113114EB5C04B9
:100C9400C2BFD4EB0C0541EA045170BD41F480118C
:100CA4004FF0000E013C90E645EA060E8DE60CEA94
:100CB400135594EA0C0F08BF95EA0C0F3FF43BAFB1
:100CC40094EA0C0F0AD150EA01347FF434AF95EA68
:100CD4000C0F7FF425AF104619462CE795EA0C0F4C
:100CE40006D152EA03353FF4FDAE1046194622E719
:100CF40050EA410618BF52EA43067FF4C5AE50EAF3
:100D040041047FF40DAF52EA43057FF4EBAE12E7E2
:100D14004FF0FF3C06E000BF4FF0010C02E000BFC3
:100D24004FF0010C4DF804CD4FEA410C7FEA6C5CA6
:100D34004FEA430C18BF7FEA6C5C1BD001B050EA49
:100D4400410C0CBF52EA430C91EA030F02BF90EA34
:100D5400020F0020704710F1000F91EA030F58BFF3
:100D6400994208BF90422CBFD8176FEAE37040F055
:100D7400010070474FEA410C7FEA6C5C02D150EAF3
:100D8400013C07D14FEA430C7FEA6C5CD6D152EAAE
:100D9400033CD3D05DF8040B704700BF8446104673
:100DA40062468C461946634600E000BF01B5FFF772
:100DB400B7FF002848BF10F1000F01BD4DF808ED42
:100DC400FFF7F4FF0CBF012000205DF808FB00BF13
:100DD4004DF808EDFFF7EAFF34BF012000205DF86D
:100DE40008FB00BF4DF808EDFFF7E0FF94BF0120BA
:100DF40000205DF808FB00BF4DF808EDFFF7CEFFBB
:100E040094BF012000205DF808FB00BF4DF808EDF9
:100E1400FFF7C4FF34BF012000205DF808FB00BFCA
:100E24004FEA410C7FEA6C5C02D150EA013C0AD1E2
:100E34004FEA430C7FEA6C5C02D152EA033C02D1D4
:100E44004FF0000070474FF0010070474FEA410235
:100E540012F5001215D211D56FF47873B3EB625208
:100E640012D94FEAC12343F0004343EA505311F02F
:100E7400004F23FA02F018BF404270474FF00000C1
:100E8400704750EA013005D111F0004008BF6FF0FF
:100E9400004070474FF00000704700BF014B1868D6
:100EA400704700BF000000202DE9F041036882B0C4
:100EB400DD07044630D5AB494A6802F00C02042A27
:100EC40000F0DA804A6802F00C02082A00F0D080B0
:100ED4006368B3F5803F00F00F81002B00F0278199
:100EE400B3F5A02F00F0B5819E4B1A6822F480322E
:100EF4001A601A6822F480221A6000F097FF994D54
:100F0400064605E000F092FF801B642800F20B8186
:100F14002B689A03F6D523689F0728D5914A516810
:100F240011F00C0F00F0B680516801F00C01082993
:100F340000F0AC802369002B00F0418101228A4B30
:100F4400884D1A6000F072FF064605E000F06EFF5F
:100F5400801B022800F2E7802B689807F6D52B68DF
:100F6400626923F0F80343EAC2032B6023681A077B
:100F740022D5A369002B00F0988001227B4B794D88
:100F84001A6000F053FF064605E000F04FFF801B97
:100F9400022800F2C8806B6A9B07F6D5744B754A29
:100FA4001B68A2FB03235B0A019300BF019B5A1E2B
:100FB4000192002BF9D123685D0739D5694BDA69B1
:100FC400D00040F1828000256B4B1A68D10540F1B6
:100FD4009980E368012B0FD0002B00F0D180052B02
:100FE400604B1A6A00F0FC8022F001021A621A6A4D
:100FF40022F004021A6204E05A4A136A43F001031D
:10100400136200F013FF574E804641F2883706E022
:1010140000F00CFFA0EB0800B84200F28480336AB1
:101024009B07F5D525B14F4AD36923F08053D3618B
:10103400E369CBB14B4D6A6802F00C02082A30D048
:10104400022B4FF000024D4B00F0D2801A6000F0EA
:10105400EDFE2C46054604E000F0E8FE401B0228A5
:1010640061D823689B01F7D4002002B0BDE8F08169
:101074004A68D0037FF52CAF3A4A126891037FF592
:101084004BAF6268002A7FF447AF0AE05268D60388
:101094003FF550AF334A1268950721D52269012ADA
:1010A4001ED0012002B0BDE8F081304A2D4D1360FE
:1010B40000F0BCFE064604E000F0B8FE801B0228E7
:1010C40031D86B6A9F07F7D475E7DA69012542F0D6
:1010D4008052DA61DB6903F080530093009B73E76D
:1010E400204960690A6822F0F80242EAC0020A60F4
:1010F4001A077FF561AF3CE71A4A136843F480335B
:101104001360FAE61A681E4642F480721A6000F010
:101114008DFE07463368DA053FF55BAF00F086FEC7
:10112400C01B6428F6D9032002B0BDE8F08103F1A6
:10113400804303F504331A681D4622F480321A6092
:101144001A6822F480221A6000F070FE064604E059
:1011540000F06CFE801B6428E5D82B689B03F7D451
:10116400D9E600BF0010024000004242800442421F
:1011740088000020D34D621000700040600042429D
:1011840003F1804303F504331A6A1E4622F0010278
:101194001A621A6A41F2883822F004021A6200F0D4
:1011A40045FE074604E000F041FEC01B4045BAD8A6
:1011B400336A9807F7D4002D3FF43AAF33E72B4A4C
:1011C4002B4D136000F032FE064604E000F02EFEC4
:1011D400801B0228A7D82B689907F7D42368C6E692
:1011E40042F004021A621A6A42F001021A6208E723
:1011F4001A6000F01BFE064604E000F017FE801B98
:10120400022890D82B689901F7D4226AB2F5803F5E
:1012140005D16B68A16823F400330B436B6001258F
:10122400134B606A5968024321F4741111480A434C
:101234005A6005601C4600F0F9FD054605E000F023
:10124400F5FD401B02283FF66EAF23689A01F6D5E0
:101254000AE703F18043A3F53C331A6842F4802281
:101264001A601A6842F480321A6046E6000042426C
:101274000010024060004242644A136803F007030E
:101284008B420BD2136823F007030B4313601368DC
:1012940003F007038B4201D0012070472DE9F04190
:1012A400036886B09C0706D5594C8568626822F0AD
:1012B400F0022A436260DA0705460C4624D54268E8
:1012C400534B012A1B6800F09480022A00F08D80A1
:1012D4009E0729D54E4E41F28838736823F00303E4
:1012E4001343736000F0A2FD6B680746012B6BD0BB
:1012F400022B05D173E000F099FDC01B40457CD85A
:10130400736813F00C0FF6D1404A136803F0070317
:10131400A3420DD9136823F0070323431360136812
:1013240003F00703A34203D0012006B0BDE8F08117
:101334002B68580706D53649E8684A6822F4E06203
:1013440002434A60190707D5314A2969536823F4CF
:10135400605343EAC103536040F201222D4B06ACB3
:10136400ADF804200FCB04E90F0029494A6802F0C4
:101374000C03082B10D0284B254A284852682849CA
:10138400C2F30312825C0020D3400B6000F01EFD08
:10139400002006B0BDE8F081C2F383432344D203A6
:1013A40013F8103C2DD54A681B49C2F3404222442D
:1013B40012F8142CB1FBF2F203FB02F3DCE700F0A9
:1013C40035FDC01B404518D8736803F00C03042B8B
:1013D400F5D199E700F02AFDC01B40450DD873688C
:1013E40003F00C03082BF5D18EE79F013FF572AF94
:1013F4009AE79B033FF56EAF96E7032006B0BDE87E
:10140400F081084A02FB03F3B6E700BF0020024064
:1014140000100240B45F000800127A00C45F0008A4
:101424008800002000093D00014B1868704700BF88
:1014340088000020044B05495B68054AC3F3022376
:10144400CB5C1068D840704700100240D45F00089D
:1014540088000020704700BF00284FD090F83D302E
:1014640070B503F0FF020446002B42D00223226829
:10147400234E84F83D30B24213686168E068A56980
:1014840021D006F50066B2421DD0B2F1804F0BD0D8
:10149400A6F59836B24207D006F58066B24203D06C
:1014A40006F58066B24207D1A66823F07003334381
:1014B400266923F44073334323F080032B431360E2
:1014C400D06291620FE0A66823F07003334326696B
:1014D40023F44073334323F080032B431360D0621F
:1014E40091626369136301230020536184F83D30E2
:1014F40070BD80F83C20FFF7ADFFB7E701207047CF
:10150400002C01400122036802FA01F11A6A0C4816
:1015140022EA01021A621A6A834241EA020119624A
:1015240008D0084A934205D01A68002042F001020C
:101534001A6070475A6C42F400425A64F4E700BFE0
:10154400002C01400034014090F83C30012B00F0A5
:10155400CB80F0B40223012480F83D3080F83C4075
:101564000C2A33D8DFE802F00732323269323232E1
:10157400953232323B0003688E681D6A0F6825F08D
:1015840001051D621A6A5D6822F002029C693243F9
:101594006F4E24F07304B34244EA070400F0A680BB
:1015A40006F50066B34200F0A1804E685D609C6160
:1015B4005E631A629C690D6944F008049C61996930
:1015C40021F0040199619A692A439A610023F0BCCD
:1015D400012280F83C3080F83D20184670470368AB
:1015E4008E681D6A0F6825F480551D621A6A5D684D
:1015F40022F40052DC6942EA0632554E24F4E644F1
:10160400B34244EA072400F08E8006F50066B34234
:1016140000F089804E685D60DC611E641A62DC69DA
:101624000D6944F40064DC61D96921F48061D961F5
:10163400DA6942EA0522DA61C8E703688E681D6A3E
:101644000F6825F010051D621A6A5D6822F02002F9
:101654009C6942EA06123E4E24F4E644B34244EA4C
:10166400072450D006F50066B3424CD04E685D6046
:101674009C619E631A629C690D6944F400649C61D8
:10168400996921F4806199619A6942EA05229A6113
:101694009CE703688E681D6A0F6825F480751D62D7
:1016A4001A6A5D6822F40072DC6942EA0622284E56
:1016B40024F07304B34244EA07043AD006F5006602
:1016C400B34236D04E685D60DC61DE631A62DC6969
:1016D4000D6944F00804DC61D96921F00401D96181
:1016E400DA692A43DA6171E702207047CE6822F092
:1016F4000802324325F44075D1E905673E4322F0E0
:101704000402354351E7CE6822F0800242EA061211
:1017140025F4406CD1E9056746EA070522F040024A
:101724004CEA8505A2E74E6925F4804545EA86150D
:1017340070E7CE6822F4006242EA062225F440559E
:10174400D1E905673E4322F4806245EA0615B9E70C
:10175400002C014090F83C3070B4012B44D002229C
:101764000125036880F83D209A684C6822F07002D5
:101774000E68224322F007023243502C80F83C507A
:101784009A6048D020D9602C32D0702C0AD1D1E98B
:1017940002520C6999682A4342EA042221F47F41E7
:1017A4000A439A60002101250C46DA6822F04002BF
:1017B400DA60DA6822F48042DA6080F83D5080F81A
:1017C4003C10204670BC7047402CEBD11D6A1C6A4B
:1017D400096924F001041C629A6922F0F00242EAC9
:1017E40001129A611D62DDE70224204670BC704735
:1017F4001C6A8D6824F010040E691C6299691A6AC7
:1018040021F4704122F0A00241EA063142EA0512B5
:1018140099611A62C6E71D6A1E6A8C6826F0010681
:1018240009691E629A6925F00A0522F0F0022C4328
:1018340042EA01129A611C62B4E700BF0422036801
:1018440002FA01F11A6A002022EA01021A621A6AF3
:10185400114319625A6C42F400425A641A6842F005
:1018640001021A60704700BF90F83C30012B22D06F
:101874000246D1E9020310B4002423F44073034365
:10188400486823F480630343086823F40063034334
:10189400086923F480530343486923F40053034342
:1018A400886923F44043116803434B64204682F85B
:1018B4003C4010BC70470220704700BF90F83C3099
:1018C400012B1ED002460220F0B400250126136825
:1018D40082F83D005C680F6824F070045C6058680E
:1018E4004C6838435860986820F080009860996884
:1018F40028462143996082F83D6082F83C50F0BC50
:1019040070470220704700BF90F82420012A2AD093
:10191400034601201A6883F824009068C00712D493
:101924001248806810F001000DD130B4104CA2426E
:1019340012D001209A6A42F020029A62002230BC3E
:1019440083F8242070479A6A012042F020029A62A8
:10195400002283F82420704754680D6824F4702111
:1019640029435160EAE70220704700BF0028014084
:10197400002401404FF6FF01064A0002D36800F438
:10198400E0600B40184340F0BF6040F40030D0608A
:10199400704700BF00ED00E0184B30B4DC68C4F3BE
:1019A4000224C4F10705042D04F1040328BF04250F
:1019B400062B18D94FF0FF33033CA34022EA03025D
:1019C4004FF0FF33AB4021EA0303A34013431B0151
:1019D4000028DBB20ADB00F1604000F5614080F8CA
:1019E400003330BC704700221446E9E7044A00F093
:1019F4000F000244137630BC704700BF00ED00E0D6
:101A0400FCEC00E0012300F01F01034A40098B4075
:101A140042F82030704700BF00E100E00138B0F127
:101A2400807F0DD230B4F02500220721054B064CEF
:101A3400586084F82350104630BC9A60196070478F
:101A44000120704710E000E000ED00E0044A0428A3
:101A540013680CBF43F0040323F0040313607047BE
:101A640010E000E0704700BF08B5FFF7FBFF08BDBA
:101A74002DE9F04F4FF0000885B043467D4FDFF865
:101A840010E27D4EDFF80CC203E00133102B00F0AE
:101A9400888001220C689A4002EA0405AA42F4D123
:101AA4004C68122C00F0B68000F28B80022C00F0FF
:101AB400AD8079D9032C00F0A680112C02D1CA681C
:101AC40002F10408FF2D76D8824602689C004FF08C
:101AD4000F0909FA04FB22EA0B0208FA04F4224370
:101AE400CAF80020D1F804A01AF0805FCDD0BA69FA
:101AF40023F0030442F00102BA61BA6904F180449C
:101B040002F00102039204F5803403F0030B039AFC
:101B14004FEA8B0BA26809FA0BF922EA0902704515
:101B240001921BD0554A904278D0554A904200F019
:101B34008580544A904200F08A80534A904200F0D3
:101B44008F80524A90420CBF4FF005094FF00609AE
:101B5400019A09FA0BFB42EA0B020192019A1AF468
:101B6400803FA260326803F1010314BF2A43AA43F1
:101B7400326072681AF4003F14BF2A43AA437260A9
:101B8400B2681AF4801F14BF2A43AA43B260F468EF
:101B94001AF4001F14BF2C43AC43102BF4607FF4E1
:101BA40078AF05B0BDE8F08FDCB1012C8AD1FF2DF0
:101BB400D1F80C8088D99C004268203C00F1040ACA
:101BC40085E764450DD011D9DFF8CC904C4508D099
:101BD40009F580394C4504D0A9F580194C457FF4AA
:101BE40071AF8C681CBB4FF004086BE7DFF8AC9056
:101BF4004C45F6D009F580394C457FF463AF8C68C9
:101C0400002CF0D013E04FF000085BE7CA6802F143
:101C1400080857E7CA6802F10C0853E74FF00109B6
:101C2400019A09FA0BFB42EA0B02019296E7012C96
:101C34000CBF026142614FF0080843E74FF002090C
:101C4400019A09FA0BFB42EA0B02019286E74FF074
:101C54000309019A09FA0BFB42EA0B0201927DE7A0
:101C64004FF00409019A09FA0BFB42EA0B020192B4
:101C740074E700BF0010024000040140000C014062
:101C8400001001400014014000180140001C0140F4
:101C94000008014000002110000031100000111064
:101CA4008368194214BF01200020704702B9090457
:101CB40001617047C3685940C16070472DE9F04124
:101CC4000446006882B0C50727D53C4BDA69D100C9
:101CD4003AD53B4B00251A68D20543D5374960688D
:101CE4000A6A12F440720FD000F4407393420BD08E
:101CF400012700260B6A334A23F4407017601660EC
:101D04000862D80749D460682C4A136A23F44073E4
:101D1400034313622068002D38D1830706D5274A70
:101D2400A168536823F440430B43536010F0100040
:101D340007D00020214A6169536823F480030B43D0
:101D4400536002B0BDE8F081DA69012542F08052A7
:101D5400DA61DB6903F080530193019B184B1A6825
:101D6400D205BBD41A681E4642F480721A6000F091
:101D74005DF807463368DB05B0D400F057F8C01BA4
:101D84006428F7D9032002B0BDE8F081D36923F0B9
:101D94008053D3618307C9D5C1E70E4600F046F8E6
:101DA40041F288378046336A9A07ACD400F03EF893
:101DB400A0EB0800B842F6D9E4E700BF00100240E7
:101DC4000070004040044242704700BF10B5044612
:101DD400074A084B1068A3FB00308009FFF71EFE7A
:101DE400214600224FF0FF30FFF7D6FD002010BD42
:101DF40088000020D34D6210074A08B513680320F9
:101E040043F010031360FFF7B5FD0020FFF7DEFF7A
:101E1400FFF7DAFF002008BD00200240024A1368E1
:101E240001331360704700BFEC000020014B1868B9
:101E3400704700BFEC00002030B583B00190FFF77D
:101E4400F5FF0546019C631C18BF0134FFF7EEFF44
:101E5400401BA042FAD303B030BD00BF704700BF9F
:101E6400002800F08880F8B5836A0446002B65D00A
:101E740023689A68D00742D4A26AD20658D4A26AC8
:101E8400534922F4885222F0020242F002028B42A9
:101E9400A262E069626868D0D4E9021642EA4602A6
:101EA400B1F5807F42EA000260694DD001290CBF80
:101EB4004FF480770027012869D05D68454825F4F0
:101EC40069453D435D609D68284010439860012941
:101ED40047D00020D96A404D21F470010143D962F2
:101EE4009B681D40AA4248D00120A36A23F0120334
:101EF40043F01003A362E36A0343E362F8BD9A6804
:101F040022F001029A60FFF791FF054623689A6860
:101F1400D107B1D5FFF78AFF401B0228F6D9A36A7F
:101F240043F01003A362E36A43F00103E362A36A8C
:101F3400A36A012043F01003A362F8BDC36280F8D2
:101F44002430FFF78BFF93E701281FD058682149FD
:101F540020F4694040F4807058609868014011434F
:101F64009960216901390805B4E7B0F5402F08BF2D
:101F74004FF4002090E7012070470020E062A36A3C
:101F840023F0030343F00103A362F8BD0F46BEB17F
:101F9400A06A40F02000A062E06A40F00100E06224
:101FA4005D680C4825F469453D435D609D68B1F565
:101FB400807F00EA050040EA0200986087D1D0E7FC
:101FC400A069451E47EA453545F40067E8E700BFC8
:101FD400003C0140FDF7E1FFFE0E1FFF024600201A
:101FE40070B492F8243083B0012B019058D00123AF
:101FF4004D681068062D82F824300C6805EB8503C3
:102004004FF01F062AD90C2D40D8233B056B9E4068
:1020140025EA060504FA03F32B430363092C8B68B2
:1020240004EB440128D907261E39C5688E408B402D
:1020340025EA06010B43A4F110010129C36023D84A
:10204400284B984230D00120936A43F020039362D6
:10205400002382F8243003B070BC7047053B456B05
:102064009E4025EA060504FA03F32B43092C436337
:102074008B6804EB4401D6D8072504698D408B4056
:1020840024EA05010B4303610020E1E7413BC56AF3
:102094009E4025EA060504FA03F32B43C362BDE719
:1020A400022003B070BC704783681B02ECD48368C1
:1020B400102C43F400038360E6D10B4B0B491B68DF
:1020C400A1FB03139B0C03EB83035B000193019BB4
:1020D400002BD9D0019B013B0193019B002BF9D12B
:1020E400D2E700BF002401408800002083DE1B43A8
:1020F400002370B5026882B001939368DB0721D492
:10210400184B194C1B689168A4FB034341F001016F
:102114009B0C91600193019B2BB1019B013B0193AB
:10212400019B002BF9D10546FFF780FE064604E02B
:10213400FFF77CFE801B022807D82B689C6814F0EC
:102144000104F5D0002002B070BD0120AB6A85F80F
:10215400244043F01003AB62EB6A0343EB6202B02A
:1021640070BD00BF8800002083DE1B4390F824303C
:10217400012B38D0012310B580F824300446FFF732
:10218400B7FF60BBA36A226823F44073284923F095
:10219400010343F480738A42A36226D0A36A23F422
:1021A4008013A362536859052BD4A36A002113F446
:1021B400805318BFE36A84F8241018BF23F0060381
:1021C400E3626FF002031360936803F46023B3F5D2
:1021D400602F1DD0936843F48013936010BD0023D7
:1021E40084F8243010BD02207047124B596811F452
:1021F400702FD3D0A16A41F48011A1625B685B05A2
:10220400D3D5A36A23F4405343F48053A362CCE7A9
:10221400074B9A4204D0936843F4A003936010BD23
:10222400A3F580635B6813F4702FD3D1F3E700BF89
:102234000028014000240140704700BF00286AD0F4
:1022440090F83D3070B503F0FF020446002B4DD0EA
:102254002423226884F83D301368304D23F00103B1
:102264001360FFF7E7F82E4A2368A2FB00126168A7
:10227400920CA9425A6024D84900B0FBF1F040F610
:10228400FC71084208BF042001321A620022D4E91A
:10229400071620253143D861D4E90360196030431F
:1022A400D4E9051631439860D9601968104641F0A5
:1022B40001011960226484F83D50226384F83E20B1
:1022C40070BD4FF4967505FB02F2164EA568A6FB89
:1022D4000262920901321A626DB901EB4101B0FB4D
:1022E400F1F0C0F30B029AB90120CFE780F83C204B
:1022F400FFF7A2FFACE701EB810101EB8101B0FB29
:10230400F1F0C0F30B02002AEED040F44040BDE7E8
:1023140040F40040BAE70120704700BFA0860100E6
:1023240083DE1B43D34D62102DE9F047044682B08F
:1023340099460F4690460A9DFFF778FD94F83D3084
:10234400202B03D0022002B0BDE8F087064605E04A
:10235400FFF76CFD801B192800F2A88023689A6996
:10236400D24312F0020AF3D094F83C20012AE9D0B7
:1023740001211A6884F83C10D0075FD500214FF082
:10238400210C10201A6822F400621A60A34A84F80F
:102394003DC084F83E002164A4F82A90E262618D75
:1023A400E26AC4F82480042A218507D0012A05D0D2
:1023B40012F5803F02D0226B122A03D11A6842F42C
:1023C40080721A606A1C7ED15A69D107FCD52269D1
:1023D400B2F5804F36D107F0FE071F616F1C04D0A1
:1023E400F8E05A69570500F19D805A699207F8D5BB
:1023F400002201925A6901929A690192019A278DE9
:10240400002F00F0FD806A1C40F0AA805A69120671
:1024140029D45A695005F9D500226FF48065042047
:1024240020215D61206484F83C20226384F83D10FF
:10243400236C042B00F0F480032084E71A680A4319
:102444001A609BE7FA1102F0060242F0F0021A61E8
:1024540002E05A69500565D45A691207F9D5FFB2EA
:102464001F61BBE7278D606A7A1E411C6162017897
:1024740092B21961618D2285013989B261855969E8
:1024840049070AD54AB1821C62624278023F1A6146
:10249400628D2785013A92B26285691C78D15A69A6
:1024A4005007ACD45A695105F9D5B5E72023022069
:1024B400C4F830A084F83CA084F83D3084F83EA0F1
:1024C40002B0BDE8F0875A69D0070AD4002D77D04E
:1024D400FFF7ACFC801B854272D323685A69D1078D
:1024E400F6D52269B2F5804F3FF475AFFA1102F0C8
:1024F400060242F0F0021A615A691207AFD45A690F
:1025040052050FD4002D00F09D80FFF78FFC801B37
:102514008542C0F0978023685A6911079FD45A698D
:102524005005F2D500216FF48066042520201A6836
:1025340042F400721A605E61256484F83C102163E1
:1025440084F83D00236C236C042B08BF01204FF05A
:10255400000318BF032084F83C3002B0BDE8F087C4
:102564005A6910063FF57FAF5A6951053FF554AFDC
:10257400002D5CD0FFF75AFC801B854257D323689B
:102584005A6911063FF56EAF5A695005F2D543E713
:102594005A6952073FF533AF5A6957053FF53CAFC7
:1025A400002D44D0FFF742FC801B85423FD32368B3
:1025B4005A6950073FF523AF5A695705F2D52BE7FF
:1025C40000232022236384F83C3084F83D2084F8DF
:1025D4003E30B8E75A6990073FF50AAF5A6951058A
:1025E400A0D47DB3FFF722FC801B85422AD3236845
:1025F4005A6992073FF5FCAE5A695105F2D591E745
:1026040020211A68384642F400721A6084F83D109A
:1026140084F83C7084F83E7095E600BF0000FFFF2C
:1026240022680120136843F4007313608BE62021B1
:102634000022236C84F83C200B432364226384F837
:102644003D10F5E600232022236384F83C3084F80F
:102654003D2077E72DE9F047044686B099460F46BA
:1026640090460E9DFFF7E2FB94F83D30202B03D0FB
:10267400022006B0BDE8F087064605E0FFF7D6FB6A
:10268400801B192800F2948023689A69D24312F0BF
:10269400020AF3D094F83C20012AE9D001211A68F7
:1026A40084F83C10D20755D5102000214FF0220C9D
:1026B4001A6822F400621A609C4A84F83DC084F8C7
:1026C4003E002164A4F82A90E262608DE16A1A68EF
:1026D400042942F48062C4F8248020851A6007D05B
:1026E400012905D011F5803F02D0226B112A03D1B4
:1026F4001A6842F480721A60691C66D15A69D0075C
:10270400FCD52269B2F5804F28D147F00107FFB20A
:102714001F616F1C04D0D2E15A69570500F188800B
:102724005A699207F8D5228D002A40F09F800192C1
:102734005A6901929A690192019A1A6842F40072E4
:102744001A600020202384F83C0084F83D3084F88B
:102754003E008EE71A680A431A60A5E74FEAE718B5
:1027640008F0060848F0F0021A6102E05A695205BE
:102774005ED45A691107F9D5FFB21F6102E05A69A4
:10278400520555D45A69D24312F00202F7D1059288
:102794005A6905929A690592059A1A6842F48072F8
:1027A4001A605A69D007FCD548F0F1021A61B0E703
:1027B40020230220C4F830A084F83CA084F83D30E3
:1027C40084F83EA006B0BDE8F0875A69D2070CD45D
:1027D400002D00F0DA80FFF729FB801B8542C0F052
:1027E400D48023685A69D007F5D52269B2F5804FA1
:1027F4008BD04FEAE71808F0060848F0F0021A6197
:102804005A69120700F187815A69510510D4002DC5
:1028140000F0B581FFF70AFB801B8542C0F0AF8151
:1028240023685A69100700F176815A695205F1D577
:1028340000216FF48066042520201A6842F4007297
:102844001A605E61256484F83C10216384F83D00BD
:10285400236C236C042B08BF01204FF0000318BF26
:10286400032084F83C3006B0BDE8F087012A00F06C
:102874003E81022A00F0B68000201968032A41F440
:1028840080611960049059690491996904910499CB
:1028940049D8012A00F0F480022A00F08B806F1CD2
:1028A40040F0B4805A695007FCD51A6822F480625B
:1028B4001A6072B62268636A1269591C61621A70DE
:1028C400638D228D013B013A9BB2228563856A1C8C
:1028D400236840F0A7805A695707FCD51A68616AD3
:1028E40042F400721A601B694A1C62620B70638DA9
:1028F400228D013B9BB2013A6385228562B6226830
:10290400636A1269591C61621A70638D228D013BDE
:10291400013A9BB292B263852285002A3FF411AF3B
:10292400032A2368B5D975B994E000BF0000FFFFFE
:102934005A69D10600F1B380FFF778FA801BA842E8
:1029440000F28F8023685A695006F1D5626A1B69C8
:10295400511C61621370618D2368013989B2228D23
:1029640061855969013A92B24F072285D5D5626AC9
:102974001B69511C61621370228D638D013A013B06
:1029840092B29BB222856385C7E70023202223638A
:1029940084F83C3084F83D2084F83E3059E75B6984
:1029A4005B070CD4002D48D0FFF740FA801B85420A
:1029B40043D32368691CF2D15A695207FCD572B615
:1029C4002368616A1A68481C42F400721A601B6921
:1029D40060620B70638D228D013B013A9BB22285AC
:1029E40063858BE71A6842F400621A6072B60022AB
:1029F400236803925A6903929A690392039A1A68A4
:102A040022F480621A6062B6228D86E75A69510701
:102A14003FF54BAF8DB1FFF709FA801B85420CD30C
:102A240023683CE75A6950073FF558AF2DB1FFF7CB
:102A3400FDF9801B8542BFF44AAF00232022032006
:102A4400236384F83C3084F83D2084F83E3006B09B
:102A5400BDE8F0875A6952063FF578AF5A69D10646
:102A64001DD420220021236C84F83C1013432364DA
:102A740084F83D20236C202B14BF01200320F8E5AB
:102A840035B918E0FFF7D2F9801B8542E9D32368F2
:102A94005A6952063FF56BAF5A69D706F2D5002240
:102AA4006FF0100020215861226484F83C202263D6
:102AB40084F83D10DEE75A695006CFD557E75A69C6
:102AC40090073FF530AE5A6951053FF5B1AE002D80
:102AD40055D0FFF7ABF9801B854250D323685A6960
:102AE40092073FF520AE5A695105F2D5A0E61A685F
:102AF40022F480621A6072B60022236802925A6934
:102B040002929A690292029A1A6842F400721A6056
:102B140062B6228D01E7FFB21F615A69910711D491
:102B24005A6957053FF584AE4DB3FFF77FF9801B13
:102B3400854224D323685A69910703D45A695005FE
:102B4400F3D575E6002205925A6905929A690592B1
:102B5400059A1A6842F480721A605A69D0073FF5E0
:102B640023AE002D3FF411AFFFF760F9801B8542BF
:102B7400FFF40BAF23685A69D707F5D514E6002391
:102B84002022236384F83C3084F83D2060E600BFB3
:102B9400704700BF704700BF704700BF704700BF59
:102BA400704700BF704700BF704700BF704700BF49
:102BB400704700BF704700BF90F83D2038B5293AF0
:102BC400012A0446036857D990F83D20602A05D0AD
:102BD4005A6815055CBF202280F83D20002222633C
:102BE40084F83E201A6822F400621A605A6812F4CB
:102BF40000621ED0616B5A6891F8210022F40062D1
:102C040001285A603ED03A4B08464B6300F076FDEB
:102C140050B120252268606B1368416B23F00103D7
:102C2400136084F83D50884794F83D30282B13D026
:102C340038BD94F83D10602941D05A69520604D534
:102C4400626A1B69511C616213702046FFF7B0FF72
:102C540094F83D30282BEBD1236C5B07E8D5002397
:102C6400202224492046E162236384F83D2084F82D
:102C74003E30FFF797FF38BD00212822016380F81A
:102C84003D20AFE7A36B1A4A18465A6300F036FD9D
:102C94000028C9D023685A69500605D5626A1B69A1
:102CA400511C61621370236820211A68A06B22F002
:102CB40001021A60436B84F83D109847B4E7202161
:102CC40084F83D1022645A69510605D5626A1B696D
:102CD400511C6162137023681A68204622F00102B5
:102CE4001A60FFF767FF94F83D30282BA0D1B3E7B3
:102CF400213600080000FFFF03460268F0B596691C
:102D04005069546893F83E108DB0C9B210293DD073
:102D140040293BD095490140002900F0BF80A70518
:102D240000F177819249934D31400540002900F02C
:102D34002B8191490140002900F07981660540F119
:102D44007681002D40F0768193F83D00598DC0B214
:102D540089B2C9B1596A4C1C5C6209781161598DF8
:102D6400013989B25985598D89B269B929280BD19C
:102D7400212528245168184621F4806151601D637F
:102D840083F83D40FFF708FF0DB0F0BD10F0011FC0
:102D94003AD0A10500F127817849014000293CD0AF
:102DA4007349744D31400540002953D072490140A4
:102DB40000294BD0660549D5002D00F06281A40599
:102DC400E2D5D86A93F83D102129DDD1598D89B215
:102DD400002940F03781042800F05882082800F0C8
:102DE400558210F5803F00F051825068112520F47F
:102DF400E0602024506018461D6383F83E1083F879
:102E04003D40FFF7C5FEBFE75C49014029B1A70576
:102E1400C6D5596CC9B21161C2E7544901400029B1
:102E2400BED0A505BCD593F83E10DF6AD3F830C0F8
:102E340093F83D50C9B2222D00F08F8100210A91F0
:102E440051690A9191690A910A99A9E7002DB6D1AD
:102E54000DB0F0BD4A490140E1B160051AD5002D1D
:102E640000F03C81A1058FD5DC6A598D586A89B27E
:102E7400032900F1010500F0BF81598D89B20229AF
:102E840000F0D08112695D6202705A8D013A92B2EB
:102E94005A8579E7002DE5D10DB0F0BD394D0540D7
:102EA400002D3FF43FAFA5057FF53CAF93F83D40BF
:102EB4005068E4B220F4E06050600B9151690B91CA
:102EC400116841F0010111600B99116821F48061CE
:102ED4001160516808050ED593F83D10222900F0C1
:102EE4007F8193F83D102A2900F07A81596B096893
:102EF400496889B25985598D89B2E1B15169490747
:102F040009D5596A1269481C58620A70598D1A68A1
:102F1400013989B2598551694F0608D5596A126930
:102F2400481C58620A705A8D013A92B25A851A6C3A
:102F340042F004021A641A6C002A40F02C81A4F1B5
:102F44002801022940F234811A6B222A02D0222C51
:102F54007FF41AAF002220211A63184683F83D102B
:102F640083F83E20FFF71AFE0EE700BF02000100BF
:102F740004001000040001008000010008000100AA
:102F84004000010010000100A4490140002963D061
:102F9400600561D5002D62D193F83D00598DC0B212
:102FA40089B200293FF4F0AE596A12694C1C5C6284
:102FB4000A705A8D013A92B25A855A8D92B2002AF9
:102FC4007FF4E2AE2A287FF4DFAE22252824196894
:102FD40018464A6822F480624A601D6383F83D40C3
:102FE400FFF7DCFDD0E693F83E10402900F0D980CD
:102FF4001969B1F5804F00F0A480196D002940F0E3
:10300400E380596CC91101F0060141F0F00111612E
:10301400C6E69169926981F004011606C1F3800144
:1030240054BF9A891A8B1846FFF7BAFDACE6002DF7
:103034003FF4AAAEA4057FF5A7AE598D89B2002945
:103044003FF4A2AE596A481C5862097811615A8D3E
:10305400013A92B25A8597E6002D3FF495AEA10548
:103064007FF592AE598D89B200293FF48DAE596A2D
:103074001269481C58620A705A8D013A92B25A85F4
:1030840082E693F83D101C8D93F83E00C9B2C0B29D
:10309400DD6A002C40F0BD80212900F044814028E5
:1030A4007FF472AE22297FF46FAE598D89B2002964
:1030B40000F0348193F83E104029C3D1196D0029E2
:1030C40040F0B681D96C0129996C00F0DB81C1F321
:1030D400072111611A6D01321A6555E693F83D1006
:1030E40022297FF451AE598D89B20329BFD8023900
:1030F400012940F2078100202025D96A5C6A02294F
:10310400116814BF21F4806141F480611160516839
:1031140021F4E06151601269611C596222705A8D78
:10312400013A92B25A8583F83D50186393F83E20D1
:1031340083F83E00402A184600F0A580FFF72AFDD8
:1031440022E693F83D102129596C16BF41F0010184
:1031540001F0FE01C9B2116122E61D6D15B94029C5
:1031640000F0F7801D6D25B91969B1F5404F00F0E5
:10317400F780598D89B2002940F0A08002915169ED
:103184000291916902910299116841F400711160F0
:103194000021196504E618460DB0BDE8F040FFF7BC
:1031A4000BBD196D11BB596C01F0FE011161F7E5FE
:1031B40020211B4C1846DC621A6383F83D1083F807
:1031C4003E20FFF7EFFCDFE5196D01297FF4E8AD40
:1031D400596CC91101F0060141F0F1011161DFE5FB
:1031E400996B0968496889B2598584E6596C41F03C
:1031F4000101C9B21161D3E5042C05D0082C03D018
:1032040014F5803F7FF43EAE116821F480611160B3
:1032140038E621293FF449AF41E700BF40000100EF
:103224000000FFFF042C64D0082C62D014F5803F0A
:103234005FD01168022C14BF21F4806141F48061D5
:103244001160516821F440715160002120241269F9
:103254005D6202705A8D1868013A92B25A855A6AB0
:103264000069551C5D6210705A8D1846013A92B27D
:103274005A8583F83D40196393F83E2083F83E1045
:10328400402A7FF45BAFFFF791FC7DE5002020240A
:10329400516821F4E0615160116841F400711160DA
:1032A400186383F83D4093F83E2083F83E00402A9B
:1032B40018467FF4A6ADFFF777FC65E5598D89B212
:1032C40001295BD0598D89B2022972D0116841F469
:1032D4008061116051680F0503D5516841F4805134
:1032E40051600021099151690991916909910999E4
:1032F4004EE7516821F440715160116841F4007146
:103304001160A2E7DB6A022B136800F0A28023F4A9
:1033140080631360136843F400631360536823F4F9
:103324008063536030E5042DB0D0082DAED015F580
:10333400803FABD0112620255168184621F4E06166
:1033440051601E6383F83E4083F83D50FFF720FC34
:103354001AE50095516900919169009100991FE562
:10336400019551690191916901910199116841F4A3
:1033740080711160196D0131196511E517F5803FF0
:1033840042D0042F30D0082F2ED0BCF1120F2BD0F6
:10339400D96A0229116814BF21F4806141F4806163
:1033A4001160002105915169059191690591059973
:1033B400EEE6D96A0025022911684ED041F4006175
:1033C40011600795516907919169079107991168EF
:1033D40021F480611160516809057FF5D9AE516807
:1033E40041F480515160D3E60025116821F48061D5
:1033F40011600695516906919169069106991168C3
:1034040041F400711160C3E6116821F48061116018
:10341400516811F400612AD00025116821F48061FB
:103424001160039551690391916903910399AFE682
:10343400196D01292CD0196D02297FF4A5AC93F8DC
:103444003D1022292BD093F83D1021297FF49CAC08
:10345400F8E543F48063136060E741F48061116030
:10346400089551690891916908910899B3E7049105
:1034740051690491916904910499116841F40071AE
:10348400116085E6C9B211611A6D02321A657BE4D6
:10349400996CC9B211611A6D01321A6574E413682A
:1034A40043F4807313606FE40268F8B5536904460B
:1034B40058485168034203F4813020D0CD051ED50D
:1034C4006FF48076256C45F0010525645661156816
:1034D40045F400451560002848D06FF40075206C51
:1034E40013F4823F40F002002064556103F48435F4
:1034F4001CD10DB1CB0531D4236C5BB9F8BD70B1CF
:10350400C805EAD413F4823F03F48435F1D0236C64
:10351400002BF3D02046BDE8F840FFF74DBB13F471
:10352400823F03F48435E4D0C905E5D594F83E0020
:10353400638D94F83D1020289BB2C9B2266B1BD032
:10354400236C43F00403236494F83E30102B40D0E2
:103554006FF480635361002DCED022686FF4006154
:10356400236C43F0080323645161C5E713F4823FDD
:1035740003F48435BDD0D9E7002BE1D101F0F70382
:10358400212B03D02829DBD1212ED9D194F83D3029
:10359400E16ADBB2042921D008291FD0212BD7D11D
:1035A400002020266FF480611B4FE762236384F8B8
:1035B4003D6084F83E005368204623F4E063536082
:1035C400516113680B401360FFF7E6FA002D93D0A6
:1035D400C3E7136843F400731360B9E7282BDDD104
:1035E4006FF48060002120260B4BE362536823F4C0
:1035F400E063536050611368034013602046216305
:1036040084F83D6084F83E10FFF7CCFA002D3FF4B7
:1036140073AFA2E7000101000000FFFF38B50023EB
:10362400406A0268456B1168846B21F48061116003
:10363400438590F83D106B6360294FF0200163636C
:1036440080F83D1080F83E3006D0136823F0010363
:103654001360FFF7ADFA38BD0364136823F0010368
:103664001360FFF7A7FA38BD002838D003461D4A77
:103674000068F0B4904229D91B491C4A0144A2FBBA
:1036840001211B4F090989004FF48075D3E90126F4
:1036940000243243DE6819643243D3E904613243BF
:1036A4009E690A4301683243DE6921F47F51324343
:1036B40021F030010A43DF6302601D842046C3E920
:1036C4000A44C3E90C449C63F0BC70470949074AA7
:1036D4000144A2FB012109098900074FD4E7012015
:1036E400704700BF07040240F8FBFDBFCDCCCCCC33
:1036F40000040240F8FFFDBF0000024008B590F846
:103704002130022B04D0042201238263184608BD11
:10371400036844491A688B4222F00E021A601A6840
:1037240022F001021A60404A24D9934254D0143240
:1037340093425DD0143293425CD01432934252D0FF
:10374400143293425FD01432934262D08B4266D0DB
:1037540002F5677293423FD01432934248D0143238
:10376400934247D01432934214BF4FF480334FF442
:10377400805332E0934222D01432934236D0143232
:1037840093423AD0143293422AD01432934237D01F
:10379400143293423AD08B423ED002F56772934280
:1037A4000DD01432934221D01432934225D01432D6
:1037B400934214BF4FF480334FF4805300E001234D
:1037C4001A4A53604FF48072436B0284002B9DD0DD
:1037D40098470023184608BD0123154A5360F1E7B2
:1037E4004FF48053ECE74FF48053F6E71023E7E7F8
:1037F4001023F2E74FF48073EFE74FF48073DFE7B1
:103804004FF48033DCE74FF48033E6E74FF4801362
:10381400D6E74FF48013E0E74FF08073D0E74FF022
:103824008073DAE780000240080002400000024092
:1038340000040240042270B4D0E90F6134680368C4
:103844008A4022421D6842D06A0740D51A68910610
:1038540003D41A6822F004021A609B4A9B499342DB
:1038640040F290808B4200F0EE8014318B4200F0E5
:10387400F28014318B4200F0E18014318B4200F06D
:10388400F58014318B4200F0FD8014318B4200F03E
:103894000281934200F00B8102F56272934200F0C0
:1038A400D2801432934200F0D6801432934200F056
:1038B400C5801432934214BF4FF480234FF48043E5
:1038C400834A5360C36A002B5AD170BC70470222EA
:1038D4008A4022423FD0AA073DD51A68910606D4F1
:1038E40001211A6822F00A021A6080F82110764A2F
:1038F400764993426DD98B4200F0A78014318B42F4
:1039040000F0978014318B4200F0A78014318B4271
:1039140000F0AF8014318B4200F0BA8014318B4236
:1039240000F0C280934200F0CB8002F562729342B1
:1039340000F08B80143293427BD01432934200F017
:103944008C801432934214BF4FF400324FF400526F
:103954005F4B5A6062E008228A402242B5D02A07AF
:10396400B3D501244FF480751A6804FA01F122F0EA
:103974000E021A60036B716084630584002BA4D06B
:1039840070BC18478B425CD014318B4261D0143127
:103994008B4250D014318B4265D014318B426ED09F
:1039A40014318B427AD0934200F08480494A934286
:1039B40047D0143293424CD0143293423BD0143249
:1039C400934214BF4FF480234FF48043424A536020
:1039D40078E78B423BD014318B4228D014318B4290
:1039E4003ED014318B4247D014318B424DD0143128
:1039F4008B4256D0934260D0364A934227D0143239
:103A0400934214D0143293422AD01432934214BFF6
:103A14004FF400324FF400522F4B5A600022836A55
:103A240080F82020002B3FF450AF70BC18472022B0
:103A3400F2E720228CE74FF48063C7E74FF48063FA
:103A44003EE70423C2E704233AE7022280E7022286
:103A5400E2E74023BAE7402332E74FF4007277E706
:103A64004FF40072D8E74FF48043AFE74FF480433C
:103A740026E74FF400526BE74FF40052CCE74FF4C3
:103A84008023A3E74FF480231AE74FF40032C3E7FF
:103A94004FF400325CE74FF4800311E74FF48003E6
:103AA40094E74FF40012B7E74FF4001250E74FF0D9
:103AB400806305E74FF0806388E74FF00072ABE75F
:103AC4004FF0007244E700BF80000240080002404B
:103AD400000402400804024000000240012238B5FC
:103AE400846990F914302568AA4052B2CD074CBFBE
:103AF40013439343DAB2027501226568AA408D0725
:103B04004CBF134393435BB2DAB202750122A5683A
:103B1400AA404D074CBF1343934311F0080F4FF0D5
:103B240001015BB2DAB20275E2680A4C01FA02F1F1
:103B340014BF0B438B43D9B2237801750BB1012019
:103B440038BD203000F0E8FC0028F9D001202070B6
:103B540038BD00BFE40000202DE9F0414FF001081A
:103B640004468269037D9069864D08FA00F023EAD1
:103B740000035BB295F800C0D8B282B00F4620753E
:103B840004F12006BCF1000F54D0116908FA01F8C1
:103B940023EA08035BB223750121506981400B437A
:103BA4005BB223750121926901FA02F21343237572
:103BB4004FF001083946304600F0C6FCA3693A7854
:103BC400DB6808FA03F313403B70A269D26813411F
:103BD4003B70A069237D82692F7808FA02F223EAF8
:103BE40002035BB2D9B22175002F7CD0826908FA36
:103BF40002F843EA0803237501270DF10701304653
:103C040000F0A2FCA069237D826995F800C007FA40
:103C140002F223EA02035BB2D9B22175BCF1000FB0
:103C240047D04269974023EA07032375002002B076
:103C3400BDE8F0810146304600F06EFCA269002820
:103C440040F095801169237D08FA01F123EA01030C
:103C54005BB22878D9B2217500289DD1304600F096
:103C64005BFCA269002878D1516994F814C008FA61
:103C740001F343EA0C035BB22878D9B2217500281A
:103C840090D1304600F048FCA36900285AD19969C4
:103C9400227D08FA01F111432B78C9B22175002B5A
:103CA40086D1304600F038FC002881D085F80080A9
:103CB4007EE7304600F030FCA369002837D15B6909
:103CC400217D07FA03F32A7821EA03012175002AEA
:103CD400ACD1304600F020FC0028A7D000202F7083
:103CE40002B0BDE8F081304600F016FCA36998B933
:103CF4009969227D08FA01F111432B78C9B2217523
:103D0400002B7FF479AF304600F006FC00283FF426
:103D140073AF85F800806FE79B69227D85F800808A
:103D240008FA03F848EA020884F8148064E70020DB
:103D34005B69227D2F709F4022EA0707277502B036
:103D4400BDE8F0819B69227D85F8008008FA03F8BC
:103D540048EA020884F814802AE75369217D08FAA6
:103D640003F30B435BB285F8008023751AE71169EE
:103D7400237D85F8008008FA01F823EA08035BB282
:103D8400237509E7E40000202DE9F04104460127EA
:103D94008069237D8269614D07FA02F223EA0203F6
:103DA4005BB295F800C0DAB282B00E462275BCF15F
:103DB400000F50D00269974023EA070323750127B7
:103DC40031092046FFF78AFEA069217D83692A789C
:103DD40007FA03F30B435BB2D9B22175002A6DD005
:103DE4008269974023EA0703237501273146204659
:103DF400FFF774FEA069217D82692E7807FA02F329
:103E04000B435BB2D9B22175002E3ED08269974034
:103E140023EA070323750DF107012046FFF79CFEF3
:103E2400FEF704F89DF807300546012B09D00EE093
:103E34000DF107012046FFF78FFE9DF80730012B97
:103E440005D1FDF7F3FF636A401B9842F0D30020CD
:103E540002B0BDE8F08104F120081146404600F0AC
:103E64005BFBA369002851D11B69217D07FA03F389
:103E74002A7821EA03012175002AA0D1404600F0E6
:103E84004BFB00289BD02F7099E704F120063046A5
:103E940000F042FBA369002830D19B69217D07FA19
:103EA40003F32A7821EA03012175002AB3D13046AD
:103EB40000F032FB0028AED02F70ACE704F12008EC
:103EC400404600F029FBA36980B99B69217D07FA6C
:103ED40003F32A7821EA03012175002A85D140469B
:103EE40000F01AFB002880D02F707EE79B69227DAA
:103EF4002F709F4022EA0707277576E79B69227D8A
:103F04002F709F4022EA0707277584E71B69227DEB
:103F14002F709F4022EA0707277550E7E40000202E
:103F24002DE9F84300224FF00108037F428080F816
:103F340001801BB101263046BDE8F883AB4B00F18C
:103F4400200783610446384600F0DEFA064600285E
:103F5400F0D13220FDF770FFA269237D1169A44DD1
:103F640008FA01F123EA01035BB22878D9B221757A
:103F7400002800F0B380516908FA01F823EA080325
:103F84005BB223750121926901FA02F223EA02036A
:103F940023754FF0010803212046FFF79FFDA36915
:103FA400227D99692B7808FA01F11143C9B2217570
:103FB400002B00F0FC804FF001084046FDF73CFF69
:103FC400A369217D9B692A7808FA03F321EA030196
:103FD4002175002A00F0E2804FF001080520FDF76A
:103FE4002BFF03212046FFF779FDA369227D996900
:103FF4002B7808FA01F11143C9B22175002B00F0A6
:10400400C4804FF001084046FDF716FFA369217DE7
:104014009B692A7808FA03F321EA03012175002A2F
:1040240000F0AA804FF001084046FDF705FF032188
:104034002046FFF753FDA369227D99692B7808FA7E
:1040440001F11143C9B22175002B00F08C804FF0AF
:1040540001084046FDF7F0FEA369217D9B692A789B
:1040640008FA03F321EA03012175002A73D04FF003
:1040740001084046FDF7E0FE02212046FFF72EFD31
:10408400A369227D99692B7808FA01F11143C9B219
:104094002175002B57D04FF001084046FDF7CCFEA8
:1040A400A369217D9B692A7808FA03F321EA0301B5
:1040B4002175002A3FD00120FDF7BEFE2B78002B8E
:1040C40000F09880012363700123A169227DC969EE
:1040D40030468B4013432375BDE8F883384600F01F
:1040E4001BFAA269002876D15169237D08FA01F1EF
:1040F40023EA01035BB22878D9B2217500287FF442
:1041040041AF384600F008FAA369002858D19B69EA
:10411400217D08FA03F32A7821EA03012175002A94
:104124007FF437AF384600F0F7F900283FF431AF99
:1041340085F800802DE7384600F0EEF90028BAD063
:1041440085F80080B7E7384600F0E6F90028A2D0E9
:1041540085F800809FE7384600F0DEF9002886D015
:1041640085F8008083E7384600F0D6F900283FF44C
:104174006EAF85F800806AE7384600F0CDF9002874
:104184003FF450AF85F800804CE7384600F0C4F99E
:1041940000283FF436AF85F8008032E7384600F057
:1041A400BBF900283FF418AF85F8008014E73846BF
:1041B40000F0B2F900283FF4FEAE85F80080FAE67C
:1041C4009A69237D85F8008008FA02F823EA080832
:1041D40084F81480DDE65169237D85F8008008FAAF
:1041E40001F823EA08035BB22375CBE668000020DC
:1041F400E400002021782046C900C9B241F0200122
:10420400FFF7C2FDA178E278490041F008012B785C
:10421400C9B21143002B7FF455AF2046FFF7B4FD1C
:104224002B78002B7FF44EAF01212046FFF7ACFD25
:104234002B78002B7FF446AF4FF00108062120466F
:10424400FFF7A2FD2B7884F80180002B7FF43CAFAC
:10425400A378E17803FA08F343F00C03DBB21943C3
:104264002046FFF791FDA269237DD16995F800905E
:1042740008FA01F11943C9B22175B9F1000F7FF4AD
:104284005AAE384600F048F900283FF454AE85F899
:1042940000804E464FE600BF2DE9F0410446012759
:1042A4008069237D8269604D07FA02F223EA0203E2
:1042B4005BB295F800C0DAB282B00E462275BCF14A
:1042C400000F4FD0026997403B4323750127310902
:1042D4002046FFF703FCA069217D83692A7807FA49
:1042E40003F30B435BB2D9B22175002A6DD0826906
:1042F400974023EA07032375012731462046FFF739
:10430400EDFBA069217D82692E7807FA02F30B4345
:104314005BB2D9B22175002E3ED08269974023EA60
:10432400070323750DF107012046FFF715FCFDF780
:104334007DFD9DF807300546012B09D00EE00DF1F7
:1043440007012046FFF708FC9DF80730012B05D133
:10435400FDF76CFD636A401B9842F0D3002002B065
:10436400BDE8F08104F120081146404600F0D4F87D
:10437400A369002851D11969227D07FA01F111437B
:104384002B78C9B22175002BA0D1404600F0C4F8A7
:1043940000289BD02F7099E704F12006304600F0E6
:1043A400BBF8A369002830D19B69217D07FA03F388
:1043B4002A7821EA03012175002AB3D1304600F09E
:1043C400ABF80028AED02F70ACE704F120084046CB
:1043D40000F0A2F8A36980B99B69217D07FA03F371
:1043E4002A7821EA03012175002A85D1404600F08C
:1043F40093F8002880D02F707EE79B69227D2F7070
:104404009F4022EA0707277576E79B69227D2F7074
:104414009F4022EA0707277584E71B69227D2F70D6
:104424009F401743277551E7E4000020054B1B7894
:104434000BB10120704701EB821161F07F01C9B219
:10444400FFF7A2BCE400002069B3F0B5044683B0D2
:104454004D1E01F14F0715F8013F0BB30DF1070194
:104464002046FFF779FBFDF7E1FC9DF8073006468F
:10447400012B09D00EE00DF107012046FFF76CFB7C
:104484009DF80730012B05D1FDF7D0FC636A801B32
:104494009842F0D329782046FFF7FEFEBD42DAD1D8
:1044A400002003B0F0BD0020704700BF034B1B7811
:1044B4000BB1012070470121FFF766BCE400002026
:1044C400012307494370097809B118467047837876
:1044D400C1785B0043F00C03DBB21943FFF754BC13
:1044E400E40000200021074A417012780AB101203B
:1044F40070478278C178530043F00803DBB2194354
:10450400FFF742BCE400002002460378002003F0D9
:1045140007031370704700BF034600B513F8082B58
:10452400406885B052008DF80F10009042F04001B1
:1045340018460DF10F020123FDF7F6FE003018BFF7
:10454400012005B05DF804FB034610B513F8082BF1
:10455400446882B0500000940A4640F04001184676
:104564000123FEF777F8003018BF012002B010BD18
:1045740030B44FF41F054FF000640E4B0E4A196817
:104584000E4841F00101196059680A405A601A68DE
:1045940022F0847222F480321A601A6822F4802293
:1045A4001A605A6822F4FE025A609D60846030BC2E
:1045B400704700BF001002400000FFF800ED00E06B
:1045C40001212DE9F043494D8BB0EB69042243F4FA
:1045D4008003EB61EB690E2003F480030193019BDC
:1045E4006B6900240B436B616B69414E0B40029372
:1045F400029BFDF7D1F90E20FDF704FA03220121F5
:104604000F20FDF7C9F90F20FDF7FCF94FF48043A3
:104614003849394A3046C6E900123361C6E90244D2
:10462400C6E90544C6E90744FDF708FE0121122046
:1046340003224FF440674FF080094FF480586B69B0
:104644000B436B616B690B400393039BAB6943F0B2
:104654000803AB61AB69CDE9070103F0080306A9C0
:10466400049326480697049B0992FDF701FAEB6927
:10467400234F43F48003EB61EB69224A03F4800384
:1046840005933846059B3A60C7E90144C7E90444E9
:10469400BC61C7F80C90C7F81C80FEF7E5FF102337
:1046A400194D1A4A2846C5E90023B7637E62C5F846
:1046B4000C90AC60C5E90444C5E90648FEF7D4FF94
:1046C40022462146212075636E62FDF765F921209B
:1046D400FDF798F9224621462220FDF75DF92220B4
:1046E400FDF790F90BB0BDE8F08300BF0010024065
:1046F4006401002000580040A0860100000C014025
:10470400F8010020580002403C020020440002400E
:104714002DE9F04F02274FF0200A0024844B89B082
:104724009A69844E42F004029A619A69304602F012
:1047340004020192019A9A6904A942F008029A615A
:104744009A694FF0800802F008020292029A9A696C
:104754004FF4805942F010029A619B69059403F06A
:1047640010030393039BCDE90647CDF810A0FDF792
:104774007FF9402304A930460493FDF779F904A98D
:104784003046CDF81080FDF773F94FF4806304F1DF
:10479400804404F5883404A920460493FDF768F99D
:1047A4004FF40063644D04A920460493FDF760F9B7
:1047B40004A92046CDF81090FDF75AF904A928461B
:1047C400CDF810904FF01009FDF752F904A92846CE
:1047D4000497FDF74DF9042201230DEB090130463E
:1047E400CDE90423FDF744F90DEB09012846CDF882
:1047F4001090FDF73DF90DEB09012846CDF810A006
:10480400FDF736F9012203230DEB09012046CDE91A
:104814000423FDF72DF901234FF0080B0DEB0901DB
:1048240028460493FDF724F90DEB09012046CDF841
:1048340010B0FDF71DF90DEB090120460497FDF7B3
:1048440017F90DEB09012046CDF81090FDF710F98A
:104854000DEB09012046CDF810A0FDF709F904235A
:104864000DEB090120460493FDF702F90DEB090154
:104874002846CDF810B0FDF7FBF804230DEB090131
:1048840028460493FDF7F4F8402202234FF480797C
:1048940004A92046CDE90423FDF7EAF804A920463B
:1048A400CDF81080FDF7E4F8204604A9CDF8109067
:1048B400FDF7DEF804A92846CDF81080FDF7D8F8F6
:1048C400012304A930460493FDF7D2F804A9304625
:1048D4000497FDF7CDF804A92846CDF81090FDF70C
:1048E400C7F84FF4007304A928460493FDF7C0F8F1
:1048F4004FF48063284604A90493FDF7B9F84FF4F4
:10490400005304A930460493FDF7B2F84FF48043F2
:1049140004A930460493FDF7ABF84FF4004304A90F
:1049240030460493FDF7A4F809B0BDE8F08F00BF4A
:1049340000100240000C0140000801402DE9F04F36
:1049440000264FF0200B4FF4FA6A784B9BB09A691B
:10495400774D42F400629A619A69764F02F40062DC
:104964000092009A9A696E6042F400529A619B69BF
:10497400284603F400530193C5E902BA019B2E6152
:10498400C5E905662F60FCF767FD1022002302A924
:104994002846CDE902230024FCF790FF6023CDE9EB
:1049A4000A34002308244FF40079CDE90C340023A1
:1049B400002432460AA92846CDE90E34CDF84090A9
:1049C400FCF7C2FD0AA928460422FCF7BDFD0AA98A
:1049D40028460822FCF7B8FD00220023CDE916235F
:1049E4004FF400624FF48063CDE9122300222023A8
:1049F400514C12A9DFF844812846CDE914231896B6
:104A0400FCF732FF2046C4E9016BC4E903A6C4E9FC
:104A14000566C4F80080FCF71FFD2022802302A94C
:104A24002046CDE90223FCF749FF0023052204A90F
:104A34002046CDE904234FF0600BFCF78BFE4FF0CA
:104A4400000CCDE90ABC4FF0080C4FF0000B4FF0FE
:104A5400000ACDE90CBC4FF0000B32460AA92046EF
:104A6400CDE90EABCDF84090FCF76EFD0AA92046C7
:104A74000422FCF769FD0AA920460822FCF764FD1C
:104A84004FF400624FF48063CDE912230022202307
:104A940012A92046CDE91423CDE916AB1896FCF7EC
:104AA400E3FED8F84430314623F40043C8F84430D8
:104AB4007B6C204623F400437B64FCF723FD2046F3
:104AC4000421FCF71FFD20460821FCF71BFD31469D
:104AD4002046FCF7B3FE20460421FCF7AFFE204637
:104AE4000821FCF7ABFE31462846FCF70BFD2846AF
:104AF4000421FCF707FD28460821FCF703FD314695
:104B04002846FCF79BFE28460421FCF797FE28461E
:104B14000821FCF793FE012123682A6819631368AE
:104B24000B4313601BB0BDE8F08F00BF00100240C0
:104B3400B8010020002C014048030020003401404B
:104B4400F0B54FF4807C00264FF440220527414DF8
:104B5400414CAB6989B043F40073AB61AB693F4925
:104B640003F4007302932046029BC4F808C021603A
:104B7400E261E660666166602761FDF771F94FF4F2
:104B8400C02C374A01A95368204643F4802353605C
:104B9400CDF804C0FCF7B8FE4FF0010C0E2201233F
:104BA40004A92046CDF818C0CDE90423FDF716FA70
:104BB4000022022304A92046CDE90423FDF70EFABE
:104BC4004FF0020C0B22032304A92046CDF818C091
:104BD400CDE90423FDF702FA0C22042304A920469C
:104BE400CDE90423FDF7FAF90C22052304A9204694
:104BF400CDE90423FDF7F2F940F6A22C2268194B03
:104C04009168DFF868E041F4807191609168164C16
:104C140041F0010191606969324641F00101696125
:104C24006869314600F00100039003981E605F60DC
:104C3400C3F808E0DC60C3F800C01C680B2044F033
:104C440001041C60FCF7A8FE0B20FCF7DBFE09B096
:104C5400F0BD00BF0010024080020020002401408B
:104C64000000014008000240F40200204C240140EE
:104C74004FF4807070B500234FF460260525274A51
:104C8400274C9169A06041F480619161926986B07A
:104C9400244902F4806201922046C4E90335019A52
:104CA400216063616360E6610125FDF7D9F80F2295
:104CB400012302A92046CDE902230495FDF78EF9CC
:104CC4000D22022302A92046CDE902230225FDF785
:104CD40085F90A22032302A92046CDE9022304957B
:104CE400FDF77CF90222042302A92046CDE9022320
:104CF400FDF774F90322052302A92046CDE9022316
:104D0400FDF76CF923689A6842F480729A609A6895
:104D140042F001029A6006B070BD00BF001002406C
:104D2400340100200028014038B505230546264CEF
:104D3400542284F8201004F1280024496362FBF70C
:104D4400B7FA6B1E032B05D8DFE803F03A372A02C3
:104D54000323237000231C482377FFF7E1F840BBAB
:104D640001221B4B1A701848FFF7A0FB0520FDF722
:104D740063F81548FFF7A4FB002213481146FFF718
:104D840055FB14491048FFF75FFB6A0800210E48E1
:104D9400FFF74CFBBDE838400F490B48FFF754BB05
:104DA40002232370002308482377FFF7B9F800286B
:104DB400D6D00A4800F0FAFCD5E701232370C9E7EE
:104DC40000232370C6E700BF88030020640100208D
:104DD400E5000020DC5F0008E85F0008B55B000820
:104DE40070B5002000F0F2FC00F02CFF1A4B1B7889
:104DF4006BBB0023194C1A46202119482370FCF779
:104E040055FF00F0C3FC00F00BFD154D154E0221BB
:104E14002846FCF745FF0028F9D000F0B1FC044611
:104E2400002004F5486400F0D1FC04E00221284687
:104E3400FCF736FF20B100F0A3FCA042F6D370BD0E
:104E4400304600F0B3FC012000F0C0FCDFE7064868
:104E5400FFF748FBCDE700BFE50000200C0400206D
:104E640000080140815B00088803002070B5002021
:104E740000F0ACFC00F0E8FE1A4B1B786BBB00237F
:104E8400194C1A46202119482370FCF70FFF00F033
:104E94007DFC00F0C5FC154D154E02212846FCF79B
:104EA400FFFE0028F9D000F06BFC0446002004F556
:104EB400486400F08BFC04E002212846FCF7F0FE75
:104EC40020B100F05DFCA042F6D370BD304600F086
:104ED4006DFC012000F07AFCDFE70648FFF702FBD7
:104EE400CDE700BFE50000200C04002000080140CD
:104EF400815B000888030020F0B54FF4601302249E
:104F040000250126102797B00CA8CDE91067CDE93C
:104F140014530C9413940F26FBF7C6FF02270022A8
:104F24004FF4806321466846CDE902230495CDE918
:104F34000067FCF7A1F94FF4404306A808930694D0
:104F4400FCF7BCFEFCF770FA084BA3FB00308009A9
:104F5400FCF764FD0420FCF779FD2A4629464FF04E
:104F6400FF30FCF719FD17B0F0BD00BFD34D621040
:104F740030B5354D83B0FCF73FFFAB69032043F0F8
:104F84000103AB61AB69314C03F001030193019B55
:104F9400FCF7F0FC00226FF00B001146FCF7FCFC60
:104FA40000226FF00A001146FCF7F6FC00226FF0B5
:104FB40009001146FCF7F0FC00226FF004001146D2
:104FC400FCF7EAFC00226FF003001146FCF7E4FC56
:104FD40000226FF001001146FCF7DEFC00224FF0C6
:104FE400FF301146FCF7D8FCFFF786FF6B6923F00E
:104FF40001036B61FFF78CFBFFF7A0FCFFF7A0FD3B
:10500400FFF736FE012220212046FCF74FFE104810
:10501400FDF7ACF80F48FDF7A9F80F4800F0C6FB00
:10502400012204210D48FCF741FEFFF7C9FA3220A2
:10503400FCF702FF00F00AFE02212046FCF730FED6
:105044000028F9D103B030BD00100240000801402F
:105054008002002034010020A95A0008000C0140FD
:1050640001222DE9F84F414BDFF81C81404FDFF856
:105074001CA1404CDFF818B11A70FFF779FF00F05B
:10508400F9FE012000F0A2FBDFF808910320FCF7F1
:10509400D3FE00F0E9FD02212046FCF701FEB8B37F
:1050A40000F06EFB0646002006F5FA4500F08EFB84
:1050B40004E002212046FCF7F3FD08B300F060FB96
:1050C400A842F6D306F51C362B4806F5807600F088
:1050D4006DFB05E002212046FCF7E2FD002841D0EB
:1050E40000F04EFBB042F5D3244800F05FFB0221F0
:1050F4002046FCF7D5FD0028F9D1FFF7B7FEBCE741
:10510400484600F053FB012000F060FB00F01CFF58
:10511400D8F800303A689A4217D8DAF80020012A01
:10512400B4D95B4505D901230133DBB29342FBD3E8
:10513400ACE7134B586800F039FB124B1B680A2B81
:10514400A2D90A230F4A13609EE70D4B186800F09A
:105154002DFB002000F03AFBC820FCF76DFEFFF7A2
:105164003FFE8AE7FFF73CFE87E700BF0C04002000
:105174008460000800080140F55A0008FD5B00083F
:10518400B4000020740400209C00002090600008FB
:10519400E16E1400815B000840F2DE32036810B453
:1051A40093422DDCA2F2BC729342B8BF134603F5BE
:1051B4007A7240F2DE314368134C8B4262631CDC2A
:1051C400124A9342B8BF134603F57A7240F2DE31B5
:1051D40083680D488B42826309DC0C4A10BC9342FD
:1051E400B8BF1346084A03F57A73D363704740F295
:1051F400C673054A10BCD363704740F2C672E5E734
:1052040040F2C672D5E700BF002C014022FCFFFF2C
:1052140040F2DE32036810B493422DDCA2F2BC7279
:105224009342B8BF134603F57A7240F2DE31436805
:10523400134C8B4262631CDC124A9342B8BF134680
:1052440003F57A7240F2DE3183680D488B42826343
:1052540009DC0C4A10BC9342B8BF1346084A03F554
:105264007A73D363704740F2C673054A10BCD363A4
:10527400704740F2C672E5E740F2C672D5E700BF58
:105284000034014022FCFFFF0B4A0C4891689368EC
:1052940081F08001926883F04003C1F3C011C3F32D
:1052A400801303EB410382F02002C2F3401200EBAF
:1052B4004303985C704700BF000C01400060000885
:1052C4000B4A0C489168936881F48051926883F486
:1052D4000063C1F30031C3F3C02303EB410382F441
:1052E4008062C2F3802200EB4303985C704700BFE6
:1052F4000010014000600008704700BF014B4042AD
:105304001860704778040020014B5860704700BF54
:1053140078040020054A064B12680421A3FB0232DC
:105324000448C2F38022FCF7C1BC00BFE80000209F
:10533400D34D6210000C0140054A536C18B143F47C
:1053440000435364704723F400435364704700BF21
:1053540000340140054A536C18B143F400435364CC
:10536400704723F400435364704700BF002C01408E
:10537400164B1B68B3F5806F23D2154A154B126880
:1053840010B4188814885988204440101880548810
:1053940098882144491059809488D9882044401021
:1053A4009880D488188921444910D980148959894E
:1053B400204440101881528910BC0A4452105A816A
:1053C4007047054B054A1A60704700BFE80000208B
:1053D4008C00002090000020A8000020E553000865
:1053E4002DE9F04F0024B84FB84B91B0049307F166
:1053F4000A030593B64BDFF804B30793B54BB64ED7
:105404000693B64BDFF8F892DFF8F8A2DFF8F882DB
:1054140003930297049A52F8043B0492984756F86F
:1054240024300546013346F8243019F80430834209
:105434006ED019F80430AA490133A1FB030189088D
:1054440001EB4101A3EB4103DBB256F824009D427A
:10545400039A18BF404212684AF824009047002378
:1054640046F8243009F80450E3071B1BD8F8002041
:105474005B000A33D35A059A069832F802195B1A6C
:10548400002B9849B8BF5B42A1FB031396491B0943
:1054940041F824300592954950F8042B0690086889
:1054A40083428CBF002001209047914B914A1B6896
:1054B4008D4852F824101F465AF8242056F82430F8
:1054C40050F8240000900DA8B8479DF83C302A46B7
:1054D40093B15AF82430002BC0F218815AF82430C2
:1054E400002B09DD01357E4BA3FB0532920802EB4C
:1054F4004202A5EB4202D5B2DDE90D1CCCF100035A
:10550400052D00F2CF80DFE805F084675848382B7A
:1055140056F824205AF82430002BB8BF5B429A4234
:10552400A2D9039A5AF824301268002B1746C0F205
:105534000F815AF824300022002B40F307816E4B70
:1055440056F82400CDE90823FBF756F9DDE90823D2
:10555400FBF7CCF9FBF77AFC4AF82400B84783E759
:1055640000205AF824E04D428645CDE90A100C95F6
:1055740040F3E7800CEB01005AE000255AF8243090
:10558400C1F1000EAB420A91CDE90BE540F39680E0
:10559400AEEB0C03654608464AE000205AF8245056
:1055A400C1F1000E85420C91CDE90A0E40F3C3808F
:1055B400184601EB0C0573463AE04FF0000E5AF81A
:1055C400245048427545CDE90BE10A9040F3B08080
:1055D4000D46052371460AE000255AF82430484256
:1055E400AB42CDE90B150A9040F39D80052313448B
:1055F4003B4AA2FB0372920802EB4202A3EB420372
:10560400013B042B00F2B080DFE803F082A9A587F8
:105614000E0000205AF824E04D428645CDE90A01E7
:105624000C95E3DC184675E00B466044A5EB0C05CD
:10563400079ACDE90A0352F8043B0C950AA807928D
:105644009847A3071B1BD8F800009B009A1D08333A
:1056540019F80410825AC35A0298C5880089521B4B
:105664001B1A052904D8DFE801F0191212040415E5
:105674000023CBF80030029B0BF1040B043B029394
:10568400039B04330393ECB111B0BDE8F08FCBF866
:105694000020F0E79B1ACBF80030ECE7D31ACBF8E4
:1056A4000030E8E70025002000215AF82430CDE935
:1056B4000A01AB420C955CDCAE4629460846012340
:1056C400714694E70124A5E690000020F85F0008E5
:1056D40008600008186000085804002010600008E2
:1056E400ABAAAAAA1F85EB51500400207404002021
:1056F400A4000020680400200000F03F60040020A3
:1057040070040020800400208C0000200535EAE6A7
:10571400A0EB0C000CEB01038AE7A1EB0C030146A0
:105724000CEB010084E7A0EB0C0065460B467FE719
:1057340001EB0C057CE70D46014601230846714642
:1057440055E7864601230846714650E70023F7E6ED
:1057540000220A4BF4E66544A1EB0C0368E76544B8
:10576400A0EB0C000B4663E70CEB0103A5EB0C0567
:105774005EE705232946284639E700BF0000F0BF4D
:10578400014B1868704700BFE800002010B4044BB8
:10579400044C00221C601021034810BCFCF786BA9C
:1057A400A0000020FD5200080008014038B5054D56
:1057B4002B68834205D00446034B186800F06CF94B
:1057C4002C6038BDA0000020E80000200F4B104AD8
:1057D4001968914203D018B10E4A1A607047704795
:1057E40030B504460C4A85B00C4D1A6001A82B78DC
:1057F400CDE901440394FFF70BFD01A86B78CDE9D3
:1058040001440394FFF7C8FC05B030BDA800002094
:1058140075530008E5530008FD5200087004002089
:10582400014B024A1A607047A8000020195300086F
:1058340010F57A7F04DBB0F57A7F10DC404201E09A
:105844004FF47A70074A084B9142B8BF1146B1F53C
:105854007A7FA8BF4FF47A71186059607047014885
:10586400F0E700BF18FCFFFF6804002002220D4B84
:1058740010B50D4C5A6023680C4A01332360136839
:1058840098470B4B1B68984723689B0608D1094926
:10589400094A0B689289C3EB832302EB93230B60C1
:1058A40010BD00BF00000240E8000020A800002056
:1058B400A00000209C000020F4020020704700BFDC
:1058C400FEE700BFFEE700BFFEE700BFFEE700BF44
:1058D400704700BF704700BF704700BF08B5FCF7B2
:1058E4009DFABDE80840FCF7BFB800BF0148FDF7CA
:1058F40003BA00BF640100200148FDF7D5BD00BF15
:10590400640100200148FDF795BF00BF3C02002060
:105914000148FDF78FBF00BFF80100200022C0E955
:1059240000120272704700BF0022C0E90022027216
:10593400704700BF10B40024064B446003FB01F120
:10594400054B047283FB0143C917C1EB633101604A
:1059540010BC7047A08601009F95F51D70B4104ED1
:105964004D0186FB0546EC17C4EBA61414F0FF05A5
:1059740014D0E443E4B202FB04F40A4AE51782FBC0
:1059840004621444C5EBE434A3422CBF0023012376
:1059940070BC002201600372426070472B46F7E737
:1059A400D34D621001800080632A04DC0023C0E927
:1059B40000130372704700230029B8BF0731C910D0
:1059C400C0E9001303727047054B00EB40008000F0
:1059D4001A18926818580349034B08601A607047F4
:1059E40048600008A40000207404002008B5FFF7F4
:1059F400C7FE084B084A1B68C01AA2FB0032920576
:105A040001D4C30700D408BD1021BDE808400348F1
:105A1400FCF750B914050020FB0E2A3100080140A0
:105A240008B5FFF7ADFE084B084A1B68C01AA2FB75
:105A34000032D20401D4830700D108BD1021BDE88F
:105A440008400348FCF736B9140500203FCB9EC438
:105A54000008014008B5FFF793FE0B4B0B4A1B6887
:105A6400C01AA2FB0032D30507D4094BA3FB0023C1
:105A74005B0803EB4303984200D108BD1021BDE845
:105A840008400448FCF716B914050020D34D6210F1
:105A9400ABAAAAAA00080140014B1860704700BFD6
:105AA4001405002008B5FFF76BFE0E4B1B68C01AE7
:105AB400B0F5485F11D20C4BA3FB00235B0AC3F182
:105AC4000803B0FBF3F203FB120000B908BD102178
