:020000040800F2
:1000000000C00020053400087D310008813100085F
:1000100085310008893100088D310008000000009A
:100020000000000000000000000000009131000806
:100030009531000800000000993100089D3100084A
:100040004D3400084D3400084D3400084D3400088C
:100050004D3400084D3400084D3400084D3400087C
:100060004D3400084D3400084D3400082D3100088F
:100070004D3400084D3400084D3400084D3400085C
:100080004D3400084D3400084D3400084D3400084C
:100090004D3400084D3400084D3400084D3400083C
:1000A0004D3400084D3400084D3400084D3400082C
:1000B0004D3400084D3400084D3400084D3400081C
:1000C0004D3400084D3400084D3400084D3400080C
:1000D0004D3400084D3400084D3400084D340008FC
:1000E0004D3400084D3400084D3400084D340008EC
:1000F0004D3400084D3400084D3400084D340008DC
:100100004D3400084D3400084D3400084D340008CB
:100110004D3400084D3400084D3400084D340008BB
:100120004D3400084D3400084D3400084D340008AB
:1001300000000000000000000000000000000000BF
:1001400000000000000000000000000000000000AF
:10015000000000000000000000000000000000009F
:10016000000000000000000000000000000000008F
:10017000000000000000000000000000000000007F
:10018000000000000000000000000000000000006F
:10019000000000000000000000000000000000005F
:1001A000000000000000000000000000000000004F
:1001B000000000000000000000000000000000003F
:1001C000000000000000000000000000000000002F
:1001D000000000000000000000000000000000001F
:0401E0005FF8E0F1F3
:1001E800044B05481B1A062B02D9044B03B11847C8
:1001F800704700BF3B0000203800002000000000CE
:1002080005490648091A891001EBD171491002D035
:10021800034B03B11847704738000020380000200E
:100228000000000010B5064C237843B9FFF7D8FF4B
:10023800044B13B10448AFF300800123237010BDB1
:1002480038000020000000005034000808B5084BB2
:100258001BB108490848AFF300800848036813B980
:10026800BDE80840CCE7064B002BF9D09847F7E7E4
:10027800000000003C000020503400083800002036
:100288000000000070B50F4E0F4D761BB61018BF5A
:10029800002405D0013455F8043B9847A642F9D10B
:1002A8000A4E0B4D03F0D0F8761BB61018BF002489
:1002B80006D0013455F8043B9847A642F9D170BDE1
:1002C80070BD00BF18350008183500081C35000837
:1002D8001835000881F0004102E000BF83F00043B8
:1002E80030B54FEA41044FEA430594EA050F08BFC9
:1002F80090EA020F1FBF54EA000C55EA020C7FEA8D
:10030800645C7FEA655C00F0E2804FEA5454D4EB09
:100318005555B8BF6D420CDD2C4480EA020281EAD3
:10032800030382EA000083EA010180EA020281EA0B
:100338000303362D88BF30BD11F0004F4FEA01315D
:100348004FF4801C4CEA113102D0404261EB41016C
:1003580013F0004F4FEA03334CEA133302D05242F2
:1003680063EB430394EA050F00F0A780A4F10104AE
:10037800D5F1200E0DDB02FA0EFC22FA05F28018E8
:1003880041F1000103FA0EF2801843FA05F35941CE
:100398000EE0A5F120050EF1200E012A03FA0EFC4D
:1003A80028BF4CF0020C43FA05F3C01851EBE37177
:1003B80001F0004507D54FF0000EDCF1000C7EEB94
:1003C80000006EEB0101B1F5801F1BD3B1F5001FD2
:1003D8000CD349085FEA30004FEA3C0C04F10104F1
:1003E8004FEA445212F5800F80F09A80BCF1004F1A
:1003F80008BF5FEA500C50F1000041EB045141EA9C
:10040800050130BD5FEA4C0C404141EB010111F49C
:10041800801FA4F10104E9D191F0000F04BF014647
:100428000020B1FA81F308BF2033A3F10B03B3F125
:1004380020020CDA0C3208DD02F1140CC2F10C02B5
:1004480001FA0CF021FA02F10CE002F11402D8BF13
:10045800C2F1200C01FA02F120FA0CFCDCBF41EADF
:100468000C019040E41AA2BF01EB0451294330BDAE
:100478006FEA04041F3C1CDA0C340EDC04F114048B
:10048800C4F1200220FA04F001FA02F340EA030062
:1004980021FA04F345EA030130BDC4F10C04C4F1A8
:1004A800200220FA02F001FA04F340EA0300294688
:1004B80030BD21FA04F0294630BD94F0000F83F4D2
:1004C800801306BF81F480110134013D4EE77FEAB5
:1004D800645C18BF7FEA655C29D094EA050F08BF01
:1004E80090EA020F05D054EA000C04BF19461046E2
:1004F80030BD91EA030F1EBF0021002030BD5FEA26
:10050800545C05D14000494128BF41F0004130BD4D
:1005180014F580043CBF01F5801130BD01F00045A1
:1005280045F0FE4141F470014FF0000030BD7FEA14
:10053800645C1ABF194610467FEA655C1CBF0B460F
:10054800024650EA013406BF52EA033591EA030F26
:1005580041F4002130BD00BF90F0000F04BF00211E
:10056800704730B54FF4806404F132044FF0000551
:100578004FF0000150E700BF90F0000F04BF0021CA
:10058800704730B54FF4806404F1320410F0004530
:1005980048BF40424FF000013EE700BF42004FEA2B
:1005A800E2014FEA31014FEA02701FBF12F07F43A8
:1005B80093F07F4F81F06051704792F0000F14BFA5
:1005C80093F07F4F704730B54FF4607401F00045E9
:1005D80021F0004120E700BF50EA010208BF704740
:1005E80030B54FF000050AE050EA010208BF704735
:1005F80030B511F0004502D5404261EB41014FF49E
:10060800806404F132045FEA915C3FF4DCAE4FF0A1
:1006180003025FEADC0C18BF03325FEADC0C18BF88
:10062800033202EBDC02C2F1200300FA03FC20FAD9
:1006380002F001FA03FE40EA0E0021FA02F1144426
:10064800C1E600BF70B54FF0FF0C4CF4E06C1CEA3B
:1006580011541DBF1CEA135594EA0C0F95EA0C0FB0
:1006680000F0DEF82C4481EA030621EA4C5123EA23
:100678004C5350EA013518BF52EA033541F4801152
:1006880043F4801338D0A0FB02CE4FF00005E1FB05
:1006980002E506F00042E0FB03E54FF00006E1FB4F
:1006A80003569CF0000F18BF4EF0010EA4F1FF0492
:1006B800B6F5007F64F5407404D25FEA4E0E6D41D2
:1006C80046EB060642EAC62141EA55514FEAC520E3
:1006D80040EA5E504FEACE2EB4F1FD0C88BFBCF55F
:1006E800E06F1ED8BEF1004F08BF5FEA500E50F110
:1006F800000041EB045170BD06F0004646EA0101D6
:1007080040EA020081EA0301B4EB5C04C2BFD4EB07
:100718000C0541EA045170BD41F480114FF0000E00
:10072800013C00F3AB8014F1360FDEBF002001F06E
:10073800004170BDC4F10004203C35DA0C341BDCE8
:1007480004F11404C4F1200500FA05F320FA04F0BA
:1007580001FA05F240EA020001F0004221F00041EE
:1007680010EBD37021FA04F642EB06015EEA430E61
:1007780008BF20EAD37070BDC4F10C04C4F1200591
:1007880000FA04F320FA05F001FA04F240EA020044
:1007980001F0004110EBD37041F100015EEA430E15
:1007A80008BF20EAD37070BDC4F1200500FA05F235
:1007B8004EEA020E20FA04F301FA05F243EA0203B4
:1007C80021FA04F001F0004121FA04F220EA0200C3
:1007D80000EBD3705EEA430E08BF20EAD37070BD09
:1007E80094F0000F0FD101F00046400041EB0101E9
:1007F80011F4801F08BF013CF7D041EA060195F0CB
:10080800000F18BF704703F00046520043EB030384
:1008180013F4801F08BF013DF7D043EA0603704771
:1008280094EA0C0F0CEA135518BF95EA0C0F0CD07C
:1008380050EA410618BF52EA4306D1D181EA0301C2
:1008480001F000414FF0000070BD50EA410606BFBC
:100858001046194652EA430619D094EA0C0F02D101
:1008680050EA013613D195EA0C0F05D152EA033646
:100878001CBF104619460AD181EA030101F0004164
:1008880041F0FE4141F470014FF0000070BD41F0AD
:10089800FE4141F4780170BD70B54FF0FF0C4CF487
:1008A800E06C1CEA11541DBF1CEA135594EA0C0FA6
:1008B80095EA0C0F00F0A7F8A4EB050481EA030EF3
:1008C80052EA03354FEA013100F088804FEA0333DA
:1008D8004FF0805545EA131343EA12634FEA0222A8
:1008E80045EA111545EA10654FEA00260EF0004169
:1008F8009D4208BF964244F1FD0404F5407402D2BB
:100908005B084FEA3202B61A65EB03055B084FEA4B
:1009180032024FF480104FF4002CB6EB020E75EB48
:10092800030E22BFB61A754640EA0C005B084FEA70
:100938003202B6EB020E75EB030E22BFB61A7546ED
:1009480040EA5C005B084FEA3202B6EB020E75EB38
:10095800030E22BFB61A754640EA9C005B084FEAB0
:100968003202B6EB020E75EB030E22BFB61A7546BD
:1009780040EADC0055EA060E18D04FEA051545EAAC
:1009880016754FEA06164FEAC30343EA52734FEA55
:10099800C2025FEA1C1CC0D111F4801F0BD141EACE
:1009A80000014FF000004FF0004CB6E711F4801F33
:1009B80004BF01430020B4F1FD0C88BFBCF5E06F13
:1009C8003FF6AFAEB5EB030C04BFB6EB020C5FEA23
:1009D800500C50F1000041EB045170BD0EF0004E78
:1009E8004EEA113114EB5C04C2BFD4EB0C0541EAAA
:1009F800045170BD41F480114FF0000E013C90E6A7
:100A080045EA060E8DE60CEA135594EA0C0F08BF6A
:100A180095EA0C0F3FF43BAF94EA0C0F0AD150EA69
:100A280001347FF434AF95EA0C0F7FF425AF1046FC
:100A380019462CE795EA0C0F06D152EA03353FF424
:100A4800FDAE1046194622E750EA410618BF52EAA1
:100A580043067FF4C5AE50EA41047FF40DAF52EA75
:100A680043057FF4EBAE12E74FF0FF3C06E000BF12
:100A78004FF0010C02E000BF4FF0010C4DF804CD1F
:100A88004FEA410C7FEA6C5C4FEA430C18BF7FEADF
:100A98006C5C1BD001B050EA410C0CBF52EA430C0D
:100AA80091EA030F02BF90EA020F0020704710F18D
:100AB800000F91EA030F58BF994208BF90422CBF1C
:100AC800D8176FEAE37040F0010070474FEA410C15
:100AD8007FEA6C5C02D150EA013C07D14FEA430C33
:100AE8007FEA6C5CD6D152EA033CD3D05DF8040BA4
:100AF800704700BF8446104662468C4619466346D6
:100B080000E000BF01B5FFF7B7FF002848BF10F1AC
:100B1800000F01BD4DF808EDFFF7F4FF0CBF0120F1
:100B280000205DF808FB00BF4DF808EDFFF7EAFF6D
:100B380034BF012000205DF808FB00BF4DF808ED28
:100B4800FFF7E0FF94BF012000205DF808FB00BF1D
:100B58004DF808EDFFF7CEFF94BF012000205DF8A7
:100B680008FB00BF4DF808EDFFF7C4FF34BF0120B4
:100B780000205DF808FB00BF4FEA410212F50012A1
:100B880015D211D56FF47873B3EB625212D94FEACC
:100B9800C12343F0004343EA505311F0004F23FAB6
:100BA80002F018BF404270474FF00000704750EA0B
:100BB800013005D111F0004008BF6FF000407047C8
:100BC8004FF00000704700BF054B1A69120605D5A3
:100BD8000449054A596000205A607047012070474F
:100BE8000020024023016745AB89EFCD034A00206E
:100BF800136943F080031361704700BF002002406F
:100C08002DE9F041036882B0DD07044630D5AE49CE
:100C18004A6802F00C02042A00F0FB804A6802F0DD
:100C28000C02082A00F0F1806368B3F5803F00F0F9
:100C38007681002B00F00581B3F5A02F00F0AC8180
:100C4800A14B1A6822F480321A601A6822F48022B2
:100C58001A6000F089FF9C4D064605E000F084FF0D
:100C6800801B642800F218812B689A03F6D5236844
:100C78009F0729D5944A516811F00C0F00F0AA80FB
:100C8800516801F00C01082900F0A0802369002BAD
:100C980000F034818D4B01221A6000F065FF8A4D07
:100CA800064605E000F060FF801B022800F2F48091
:100CB8002B68854A9807F5D51368616923F0F8030E
:100CC80043EAC103136023681A075DD45D073AD568
:100CD8007D4BDA69D00000F1A680DA69012542F07F
:100CE8008052DA61DB6903F080530093009B784BF4
:100CF8001A68D10540F1BF80E368012B00F0158127
:100D0800002B00F0CD80052B6F4B1A6A00F0518143
:100D180022F001021A621A6A22F004021A6200F032
:100D280023FF694E804641F2883706E000F01CFF39
:100D3800C8EB0000B84200F2AF80336A9B07F5D5D4
:100D4800002D40F0F880E269D2B15F4B596801F09C
:100D58000C01082945D0022A5E4A4FF000011160B3
:100D680000F0EF801C4600F0FFFE054605E000F0AD
:100D7800FBFE401B022800F28F8023689B01F6D4FB
:100D8800002002B0BDE8F081A369002B2DD0524BA2
:100D980001221A6000F0E8FE4B4D064604E000F020
:100DA800E3FE801B022877D86B6A9B07F7D54B4B6D
:100DB8004B4A1B68A2FB03235B0A019300BF019BFC
:100DC8005A1E0192002BF9D123687FE75268D60397
:100DD8003FF55CAF3C4A1268950726D52269012A7F
:100DE80023D0012002B0BDE8F0813B4A364D1360A4
:100DF80000F0BAFE064604E000F0B6FE801B0228AA
:100E08004AD86B6A9F07F7D4DEE74A68D0037FF5B4
:100E18000BAF2D4A126891037FF52AAF6268002A4A
:100E28007FF426AFDDE7002561E7274960690A6896
:100E380022F0F80242EAC0020A601A077FF546AFBC
:100E4800A2E703F1804303F504331A681D4622F430
:100E580080321A601A6822F480221A6000F084FE38
:100E6800064604E000F080FE801B642814D82B6836
:100E78009B03F7D4FBE61A681E4642F480721A6098
:100E880000F072FE07463368DA053FF535AF00F02B
:100E98006BFEC01B6428F6D9032002B0BDE8F081C0
:100EA80003F1804303F504331A6A1E4622F0010257
:100EB8001A621A6A41F2883822F004021A6200F0B3
:100EC80053FE074613E000BF0010024000004242F4
:100ED800007000406000424280044242000000204E
:100EE800D34D621000F040FEC01B4045D4D8336A91
:100EF8009807F7D4002D3FF426AF1CE0344A354D4F
:100F0800136000F031FE064604E000F02DFE801B61
:100F18000228C1D82B689907F7D42368D4E62D4A4C
:100F2800136843F48033136093E62A4A136A43F044
:100F380001031362F3E6274AD36923F08053D36190
:100F480001E71D4600F010FE064604E000F00CFE26
:100F5800801B0228A0D82B681E4A9901F6D4206A63
:100F6800B0F5803F2DD01B4B616A5A68014322F4CB
:100F7800741219480A4301215A6001601C4600F0A6
:100F8800F3FD054604E000F0EFFD401B022883D87E
:100F980023689A01F7D5F3E603F18043A3F53C33C0
:100FA8001A6842F480221A601A6842F480321A6081
:100FB8004FE642F004021A621A6A42F001021A620B
:100FC800ADE65168A36821F400310B435360CAE7CA
:100FD800000042420010024060004242644A2DE98B
:100FE800F041136886B003F007038B420DD21368F3
:100FF80023F007030B431360136803F007039942B8
:1010080003D0012006B0BDE8F08103689A0706D531
:10101800584D82686C6824F0F00422436A60DB074C
:1010280006460C4624D54368524A012B126800F044
:101038008E80022B00F083809007E2D54D4D41F25F
:1010480088386A6822F0030213436B6000F08CFD55
:1010580073680746012B61D0022B05D169E000F0C7
:1010680083FDC01B40456ED86B6813F00C0FF6D19A
:101078003F4A136803F007039C4209D2136823F020
:10108800070323431360136803F007039C42B8D196
:101098003368590706D53748F268416821F4E0619A
:1010A8000A4342601A0707D5324A3169536823F464
:1010B800605343EAC10353602F4D02AC6968AA68C4
:1010C800EB6828682D8A0FC42A49ADF804504B688C
:1010D80003F00C02082A0BD1C3F3834206A802448A
:1010E800DB0312F8102C36D4244B03FB02F300E088
:1010F800234B204A234852682349C2F30312825CD7
:101108000020D3400B6000F0FFFC002006B0BDE8D3
:10111800F08100F029FDC01B404514D86B6803F02E
:101128000C03042BF5D1A3E700F01EFDC01B4045BE
:1011380009D86B6803F00C03082BF5D198E79501E3
:101148003FF57CAF5DE7032006B0BDE8F08197036B
:101158003FF574AF55E74968094BC1F34041014475
:1011680011F8141CB3FBF1F302FB03F3C1E700BF52
:1011780000200240001002406834000800093D00C9
:1011880000127A007C34000800000020014B186827
:10119800704700BF00000020704700BF002861D0E2
:1011A80090F83D3070B503F0FF020446002B40D0A4
:1011B80023682D49022284F83D208B421A683DD0CD
:1011C80001F500618B421DD0B3F1804F1AD0A1F513
:1011D80098318B4216D001F580618B4212D001F50F
:1011E80080618B420ED0A169E568606822F08002B8
:1011F80011431960DD62986201225A61002084F867
:101208003D2070BDA16822F070020A43216922F4D2
:10121800407211431548A269E668656821F08001AB
:10122800114383421960DE629D62E5D162691A63E7
:10123800E2E780F83C20FFF7AFFFB9E7A16822F0AA
:1012480070020A43216922F440721143A26921F015
:10125800800111431960E268DA6262689A62626921
:101268001A63C9E701207047002C0140003401408F
:1012780003680122186A02FA01F120EA01001862E3
:101288001A6A094811438342196208D0074A9342EF
:1012980005D01A68002042F001021A6070475A6CA3
:1012A80042F400425A64F4E7002C01400034014043
:1012B80090F83C30012B48D0F0B50223012480F887
:1012C8003C4080F83D300C2A37D8DFE802F06E3613
:1012D8003636073636369B363636400003688F6812
:1012E8001D6A0E6825F010051D621A6A764DD3F83E
:1012F80004E09C6922F0200224F4E644AB4242EA6E
:10130800071244EA062400F0C08005F50065AB42E8
:1013180000F0BB804D68C3F804E09C619D631A62CD
:101328009C690D6944F400619961996921F48061AF
:1013380099619A6942EA05229A610023012280F89C
:101348003D2080F83C301846F0BD02207047036805
:101358008F681D6A0E6825F480551D621A6A5A4DF9
:10136800D3F804E0DC6922F4005224F4E644AB42EA
:1013780042EA073244EA062471D005F50065AB421B
:101388006DD04D68C3F804E0DC611D641A62DC6945
:101398000D6944F40061D961D96921F48061D9618A
:1013A800DA6942EA0522DA61C7E703688F681D6ACD
:1013B8000E6825F001051D621C6A434DD3F804E050
:1013C8009A6924F0020422F07302AB4244EA07044B
:1013D80042EA060269D005F50065AB4265D04D6862
:1013E800C3F804E09A615D631C629C690A6944F071
:1013F80008019961996921F00401996199690A4381
:101408009A619AE703688F681D6A0E6825F48075EB
:101418001D621A6A2C4DD3F804E0DC6922F40072CC
:1014280024F07304AB4242EA072244EA06041CD0C3
:1014380005F50065AB4218D04D68C3F804E0DC61DF
:10144800DD631A62DC690A6944F00801D961D96967
:1014580021F00401D961D9690A43DA616DE74D6960
:101468002EF4804E4EEA851E8BE7CD6822F400628A
:101478004E6942EA05222EF4405E8D694EEA061E48
:1014880022F480624EEA051ED6E7CD6822F080027B
:101498004E6942EA05122EF4406E8D694EEA860EB8
:1014A80022F040024EEA850E34E7CD6824F00804A5
:1014B8002C434E698D692EF4407E354324F0040494
:1014C80045EA0E0E8BE700BF002C014090F83C3037
:1014D800012B01D10220704702460220136870B424
:1014E80082F83D0098684C6820F070000D68204331
:1014F80020F007002843502C4FF0010582F83C509B
:10150800986044D020D9602C2ED0702C0BD1CD6897
:101518008C6898682C4320F47F400D6944EA0001E8
:1015280041EA05219960D968002421F04001D96079
:10153800D968012521F48041D960204682F83D50C0
:1015480082F83C4070BC7047402CECD11C6A186A89
:101558000D6920F001001862996921F0F00141EA53
:10156800051199611C62DEE71C6A8D6824F010047D
:101578000E691C629869196A20F4704021F0A00174
:1015880040EA063041EA051198611962CBE7186A0A
:101598001C6A8E6824F001040D691C629C6920F0A5
:1015A8000A0124F0F000314340EA051098611962FD
:1015B800B9E700BF03680422186A02FA01F120EAB9
:1015C800010018621A6A0020114319625A6C42F429
:1015D80000425A641A6842F001021A60704700BF5C
:1015E80090F83C30012B20D0CA688B6822F44072F6
:1015F80013434A6823F480631A430B6822F4006299
:1016080013430A6923F480531A434B6922F40052A6
:1016180013438A6923F440430168134300224B644F
:10162800134680F83C201846704702231846704736
:1016380090F83C30012B1ED002460220136830B4CB
:1016480082F83D005C68086824F070045C605C689F
:101658004968204358609868002420F0800098600A
:101668009868012501439960204682F83D5082F828
:101678003C4030BC70470220704700BF90F82420DF
:10168800012A20D00346026830B490680124C007BC
:1016980083F8244009D59A6A012042F020029A6210
:1016A800002283F8242030BC704708488068204016
:1016B800F1D1074CA242EED155680C6825F470218F
:1016C80021435160ECE70220704700BF0028014029
:1016D800002401404FF6FF0206490002CB6800F4DF
:1016E800E0601A4042F0BF6343F400330343CB6029
:1016F800704700BF00ED00E0194B30B4DB68C3F35E
:101708000223C3F10705042D03F1040428BF0425AF
:10171800062C18D9033B01249C40013C224001249B
:10172800AC40013C214001FA03F3002842EA0302DD
:101738000CDB120100F16040D2B200F5614080F884
:10174800002330BC704700221346E8E7054B00F041
:101758000F001201D2B203441A7630BC704700BFA2
:1017680000ED00E0FCEC00E000F01F010123034A5B
:1017780040098B4042F82030704700BF00E100E08C
:101788000138B0F1807F0DD230B4074B074CF025FB
:101798005860002284F823500721104630BC9A6014
:1017A800196070470120704710E000E000ED00E08C
:1017B800044A042813680CBF43F0040323F004030D
:1017C8001360704710E000E0704700BF08B5FFF7EE
:1017D800FBFF08BD2DE9F04F4FF0000885B04546E6
:1017E800754FDFF8F4E1754EDFF8F0C103E001351D
:1017F800102D00F0858001230A68AB4033EA02020D
:10180800F5D14A68122A00F0A18000F28A80022AE3
:1018180000F0A3807FD9032A00F09C80112A02D10E
:10182800CA6802F10408FF2B6DD881460268924607
:10183800AA000F2404FA02FB2AEA0B0A08FA02F2A9
:101848004AEA0202C9F80020D1F804A01AF0805F21
:10185800CDD0BA6925F0030942F00102BA61BA692C
:1018680009F1804902F00102039209F5803905F077
:101878000302DDF80CB09200D9F808B094402BEAC6
:101888000404704501947DD060457DD04C4CA04245
:101898007FD04C4CA04200F082804B4CA04200F01C
:1018A80084804A4CA0420CBF4FF0050B4FF0060B4A
:1018B800019C0BFA02F21443C9F8084032681AF482
:1018C800803F14BF1A439A43326072681AF4003F8B
:1018D80014BF1A439A437260B2681AF4801F14BF87
:1018E8001A439A43B260F2681AF4001F05F1010521
:1018F80014BF134322EA0303102DF3607FF47BAF78
:1019080005B0BDE8F08F4468A5F10802A246920030
:1019180000F104098DE7A2B1012A84D1D1F80C8025
:1019280081E72B4CA2420CD01BD92A4CA24208D0EA
:1019380004F58034A24204D0A4F58014A2427FF4B6
:1019480072AF8A68BAB94FF004086CE7CA6802F146
:101958000C0868E74FF0000865E7CA6802F1080854
:1019680061E7A4F58014A242EBD004F58034A242CA
:101978007FF459AFE5E7012A0CBF036143614FF0DB
:10198800080850E7002296E74FF0010B0BFA02F225
:1019980091E74FF0020B0BFA02F2019C8BE74FF034
:1019A800030B0BFA02F2019C85E74FF0040B0BFACC
:1019B80002F2019C7FE700BF0010024000040140D2
:1019C800001001400014014000180140001C0140B3
:1019D800000021100000311000080140000C0140F7
:1019E8008368194214BF01200020704702B9090416
:1019F80001617047C3685940C16070472DE9F041E3
:101A08000446006882B0C50727D53B4BDA69D10088
:101A18003BD53A4B00251A68D20544D536490B6A9E
:101A280013F440720FD0636803F4407082420BD005
:101A38000B6A334A23F440700127002617601660AA
:101A48000862D80746D463682B490A6A22F44072B0
:101A580013430B62002D38D1206883070DD410F092
:101A6800100007D0244962694B68002023F48003E2
:101A780013434B6002B0BDE8F0811F49A3684A6870
:101A880022F4404213434B60E9E7DA69012542F04A
:101A98008052DA61DB6903F080530193019B174B95
:101AA8001A68D205BAD41A681E4642F480721A60BF
:101AB80000F05AF807463368DB05AFD400F054F855
:101AC800C01B6428F7D90320D4E7CB6923F08053DF
:101AD800CB61C1E70E4600F047F841F288378046EF
:101AE80005E000F041F8C8EB0000B842EBD8336AD3
:101AF8009A07F6D5A7E700BF001002400070004023
:101B080040044242704700BF10B50446074B0848DE
:101B18001B68A0FB03308009FFF732FE2146002234
:101B28004FF0FF30FFF7E8FD002010BD0000002057
:101B3800D34D6210074A08B51368032043F0100319
:101B48001360FFF7C7FD0020FFF7DEFFFFF7DAFF9E
:101B5800002008BD00200240024A136801331360C8
:101B6800704700BF58000020014B1868704700BF3D
:101B78005800002030B583B00190FFF7F5FF054607
:101B8800019C631C18BF0134FFF7EEFF401BA04205
:101B9800FAD303B030BD00BF704700BF00287CD027
:101BA800836A70B5044633B323689A68D00708D4AB
:101BB800A26AD20625D5A36A012043F01003A362C6
:101BC80070BD9A6822F001029A60FFF7CDFF0546C2
:101BD80023689A68D107EBD5FFF7C6FF401B022898
:101BE800F6D9A36A43F01003A362E36A43F0010342
:101BF800E362A36ADFE7C36280F82430FFF7CCFF13
:101C0800D2E7A26A444922F4885222F0020242F042
:101C180002028B42A262E169626849D0E568A06865
:101C280042EA4502B0F5807F41EA020123D001284B
:101C38005FD06269012A6CD05A68384822F4694238
:101C48005A609D680022284008439860DD6A34483D
:101C580025F470052A43DA629B68184081421ED039
:101C6800A36A012023F0120343F01003A362E36A7E
:101C78000343E36270BD6269012A1FD05868274A8E
:101C880020F4694040F480705860986802400A4324
:101C98009A602269013A1205D8E7012070470020AE
:101CA800E062A36A23F0030343F00103A36270BD5B
:101CB800B1F5402F08BF4FF40021AFE70646FDB944
:101CC800A269013A46EA423646F400665D68134A5C
:101CD80025F469452E435E609D68B0F5807F02EA71
:101CE800050242EA01029A60D3D00128D1D000222D
:101CF800ACE76269012A08BF4FF48076DFD0BDE700
:101D0800A26A42F02002A262E26A42F00102E262A2
:101D1800DCE70026D3E700BF003C0140FDF7E1FF08
:101D2800FE0E1FFF90F82430012B01D102207047CE
:101D380070B50023026882B00193936801210546BB
:101D480080F82410D80720D43E4B3F481B68916880
:101D5800A0FB030341F001019B0C91600193019BDF
:101D68002BB1019B013B0193019B002BF9D1FFF79C
:101D7800FBFE064604E0FFF7F7FE801B022845D865
:101D88002A68936813F00104F5D0AB6A2F4923F44D
:101D9800407323F0010343F480738A42AB6222D07C
:101DA800AB6A23F48013AB625368590527D4AB6A36
:101DB800002113F4805318BFEB6A85F8241018BF6C
:101DC80023F00603EB626FF002031360936803F4D9
:101DD8006023B3F5602F25D09368002043F4801367
:101DE800936002B070BD1A4B596811F4702FD7D0A8
:101DF800A96A41F48011A9625B685B05D7D5AB6A13
:101E080023F4405343F48053AB62D0E7AB6A01201C
:101E180043F01003AB62EB6A85F824400343EB629E
:101E280002B070BD094B9A4205D09368002043F474
:101E3800A0039360D5E7A3F580635B6813F4702F64
:101E4800CAD1F2E70000002083DE1B4300280140CE
:101E58000024014070B490F8243083B00246012B6E
:101E68004FF00000019056D04B680120062B82F8F5
:101E78002400106826D803EB8303053B466B0C68E7
:101E88001F259D4026EA050504FA03F32B43436307
:101E9800092C28D904EB440389681E3BC56807262A
:101EA8009E4001FA03F325EA06010B43C360A4F13F
:101EB8001003012B26D90020002382F8243003B018
:101EC80070BC70470C2B03EB830328D80C68233BAA
:101ED800066B1F259D4026EA050504FA03F32B43EC
:101EE800092C0363D6D8896804EB440605690723DF
:101EF800B340B14025EA03030B430361A4F1100387
:101F0800012BD8D81A4B984215D0936A012043F078
:101F180020039362D0E7022003B070BC7047413BB6
:101F2800C66A0C681F259D4026EA050504FA03F3D6
:101F38002B43C362ACE783681B02BCD48368102CB4
:101F480043F400038360B6D10A4B0B491B68A1FB1D
:101F580003139B0C03EB83035B000193019B002B92
:101F6800A9D0019B013B0193019B002BF9D1A2E76A
:101F7800002401400000002083DE1B43104B10B4F6
:101F88001968104A41F00101196059680E480A4061
:101F98005A601A684FF41F0422F0847222F48032C7
:101FA8001A601A684FF0006122F480221A605A6899
:101FB80022F4FE025A609C60816010BC704700BF2A
:101FC800001002400000FFF800ED00E0844B2DE90E
:101FD800F04F99698BB041F00401996199690AAC95
:101FE80001F00401039103999969202241F0080145
:101FF800996199697B4F01F00801049104999969E5
:102008004FF0020841F0100199619B6944F8102DC6
:1020180003F0100338460025059321460192059BDD
:1020280007950895CDF8248005F18045FFF7D2FB88
:1020380040232146384605F5883506934FF0800A37
:10204800FFF7C8FB21463846CDF818A0FFF7C2FBBA
:10205800214628464FF48063634E0693FFF7BAFB88
:102068004FF400632146284606934FF48059FFF742
:10207800B1FB21462846CDF81890FFF7ABFB214667
:102088003046CDF81890FFF7A5FB214630464FF0B3
:1020980001094FF0040BCDF81880FFF79BFB214690
:1020A8003846CDF818B0CDF81C90FFF793FB1023F5
:1020B800214630460693FFF78DFB019A21463046AC
:1020C8000692FFF787FB0323214628460793CDF89E
:1020D8001890FFF77FFB21463046CDF81890FFF7A0
:1020E80079FB0823214628460693FFF773FB214610
:1020F8002846CDF81880FFF76DFB102321462846A7
:102108000693FFF767FB019A214628460692FFF7D8
:1021180061FB21462846CDF818B0FFF75BFB082382
:10212800214630460693FFF755FB21463046CDF849
:1021380018B0FFF74FFB4023214628460693CDF8F9
:102148001C80FFF747FB214628464FF4807BCDF8DB
:1021580018A0FFF73FFB28462146CDF818B0FFF737
:1021680039FB21463046CDF818A0FFF733FB21464E
:102178003846CDF81890FFF72DFB21463846CDF8A4
:102188001880FFF727FB21463046CDF818B0FFF737
:1021980021FB214630464FF400730693FFF71AFBE4
:1021A800304621464FF480630693FFF713FB214620
:1021B80038464FF400530693FFF70CFB2146384688
:1021C8004FF480430693FFF705FB4FF40043214685
:1021D80038460693FFF7FEFA0BB0BDE8F08F00BF54
:1021E80000100240000C014000080140764B2DE928
:1021F800F04F9A699BB042F400629A619A69734EF3
:1022080002F400620392039A9A69DFF8C88142F4E3
:1022180000529A619B69002403F400534FF0200B8D
:10222800049330464FF47A73049AF36001934FF0A5
:10223800100AC6F80080746034617461B461C6F82D
:1022480008B0FEF7ABFF05A930460694CDF814A0F8
:10225800FFF7EEF96023082722460CA90C933046B5
:102268004FF4007312930D940E94109411940F97D9
:10227800FFF71EF80CA930460422FFF719F83A4672
:102288000CA93046FFF714F84FF40063504D13A91A
:10229800139330464FF48063DFF83C911493159400
:1022A800CDF858A0179418941994FFF799F9019B41
:1022B8002846EB606C60C5F808B02C616C61AC61B5
:1022C800C5F80090FEF76AFF05A980232846069303
:1022D800CDF814B0FFF7ACF91AA9052341F84C3D25
:1022E80028460894FFF7F2F8602322460CA90C93BD
:1022F80028464FF4007312930D940E940F97109480
:102308001194FEF7D5FF0CA928460422FEF7D0FF4A
:102318003A460CA92846FEF7CBFF4FF4006313A9F1
:10232800139328464FF4806314931594CDF858A05E
:10233800179418941994FFF753F9D9F844302146A3
:1023480023F40043C9F84430D8F84430284623F42D
:102358000043C8F84430FEF78BFF28460421FEF7F7
:1023680087FF39462846FEF783FF21462846FFF7B0
:1023780021F928460421FFF71DF939462846FFF7B9
:1023880019F921463046FEF773FF30460421FEF75F
:102398006FFF39463046FEF76BFF21463046FFF7A0
:1023A80009F930460421FFF705F939463046FFF7A9
:1023B80001F92B6832680121196313680B43136014
:1023C8001BB0BDE8F08F00BF0010024024010020C0
:1023D800B4020020002C0140003401402DE9F043F4
:1023E800454E464CB36987B043F40073B361B36993
:1023F800434903F40073002501934FF005084FF497
:1024080080724FF440232046019F2160A260E3615F
:10241800E56065616560C4F81080FFF7BFFB394A65
:1024280006A953684FF4C02743F48023536020461D
:1024380041F8187DFFF722F90E22012303A920464F
:102448000392059304934FF00209FFF703FD03A9D4
:1024580020460B27CDF810900395FFF7FBFC03A946
:102468000323CDF8149020464FF00C0904930397EA
:10247800FFF7F0FC04230DEB090120460493CDF887
:102488000C90FFF7E7FC0DEB09012046CDF80C9006
:10249800CDF81080FFF7DEFC40F6A22E22681A4B1A
:1024A8009168DFF86CC041F4807191609168174CB5
:1024B80041F00101916071692A4641F001017161A1
:1024C8007069294600F00100029002981D60C3F867
:1024D8000480C3F808C0DC60C3F800E01C68384614
:1024E80044F001041C60FFF707F93846FFF73CF990
:1024F80007B0BDE8F08300BF00100240EC010020E7
:102508000024014000000140080002406002002051
:102518004C240140274BF0B59A69274C42F480625D
:102528009A619B6985B0254D03F4806300934FF44D
:10253800807100234FF4602205272046009E256005
:10254800A160E261E360636163602761FFF726FBD6
:102558000F22012301A92046019202250393029329
:10256800FFF778FC01A90D23204601930326029565
:10257800FFF770FC01A90A232046019303950296F0
:10258800FFF768FC042301A9204602930195FFF791
:1025980061FC01A9204602970196FFF75BFC2368BE
:1025A8009A6842F480729A609A6842F001029A60CE
:1025B80005B0F0BD00100240A00000200028014036
:1025C80010B5002000F05AFD00F00EFF0022202177
:1025D8001348FFF70BFA00F023FD00F081FD0221FC
:1025E8000F48FFF7FDF90028F9D000F013FD044665
:1025F800002004F5C85400F041FD02E0FFF7F0F9AF
:1026080038B100F007FDA0424FF002010448F5D3AD
:1026180010BD044800F022FD012000F02FFDDEE788
:10262800000801406933000810B5002000F026FDBD
:1026380000F0E2FE002220211348FFF7D7F900F04E
:10264800EFFC00F04DFD02210F48FFF7C9F9002803
:10265800F9D000F0DFFC0446002004F5C85400F06F
:102668000DFD02E0FFF7BCF938B100F0D3FCA04241
:102678004FF002010448F5D310BD044800F0EEFC09
:10268800012000F0FBFCDEE7000801406933000888
:10269800F0B54B4C97B0FFF74DFAA369032043F010
:1026A8000103A361A369022503F001030093009BC2
:1026B800FFF710F8002211466FF00B00FFF71CF827
:1026C800002211466FF00A00FFF716F800221146A3
:1026D8006FF00900FFF710F8002211466FF00400B0
:1026E800FFF70AF8002211466FF00300FFF704F81D
:1026F800002211466FF00100FEF7FEFF002211468E
:102708004FF0FF30FEF7F8FF0026012710224FF4A4
:1027180060130CA8119215930C95139510971496A5
:10272800FEF76EFA0F2229464FF4806301A8019242
:102738000493029503960596FEF750FC4FF4404328
:1027480006A808930695FFF759F9FEF71FFD1D4BDC
:10275800A3FB00308009FFF713F80420FFF728F8DF
:10276800324631464FF0FF30FEF7C6FF636923F06B
:1027780001036361FFF72AFCFFF738FDFFF72EFE20
:10278800FFF7C8FE3A4620210F48FFF72FF90F48F8
:10279800FFF7C8FA0E48FFF7C5FA0E4800F05EFCCE
:1027A8003A4604210C48FFF721F900F023FE0221E4
:1027B8000548FFF715F90028F9D117B0F0BD00BF9B
:1027C80000100240D34D621000080140EC010020C7
:1027D800A0000020D5320008000C01402DE9F84F78
:1027E800DFF80482DFF8EC91DFF800B2FFF750FF62
:1027F800022000F0FDFC012000F040FC6F4D03209A
:10280800FFF7B8F9B8F81230D9F800409BB2B3F521
:10281800006A44BF6FF4FF6203EB020AB8F80E3097
:102828004FEAEA0A9BB2A3F500636400504693FBA3
:10283800F4F4FDF7A1FE0022002306460F46FEF73A
:1028480073F9002840F08F80BAF1030F40F38980B4
:102858000022002330463946FEF766F90022002898
:1028680040F0A980002330463946FEF77BF9002264
:10287800002800F09B80524B30463946FDF72EFD6C
:10288800FEF77AF906462046FDF776FE0022002379
:10289800FEF74AF900286ED1042CCCBF002301238F
:1028A800002B18BF0024A11B301900F021FC0221C5
:1028B8004448FFF795F800283ED000F0ABFB0646E9
:1028C800002006F57A4400F0D9FB02E0FFF788F80B
:1028D80028B300F09FFBA0424FF002013948F5D31E
:1028E80006F59C26384806F5007600F0B7FB03E0AD
:1028F800FFF776F800285BD000F08CFB86424FF09B
:1029080002013048F4D8314800F0A8FB02212D48D4
:10291800FFF766F80028F9D1FFF786FE66E72C482E
:1029280000F09CFB012000F0A9FBD9F80030294AEF
:10293800012B26D001231360DBF80030AB4226D9E7
:10294800254A93423FF65BAF244B586800F086FB5C
:10295800234B234A1B680A2B7FF651AF0A231360C7
:102968004CE706468FE7CAF1000ABAF1030F1BDDF0
:1029780000221C4B80E76342042BCCBF00230123B9
:102988008EE702231360DBF80030AB42D8D8134B34
:10299800186800F063FB002000F070FBC820FFF708
:1029A800E9F8FFF70DFE21E700266CE7002363E74F
:1029B800FFF706FE1AE70B4B5EE700BFDB3113009B
:1029C8000000104000080140213300089D33000832
:1029D8006933000808000020E16E14002800002078
:1029E80018030020000010C060020020140000201E
:1029F8000368B3F5F57F05DC13F5F57F22DB03F5F6
:102A0800FA7201E040F2DE3243681449B3F5F57F0B
:102A18004A6305DC13F5F57F12DB03F5FA7201E072
:102A280040F2DE3283680D49B3F5F57F8A630FDC27
:102A380013F5F57F08DB094A03F5FA73D36370478A
:102A48000A22EFE70A22DFE7044A0A23D363704722
:102A580040F2DE33014AD363704700BF002C0140C7
:102A68000368B3F5F57F05DC13F5F57F22DB03F585
:102A7800FA7201E040F2DE3243681449B3F5F57F9B
:102A88004A6305DC13F5F57F12DB03F5FA7201E002
:102A980040F2DE3283680D49B3F5F57F8A630FDCB7
:102AA80013F5F57F08DB094A03F5FA73D36370471A
:102AB8000A22EFE70A22DFE7044A0A23D3637047B2
:102AC80040F2DE33014AD363704700BF003401404F
:102AD8000B490C488B688A6883F08003896882F008
:102AE8004002C2F38012C3F3C01302EB430381F028
:102AF8002002C2F3401200EB4303985C704700BF0A
:102B0800000C0140A43400080B490C488B688A6803
:102B180083F48053896882F40062C2F3C022C3F34D
:102B2800003302EB430381F48062C2F3802200EB9E
:102B38004303985C704700BF00100140A4340008AC
:102B4800704700BF014B4042186070471C030020CB
:102B5800014B5860704700BF1C03002000000000B4
:102B68002DE9F04FDFF8FC82B14BC2468FB0DFF899
:102B7800F8B20293AF4BB04F0693DFF8F0920BF127
:102B88000C0303930024AD4B4FEA840853F8243018
:102B9800984757F824300546013347F82430A84BA6
:102BA800A5491B5DA64A984200F08180135D57F83D
:102BB8002400DBB2052B1ABF0133DBB200239D4290
:102BC800A04A18BF4042DAF8003042F8240098477B
:102BD800002347F824309A4B1D55D9F80030660079
:102BE800039AC6F10A06985B079332F8023D80B251
:102BF800C01A04930392FDF7BFFC00230022FDF7DF
:102C080093FF079B002840F08A80985B049B80B262
:102C1800C01AFDF7B1FC84A3D3E90023FDF712FD28
:102C2800FDF7AAFF884B43F82400884B1B6898429D
:102C38008CBF00200120069B9847854B82481E6860
:102C4800844B53F824107F4B53F8242057F8243032
:102C580050F8240000900BA8B0479DF834300B9E24
:102C6800D3B1784B53F82400FDF786FC00220023EB
:102C7800FDF75AFF002840F00681724B53F82400F4
:102C8800FDF77AFC00220023FDF76CFF20B1052D2B
:102C980000F0EE800135EDB2052D00F20381DFE88A
:102CA80015F0E700AA009E0092004C00F300654B67
:102CB80051F8242053F8241081EAE173A3EBE1735F
:102CC8009A428AD95F4BDAF8006053F82400FDF77E
:102CD80053FC00220023FDF727FF002840F00A815B
:102CE800584B53F82400FDF747FC00220023FDF75A
:102CF80039FF0022002800F0EF80574B57F82400D6
:102D0800CDE90423FDF728FCDDE90423FDF79AFC4F
:102D1800FDF732FF4B4A42F82400B0475DE7985B65
:102D2800049B80B2181AFDF727FC3FA3D3E90023C0
:102D3800FDF788FCFDF720FF74E700239E42C6F1EB
:102D480000020C98314640F3D380C0F1000E0025F4
:102D580003440A93414B294472440891099253F859
:102D6800083008A89847C4EB8473D9F800009B0082
:102D780033499A1D0833095D825AC35ABBF8065075
:102D8800BBF8080092B29BB2521B1B1A052904D843
:102D9800DFE801F03D16160404420023029A13608E
:102DA800134601340433022C0293ABF1040B0AF1ED
:102DB800040A74D02A4B08F10402D3580693E2E6B9
:102DC800029B1A60EDE700218E42C6F100020C98C2
:102DD800334640F38B8045424FF0000EB8E700229F
:102DE8009642C6F10001DDF830E033467CDDCEF1D5
:102DF80000050020ACE700239E42C6F10001DDF883
:102E080030E032466EDDCEF100000025A0E7D31A8F
:102E1800029A13601346C4E79B1A029A136013467A
:102E2800BFE700BFAFF300807B14AE47E17A943F61
:102E380004030020692F0008FC020020AC340008BD
:102E48001403002024030020F402002018030020AB
:102E58000C0000200C0300200000F03F9C34000808
:102E6800943400088C340008180000200400002066
:102E780000218E42C6F100030C9D32462EDD6842C9
:102E88004FF0000E64E725BB00229642C6F100030E
:102E98000C9D314624DDC5F1000E002058E70FB027
:102EA800BDE8F08F002E234BCCBF0535013583FBE1
:102EB8000523A3EBE57303EB4303A5EB4303013BB6
:102EC800DDF830E0042B22D8DFE803F025292E179F
:102ED8001C00013DEDB2DFE600230FE7AE4686E7B2
:102EE800AE4690E7704676E770462EE70546D2E78D
:102EF8000546C4E70022104B00E7002375461A4632
:102F08001946C8E7002375461A461946B7E700234D
:102F18001A46194677E700231A46194667E7002339
:102F280070461A46194656E7002370461A4619464F
:102F38000BE700BFABAAAA2A0000F0BF054B064A60
:102F48001B680421A2FB03320448C2F3C022FEF727
:102F58004DBD00BF54000020D34D6210000C01404D
:102F6800054A536C18B923F400435364704743F47B
:102F780000435364704700BF00340140054A536C56
:102F880018B923F400435364704743F4004353646F
:102F9800704700BF002C0140194B1B68B3F5806FC8
:102FA80029D2184A184B10681A88018830B489B297
:102FB80011444910198042885C8892B22244521008
:102FC8005A8081889D8889B2294449109980C2888D
:102FD800DC8892B222445210DA8001891D8989B2B4
:102FE80029444910198142895C8992B222445210BD
:102FF8005A8130BC7047054B054A1A60704700BFBC
:1030080054000020040000201800002010000020B8
:10301800692B0008014B1868704700BF5400002056
:1030280010B4044B044C00221C601021034810BC4F
:10303800FEF7DCBC24000020492B000800080140F2
:103048000349044B044A002008601A60704700BF17
:103058005400002010000020A12F000838B5054DAD
:103068002B68834205D00446034B186800F028F902
:103078002C6038BD2400002054000020124B134A55
:10308800196891421ED0D8B9F0B504460546104AD1
:10309800104F114E85B01A603B5D052B04D8DFE850
:1030A80003F003030303030356F824300195029544
:1030B800039501A801349847022CEDD105B0F0BD65
:1030C800064A1A60704700BF10000020A12F0008B0
:1030D800492B0008140300209C340008692B0008C1
:1030E800014B024A1A60704710000020452F000863
:1030F8000A4B40429842B8BF18469942B8BF194691
:10310800B0F57A7FA8BF4FF47A70054BB1F57A7F96
:10311800A8BF4FF47A7118605960704718FCFFFF18
:103128000C0300200D4B10B502220D4C5A60236889
:103138000C4A01332360136898470B4B1B68984768
:1031480023689B0609D10949094A0B689289C3EB90
:10315800832392B202EB93230B6010BD0000024060
:10316800540000201000002024000020140000203B
:1031780060020020704700BFFEE700BFFEE700BF07
:10318800FEE700BFFEE700BF704700BF704700BF03
:10319800704700BF08B5FEF7DFFCBDE80840FEF742
:1031A80015BB00BF0022026042600272704700BF78
:1031B800002280E806000272704700BF00224FF428
:1031C800FA7180E806000272704700BF632A03D9CB
:1031D8000029B8BF0731C910002380E80A0003722C
:1031E800704700BF002280E806000272704700BFE7
:1031F800054B00EB400080001A18926818580349E4
:10320800034B08601A607047B43400080C000020B3
:103218001803002008B5FFF7FDFE084B084A1B6895
:10322800C01AA2FB0032920401D4830700D108BD62
:1032380010210448BDE80840FEF7DCBB2C03002041
:103248003FCB9EC40008014008B5FFF7E3FE0B4BD7
:103258000B4A1B68C01AA2FB0032930507D4094B1E
:10326800A3FB00235B0803EB4303984200D108BD8E
:1032780010210548BDE80840FEF7BCBB2C03002020
:10328800D34D6210ABAAAAAA0008014008B5FFF7FF
:10329800C1FE084B084A1B68C01AA2FB0032D204C0
:1032A80001D4C30700D408BD10210448BDE8084074
:1032B800FEF7A0BB2C0300203FCB9EC400080140B2
:1032C800014B1860704700BF2C03002008B5FFF7BA
:1032D800A1FE0E4B1B68C01AB0F5C84F0BD20C4BA1
:1032E800A3FB00239B0AC3F10803B0FBF3F203FB23
:1032F800120020B908BDBDE80840FFF791BE1021B3
:103308000448BDE80840FEF775BB00BF2C03002049
:103318001F85EB510008014008B5FFF77BFE0D4BF8
:103328001B68C01AB0F5C84F0AD20B4BA3FB002389
:103338009B0A0133B0FBF3F203FB120020B908BD6E
:10334800BDE80840FFF76CBE10210448BDE80840FE
:10335800FEF750BB2C0300201F85EB5100080140ED
:1033680008B5FFF757FE094B1B68C01AB0F5FA5F9E
:1033780002D2830704D108BDBDE80840FFF750BE5C
:1033880010210348BDE80840FEF734BB2C03002099
:103398000008014008B5FFF73DFE0C4A0C4B1268C7
:1033A800801AA3FB00231B0A032B06D8DFE803F0CF
:1033B80005040204830702D108BD4207FCD0BDE81A
:1033C800084010210348FEF715BB00BF2C0300205E
:1033D800D34D62100008014008B5FDF7F5FBBDE8C4
:1033E8000840FDF703BC00BF014B1B68184700BF2E
:1033F80034000020FFF724BE704700BF002103E01F
:103408000B4B5B58435004310A480B4B42189A4205
:10341800F6D30A4A02E0002342F8043B084B9A42DA
:10342800F9D3FEF7ABFDFCF72DFFFFF7D7F970478F
:103438002035000800000020380000203800002057
:1034480030030020FEE70000F8B500BFF8BC08BC58
:103458009E467047F8B500BFF8BC08BC9E4670474A
:1034680002030405060708090A0B0C0D0E0F1010BD
:103478000102000000000000000000000102030437
:10348800060708094D2B0008592B0008692F00086A
:10349800852F0008692A0008F92900080202040398
:1034A80000010502D92A0008112B0008AD310008D7
:1034B800F034000800000000D5310008F834000896
:1034C80005000000ED310008003500080F0000007D
:1034D800B93100080835000814000000C53100089B
:1034E800103500083C000000204F66660000000010
:1034F8005354564F000000004C6F5261000000000A
:1035080046617374000000005261636500000000AA
:043518005502000850
:04351C002D02000874
:1035200000A24A046002002002000000AD31000841
:10353000492B000800A01A00000800080008000835
:1035400000080008492B0008953200085132000895
:083550001D320008E133000800
:0400000508003405B6
:00000001FF
