:020000040800F2
:1000000000C00020AD4C0008254A0008294A00081D
:100010002D4A0008314A0008354A00080000000057
:10002000000000000000000000000000394A000845
:100030003D4A000800000000414A0008454A000807
:10004000F54C0008F54C0008F54C0008F54C00088C
:10005000F54C0008F54C0008F54C0008F54C00087C
:10006000F54C0008F54C0008F54C0008D54900088F
:10007000F54C0008F54C0008F54C0008F54C00085C
:10008000F54C0008F54C0008F54C0008F54C00084C
:10009000F54C0008F54C0008F54C0008F54C00083C
:1000A000F54C0008F54C0008F54C0008F54C00082C
:1000B000F54C0008F54C0008F54C0008F54C00081C
:1000C000F54C0008F54C0008F54C0008F54C00080C
:1000D000F54C0008F54C0008F54C0008F54C0008FC
:1000E000F54C0008F54C0008F54C0008F54C0008EC
:1000F000F54C0008F54C0008F54C0008F54C0008DC
:10010000F54C0008F54C0008F54C0008F54C0008CB
:10011000F54C0008F54C0008F54C0008F54C0008BB
:10012000F54C0008F54C0008F54C0008F54C0008AB
:1001300000000000000000000000000000000000BF
:1001400000000000000000000000000000000000AF
:10015000000000000000000000000000000000009F
:10016000000000000000000000000000000000008F
:10017000000000000000000000000000000000007F
:10018000000000000000000000000000000000006F
:10019000000000000000000000000000000000005F
:1001A000000000000000000000000000000000004F
:1001B000000000000000000000000000000000003F
:1001C000000000000000000000000000000000002F
:1001D000000000000000000000000000000000001F
:0401E0005FF8E0F1F3
:1001E800044B05481B1A062B02D9044B03B11847C8
:1001F800704700BF5B00002058000020000000008E
:1002080005490648091A891001EBD171491002D035
:10021800034B03B1184770475800002058000020CE
:100228000000000010B5064C237843B9FFF7D8FF4B
:10023800044B13B10448AFF300800123237010BDB1
:100248005800002000000000F84C000808B5084BD2
:100258001BB108490848AFF300800848036813B980
:10026800BDE80840CCE7064B002BF9D09847F7E7E4
:10027800000000005C000020F84C00085800002036
:100288000000000070B50F4E0F4D761BB61018BF5A
:10029800002405D0013455F8043B9847A642F9D10B
:1002A8000A4E0B4D04F024FD761BB61018BF00242F
:1002B80006D0013455F8043B9847A642F9D170BDE1
:1002C80070BD00BFE44D0008E44D0008E84D00088B
:1002D800E44D0008844641EA000313F0030349D1C2
:1002E800403A23D30B6803604B6843608B68836094
:1002F800CB68C3600B6903614B6943618B69836198
:10030800CB69C3610B6A03624B6A43628B6A83627F
:10031800CB6AC3620B6B03634B6B43638B6B836367
:10032800CB6BC36340304031403ADBD230320BD321
:100338000B6803604B6843608B688360CB68C3605D
:1003480010301031103AF3D20C3205D351F8043B77
:1003580040F8043B043AF9D2043208D0D2071CBF53
:1003680011F8013B00F8013B01D30B88038060467C
:10037800704700BF082A13D38B07B1D010F00303CE
:10038800AED0C3F10403D21ADB071CBF11F8013B3E
:1003980000F8013BA4D331F8023B20F8023B9FE769
:1003A800043AD9D3013A11F8013B00F8013BF9D2DC
:1003B8000B7803704B7843708B7883706046704776
:1003C80081F0004102E000BF83F0004330B54FEAFE
:1003D80041044FEA430594EA050F08BF90EA020F6B
:1003E8001FBF54EA000C55EA020C7FEA645C7FEAFE
:1003F800655C00F0E2804FEA5454D4EB5555B8BF21
:100408006D420CDD2C4480EA020281EA030382EA91
:10041800000083EA010180EA020281EA0303362D23
:1004280088BF30BD11F0004F4FEA01314FF4801CF6
:100438004CEA113102D0404261EB410113F0004F08
:100448004FEA03334CEA133302D0524263EB4303BF
:1004580094EA050F00F0A780A4F10104D5F1200E5D
:100468000DDB02FA0EFC22FA05F2801841F10001B8
:1004780003FA0EF2801843FA05F359410EE0A5F18C
:1004880020050EF1200E012A03FA0EFC28BF4CF0BD
:10049800020C43FA05F3C01851EBE37101F0004573
:1004A80007D54FF0000EDCF1000C7EEB00006EEB80
:1004B8000101B1F5801F1BD3B1F5001F0CD349080A
:1004C8005FEA30004FEA3C0C04F101044FEA445261
:1004D80012F5800F80F09A80BCF1004F08BF5FEAE8
:1004E800500C50F1000041EB045141EA050130BDC8
:1004F8005FEA4C0C404141EB010111F4801FA4F16B
:100508000104E9D191F0000F04BF01460020B1FABF
:1005180081F308BF2033A3F10B03B3F120020CDAF7
:100528000C3208DD02F1140CC2F10C0201FA0CF0D5
:1005380021FA02F10CE002F11402D8BFC2F1200C3A
:1005480001FA02F120FA0CFCDCBF41EA0C019040F0
:10055800E41AA2BF01EB0451294330BD6FEA040439
:100568001F3C1CDA0C340EDC04F11404C4F1200224
:1005780020FA04F001FA02F340EA030021FA04F336
:1005880045EA030130BDC4F10C04C4F1200220FA8D
:1005980002F001FA04F340EA0300294630BD21FACB
:1005A80004F0294630BD94F0000F83F4801306BF91
:1005B80081F480110134013D4EE77FEA645C18BF85
:1005C8007FEA655C29D094EA050F08BF90EA020F1C
:1005D80005D054EA000C04BF1946104630BD91EA14
:1005E800030F1EBF0021002030BD5FEA545C05D117
:1005F8004000494128BF41F0004130BD14F5800456
:100608003CBF01F5801130BD01F0004545F0FE41C9
:1006180041F470014FF0000030BD7FEA645C1ABFFE
:10062800194610467FEA655C1CBF0B46024650EA35
:10063800013406BF52EA033591EA030F41F4002161
:1006480030BD00BF90F0000F04BF0021704730B5E7
:100658004FF4806404F132044FF000054FF00001BC
:1006680050E700BF90F0000F04BF0021704730B57D
:100678004FF4806404F1320410F0004548BF404252
:100688004FF000013EE700BF42004FEAE2014FEAA7
:1006980031014FEA02701FBF12F07F4393F07F4F82
:1006A80081F06051704792F0000F14BF93F07F4FB4
:1006B800704730B54FF4607401F0004521F00041F7
:1006C80020E700BF50EA010208BF704730B54FF07D
:1006D80000050AE050EA010208BF704730B511F082
:1006E800004502D5404261EB41014FF4806404F1BA
:1006F80032045FEA915C3FF4DCAE4FF003025FEA3C
:10070800DC0C18BF03325FEADC0C18BF033202EBC3
:10071800DC02C2F1200300FA03FC20FA02F001FA1D
:1007280003FE40EA0E0021FA02F11444C1E600BFBC
:1007380070B54FF0FF0C4CF4E06C1CEA11541DBF6F
:100748001CEA135594EA0C0F95EA0C0F00F0DEF83A
:100758002C4481EA030621EA4C5123EA4C5350EA1F
:10076800013518BF52EA033541F4801143F4801370
:1007780038D0A0FB02CE4FF00005E1FB02E506F001
:100788000042E0FB03E54FF00006E1FB03569CF056
:10079800000F18BF4EF0010EA4F1FF04B6F5007F5C
:1007A80064F5407404D25FEA4E0E6D4146EB0606CE
:1007B80042EAC62141EA55514FEAC52040EA5E5057
:1007C8004FEACE2EB4F1FD0C88BFBCF5E06F1ED801
:1007D800BEF1004F08BF5FEA500E50F1000041EB38
:1007E800045170BD06F0004646EA010140EA0200E5
:1007F80081EA0301B4EB5C04C2BFD4EB0C0541EA07
:10080800045170BD41F480114FF0000E013C00F31B
:10081800AB8014F1360FDEBF002001F0004170BD3F
:10082800C4F10004203C35DA0C341BDC04F1140458
:10083800C4F1200500FA05F320FA04F001FA05F2E4
:1008480040EA020001F0004221F0004110EBD370B1
:1008580021FA04F642EB06015EEA430E08BF20EADD
:10086800D37070BDC4F10C04C4F1200500FA04F380
:1008780020FA05F001FA04F240EA020001F0004112
:1008880010EBD37041F100015EEA430E08BF20EA85
:10089800D37070BDC4F1200500FA05F24EEA020ECD
:1008A80020FA04F301FA05F243EA020321FA04F0FC
:1008B80001F0004121FA04F220EA020000EBD370B3
:1008C8005EEA430E08BF20EAD37070BD94F0000FB3
:1008D8000FD101F00046400041EB010111F4801FE7
:1008E80008BF013CF7D041EA060195F0000F18BF98
:1008F800704703F00046520043EB030313F4801FD4
:1009080008BF013DF7D043EA0603704794EA0C0F8D
:100918000CEA135518BF95EA0C0F0CD050EA4106A3
:1009280018BF52EA4306D1D181EA030101F0004120
:100938004FF0000070BD50EA410606BF1046194648
:1009480052EA430619D094EA0C0F02D150EA013654
:1009580013D195EA0C0F05D152EA03361CBF104695
:1009680019460AD181EA030101F0004141F0FE4134
:1009780041F470014FF0000070BD41F0FE4141F4B8
:10098800780170BD70B54FF0FF0C4CF4E06C1CEAB8
:1009980011541DBF1CEA135594EA0C0F95EA0C0F6D
:1009A80000F0A7F8A4EB050481EA030E52EA033528
:1009B8004FEA013100F088804FEA03334FF0805549
:1009C80045EA131343EA12634FEA022245EA111576
:1009D80045EA10654FEA00260EF000419D4208BF27
:1009E800964244F1FD0404F5407402D25B084FEAD4
:1009F8003202B61A65EB03055B084FEA32024FF480
:100A080080104FF4002CB6EB020E75EB030E22BFDC
:100A1800B61A754640EA0C005B084FEA3202B6EB9C
:100A2800020E75EB030E22BFB61A754640EA5C004B
:100A38005B084FEA3202B6EB020E75EB030E22BFDB
:100A4800B61A754640EA9C005B084FEA3202B6EBDC
:100A5800020E75EB030E22BFB61A754640EADC009B
:100A680055EA060E18D04FEA051545EA16754FEAFD
:100A780006164FEAC30343EA52734FEAC2025FEA1B
:100A88001C1CC0D111F4801F0BD141EA00014FF0AA
:100A980000004FF0004CB6E711F4801F04BF01437B
:100AA8000020B4F1FD0C88BFBCF5E06F3FF6AFAE97
:100AB800B5EB030C04BFB6EB020C5FEA500C50F127
:100AC800000041EB045170BD0EF0004E4EEA1131AA
:100AD80014EB5C04C2BFD4EB0C0541EA045170BDB1
:100AE80041F480114FF0000E013C90E645EA060EF5
:100AF8008DE60CEA135594EA0C0F08BF95EA0C0F23
:100B08003FF43BAF94EA0C0F0AD150EA01347FF46A
:100B180034AF95EA0C0F7FF425AF104619462CE741
:100B280095EA0C0F06D152EA03353FF4FDAE1046A4
:100B3800194622E750EA410618BF52EA43067FF4F5
:100B4800C5AE50EA41047FF40DAF52EA43057FF485
:100B5800EBAE12E74FF0FF3C06E000BF4FF0010C90
:100B680002E000BF4FF0010C4DF804CD4FEA410CF4
:100B78007FEA6C5C4FEA430C18BF7FEA6C5C1BD0C1
:100B880001B050EA410C0CBF52EA430C91EA030F42
:100B980002BF90EA020F0020704710F1000F91EA9F
:100BA800030F58BF994208BF90422CBFD8176FEA6D
:100BB800E37040F0010070474FEA410C7FEA6C5C3B
:100BC80002D150EA013C07D14FEA430C7FEA6C5C42
:100BD800D6D152EA033CD3D05DF8040B704700BF6E
:100BE8008446104662468C461946634600E000BFBC
:100BF80001B5FFF7B7FF002848BF10F1000F01BD8E
:100C08004DF808EDFFF7F4FF0CBF012000205DF858
:100C180008FB00BF4DF808EDFFF7EAFF34BF0120DD
:100C280000205DF808FB00BF4DF808EDFFF7E0FF76
:100C380094BF012000205DF808FB00BF4DF808EDC7
:100C4800FFF7CEFF94BF012000205DF808FB00BF2E
:100C58004DF808EDFFF7C4FF34BF012000205DF810
:100C680008FB00BF4FEA410212F5001215D211D558
:100C78006FF47873B3EB625212D94FEAC12343F091
:100C8800004343EA505311F0004F23FA02F018BF13
:100C9800404270474FF00000704750EA013005D1DC
:100CA80011F0004008BF6FF0004070474FF000009F
:100CB800704700BF054B1A69120605D50449054A55
:100CC800596000205A607047012070470020024098
:100CD80023016745AB89EFCD034A0020136943F030
:100CE80080031361704700BF002002402DE9F041E6
:100CF800036882B0DD07044630D5AE494A6802F081
:100D08000C02042A00F0FB804A6802F00C02082A50
:100D180000F0F1806368B3F5803F00F07681002B26
:100D280000F00581B3F5A02F00F0AC81A14B1A6843
:100D380022F480321A601A6822F480221A6000F0C5
:100D480099FF9C4D064605E000F094FF801B64283F
:100D580000F218812B689A03F6D523689F0729D5D6
:100D6800944A516811F00C0F00F0AA80516801F004
:100D78000C01082900F0A0802369002B00F03481C1
:100D88008D4B01221A6000F075FF8A4D064605E07A
:100D980000F070FF801B022800F2F4802B68854A5F
:100DA8009807F5D51368616923F0F80343EAC1038E
:100DB800136023681A075DD45D073AD57D4BDA695D
:100DC800D00000F1A680DA69012542F08052DA618C
:100DD800DB6903F080530093009B784B1A68D105B8
:100DE80040F1BF80E368012B00F01581002B00F073
:100DF800CD80052B6F4B1A6A00F0518122F0010259
:100E08001A621A6A22F004021A6200F033FF694E6D
:100E1800804641F2883706E000F02CFFC8EB00005E
:100E2800B84200F2AF80336A9B07F5D5002D40F039
:100E3800F880E269D2B15F4B596801F00C010829CA
:100E480045D0022A5E4A4FF00001116000F0EF80A1
:100E58001C4600F00FFF054605E000F00BFF401BA5
:100E6800022800F28F8023689B01F6D4002002B08C
:100E7800BDE8F081A369002B2DD0524B01221A60E6
:100E880000F0F8FE4B4D064604E000F0F3FE801B30
:100E9800022877D86B6A9B07F7D54B4B4B4A1B68E0
:100EA800A2FB03235B0A019300BF019B5A1E019218
:100EB800002BF9D123687FE75268D6033FF55CAF72
:100EC8003C4A1268950726D52269012A23D00120B9
:100ED80002B0BDE8F0813B4A364D136000F0CAFE0F
:100EE800064604E000F0C6FE801B02284AD86B6A5A
:100EF8009F07F7D4DEE74A68D0037FF50BAF2D4A8A
:100F0800126891037FF52AAF6268002A7FF426AF42
:100F1800DDE7002561E7274960690A6822F0F802E1
:100F280042EAC0020A601A077FF546AFA2E703F15A
:100F3800804303F504331A681D4622F480321A6090
:100F48001A6822F480221A6000F094FE064604E033
:100F580000F090FE801B642814D82B689B03F7D4FC
:100F6800FBE61A681E4642F480721A6000F082FEA0
:100F780007463368DA053FF535AF00F07BFEC01B46
:100F88006428F6D9032002B0BDE8F08103F180435C
:100F980003F504331A6A1E4622F001021A621A6A1D
:100FA80041F2883822F004021A6200F063FE074614
:100FB80013E000BF001002400000424200700040F1
:100FC800600042428004424220000020D34D62105B
:100FD80000F050FEC01B4045D4D8336A9807F7D4B8
:100FE800002D3FF426AF1CE0344A354D136000F065
:100FF80041FE064604E000F03DFE801B0228C1D8F1
:101008002B689907F7D42368D4E62D4A136843F46C
:101018008033136093E62A4A136A43F0010313628C
:10102800F3E6274AD36923F08053D36101E71D46CD
:1010380000F020FE064604E000F01CFE801B02289B
:10104800A0D82B681E4A9901F6D4206AB0F5803FD3
:101058002DD01B4B616A5A68014322F47412194857
:101068000A4301215A6001601C4600F003FE054650
:1010780004E000F0FFFD401B022883D823689A0192
:10108800F7D5F3E603F18043A3F53C331A6842F43D
:1010980080221A601A6842F480321A604FE642F0E1
:1010A80004021A621A6A42F001021A62ADE6516835
:1010B800A36821F400310B435360CAE700004242A1
:1010C8000010024060004242644A2DE9F041136872
:1010D80086B003F007038B420DD2136823F0070391
:1010E8000B431360136803F00703994203D00120F0
:1010F80006B0BDE8F08103689A0706D5584D8268A6
:101108006C6824F0F00422436A60DB0706460C464C
:1011180024D54368524A012B126800F08E80022BB6
:1011280000F083809007E2D54D4D41F288386A6817
:1011380022F0030213436B6000F09CFD73680746BE
:10114800012B61D0022B05D169E000F093FDC01B93
:1011580040456ED86B6813F00C0FF6D13F4A136800
:1011680003F007039C4209D2136823F007032343C3
:101178001360136803F007039C42B8D1336859071A
:1011880006D53748F268416821F4E0610A434260B5
:101198001A0707D5324A3169536823F4605343EA82
:1011A800C10353602F4D02AC6968AA68EB682868D0
:1011B8002D8A0FC42A49ADF804504B6803F00C027D
:1011C800082A0BD1C3F3834206A80244DB0312F8B2
:1011D800102C36D4244B03FB02F300E0234B204AA7
:1011E800234852682349C2F30312825C0020D3408B
:1011F8000B6000F00FFD002006B0BDE8F08100F0A4
:1012080039FDC01B404514D86B6803F00C03042B50
:10121800F5D1A3E700F02EFDC01B404509D86B6847
:1012280003F00C03082BF5D198E795013FF57CAF47
:101238005DE7032006B0BDE8F08197033FF574AF82
:1012480055E74968094BC1F34041014411F8141CA2
:10125800B3FBF1F302FB03F3C1E700BF0020024038
:1012680000100240104D000800093D0000127A00ED
:10127800244D000820000020014B1868704700BF6B
:1012880020000020044B05495B68054AC3F302238C
:10129800CB5C1068D840704700100240344D0008FD
:1012A80020000020704700BF002861D090F83D3032
:1012B80070B503F0FF020446002B40D023682D4987
:1012C800022284F83D208B421A683DD001F5006166
:1012D8008B421DD0B3F1804F1AD0A1F598318B42C3
:1012E80016D001F580618B4212D001F580618B42E6
:1012F8000ED0A169E568606822F080021143196088
:10130800DD62986201225A61002084F83D2070BD98
:10131800A16822F070020A43216922F44072114345
:101328001548A269E668656821F080011143834287
:101338001960DE629D62E5D162691A63E2E780F8AE
:101348003C20FFF7AFFFB9E7A16822F070020A431B
:10135800216922F440721143A26921F080011143EE
:101368001960E268DA6262689A6262691A63C9E7B8
:1013780001207047002C014000340140036801221D
:10138800186A02FA01F120EA010018621A6A09488B
:1013980011438342196208D0074A934205D01A685C
:1013A800002042F001021A6070475A6C42F4004271
:1013B8005A64F4E7002C01400034014090F83C30B6
:1013C800012B48D0F0B50223012480F83C4080F876
:1013D8003D300C2A37D8DFE802F06E36363607364D
:1013E80036369B363636400003688F681D6A0E68AD
:1013F80025F010051D621A6A764DD3F804E09C6941
:1014080022F0200224F4E644AB4242EA071244EAFE
:10141800062400F0C08005F50065AB4200F0BB80F3
:101428004D68C3F804E09C619D631A629C690D696C
:1014380044F400619961996921F4806199619A691C
:1014480042EA05229A610023012280F83D2080F8B3
:101458003C301846F0BD0220704703688F681D6A4B
:101468000E6825F480551D621A6A5A4DD3F804E0B7
:10147800DC6922F4005224F4E644AB4242EA073223
:1014880044EA062471D005F50065AB426DD04D687D
:10149800C3F804E0DC611D641A62DC690D6944F478
:1014A8000061D961D96921F48061D961DA6942EAB8
:1014B8000522DA61C7E703688F681D6A0E6825F0A0
:1014C80001051D621C6A434DD3F804E09A6924F0B3
:1014D800020422F07302AB4244EA070442EA06021D
:1014E80069D005F50065AB4265D04D68C3F804E0E6
:1014F8009A615D631C629C690A6944F008019961FC
:10150800996921F00401996199690A439A619AE7F6
:1015180003688F681D6A0E6825F480751D621A6A53
:101528002C4DD3F804E0DC6922F4007224F0730433
:10153800AB4242EA072244EA06041CD005F50065DE
:10154800AB4218D04D68C3F804E0DC61DD631A6271
:10155800DC690A6944F00801D961D96921F00401FC
:10156800D961D9690A43DA616DE74D692EF4804E75
:101578004EEA851E8BE7CD6822F400624E6942EA86
:1015880005222EF4405E8D694EEA061E22F4806222
:101598004EEA051ED6E7CD6822F080024E6942EA7F
:1015A80005122EF4406E8D694EEA860E22F0400236
:1015B8004EEA850E34E7CD6824F008042C434E69C2
:1015C8008D692EF4407E354324F0040445EA0E0E5E
:1015D8008BE700BF002C014090F83C30012B01D173
:1015E8000220704702460220136870B482F83D005A
:1015F80098684C6820F070000D68204320F00700C0
:101608002843502C4FF0010582F83C50986044D094
:1016180020D9602C2ED0702C0BD1CD688C6898689E
:101628002C4320F47F400D6944EA000141EA05217A
:101638009960D968002421F04001D960D968012552
:1016480021F48041D960204682F83D5082F83C4020
:1016580070BC7047402CECD11C6A186A0D6920F0E8
:1016680001001862996921F0F00141EA05119961B8
:101678001C62DEE71C6A8D6824F010040E691C6287
:101688009869196A20F4704021F0A00140EA0630F8
:1016980041EA051198611962CBE7186A1C6A8E68DD
:1016A80024F001040D691C629C6920F00A0124F0F1
:1016B800F000314340EA051098611962B9E700BFAC
:1016C80003680422186A02FA01F120EA010018628C
:1016D8001A6A0020114319625A6C42F400425A6493
:1016E8001A6842F001021A60704700BF90F83C3057
:1016F800012B20D0CA688B6822F4407213434A68D1
:1017080023F480631A430B6822F4006213430A69C6
:1017180023F480531A434B6922F4005213438A6915
:1017280023F440430168134300224B64134680F8B6
:101738003C201846704702231846704790F83C3002
:10174800012B1ED002460220136830B482F83D00F7
:101758005C68086824F070045C605C684968204331
:1017680058609868002420F08000986098680125E7
:1017780001439960204682F83D5082F83C4030BCD5
:1017880070470220704700BF90F82420012A20D01B
:101798000346026830B490680124C00783F82440E7
:1017A80009D59A6A012042F020029A62002283F841
:1017B800242030BC7047084880682040F1D1074C8D
:1017C800A242EED155680C6825F47021214351607E
:1017D800ECE70220704700BF0028014000240140C8
:1017E8004FF6FF0206490002CB6800F4E0601A4099
:1017F80042F0BF6343F400330343CB60704700BF3C
:1018080000ED00E0194B30B4DB68C3F30223C3F1E9
:101818000705042D03F1040428BF0425062C18D954
:10182800033B01249C40013C22400124AC40013C84
:10183800214001FA03F3002842EA03020CDB1201FB
:1018480000F16040D2B200F5614080F8002330BC5E
:10185800704700221346E8E7054B00F00F0012011D
:10186800D2B203441A7630BC704700BF00ED00E0E6
:10187800FCEC00E000F01F010123034A40098B4003
:1018880042F82030704700BF00E100E00138B0F1B5
:10189800807F0DD230B4074B074CF02558600022EA
:1018A80084F823500721104630BC9A6019607047AD
:1018B8000120704710E000E000ED00E0044A042831
:1018C80013680CBF43F0040323F00403136070474C
:1018D80010E000E0704700BF08B5FFF7FBFF08BD48
:1018E8002DE9F04F4FF0000885B04546754FDFF8F9
:1018F800F4E1754EDFF8F0C103E00135102D00F07A
:10190800858001230A68AB4033EA0202F5D14A68B0
:10191800122A00F0A18000F28A80022A00F0A38037
:101928007FD9032A00F09C80112A02D1CA6802F1EB
:101938000408FF2B6DD8814602689246AA000F243E
:1019480004FA02FB2AEA0B0A08FA02F24AEA02023D
:10195800C9F80020D1F804A01AF0805FCDD0BA6988
:1019680025F0030942F00102BA61BA6909F1804918
:1019780002F00102039209F5803905F00302DDF84F
:101988000CB09200D9F808B094402BEA04047045D2
:1019980001947DD060457DD04C4CA0427FD04C4C0A
:1019A800A04200F082804B4CA04200F084804A4C58
:1019B800A0420CBF4FF0050B4FF0060B019C0BFA31
:1019C80002F21443C9F8084032681AF4803F14BF81
:1019D8001A439A43326072681AF4003F14BF1A43DC
:1019E8009A437260B2681AF4801F14BF1A439A436C
:1019F800B260F2681AF4001F05F1010514BF134321
:101A080022EA0303102DF3607FF47BAF05B0BDE835
:101A1800F08F4468A5F10802A246920000F104097B
:101A28008DE7A2B1012A84D1D1F80C8081E72B4C33
:101A3800A2420CD01BD92A4CA24208D004F580340B
:101A4800A24204D0A4F58014A2427FF472AF8A683F
:101A5800BAB94FF004086CE7CA6802F10C0868E7E5
:101A68004FF0000865E7CA6802F1080861E7A4F5C5
:101A78008014A242EBD004F58034A2427FF459AF1F
:101A8800E5E7012A0CBF036143614FF0080850E7FE
:101A9800002296E74FF0010B0BFA02F291E74FF0A4
:101AA800020B0BFA02F2019C8BE74FF0030B0BFAC7
:101AB80002F2019C85E74FF0040B0BFA02F2019C3D
:101AC8007FE700BF00100240000401400010014001
:101AD8000014014000180140001C014000002110C2
:101AE8000000311000080140000C014083681942D1
:101AF80014BF01200020704702B909040161704732
:101B0800C3685940C16070472DE9F0410446006838
:101B180082B0C50727D53B4BDA69D1003BD53A4B94
:101B280000251A68D20544D536490B6A13F4407269
:101B38000FD0636803F4407082420BD00B6A334ABB
:101B480023F4407001270026176016600862D80742
:101B580046D463682B490A6A22F4407213430B6225
:101B6800002D38D1206883070DD410F0100007D05D
:101B7800244962694B68002023F4800313434B60B7
:101B880002B0BDE8F0811F49A3684A6822F44042C8
:101B980013434B60E9E7DA69012542F08052DA61C4
:101BA800DB6903F080530193019B174B1A68D20538
:101BB800BAD41A681E4642F480721A6000F05AF8C5
:101BC80007463368DB05AFD400F054F8C01B64281F
:101BD800F7D90320D4E7CB6923F08053CB61C1E761
:101BE8000E4600F047F841F28837804605E000F0DD
:101BF80041F8C8EB0000B842EBD8336A9A07F6D52B
:101C0800A7E700BF001002400070004040044242B5
:101C1800704700BF10B50446074B08481B68A0FB77
:101C280003308009FFF732FE214600224FF0FF30D3
:101C3800FFF7E8FD002010BD20000020D34D621002
:101C4800074A08B51368032043F010031360FFF731
:101C5800C7FD0020FFF7DEFFFFF7DAFF002008BD11
:101C680000200240024A136801331360704700BF26
:101C78007C000020014B1868704700BF7C000020E2
:101C880030B583B00190FFF7F5FF0546019C631C52
:101C980018BF0134FFF7EEFF401BA042FAD303B090
:101CA80030BD00BF704700BF00287CD0836A70B584
:101CB800044633B323689A68D00708D4A26AD206C8
:101CC80025D5A36A012043F01003A36270BD9A686A
:101CD80022F001029A60FFF7CDFF054623689A6853
:101CE800D107EBD5FFF7C6FF401B0228F6D9A36A38
:101CF80043F01003A362E36A43F00103E362A36ABB
:101D0800DFE7C36280F82430FFF7CCFFD2E7A26A8E
:101D1800444922F4885222F0020242F002028B4225
:101D2800A262E169626849D0E568A06842EA4502B2
:101D3800B0F5807F41EA020123D001285FD06269B3
:101D4800012A6CD05A68384822F469425A609D6862
:101D58000022284008439860DD6A344825F470055D
:101D68002A43DA629B68184081421ED0A36A012088
:101D780023F0120343F01003A362E36A0343E36210
:101D880070BD6269012A1FD05868274A20F469404B
:101D980040F480705860986802400A439A6022694B
:101DA800013A1205D8E7012070470020E062A36AD3
:101DB80023F0030343F00103A36270BDB1F5402F84
:101DC80008BF4FF40021AFE70646FDB9A269013A02
:101DD80046EA423646F400665D68134A25F46945CA
:101DE8002E435E609D68B0F5807F02EA050242EAF4
:101DF80001029A60D3D00128D1D00022ACE76269F1
:101E0800012A08BF4FF48076DFD0BDE7A26A42F00E
:101E18002002A262E26A42F00102E262DCE70026E6
:101E2800D3E700BF003C0140FDF7E1FFFE0E1FFFB6
:101E380090F82430012B01D10220704770B500239F
:101E4800026882B0019393680121054680F8241046
:101E5800D80720D43E4B3F481B689168A0FB03037A
:101E680041F001019B0C91600193019B2BB1019BF7
:101E7800013B0193019B002BF9D1FFF7FBFE0646BE
:101E880004E0FFF7F7FE801B022845D82A6893680C
:101E980013F00104F5D0AB6A2F4923F4407323F003
:101EA800010343F480738A42AB6222D0AB6A23F405
:101EB8008013AB625368590527D4AB6A002113F429
:101EC800805318BFEB6A85F8241018BF23F0060367
:101ED800EB626FF002031360936803F46023B3F5B9
:101EE800602F25D09368002043F48013936002B0DC
:101EF80070BD1A4B596811F4702FD7D0A96A41F4F4
:101F08008011A9625B685B05D7D5AB6A23F440539F
:101F180043F48053AB62D0E7AB6A012043F010036F
:101F2800AB62EB6A85F824400343EB6202B070BDF4
:101F3800094B9A4205D09368002043F4A0039360AC
:101F4800D5E7A3F580635B6813F4702FCAD1F2E775
:101F58002000002083DE1B430028014000240140AC
:101F680070B490F8243083B00246012B4FF0000083
:101F7800019056D04B680120062B82F82400106887
:101F880026D803EB8303053B466B0C681F259D4051
:101F980026EA050504FA03F32B434363092C28D9E1
:101FA80004EB440389681E3BC56807269E4001FA76
:101FB80003F325EA06010B43C360A4F11003012BC8
:101FC80026D90020002382F8243003B070BC704763
:101FD8000C2B03EB830328D80C68233B066B1F25C7
:101FE8009D4026EA050504FA03F32B43092C0363F5
:101FF800D6D8896804EB440605690723B340B14085
:1020080025EA03030B430361A4F11003012BD8D87D
:102018001A4B984215D0936A012043F0200393622B
:10202800D0E7022003B070BC7047413BC66A0C6819
:102038001F259D4026EA050504FA03F32B43C362D6
:10204800ACE783681B02BCD48368102C43F40003FC
:102058008360B6D10A4B0B491B68A1FB03139B0C89
:1020680003EB83035B000193019B002BA9D0019B29
:10207800013B0193019B002BF9D1A2E70024014009
:102088002000002083DE1B43F8B504460D461646A3
:1020980023685869C04310F0020026D05A695105D8
:1020A80011D51A6800216FF4806742F40072042683
:1020B80020251A6001205F61266484F83C102163A2
:1020C80084F83D50F8BD6A1CE3D045B900232022AE
:1020D800236384F83C3084F83D200320F8BDFFF7E3
:1020E800C9FD801B8542D3D2F0E7F8BD704700BF19
:1020F80000286AD0F8B590F83D30044603F0FF0296
:10210800002B4DD02268242384F83D301368304DCD
:1021180023F001031360FFF7B5F82E4B2168A3FBEA
:10212800002362689B0CAA424B6024D85200B0FB83
:10213800F2F0C0F30B020133032A0B6298BF0420AC
:10214800E369256A2769E26866691D43A3693A431A
:102158003343C8610D608A60CB600A68002342F08F
:10216800010220250A601846236484F83D50236341
:1021780084F83E30F8BD4FF4967505FB03F3164E10
:10218800A568A6FB03639B0901330B626DB902EBDB
:102198004202B0FBF2F0C0F30B039BB90120CFE77A
:1021A80080F83C20FFF7A2FFACE702EB820202EBCB
:1021B8008202B0FBF2F0C0F30B03002BEED040F428
:1021C8004040BDE740F40040BAE70120704700BF37
:1021D800A086010083DE1B43D34D62102DE9F04336
:1021E800044683B01F4688461646FFF743FD94F819
:1021F8003D30202B03D0022003B0BDE8F083814698
:1022080006E0FFF737FDC9EB0000192800F29980B6
:1022180023689A69D24312F00205F2D094F83C2060
:10222800012AE8D01A680121D00784F83C1002D4AA
:102238001A680A431A601A68A24922F400621A60EE
:10224800212284F83D20102284F83E2000222264B6
:102258006785E162618DE26A6662042A218500F081
:10226800AE80012A00F0AB8012F5803F00F0A78015
:10227800226B122A00F0A3800A9A013240F08F8064
:102288005A69D207FCD52269B2F5804F40F0C48064
:1022980008F0FE021A610A9A013204D0DDE05A6998
:1022A800560500F191805A699707F8D500220192E6
:1022B8005A6901929A690192019A228D002A00F0C6
:1022C8009E800A9A013246D15A69110614D45A6975
:1022D8005205F9D500226FF48065042020215D6144
:1022E800206484F83C20226384F83D10236C042B7E
:1022F80000F0E08003207FE7606A258D421C62625F
:102308000278691E1A61628D89B2013A92B26285B9
:102318005A69218556070AD549B1821C62624278FA
:10232800023D1A61628D2585013A92B262850A9A48
:10233800013222D15A695007BFD45A695105C9D40C
:10234800F8E72023256384F83C5084F83D300220C8
:1023580084F83E5050E75A691706CDD45A6950059B
:10236800B8D40A9B002B6CD0FFF784FC0A9BC9EBFE
:102378000000834265D32368A3E75A6952079CD4B7
:102388005A695505A6D40A9B002B5AD0FFF772FC50
:102398000A9BC9EB0000834253D32368C7E75A69F5
:1023A800D7073FF570AF0A9B002B79D0FFF762FC87
:1023B8000A9BC9EB0000834272D323685CE71A6862
:1023C80042F480721A6057E71A6800216FF4806639
:1023D80042F40072042520201A605E61256484F8A6
:1023E8003C10216384F83D00236C236C042B4FF0D0
:1023F800000384F83C307FF47DAF0120FCE61968C7
:10240800202541F400711960104684F83D5084F885
:102418003C2084F83E20EFE64FEAE81202F006027C
:1024280042F0F0021A610A9A013203D027E05A6991
:102438005005C9D45A691507F9D55FFA88F21A61A7
:1024480029E7236C002243F020032021236484F829
:102458003C20226384F83D1048E75A6995073FF508
:1024680025AF5A695205AFD40A9B6BB3FFF702FC3C
:102478000A9BC9EB0000834226D323680BE75A69FD
:102488001107DAD45A6956059ED40A9BE3B1FFF7BF
:10249800F1FB0A9BC9EB0000834215D32368C2E70E
:1024A80000232022236384F83C3084F83D2084F8FC
:1024B8003E309AE722680120136843F400731360E2
:1024C8009AE600BF0000FFFF00232022236384F860
:1024D8003C3084F83D2087E72DE9F047044686B074
:1024E8009846894617460E9DFFF7C4FB94F83D3081
:1024F800202B03D0022006B0BDE8F087064604E092
:10250800FFF7B8FB801B192861D822689369DB4361
:1025180013F0020AF4D094F83C30012BEAD0136887
:102528000121D80784F83C1002D413680B431360C8
:1025380013689A4923F400631360222384F83D301A
:10254800102384F83E3000232364A4F82A80E16233
:10255800608DE16A1368042943F48063676220850B
:1025680013604DD001294BD011F5803F48D0236B23
:10257800112B45D06B1C35D15369DF07FCD5236976
:10258800B3F5804F40F0488149F00103DBB2136195
:102598006B1C04D083E15369580500F160815369CD
:1025A8009F07F8D5238D83BB0193536901939369E2
:1025B8000193019B136843F40073136000202023E8
:1025C80084F83D3084F83C0084F83E0093E72023EB
:1025D800C4F830A084F83CA084F83D30022084F888
:1025E8003EA088E75369D807C9D4002D00F0808140
:1025F800FFF740FB801B8542C0F07A812268B9E76B
:10260800136843F480731360B4E7012B00F05C8116
:10261800022B00F077811168002041F4806111607D
:1026280004905169049192690492049A002BC5D0D0
:10263800032B00F28480012B00F0D580022B46D0BA
:10264800681C22685CD153695907FCD5136823F4C8
:102658008063136072B62268636A1269591C6162EA
:102668001A70638D228D013B013A9BB222856385E6
:102678006F1C226858D153695807FCD51368616AE2
:1026880043F40073136013694A1C62620B70638D14
:10269800228D013B9BB2013A6385228562B622688E
:1026A800636A1269591C61621A70628D238D013A3E
:1026B800013B92B29BB262852385B7E753695F07F6
:1026C8000BD435B3FFF7D6FA801B854221D3691C9A
:1026D8002268F3D153695B07FCD572B62368616A37
:1026E8001A68481C42F400721A601B6960620B7019
:1026F800638D228D013B013A9BB222856385CDE72C
:1027080053695B07A2D425B1FFF7B4FA801B854251
:1027180096D200232022236384F83C3084F83D209D
:10272800032084F83E30E6E653695907A6D4002D05
:10273800EFD0FFF79FFA801B854299D2E9E745B9A8
:102748002EE05A69D00642D4FFF794FA801B8542DE
:102758002DD323685A695706F3D5626A1B69511C41
:1027680061621370628D2168013A92B2238D62858D
:102778004A69013B9BB2520723857FF557AF636ACD
:102788000A69591C61621A70238D628D013B013AF6
:102798009BB292B22385628548E700BF0000FFFF25
:1027A80023685A695106D8D45A69D2060FD4236CC3
:1027B800202213430021236484F83C1084F83D2030
:1027C800236C202B01D0012095E6032093E60022FC
:1027D8006FF0100020215861226484F83C202263A5
:1027E80084F83D10ECE745B911E05A69D706EED4F4
:1027F800FFF740FA801B8542D9D323685A695206ED
:10280800F3D5626A1B69511C61621370BCE72368C7
:102818005A695006C8D5F4E74FEAE91707F00607E2
:1028280047F0F00313616B1C03D029E05369590585
:1028380015D453691807F9D55FFA89F31361294646
:1028480032462046FFF720FC00286FD0236C236C0B
:10285800042B34D0002384F83C3003204BE6136863
:1028680000216FF4806643F4007304252020136070
:102878005661256484F83C10216384F83D00E5E73F
:1028880053691B07D8D453695905E8D4002D6ED075
:10289800FFF7F0F9801B854269D32268C3E75369C3
:1028A80099073FF57FAE53695905D8D4002D5ED0FE
:1028B800FFF7E0F9801B854259D3226868E60023B8
:1028C80084F83C30012016E6136823F48063136013
:1028D80072B60022236802925A6902929A69029299
:1028E800029A1A6842F400721A6062B6238D9DE655
:1028F80000232022236384F83C3084F83D2084F8A8
:102908003E30A4E7136843F40063136072B60022F4
:10291800236803925A6903929A690392039A1A6880
:1029280022F480621A6062B6238D7FE623680590E0
:102938005A6905929A690592059A1A6842F4807252
:102948001A60681C1A4606D15969C907FCD547F0B0
:10295800F1071F611CE65969C807F8D4002DC7D0D4
:10296800FFF788F9801B8542C2D32368E9E7002373
:102978002022236384F83C3084F83D2066E700BFBA
:1029880000283AD0F0B41E4A0568034695422BD970
:102998001C4A1D492A44A1FB02121C481209920034
:1029A80099685C68DE680C4319695F6934430C43B5
:1029B8009E6929683C43DF69344321F47F513C43D5
:1029C80021F030010C4301260021D8631A6408461F
:1029D8002C6083F821609962D962196359639963FD
:1029E80083F82010F0BC7047094A07492A44A1FB24
:1029F8000212120992000748D2E70120704700BF6F
:102A080007040240F8FBFDBFCDCCCCCC000402404B
:102A1800F8FFFDBF00000240CB0770B586692CD5D2
:102A28003468037D0122A2401A43D4B204758D078D
:102A380072684FF001032DD503FA02F22243D2B295
:102A48000275B4680123A3404C074ABF134322EA26
:102A58000303DBB2037511F0080FF1684FF00102B0
:102A680002FA01F1114C1ABF0B43D9B223EA010152
:102A78002378017593B1012070BD3268057D01236B
:102A880003FA02F225EA020404758D0772684FF012
:102A98000103D1D4934024EA0302D1E7203000F0A7
:102AA80081FD0028E8D00120207070BD740000204E
:102AB8002DE9F04304468069784E8269237D4FF002
:102AC800010808FA02F2357823EA020283B00F46B9
:102AD8002275002D51D004F120050169012303FA64
:102AE80001F122EA010149B2217542699340194373
:102AF800C9B221758269012393401943217539466A
:102B0800284600F065FDA3693A78DB684FF00108B4
:102B180008FA03F313403B70A269DFF88091D2688A
:102B280013413B70A269237D9169307808FA01F15D
:102B380023EA01012175002834D0926901239340CA
:102B4800194321750DF10701284600F041FDA269DE
:102B5800237D91690127307807FA01F123EA010101
:102B680021754E4EA8B152690123934021EA030111
:102B78002175002003B0BDE8F08304F1200511465B
:102B8800284600F00FFDB8B186F80080227DA069C4
:102B9800A3E7284600F006FD002855D03770217DB0
:102BA800A269E0E7284600F0FDFC002838D089F843
:102BB8000080217DA269C0E7A269237D1169307870
:102BC80008FA01F123EA0101217538B9284600F015
:102BD800E9FC78B1217DA26986F80080506901235B
:102BE80003FA00F0014349B22175926993401943F1
:102BF800217584E7A069237D4169327808FA01F1DB
:102C08001943C9B22175002A7FF474AF284600F031
:102C1800C9FC00282DD086F80080217DA06969E7CD
:102C2800A269237D916999F8002008FA01F11943F6
:102C3800C9B22175002A85D1284600F0B3FC0028C6
:102C480080D089F800807DE7A269237D51693278B8
:102C580007FA01F123EA01012175002A89D12846E2
:102C680000F0A0FC002884D00020377003B0BDE835
:102C7800F083A269237D9169327808FA01F119433A
:102C8800C9B22175002A7FF43AAF284600F08AFCC1
:102C980000283FF434AF86F8008030E77400002045
:102CA8002DE9F04304468069BA4F8369227D0126E5
:102CB80006FA03F397F800E022EA030383B00D460F
:102CC8002375BEF1000F00F04381016901228A409B
:102CD80023EA0203237529092046FFF79DFEA2690E
:102CE800237D9169012606FA01F119433B78C9B29F
:102CF8002175DFF8A082002B00F040819269012342
:102D0800934021EA0301217529462046FFF784FEF6
:102D1800A269237D9169012505FA01F119433B78E0
:102D2800C9B221759B4E002B00F01D8192690123C9
:102D3800934021EA030121750DF106012046FFF7B2
:102D4800B7FEFEF797FF9DF806508146012D40F02B
:102D5800B980DFF8408204F120064DE0136905FAD6
:102D680003F321EA030149B22175536905FA03F314
:102D78001943C9B22175936905FA03F319432175FB
:102D88000DF10601304600F023FCD4F818E09DF858
:102D98000620DEF80CC0DEF8181005FA0CF0237DCA
:102DA800024005FA01F1387842FA0CF223EA0101EF
:102DB8008DF806202175002842D0DEF8183005FA73
:102DC80003F3194321750DF10701304600F000FCAB
:102DD800A269237D9169387805FA01F123EA010196
:102DE800217520B3536905FA03F321EA030121751C
:102DF8009DF80630012B65D1FEF73CFF636AC9EBED
:102E0800000098425ED2A269237D9169387805FA5C
:102E180001F123EA0101217500289FD1304600F015
:102E2800C1FBC0B188F80050217DA26996E7304601
:102E380000F0B8FB78B388F80050217DA269D1E78B
:102E4800304600F0AFFB002840D088F80050217DC4
:102E5800D4F818E0B1E7A269237D116998F8000059
:102E680005FA01F123EA0101217540B9304600F065
:102E780099FB002840D0217DA26988F80050536949
:102E880005FA03F3194349B22175936905FA03F367
:102E98001943217574E7A269237D516998F80020C8
:102EA80005FA01F123EA01012175002AA0D1304673
:102EB80000F078FB00289BD09DF8063088F8005079
:102EC800012B99D0002003B0BDE8F083A269237DCF
:102ED800916998F8002005FA01F11943C9B22175E2
:102EE800002A7FF470AF304600F05CFB00283FF406
:102EF8006AAF88F8005066E7A269237D516998F89F
:102F0800000005FA01F11943C9B2217500287FF4C0
:102F180032AF304600F046FB20B188F80050217DE2
:102F2800A26928E7A269237D916998F8002005FA2B
:102F380001F11943C9B22175002A7FF421AF304647
:102F480000F030FB00283FF41BAF88F8005017E76B
:102F580004F120081946404600F024FBE0B13E7019
:102F6800237DA069B1E604F12008404600F01AFB71
:102F780000283BD03570217DA269D7E604F12009ED
:102F8800484600F00FFBD8B188F80060217DA2699F
:102F9800B4E600BF74000020A269237D11693A7865
:102FA80006FA01F123EA01012175002A7FF493AEA4
:102FB800404600F0F7FA00283FF48DAE3E708AE6EE
:102FC800A269237D916998F8002006FA01F123EAA5
:102FD80001012175002A7FF497AE484600F0E2FA15
:102FE80000283FF491AE88F800608DE6A269237D41
:102FF8009169327805FA01F123EA01012175002A65
:103008007FF49AAE404600F0CDFA00283FF494AE23
:10301800357091E6027F2DE9F041002301254570C6
:10302800C370837012B10120BDE8F0819B4B00F1A1
:10303800200704468361384600F0ACFA0028F2D134
:103048003220FEF71DFEA269954E1169237D05FA0F
:1030580001F1307823EA01012175002800F0B880D9
:103068005069012303FA00F021EA000149B22175F1
:103078009269934021EA0301217503212046FFF755
:10308800CBFCA36901259969237D05FA01F1194350
:103098003378C9B22175DFF80882002B00F0DC8094
:1030A8000120FEF7EDFDA36901259969237D05FA45
:1030B80001F1327823EA01012175DFF8E481002A61
:1030C80000F0C1800520FEF7DBFD03212046FFF755
:1030D800A3FCA36901259969237D05FA01F1194328
:1030E8003378C9B22175DFF8B881002B00F0A280CF
:1030F8000120FEF7C5FDA36901259969237D05FA1D
:1031080001F1327823EA01012175DFF89481002A60
:1031180000F087800120FEF7B3FD03212046FFF76A
:103128007BFCA36901259969237D05FA01F11943FF
:103138003378C9B22175DFF86881002B69D0012086
:10314800FEF79EFDA36901259969237D05FA01F122
:10315800327823EA01012175DFF84481002A50D032
:103168000120FEF78DFD02212046FFF755FCA369DB
:1031780001259969237D05FA01F119433378C9B20C
:103188002175DFF81C81002B33D00120FEF778FD74
:10319800A36901259969237D05FA01F1327823EAAB
:1031A80001012175DFF8F880DAB10120FEF768FD2A
:1031B80033783B4D002B75D001236370A26901233E
:1031C800D169227D8B40134323750020BDE8F0812F
:1031D800384600F0E7F9002847D03570217DA2690C
:1031E8003EE7384600F0DEF90028DED088F80050C7
:1031F800DBE7384600F0D6F90028C6D088F800503A
:10320800C3E7384600F0CEF90028A9D088F8005066
:10321800A6E7384600F0C6F9002890D088F8005094
:103228008DE7384600F0BEF900283FF473AF88F800
:1032380000506FE7384600F0B5F900283FF458AF62
:1032480088F8005054E7384600F0ACF900283FF4FD
:1032580039AF88F8005035E7384600F0A3F9002860
:103268003FF41EAF88F800501AE7A269237D516920
:10327800307805FA01F123EA0101217538B9384699
:1032880000F090F900285BD0217DA2693570926921
:103298000123934021EA03012175EEE60000002096
:1032A8007400002021782046C900C9B241F02001ED
:1032B800FFF7F6FCA378E1785B0043F00803287871
:1032C800DBB21943002853D12046FFF7E9FC2B78DD
:1032D800002B49D101212046FFF7E2FC2B78002B77
:1032E80042D106212046FFF7DBFC2D784FF001087C
:1032F80084F80180002D7FF461AFA378E17803FAA8
:1033080008F343F00C03DBB219432046FFF7C8FC6F
:10331800A269237DD169327808FA01F11943C9B24B
:103328002175144C002A7FF450AF384600F03AF962
:1033380000283FF44AAF84F800802846BDE8F081B1
:10334800A269237D9169327805FA01F123EA010126
:103358002175002A7FF491AE384600F023F9002841
:103368003FF48BAE357088E60123A269637027E7C6
:103378000546BBE774000020054B1B780BB1012004
:10338800704701EB821161F07F01C9B2FFF788BC79
:1033980074000020002900F0EF802DE9F04F774DF0
:1033A8000446A84683B04E1E01F14F0716F8013FA8
:1033B800002B7ED00DF107012046FFF779FBFEF7C1
:1033C80059FC9DF807308146012B09D00FE00DF11B
:1033D80007012046FFF76CFB9DF80730012B06D14B
:1033E800FEF748FC636AC9EB00009842EFD3A26974
:1033F800237D91694FF0010A0AFA01F1287823EA3E
:10340800010196F800902175002861D01269012306
:103418009340194321754FEA19112046FFF7FCFA2A
:10342800A269237D91694FF0010A0AFA01F1194353
:103438002B78C9B22175002B55D09269012393408E
:1034480021EA0301217549462046FFF7E5FAA269FA
:10345800237D91694FF0010909FA01F119432B788D
:10346800C9B221754BB392690123934021EA030144
:1034780021750DF107012046FFF71AFBFEF7FAFB4D
:103488009DF807308146012B09D00FE00DF10701A7
:103498002046FFF70DFB9DF80730012B06D1FEF7FC
:1034A800E9FB636AC9EB00009842EFD3BE427FF4A0
:1034B8007DAF002003B0BDE8F08F04F1200A50462C
:1034C80000F070F8D0B185F80090217DA269CAE7B4
:1034D80004F1200B584600F065F810B388F800A0F6
:1034E800217DA26992E704F1200B584600F05AF8B2
:1034F80068B385F800A0217DA2699EE7A269237DB3
:1035080091692A7809FA01F123EA01012175002A53
:10351800AFD1504600F046F80028AAD085F80090B0
:10352800A7E7A269237D116998F800200AFA01F13A
:103538001943C9B22175002A7FF46DAF584600F0CF
:1035480031F800283FF467AF88F800A063E7A26964
:10355800237D91692A780AFA01F123EA010121758C
:10356800002A7FF470AF584600F01CF800283FF49A
:103578006AAF85F800A066E7002070477400002055
:10358800034B1B780BB1012070470121FFF788BB63
:103598007400002002460378002003F0070313702C
:1035A800704700BF10B5044610F8083B84B0646843
:1035B80004AA5B0002F8011D43F0400100940123B6
:1035C800FEF70CFE003018BF012004B010BD00BF8C
:1035D800034610B513F8082B446882B050000094D5
:1035E8000A4640F0400118460123FEF775FF0030F7
:1035F80018BF012002B010BD104B10B41968104A52
:1036080041F00101196059680E480A405A601A6869
:103618004FF41F0422F0847222F480321A601A6870
:103628004FF0006122F480221A605A6822F4FE02E8
:103638005A609C60816010BC704700BF0010024057
:103648000000FFF800ED00E02DE9F0434B4D8BB092
:10365800EB69012143F48003EB61EB69042203F475
:1036680080030193019B6B690E200B436B616B69AF
:10367800434E0B400293029BFEF7C4F80E20FEF760
:10368800F9F8032201210F20FEF7BCF80F20FEF7FE
:10369800F1F83C493C4A00244FF48043304686E820
:1036A80006003361B460F4607461B461F46134623B
:1036B800FEF71EFD6B694FF4406143F001036B6137
:1036C8006B69012203F001030393039BAB69122783
:1036D80043F00803AB61AB692C4803F0080304937B
:1036E8000691032306A9DDF810E0079708920993CD
:1036F800FEF7F6F8EB69264F43F48003EB61EB69BC
:10370800244A03F48003244D05934FF080094FF4B5
:1037180080583846059B3A607C60BC603C617C619F
:10372800BC61C7F80C90C7F81C80FFF729F91B4A41
:103738001023284685E80C00B7637E62C5F80C9014
:10374800AC602C616C61AC61C5F81C80FFF718F99E
:1037580022462146212075636E62FEF753F8212028
:10376800FEF788F8224621462220FEF74BF8222051
:10377800FEF780F80BB0BDE8F08300BF00100240F0
:10378800F400002000580040A0860100000C014011
:103798008801002058000240CC010020440002406B
:1037A800844B2DE9F04F99698BB041F00401996180
:1037B80099690AAC01F004010391039999692022DF
:1037C80041F00801996199697B4F01F00801049162
:1037D800049999694FF0020841F0100199619B69B9
:1037E80044F8102D03F010033846002505932146B0
:1037F8000192059B07950895CDF8248005F1804531
:10380800FEF76EF840232146384605F588350693BD
:103818004FF0800AFEF764F821463846CDF818A024
:10382800FEF75EF8214628464FF48063634E069300
:10383800FEF756F84FF400632146284606934FF4E6
:103848008059FEF74DF821462846CDF81890FEF726
:1038580047F821463046CDF81890FEF741F8214642
:1038680030464FF001094FF0040BCDF81880FEF7F1
:1038780037F821463846CDF818B0CDF81C90FEF739
:103888002FF81023214630460693FEF729F8019AAF
:10389800214630460692FEF723F8032321462846A0
:1038A8000793CDF81890FEF71BF821463046CDF85F
:1038B8001890FEF715F80823214628460693FEF7C8
:1038C8000FF821462846CDF81880FEF709F810238E
:1038D800214628460693FEF703F8019A2146284612
:1038E8000692FDF7FDFF21462846CDF818B0FDF7F2
:1038F800F7FF0823214630460693FDF7F1FF2146DE
:103908003046CDF818B0FDF7EBFF40232146284696
:103918000693CDF81C80FDF7E3FF214628464FF4B7
:10392800807BCDF818A0FDF7DBFF28462146CDF8AF
:1039380018B0FDF7D5FF21463046CDF818A0FDF7A1
:10394800CFFF21463846CDF81890FDF7C9FF21462C
:103958003846CDF81880FDF7C3FF21463046CDF82C
:1039680018B0FDF7BDFF214630464FF400730693AB
:10397800FDF7B6FF304621464FF480630693FDF706
:10398800AFFF214638464FF400530693FDF7A8FFD2
:10399800214638464FF480430693FDF7A1FF4FF4C4
:1039A8000043214638460693FDF79AFF0BB0BDE861
:1039B800F08F00BF00100240000C014000080140D9
:1039C800764B2DE9F04F9A699BB042F400629A61F8
:1039D8009A69734E02F400620392039A9A69DFF8B7
:1039E800C88142F400529A619B69002403F4005391
:1039F8004FF0200B049330464FF47A73049AF36027
:103A080001934FF0100AC6F8008074603461746145
:103A1800B461C6F808B0FDF747FC05A9304606941E
:103A2800CDF814A0FDF78AFE6023082722460CA9CA
:103A38000C9330464FF4007312930D940E94109427
:103A480011940F97FDF7BAFC0CA930460422FDF734
:103A5800B5FC3A460CA93046FDF7B0FC4FF40063BC
:103A6800504D13A9139330464FF48063DFF83C910F
:103A780014931594CDF858A0179418941994FDF739
:103A880035FE019B2846EB606C60C5F808B02C61D8
:103A98006C61AC61C5F80090FDF706FC05A98023B0
:103AA80028460693CDF814B0FDF748FE1AA9052359
:103AB80041F84C3D28460894FDF78EFD60232246C8
:103AC8000CA90C9328464FF4007312930D940E948E
:103AD8000F9710941194FDF771FC0CA92846042245
:103AE800FDF76CFC3A460CA92846FDF767FC4FF435
:103AF800006313A9139328464FF480631493159415
:103B0800CDF858A0179418941994FDF7EFFDD9F83B
:103B18004430214623F40043C9F84430D8F84430EF
:103B2800284623F40043C8F84430FDF727FC28460C
:103B38000421FDF723FC39462846FDF71FFC2146E2
:103B48002846FDF7BDFD28460421FDF7B9FD394695
:103B58002846FDF7B5FD21463046FDF70FFC3046F7
:103B68000421FDF70BFC39463046FDF707FC2146DA
:103B78003046FDF7A5FD30460421FDF7A1FD394685
:103B88003046FDF79DFD2B683268012119631368E3
:103B98000B4313601BB0BDE8F08F00BF001002405C
:103BA80048010020D8020020002C014000340140C8
:103BB8002DE9F043454E464CB36987B043F4007392
:103BC800B361B369434903F40073002501934FF0CF
:103BD80005084FF480724FF440232046019F21606E
:103BE800A260E361E56065616560C4F81080FEF776
:103BF8005BF8394A06A953684FF4C02743F4802379
:103C08005360204641F8187DFDF7BEFD0E220123C2
:103C180003A920460392059304934FF00209FEF787
:103C28009FF903A920460B27CDF810900395FEF7BE
:103C380097F903A90323CDF8149020464FF00C09F7
:103C480004930397FEF78CF904230DEB0901204632
:103C58000493CDF80C90FEF783F90DEB090120468B
:103C6800CDF80C90CDF81080FEF77AF940F6A22E28
:103C780022681A4B9168DFF86CC041F4807191603A
:103C88009168174C41F00101916071692A4641F031
:103C9800010171617069294600F0010002900298E3
:103CA8001D60C3F80480C3F808C0DC60C3F800E0F6
:103CB8001C68384644F001041C60FDF7A3FD384633
:103CC800FDF7D8FD07B0BDE8F08300BF0010024043
:103CD80010020020002401400000014008000240BA
:103CE800840200204C240140274BF0B59A69274CE8
:103CF80042F480629A619B6985B0254D03F4806324
:103D080000934FF4807100234FF46022052720466A
:103D1800009E2560A160E261E360636163602761E2
:103D2800FDF7C2FF0F22012301A9204601920225B7
:103D380003930293FEF714F901A90D23204601937A
:103D480003260295FEF70CF901A90A2320460193E0
:103D580003950296FEF704F9042301A9204602936D
:103D68000195FEF7FDF801A9204602970196FEF796
:103D7800F7F823689A6842F480729A609A6842F069
:103D880001029A6005B0F0BD00100240C400002096
:103D98000028014010B5002000F0C4FD00F078FFB5
:103DA800002220211348FDF7A7FE00F08DFD00F04A
:103DB800EBFD02210F48FDF799FE0028F9D000F02D
:103DC8007DFD0446002004F5C85400F0ABFD02E078
:103DD800FDF78CFE38B100F071FDA0424FF00201F2
:103DE8000448F5D310BD044800F08CFD012000F014
:103DF80099FDDEE700080140114C000810B50020CD
:103E080000F090FD00F04CFF002220211348FDF740
:103E180073FE00F059FD00F0B7FD02210F48FDF7D1
:103E280065FE0028F9D000F049FD0446002004F59D
:103E3800C85400F077FD02E0FDF758FE38B100F0F5
:103E48003DFDA0424FF002010448F5D310BD0448DF
:103E580000F058FD012000F065FDDEE70008014094
:103E6800114C00082DE9F041634F96B0FDF7E8FECC
:103E7800BB69032043F00103BB61BB69002503F064
:103E880001030093009BFDF7ABFC002211466FF085
:103E98000B00FDF7B7FC002211466FF00A00FDF792
:103EA800B1FC002211466FF00900FDF7ABFC0022BF
:103EB80011466FF00400FDF7A5FC002211466FF0D3
:103EC8000300FDF79FFC002211466FF00100FDF78B
:103ED80099FC002211464FF0FF30FDF793FC0224B5
:103EE800012610224FF460130CA80C94139411921D
:103EF800159310961495FCF7F9FE21460F224FF4FE
:103F0800806301A801920294049303950595FDF737
:103F1800DBF84FF4404306A808930694FDF7F4FD38
:103F2800FDF7AAF9354B364CA3FB00308009FDF7A5
:103F3800ADFC0420FDF7C2FC2A4629464FF0FF30AD
:103F4800FDF760FC7B694FF0050823F001037B61F6
:103F5800FFF726FCFFF734FDFFF72AFEFFF7C4FE44
:103F6800324620212748FDF7C7FD2748FDF760FFA7
:103F78002648FDF75DFF264800F0C4FC32460421C0
:103F88002448FDF7B9FDFFF75FFB3220FDF778FE07
:103F980027235422204904F1280084F82030C4F84B
:103FA8002480FCF797F9204626702577FFF732F82A
:103FB8002046FFF7E5FA4046FDF762FE2A46294605
:103FC8002046FFF7D9F915492046FFF7E3F93246AD
:103FD80029462046FFF7D0F911492046FFF7DAF9BC
:103FE80000F05CFE02210748FDF780FD0028F9D1AA
:103FF80016B0BDE8F08100BF00100240D34D62103A
:10400800180300200008014010020020C40000200E
:104018007D4B0008000C0140F40000203C4D0008D6
:10402800484D00082DE9F84FDFF80482DFF8EC91DD
:10403800DFF800B2FFF716FF022000F02DFD012087
:1040480000F070FC6F4D0320FDF71AFEB8F812302F
:10405800D9F800409BB2B3F5006A44BF6FF4FF6221
:1040680003EB020AB8F80E304FEAEA0A9BB2A3F54E
:1040780000636400504693FBF4F4FCF7F3FA002263
:10408800002306460F46FCF7C5FD002840F08F8048
:10409800BAF1030F40F389800022002330463946E5
:1040A800FCF7B8FD0022002840F0A9800023304624
:1040B8003946FCF7CDFD0022002800F09B80524BCA
:1040C80030463946FCF780F9FCF7CCFD0646204619
:1040D800FCF7C8FA00220023FCF79CFD00286ED1EB
:1040E800042CCCBF00230123002B18BF0024A11BE4
:1040F800301900F051FC02214448FDF7F7FC002874
:104108003ED000F0DBFB0646002006F57A4400F0BE
:1041180009FC02E0FDF7EAFC28B300F0CFFBA0425F
:104128004FF002013948F5D306F59C26384806F5C4
:10413800007600F0E7FB03E0FDF7D8FC00285BD031
:1041480000F0BCFB86424FF002013048F4D83148F9
:1041580000F0D8FB02212D48FDF7C8FC0028F9D152
:10416800FFF74CFE66E72C4800F0CCFB012000F07E
:10417800D9FBD9F80030294A012B26D00123136036
:10418800DBF80030AB4226D9254A93423FF65BAFB5
:10419800244B586800F0B6FB234B234A1B680A2BB4
:1041A8007FF651AF0A2313604CE706468FE7CAF142
:1041B800000ABAF1030F1BDD00221C4B80E76342A3
:1041C800042BCCBF002301238EE702231360DBF806
:1041D8000030AB42D8D8134B186800F093FB00208E
:1041E80000F0A0FBC820FDF74BFDFFF7D3FD21E74A
:1041F80000266CE7002363E7FFF7CCFD1AE70B4BBB
:104208005EE700BFDB3113000000104000080140EA
:10421800C94B0008454C0008114C00082800002034
:10422800E16E14004800002004040020000010C0C3
:1042380084020020340000200368B3F5F57F05DC14
:1042480013F5F57F22DB03F5FA7201E040F2DE3266
:1042580043681449B3F5F57F4A6305DC13F5F57F28
:1042680012DB03F5FA7201E040F2DE3283680D4991
:10427800B3F5F57F8A630FDC13F5F57F08DB094A90
:1042880003F5FA73D36370470A22EFE70A22DFE7E0
:10429800044A0A23D363704740F2DE33014AD363EA
:1042A800704700BF002C01400368B3F5F57F05DCBB
:1042B80013F5F57F22DB03F5FA7201E040F2DE32F6
:1042C80043681449B3F5F57F4A6305DC13F5F57FB8
:1042D80012DB03F5FA7201E040F2DE3283680D4921
:1042E800B3F5F57F8A630FDC13F5F57F08DB094A20
:1042F80003F5FA73D36370470A22EFE70A22DFE770
:10430800044A0A23D363704740F2DE33014AD36379
:10431800704700BF003401400B490C488B688A681D
:1043280083F08003896882F04002C2F38012C3F3ED
:10433800C01302EB430381F02002C2F3401200EBEA
:104348004303985C704700BF000C0140704D0008A3
:104358000B490C488B688A6883F48053896882F417
:104368000062C2F3C022C3F3003302EB430381F4BB
:104378008062C2F3802200EB4303985C704700BF61
:1043880000100140704D0008704700BF014B4042CB
:104398001860704708040020014B5860704700BF40
:1043A80008040020000000002DE9F04FDFF8F89223
:1043B800AD4BCA468FB0AD4F0293AD4BDFF8D8B2C4
:1043C8000693DFF8B88207F10C0303930024A94B86
:1043D8004FEA840953F82430984758F824300546A2
:1043E800013348F82430A44BA4491B5DA24A9842E3
:1043F80000F08A80135DA24A013382FB0302A2EB1C
:10440800E37202EB4202A3EB420351F82400DBB251
:104418009D4218BF4042DAF800304BF82400984714
:10442800002348F82430944B1D55964B66001B68B2
:10443800039AC6F10A06985B079332F8023D80B2E8
:10444800C01A04930392FCF70DF900230022FCF72D
:10445800E1FB079B002840F08D80985B049B80B2AD
:10446800C01AFCF7FFF87EA3D3E90023FCF760F934
:10447800FCF7F8FB844B43F82400844B1B689842F4
:104488008CBF00200120069B9847814B7E481E6800
:10449800804B53F824105BF8242058F8243050F847
:1044A800240000900BA8B0479DF8343003B37A4B32
:1044B80053F82400FCF7D6F800220023FCF7AAFBE7
:1044C800002840F03181744B53F82400FCF7CAF8F7
:1044D80000220023FCF7BCFB50B10135684B83FB7D
:1044E8000523A3EBE57303EB4303A5EB4303DDB21D
:1044F8000B9B052D00F21A81DFE815F00601F90083
:10450800E900D8009E004A0051F824205BF82410E6
:1045180081EAE173A3EBE1739A4286D95E4BDAF83C
:10452800006053F82400FCF79DF800220023FCF7F4
:1045380071FB002840F03B81574B53F82400FCF7EF
:1045480091F800220023FCF783FB0022002800F0EA
:104558000E81524B58F82400CDE90423FCF772F879
:10456800DDE90423FCF7E4F8FCF77CFB4BF82400B6
:10457800B0475AE7985B049B80B2181AFCF772F8A8
:1045880037A3D3E90023FCF7D3F8FCF76BFB71E7FB
:104598005BF8241000255A42A942089309950A920B
:1045A8000C9E40F3EF80AE461946734670420025D4
:1045B800034409933A4B2A44314408910A9253F828
:1045C800093008A898472F4AC4EB847310689B00E9
:1045D80029499A1D0833095D825AC35AFD883889CA
:1045E80092B29BB2521B1B1A052904D8DFE801F0CE
:1045F8001A171704041F0023029A13601346013484
:104608000433022C0293A7F104070AF1040A00F00C
:104618008880244B09F10402D3580693D7E6029BFD
:104628001A60ECE7D31A029A13601346E7E79B1A5D
:10463800029A13601346E2E75BF824100022C3F1E4
:10464800000E91420893CDF824E00A920C9D40F3A5
:1046580095801946684273460026A9E7AFF30080A3
:104668007B14AE47E17A943FF00300203800002025
:1046780011480008784D000800040020E8030020D5
:10468800ABAAAA2A24000020E0030020040400208A
:104698002C000020F8030020100400200000F03F48
:1046A800684D0008604D0008584D00085BF824204C
:1046B8000021C3F1000E8A420A930891CDF824E044
:1046C8000C9D70DD1A466E427346002070E75BF859
:1046D800242000265942B2420A93089109960C9860
:1046E8005CDDB6461A4646427346002560E75BF82D
:1046F8002450002259429542099308910A920C9835
:1047080048DD4542002653E75BF8240000215A4261
:104718008842099308910A920C9E37DD7542002061
:1047280046E70FB0BDE8F08F0535D7E65BF82430D3
:1047380000229342D4BF012305231D44274B08922E
:1047480083FB0513A3EBE57303EB4303A5EB4305D9
:10475800013D09920A920C98042D04D8DFE805F06F
:104768002F2A09383300002213461146C9E70023CF
:10477800F0E600220546964613466AE719462E4695
:104788007346CBE7194630462B46BAE79E46304675
:104798001346A7E79E460546134693E71A4605467D
:1047A8000B46B64655E71A462E460B46FCE600224F
:1047B8000B4BCFE6002305469E46194682E70023A9
:1047C8009E4619468EE70022064613461146A5E77F
:1047D8000022064696461346E6E600BFABAAAA2A7A
:1047E8000000F0BF054B064A1B680421A2FB0332F8
:1047F8000448C2F3C022FDF77FB900BF780000204B
:10480800D34D6210000C0140054A536C18B923F4CB
:1048180000435364704743F400435364704700BF38
:1048280000340140054A536C18B923F4004353641B
:10483800704743F400435364704700BF002C0140A5
:10484800194B1B68B3F5806F29D2184A184B1068AA
:104858001A88018830B489B21144491019804288F5
:104868005C8892B2224452105A8081889D8889B20D
:10487800294449109980C288DC8892B22244521097
:10488800DA8001891D8989B2294449101981428930
:104898005C8992B2224452105A8130BC7047054B51
:1048A800054A1A60704700BF7800002024000020E5
:1048B8003800002030000020B1430008014B186880
:1048C800704700BF7800002010B4044B044C00224D
:1048D8001C601021034810BCFDF70EB944000020ED
:1048E80091430008000801400349044B044A002092
:1048F80008601A60704700BF780000203000002070
:104908004948000838B5054D2B68834205D0044650
:10491800034B186800F028F92C6038BD44000020CB
:1049280078000020124B134A196891421ED0D8B95A
:10493800F0B504460546104A104F114E85B01A606E
:104948003B5D052B04D8DFE803F0030303030303EF
:1049580056F8243001950295039501A8013498472B
:10496800022CEDD105B0F0BD064A1A60704700BFB1
:104978003000002049480008914300080004002046
:10498800684D0008B1430008014B024A1A6070479D
:1049980030000020ED4700080A4B40429842B8BF5B
:1049A80018469942B8BF1946B0F57A7FA8BF4FF4A8
:1049B8007A70054BB1F57A7FA8BF4FF47A71186009
:1049C8005960704718FCFFFFF80300200D4B10B525
:1049D80002220D4C5A6023680C4A01332360136885
:1049E80098470B4B1B68984723689B0609D10949D0
:1049F800094A0B689289C3EB832392B202EB932393
:104A08000B6010BD0000024078000020300000203C
:104A1800440000203400002084020020704700BFBA
:104A2800FEE700BFFEE700BFFEE700BFFEE700BFEE
:104A3800704700BF704700BF704700BF08B5FDF75B
:104A480011F9BDE80840FCF747BF00BF002202602B
:104A580042600272704700BF002280E806000272BE
:104A6800704700BF00224FF4FA7180E80600027216
:104A7800704700BF632A03D90029B8BF0731C9109E
:104A8800002380E80A000372704700BF002280E814
:104A980006000272704700BF054B00EB4000800023
:104AA8001A18926818580349034B08601A6070472F
:104AB800804D00082C0000200404002008B5FFF7F2
:104AC800FDFE084B084A1B68C01AA2FB003292047C
:104AD80001D4830700D108BD10210448BDE808406F
:104AE800FDF70EB8180400203FCB9EC40008014013
:104AF80008B5FFF7E3FE0B4B0B4A1B68C01AA2FB75
:104B08000032930507D4094BA3FB00235B0803EB92
:104B18004303984200D108BD10210548BDE808406C
:104B2800FCF7EEBF18040020D34D6210ABAAAAAA66
:104B38000008014008B5FFF7C1FE084B084A1B688A
:104B4800C01AA2FB0032D20401D4C30700D408BDA6
:104B580010210448BDE80840FCF7D2BF1804002023
:104B68003FCB9EC400080140014B1860704700BF4E
:104B78001804002008B5FFF7A1FE0E4B1B68C01AE9
:104B8800B0F5C84F0BD20C4BA3FB00239B0AC3F113
:104B98000803B0FBF3F203FB120020B908BDBDE81F
:104BA8000840FFF791BE10210448BDE80840FCF713
:104BB800A7BF00BF180400201F85EB510008014063
:104BC80008B5FFF77BFE0D4B1B68C01AB0F5C84F40
:104BD8000AD20B4BA3FB00239B0A0133B0FBF3F271
:104BE80003FB120020B908BDBDE80840FFF76CBE02
:104BF80010210448BDE80840FCF782BF18040020D3
:104C08001F85EB510008014008B5FFF757FE094B17
:104C18001B68C01AB0F5FA5F02D2830704D108BD39
:104C2800BDE80840FFF750BE10210348BDE8084022
:104C3800FCF766BF180400200008014008B5FFF71C
:104C48003DFE0C4A0C4B1268801AA3FB00231B0A7A
:104C5800032B06D8DFE803F005040204830702D11A
:104C680008BD4207FCD0BDE8084010210348FCF706
:104C780047BF00BF18040020D34D62100008014050
:104C880008B5FCF717F8BDE80840FCF725B800BFE1
:104C9800014B1B68184700BF54000020FFF724BED3
:104CA800704700BF002103E00B4B5B5843500431B1
:104CB8000A480B4B42189A42F6D30A4A02E00023EC
:104CC80042F8043B084B9A42F9D3FEF795FCFBF7F0
:104CD800D9FAFFF7A7F97047EC4D0008000000204B
:104CE80058000020580000201C040020FEE70000A7
:104CF800F8B500BFF8BC08BC9E467047F8B500BFC1
:084D0800F8BC08BC9E46704790
:104D100002030405060708090A0B0C0D0E0F1010FC
:104D20000102000000000000000000000102030476
:104D3000060708090000000001020304486F7665B9
:104D4000722056322E300000496E697469616C69B8
:104D50007A696E672E2E2E0095430008A143000845
:104D6000114800082D480008B142000841420008DF
:104D70000202040300010502214300085943000810
:104D8000554A0008BC4D0008000000007D4A00089C
:104D9000C44D000805000000954A0008CC4D0008ED
:104DA0000F000000614A0008D44D00081400000004
:104DB0006D4A0008DC4D00083C000000204F66668C
:104DC000000000005354564F000000004C6F526129
:104DD00000000000466173740000000052616365CA
:044DE00000000000CF
:044DE400550200086C
:044DE8002D02000890
:104DEC0004000000050000000600000007000000A1
:104DFC0000000000010000000200000003000000A1
:104E0C0000A24A048402002002000000554A000857
:104E1C009143000800A01A000008000800080008D0
:104E2C0000080008914300083D4B0008F94A0008AF
:084E3C00C54A0008894C00087A
:0400000508004CADF6
:00000001FF
