:020000040800F2
:1000000000C00020E57700080D700008117000089E
:1000100015700008197000081D700008000000002D
:100020000000000000000000000000002170000837
:100030002570000800000000297000082D700008DD
:100040002D7800082D7800082D7800082D780008FC
:100050002D7800082D7800082D7800082D780008EC
:100060002D7800082D7800082D780008BD6F000855
:100070002D7800082D780008557000086170000880
:100080002D7800082D7800082D7800082D780008BC
:100090002D7800082D7800082D7800082D780008AC
:1000A0002D7800082D7800082D7800082D7800089C
:1000B0002D7800082D7800082D7800083D70000884
:1000C000497000082D7800082D7800082D78000868
:1000D0002D7800082D7800082D7800082D7800086C
:1000E0002D7800082D7800082D7800082D7800085C
:1000F0002D7800082D7800082D7800082D7800084C
:100100002D7800082D7800082D7800082D7800083B
:100110002D7800082D7800082D7800082D7800082B
:100120002D7800082D7800082D7800082D7800081B
:1001300000000000000000000000000000000000BF
:1001400000000000000000000000000000000000AF
:10015000000000000000000000000000000000009F
:10016000000000000000000000000000000000008F
:10017000000000000000000000000000000000007F
:10018000000000000000000000000000000000006F
:10019000000000000000000000000000000000005F
:1001A000000000000000000000000000000000004F
:1001B000000000000000000000000000000000003F
:1001C000000000000000000000000000000000002F
:1001D000000000000000000000000000000000001F
:0401E0005FF8E0F1F3
:1001E8000348044B834202D0034B03B118477047BE
:1001F800C8000020C800002000000000054806498B
:10020800091A891001EBD171491002D0034B03B1CF
:1002180018477047C8000020C800002000000000F0
:1002280010B5064C237843B9FFF7DAFF044B13B136
:100238000448AFF300800123237010BDC8000020DC
:10024800000000003078000808B5044B1BB10449D1
:100258000448AFF30080BDE80840CFE70000000085
:10026800CC0000203078000870B50D4E0D4D761B7F
:10027800B61006D00024013455F8043B9847A6422E
:10028800F9D1094E094D07F0CFFA761BB61006D002
:100298000024013455F8043B9847A642F9D170BDB3
:1002A800287B0008287B00082C7B0008287B000896
:1002B800844641EA000313F0030349D1403A23D3AB
:1002C8000B6803604B6843608B688360CB68C360CE
:1002D8000B6903614B6943618B698361CB69C361B6
:1002E8000B6A03624B6A43628B6A8362CB6AC3629E
:1002F8000B6B03634B6B43638B6B8363CB6BC36386
:1003080040304031403ADBD230320BD30B680360C7
:100318004B6843608B688360CB68C36010301031D2
:10032800103AF3D20C3205D351F8043B40F8043BA1
:10033800043AF9D2043208D0D2071CBF11F8013BA5
:1003480000F8013B01D30B8803806046704700BF6B
:10035800082A13D38B07B1D010F00303AED0C3F132
:100368000403D21ADB071CBF11F8013B00F8013B5C
:10037800A4D331F8023B20F8023B9FE7043AD9D3D3
:10038800013A11F8013B00F8013BF9D20B780370F0
:100398004B7843708B7883706046704720F0030178
:1003A80010F00300C0F1000051F8043B00F1040C08
:1003B8004FEACC0C6FF000021CBF22FA0CF2134378
:1003C8004FF0010C4CEA0C2C4CEA0C4CA3EB0C0241
:1003D80022EA030212EACC1204BF51F8043B0430AB
:1003E800F4D0C2F1000102EA0102B2FA82F2C2F1CB
:1003F8001F0200EBD2007047B9B10278BAB1431CB2
:10040800014499421A4614D010B41478013334B117
:1004180099421A4606D014780133002CF8D1101AE4
:1004280010BC7047081A10BC704708467047104641
:100438007047081A704700BF30B5144A21F00043CE
:10044800934287B019DD124A934205DD02460B46F6
:1004580001F020FA07B030BD02AA00F049F8DDE942
:100468000423400000F00200C0F101000090DDE923
:10047800020100F035FF07B030BD0124002200233F
:10048800009400F02DFF07B030BD00BFFB21E93F0D
:10049800FFFFEF7FF8B504460D4600F043FA134B13
:1004A800064693F900300F4601330DD022462B46FD
:1004B8002046294601F040FE30B920462946002250
:1004C800002301F011FE10B930463946F8BD02F09C
:1004D8006BF800220023212101601046194601F023
:1004E800BBFC06460F4630463946F8BD640000207E
:1004F8002DE9F04FBE4C21F00045A5428FB040F3E6
:1005080082801446BB4A0E46954226DCAEA3D3E948
:100518000023002940F3B38101F0BCF9B64B06462D
:100528009D420F4600F08480A9A3D3E9002301F07F
:10053800B1F902460B4630463946C4E9002301F0BA
:10054800A9F9A3A3D3E9002301F0A4F90127C4E979
:10055800020138460FB0BDE8F08FA84A954240F333
:100568008780A74A954259DC2F15A7F21647A5EBB5
:1005780007518946804601F0F5FD01F0D9FA824617
:100588008B464046494652465B46CDE908AB01F0EA
:1005980081F900229B4B01F035FB8946804601F02A
:1005A800E1FD054601F0C4FA02460B4640464946BD
:1005B800CDE90A2301F06EF90022924B01F022FBEB
:1005C80000220023CDE90C0101F084FD002800F091
:1005D800F680002D0CBF0123022302208A493A46E7
:1005E800CDE90001214608A800F05AFA002E074676
:1005F800AFDA6268E36802F1004203F10043474260
:100608006260E360A5E7002700240025C2E9000135
:100618003846C2E902450FB0BDE8F08F02460B46E6
:1006280001F038F90027C4E90201C4E9000190E7A4
:1006380069A3D3E9002301F02DF969A3D3E90023C5
:1006480006460F4601F026F902460B463046C4E935
:100658000023394601F01EF961A3D3E9002301F014
:1006680019F90127C4E9020138460FB0BDE8F08F37
:1006780001F008F85CA3D3E900238046894601F01D
:10068800C1FA0022614B01F007F901F06BFD074642
:1006980001F04EFA4CA3D3E9002382468B46CDE9FC
:1006A80004AB01F0AFFA02460B464046494601F05A
:1006B800F1F847A3D3E90023CDE902015046594692
:1006C80001F0A0FA1F2F8046894602460B46DDE955
:1006D800020128DC01F0DEF84D4B7A1E53F8223077
:1006E8008346AB428A4622D05A465346C4E9002381
:1006F800DDE902015A46534601F0CCF842464B4622
:1007080001F0C8F802460B46002EC4E90223BFF6E2
:1007180020AF0AF1004301F10041C4E900B3C4E984
:1007280002017F4215E701F0B5F883468A462D1588
:10073800CAF30A53EB1A102BD6DD27A3D3E90023FB
:10074800DDE9040101F05EFA8046894602460B465F
:10075800DDE9020101F09EF882468B4602460B460F
:10076800DDE9020101F096F842464B4601F092F8A5
:100778001BA3D3E9002380468946DDE9040101F083
:1007880041FA42464B4601F085F80B460246804640
:10079800894650465946CDE906AB01F07BF8C1F3CE
:1007A8000A53ED1A312D83468A4633DC02460B463E
:1007B800DDE90601C4E90023CDE9020198E7032336
:1007C8000BE700BFAFF3008000004054FB21F93F66
:1007D8003163621A61B4D03D0000601A61B4D03D43
:1007E8007370032E8A19A33B83C8C96D305FE43F39
:1007F800FB21E93F7BD90240FB21F93FFB2139412D
:10080800FFFFEF7F00007041D87800080000E03F4C
:100818005878000838A3D3E90023DDE9040101F082
:10082800F1F98046894602460B46DDE9060101F0EA
:1008380031F882468B4602460B46DDE90601CDE9D2
:1008480002AB01F027F842464B4601F023F82CA3EF
:10085800D3E9002380468946DDE9040101F0D2F995
:1008680042464B4601F016F802460B46804689463A
:100878005046594601F00EF883468A4634E701F09F
:100888000BF8274B06469D420F4616D01EA3D3E908
:10089800002301F001F802460B4630463946C4E908
:1008A800002300F0F7FF18A3D3E9002300F0F4FFBA
:1008B8004FF0FF37C4E902014BE615A3D3E9002343
:1008C80000F0EAFF14A3D3E900230F46064600F020
:1008D800E3FF02460B4630463946C4E9002300F0E0
:1008E800D9FF0DA3D3E9002300F0D6FF4FF0FF375F
:1008F800C4E902012DE600BF0000002E8A19A33BBF
:10090800C14920259A837B393163621A61B4D03D8D
:100918000000601A61B4D03D7370032E8A19A33B9E
:10092800FB21F93F2DE9F0415C4E0C468E4305460C
:1009380000F09C8000290B46024652DD5FEA215EEA
:1009480000F0A580C3F31303AEF2FF3E43F4801317
:10095800D10F1EF0010F01EB43034FEA420403D00D
:10096800E40F04EB430394004FF0000C1625664691
:100978004FF400124FEA6E0EB118994202DC5B1A6E
:100988008E1894445B00013D03EBD4734FEA520286
:100998004FEA4404F0D12F4620204FF0004209E0EE
:1009A80041D0E10F01384FEA520201EB43034FEA0D
:1009B800440441D0B34202EB0501F1DD002901EB0B
:1009C800020509DBB0469B1BA14288BF03F1FF3338
:1009D8004646641A1744E4E7002DF3DB06F10108E4
:1009E800F1E721F00046064337D0002948D1D40A60
:1009F800153B52052146002CF9D0E50249D40020C8
:100A080000E028464900CC0200F10105F9D50C4662
:100A18001146AA40C5F1200521FA05F5A3EB000E01
:100A280045EA04038EE7A142BBD8002901EB020581
:100A3800D2DB98460023CBE7234310D178084FEA4E
:100A48006C0303F17F5303F5001303EB0E5739468C
:100A58001CF0010F18BF40F00040BDE8F0817B1C7E
:100A680016BF781C0CF1010C4008E8E702460B465B
:100A780001F0C8F82A46234600F00EFFBDE8F081D1
:100A880000F008FF02460B4601F0E6F9E5E7734679
:100A9800B5E7114620254FF0FF30BDE70000F07F95
:100AA8002DE9F04F1C46ADF5197D0B91611E089399
:100AB8000391B54BA29912F1140F53F82130074650
:100AC8000593C0F2C982B149D31E81FB0301DB172C
:100AD800C3EBA10307930133A3EB8303DB00D31814
:100AE8000693079A039BD61A059A12EB03091BD49F
:100AF80009F1010900240025B1440DF18008DDF851
:100B08008CA208E05AF8260001F012F801364E458A
:100B1800E8E8020108D0002EF4DA2046294601361A
:100B28004E45E8E80201F6D1059B002BC0F2B883D8
:100B3800089BA7F10802DB0002EB0308049220AA35
:100B480002EB030A0293059B72AA02EBC30B0DF595
:100B5800E079039B002BC0F29A81554600260027B6
:100B6800049C75E90223F4E9020101F04BF80246FE
:100B78000B463046394600F08FFE444506460F4680
:100B8800EFD1E9E80267D9450AF1080AE1D10299EB
:100B98000498059B014401938B469B000BA9A3F184
:100BA8000802CB180A930CAB13440993019A98A92D
:100BB80001EBC203002A53E9284529DD0DF5E07A47
:100BC8000DF130090AEBC2080022714B2046294674
:100BD80001F018F801F0C6FA00F0AAFF00226D4BE8
:100BE80006460F4601F00EF802460B4620462946F7
:100BF80000F050FE01F0B6FA78E9022349F8040B38
:100C08003946304600F048FED04504460D46DBD153
:100C1800DDF81890204629464A4600F0BDFD00221E
:100C28004FF07F5304460D4600F0ECFF00F030FD16
:100C38000022594B00F0E6FF02460B4620462946A3
:100C480000F028FE04460D4601F08CFA804600F0BC
:100C58006FFF02460B46204629464C4600F01AFE16
:100C6800002C06460F4640F39980019BC9F11802F3
:100C7800581E0CAB53F82030C9F1170543FA02F19E
:100C880001FA02F29B1A43FA05F50CAA002D42F864
:100C98002030884400F38C800022002330463946F7
:100CA80001F018FA002800F09F82019B059A03F1D1
:100CB800FF394A4510DC002203F18043013B0CA9AF
:100CC8000A9801EB830353F80419834242EA0102AC
:100CD800F9D1002A40F0E580059B0CAA013B52F8A7
:100CE8002330002B40F0CE800123099A52F80419D2
:100CF80001330029FAD001994A1C9146CB18029376
:100D0800079B089902EB030A019B0AF1804A0B44EE
:100D18001D4620AB03EBC505A39B0AF1FF3A03EB85
:100D28008A0A70AB03EBC20301935AF8040F00F070
:100D3800FFFEA846039BE8E80201002B20DB049C89
:100D480000260027083D01E075E80201F4E90223C6
:100D580000F058FF02460B463046394600F09CFD2D
:100D68005C4506460F46EFD1019B09F10109E3E80E
:100D780002670193029B45469945D6DD019315E725
:100D880000260027F0E700BFE0790008ABAAAA2AEE
:100D98000000703E000070410000204069D1019BB6
:100DA8000CAA013B52F82350ED15002D7FF774AFC4
:100DB800019B08F10108002B40F314820C9C002CC5
:100DC8003AD1019B012B09D001220CA951F8044FFB
:100DD800531C9CBB1A46019B9342F7D1069B002BE0
:100DE8000EDD012B00F01B81022B09D1019B0CA900
:100DF8005A1E0CAB53F82230C3F3150341F82230C6
:100E0800022D7FF449AF32463B460020984900F056
:100E180041FD06460F46002C3FF43EAF069A0020DF
:100E2800934900F0B9FC02460B463046394600F0BB
:100E380031FD06460F462FE7012300220CA9C4F115
:100E4800807441F822400199994210DD0CAC0CAA3B
:100E580052F823206FF07F4004EB830304EB8101F9
:100E680000E01A68821A43F8042B8B42F9D1012456
:100E7800B4E700227F4B01F04BF9002840F0DA80FC
:100E8800054609E7019B5A1C9146029238E700265D
:100E98000027E9E80267D9450AF1080A7FF459AE44
:100EA80075E6069A0CAB53F82930183ACDF81C8031
:100EB8000495069273B9019B0CA903F18043023B88
:100EC80001EB830353F8041909F1FF39183A002993
:100ED800F8D00692069A0020654900F05DFCB9F149
:100EE800000F04460D46C0F2E2814FF0000A4FEAB7
:100EF800C90370AA02EB0308069309F101060CABBB
:100F0800DFF874B108F1080703EB860656F8040DFC
:100F180000F00EFE22462B4600F074FE5B4667E9A1
:100F2800020152462046294600F06CFE0CAB9E4258
:100F380004460D46EAD1CDF80890DDF8149048AB88
:100F4800B9F1000F0393C34601934FF0000A2BDB5E
:100F580045A3D3E90023DFF824815D460026002756
:100F6800002403E0544510DCF8E80223F5E8020108
:100F780000F048FE02460B463046394600F08CFC2D
:100F88000134A14506460F46ECDA019B029AE3E8D4
:100F9800026792450193ABF1080B0AF1010306D0F1
:100FA800B9F1000F9A46D3DA00260027EDE7A29B95
:100FB800DDF80890032B2BD8DFE813F0F400E300EA
:100FC800E300640000252C46DDE9480123462A4653
:100FD80000F060FC049B002B40F0428123462A4627
:100FE8000B9CB9F1000FC4E900230CDD012648AFC2
:100FF800F7E90223013600F04FFCB145F8DA049B0B
:101008000BB101F100410B4602460B99C1E90223DD
:10101800079B03F007000DF5197DBDE8F08F019BD4
:101028000CA95A1E0CAB53F82230C3F3160341F82F
:101038002230E5E6019B08F10108002BC8BF022514
:101048003FF7BCAE32463B460020094900F022FC7F
:10105800022506460F461FE600216FF01703079189
:101068003DE500BFAFF3008000000040FB21F93FE1
:101078000000F03F0000E03F0000703EF8790008F3
:1010880048AB0393B9F1000F40F32381039A4FEA69
:10109800C9030193D3189846D3E900AB58E902670E
:1010A80052465B463046394600F0F6FB04460D468C
:1010B80002460B463046394600F0ECFB5B4652468A
:1010C80000F0EAFBC8E9000168E90245039BA24673
:1010D8004345AB46E2D1B9F1010F40F3FA80019BD9
:1010E800039A13441C46D3E900AB1D4655E902890F
:1010F80052465B464046494600F0CEFB06460F4640
:1011080002460B464046494600F0C4FB5B46524641
:1011180000F0C2FBC5E9000165E902674AABAB42D2
:10112800B246BB46E2D100239C46039A083402F13A
:101138001005184674E90223614600F0ADFBA5428C
:1011480003468C46F5D1039A1146D2E90082D1E9CB
:1011580002E90499002940F08D80184646467446F5
:1011680017464D4661460B9BC3E90401C3E9006776
:10117800C3E90245079B03F007000DF5197DBDE89B
:10118800F08F00252C46069E039F08363E442846CD
:1011980076E90223214600F07FFBB74205460C465C
:1011A800F5D111E700231C46069D039E08353544FA
:1011B800184675E90223214600F06EFBAE4203464D
:1011C8000C46F5D1049A0AB104F1004418462146A8
:1011D8000B9BC3E90001079B03F007000DF5197D80
:1011E800BDE8F08F0024F9E53946069F30467A427B
:1011F8000495CDF81C8000F0CFFA0022364B044647
:101208000D4600F085FF08B30022344B20462946DE
:1012180000F0F8FC00F0A6FF064600F089FC00226A
:101228002D4B00F0EFFC02460B462046294600F005
:1012380031FB00F097FF019B0CAA03F10109183755
:1012480042F82300069742F8296043E620462946DB
:1012580000F088FF019B0CAA994642F8230039E662
:101268000B9B04F10044B9F1000FC3E900543FF7A8
:10127800BDAEC6E60B9C09F100402361079B02F155
:1012880000420CF10041E06003F007006260616118
:10129800C4F80080C4F808E00DF5197DBDE8F08FAA
:1012A800A7F108030493089BDB0002936FE4A29B59
:1012B800032B3FF6ADAE01A252F823F0D512000879
:1012C800CD0F0008CD0F00088910000800231C4628
:1012D80078E700239C4636E7000070410000703E26
:1012E8002DE9F04FDA4C21F00046A64287B0894636
:1012F8008B461746984682461BDC00F033FF0028D1
:1013080039D15346109A01321343334300F0A88170
:10131800109B012B00F0B18152464B460020CD496D
:1013280000F09AFD04460D462046294607B0BDE860
:10133800F08FC94B9E421EDD002904DA01F10043FB
:10134800994608F100485246A3A1D1E900014B464D
:1013580000F0A0FA04460D46A1A1D1E900013A46E1
:10136800434600F097FA22462B4600F095FA0027EC
:1013780082468946B84652464B465046494600F092
:1013880041FC03460C460246CDE900340B4600F00A
:1013980039FCDDE9002304460D465046494600F075
:1013A80031FC91A3D3E90023CDE902012046294667
:1013B80000F028FC8EA3D3E9002300F06DFA224642
:1013C8002B4600F01FFC8CA3D3E9002300F064FA3D
:1013D80022462B4600F016FC89A3D3E9002300F02F
:1013E8005BFA22462B4600F00DFC87A3D3E90023C5
:1013F80000F052FA22462B4600F004FC84A3D3E9FD
:10140800002300F049FADDE9002300F0FBFB82A38A
:10141800D3E90023CDE904012046294600F0F2FB78
:101428007FA3D3E9002300F037FA22462B4600F0C9
:10143800E9FB7DA3D3E9002300F02EFA22462B46D0
:1014480000F0E0FB7AA3D3E9002300F025FA224656
:101458002B4600F0D7FB78A3D3E9002300F01CFA51
:1014680022462B4600F0CEFB75A3D3E9002300F0FB
:1014780013FA02460B46DDE9040100F00DFADDE936
:10148800022300F0BFFB3A46434600F005FADDE9C7
:10149800002300F0B7FB3A46434600F0FDF96AA383
:1014A800D3E9002304460D46DDE9020100F0AAFB5A
:1014B80022462B4600F0F0F90B46024649465046B4
:1014C800CDE9002300F0E8F9634B04469E420D463F
:1014D8003EDC109B012B36D002460B4600205D49AE
:1014E80000F0BAFC00240F464B46064652462046FA
:1014F800294600F0CFF9A04602460B46DDE9000177
:1015080000F0C8F942463B4600F07CFBA946044679
:101518000D4642463B464046494600F073FB0022D2
:101528004E4B00F0B9F902460B462046294600F01A
:10153800B3F932463B4600F065FB42463B4600F0B5
:10154800ABF904460D462046294607B0BDE8F08FA2
:10155800109800F0EDFA224606460F462B46204624
:10156800294600F04FFB3246CDE902013B462046B2
:10157800294600F091F902460B46DDE9020100F028
:101588006BFCDDE9002300F085F902460B46504666
:10159800494600F07FF902460B4600F07DF9024605
:1015A8000B463046394600F075F904464FEAAB70F1
:1015B80000F00200C0F101000D4600F0B9FA024641
:1015C8000B462046294600F01DFB04460D462046E2
:1015D800294607B0BDE8F08F182D4454FB21E93F98
:1015E800075C143326A6813CD47ABF74702AFB3E6C
:1015F800E9A7F0320FB8123F68108D1AF726303F6E
:101608001583E0FEC8DB573F93846EE9E326823FEB
:10161800FE41B31BBAA1AB3F735360DBCB75F3BE7E
:10162800A69237A0887E143F0165F2F2D844433F62
:10163800280356C9226D6D3F37D60684F464963F59
:101648007AFE10111111C13F635555555555D53FB7
:10165800FFFF2F3E0000F0BF2794E53F0000F03F5A
:101668005046494600F00EF802460B460020044951
:1016780000F0F2FB04460D4665E754464D4662E726
:101688000000F03F21F000431946704700000000B9
:10169800C1F30A522DE9F041A2F2FF36132E0B4690
:1016A8000D460446074631DC002E1FDB384A42FA55
:1016B80006F808EA010202432DD033A3D3E9002338
:1016C80000F0EAF80022002300F02CFD48B1002DBC
:1016D80004DA4FF4801343FA06F63544002725EA66
:1016E80008053C4629462046BDE8F08126A3D3E9F3
:1016F800002300F0D1F80022002300F013FD002899
:10170800EFD0002D29DB00273D46EAE7332E06DD22
:10171800B6F5806F1CD019462046BDE8F0814FF021
:10172800FF38A2F2134228FA02F818EA000FF2D0A2
:1017380015A3D3E9002300F0AFF80022002300F03E
:10174800F1FC0028CDD0002D10DB27EA0807C8E7F8
:10175800024600F0A1F80446DEE725F000430D4AF2
:101768001F43002F18BF15460027BAE7142E08D0CC
:101778000123C6F1340603FA06F6371928BFED1817
:10178800E3E70135E1E700BF9C7500883CE4377E5C
:10179800FFFF0F000000F0BFF8B5C1F30A5304467D
:1017A8000D460E46174673BB034621F000463343E9
:1017B80028D0314B002200F025FA304B04469F42D6
:1017C8000D461ADB0E46C1F30A53363B40F2FE7251
:1017D8003B44934220DC002B3DDC13F1350F2CDA1F
:1017E8004CF250339F4217DC05F0004343F0D271AE
:1017F80041F4B731224841F01F011BA3D3E900236C
:1018080000F000FAF8BD40F2FF729342DED10246C2
:101818000B4600F041F8F8BD05F0004444F0FC41E7
:1018280041F45F1141F4105111A3D3E90023154885
:1018380041F03C0100F0E6F9F8BD26F0FF4626F439
:10184800E006363346EA03552046294600220E4B69
:1018580000F0D8F9F8BD26F0FF4626F4E00646EA7F
:10186800035520462946F8BD59F3F8C21F6EA50155
:101878009C7500883CE4377E00005043B03CFFFF75
:1018880059F3F8C29C7500880000903C81F0004133
:1018980002E000BF83F0004330B54FEA41044FEA4D
:1018A800430594EA050F08BF90EA020F1FBF54EAE8
:1018B800000C55EA020C7FEA645C7FEA655C00F084
:1018C800E2804FEA5454D4EB5555B8BF6D420CDD55
:1018D8002C4480EA020281EA030382EA000083EAD8
:1018E800010180EA020281EA0303362D88BF30BD78
:1018F80011F0004F4FEA01314FF4801C4CEA1131CE
:1019080002D0404261EB410113F0004F4FEA03332C
:101918004CEA133302D0524263EB430394EA050FB7
:1019280000F0A780A4F10104D5F1200E0DDB02FA26
:101938000EFC22FA05F2801841F1000103FA0EF2BA
:10194800801843FA05F359410EE0A5F120050EF180
:10195800200E012A03FA0EFC28BF4CF0020C43FAB1
:1019680005F3C01851EBE37101F0004507D54FF0BE
:10197800000EDCF1000C7EEB00006EEB0101B1F50E
:10198800801F1BD3B1F5001F0CD349085FEA300054
:101998004FEA3C0C04F101044FEA445212F5800F5F
:1019A80080F09A80BCF1004F08BF5FEA500C50F1FC
:1019B800000041EB045141EA050130BD5FEA4C0CDF
:1019C800404141EB010111F4801FA4F10104E9D168
:1019D80091F0000F04BF01460020B1FA81F308BF5F
:1019E8002033A3F10B03B3F120020CDA0C3208DD2B
:1019F80002F1140CC2F10C0201FA0CF021FA02F106
:101A08000CE002F11402D8BFC2F1200C01FA02F175
:101A180020FA0CFCDCBF41EA0C019040E41AA2BF9A
:101A280001EB0451294330BD6FEA04041F3C1CDA62
:101A38000C340EDC04F11404C4F1200220FA04F082
:101A480001FA02F340EA030021FA04F345EA03012C
:101A580030BDC4F10C04C4F1200220FA02F001FAEE
:101A680004F340EA0300294630BD21FA04F0294670
:101A780030BD94F0000F83F4801306BF81F4801109
:101A88000134013D4EE77FEA645C18BF7FEA655C7C
:101A980029D094EA050F08BF90EA020F05D054EA4E
:101AA800000C04BF1946104630BD91EA030F1EBF53
:101AB8000021002030BD5FEA545C05D14000494157
:101AC80028BF41F0004130BD14F580043CBF01F54A
:101AD800801130BD01F0004545F0FE4141F4700130
:101AE8004FF0000030BD7FEA645C1ABF194610460B
:101AF8007FEA655C1CBF0B46024650EA013406BF0C
:101B080052EA033591EA030F41F4002130BD00BFCA
:101B180090F0000F04BF0021704730B54FF4806487
:101B280004F132044FF000054FF0000150E700BF08
:101B380090F0000F04BF0021704730B54FF4806467
:101B480004F1320410F0004548BF40424FF0000154
:101B58003EE700BF42004FEAE2014FEA31014FEA97
:101B680002701FBF12F07F4393F07F4F81F06051E6
:101B7800704732F07F4208BF704793F07F4F04BF31
:101B880041F40021704730B54FF4607401F000450E
:101B980021F000411CE700BF50EA010208BF70476E
:101BA80030B54FF000050AE050EA010208BF70475F
:101BB80030B511F0004502D5404261EB41014FF4C8
:101BC800806404F132045FEA915C3FF4D8AE4FF0D0
:101BD80003025FEADC0C18BF03325FEADC0C18BFB3
:101BE800033202EBDC02C2F1200300FA03FC20FA04
:101BF80002F001FA03FE40EA0E0021FA02F1144451
:101C0800BDE600BF70B54FF0FF0C4CF4E06C1CEA69
:101C180011541DBF1CEA135594EA0C0F95EA0C0FDA
:101C280000F0DEF82C4481EA030621EA4C5123EA4D
:101C38004C5350EA013518BF52EA033541F480117C
:101C480043F4801338D0A0FB02CE4FF00005E1FB2F
:101C580002E506F00042E0FB03E54FF00006E1FB79
:101C680003569CF0000F18BF4EF0010EA4F1FF04BC
:101C7800B6F5007F64F5407404D25FEA4E0E6D41FC
:101C880046EB060642EAC62141EA55514FEAC5200D
:101C980040EA5E504FEACE2EB4F1FD0C88BFBCF589
:101CA800E06F1ED8BEF1004F08BF5FEA500E50F13A
:101CB800000041EB045170BD06F0004646EA010100
:101CC80040EA020081EA0301B4EB5C04C2BFD4EB32
:101CD8000C0541EA045170BD41F480114FF0000E2B
:101CE800013C00F3AB8014F1360FDEBF002001F099
:101CF800004170BDC4F10004203C35DA0C341BDC13
:101D080004F11404C4F1200500FA05F320FA04F0E4
:101D180001FA05F240EA020001F0004221F0004118
:101D280010EBD37021FA04F642EB06015EEA430E8B
:101D380008BF20EAD37070BDC4F10C04C4F12005BB
:101D480000FA04F320FA05F001FA04F240EA02006E
:101D580001F0004110EBD37041F100015EEA430E3F
:101D680008BF20EAD37070BDC4F1200500FA05F25F
:101D78004EEA020E20FA04F301FA05F243EA0203DE
:101D880021FA04F001F0004121FA04F220EA0200ED
:101D980000EBD3705EEA430E08BF20EAD37070BD33
:101DA80094F0000F0FD101F00046400041EB010113
:101DB80011F4801F08BF013CF7D041EA060195F0F5
:101DC800000F18BF704703F00046520043EB0303AF
:101DD80013F4801F08BF013DF7D043EA060370479C
:101DE80094EA0C0F0CEA135518BF95EA0C0F0CD0A7
:101DF80050EA410618BF52EA4306D1D181EA0301ED
:101E080001F000414FF0000070BD50EA410606BFE6
:101E18001046194652EA430619D094EA0C0F02D12B
:101E280050EA013613D195EA0C0F05D152EA033670
:101E38001CBF104619460AD181EA030101F000418E
:101E480041F0FE4141F470014FF0000070BD41F0D7
:101E5800FE4141F4780170BD70B54FF0FF0C4CF4B1
:101E6800E06C1CEA11541DBF1CEA135594EA0C0FD0
:101E780095EA0C0F00F0A7F8A4EB050481EA030E1D
:101E880052EA03354FEA013100F088804FEA033304
:101E98004FF0805545EA131343EA12634FEA0222D2
:101EA80045EA111545EA10654FEA00260EF0004193
:101EB8009D4208BF964244F1FD0404F5407402D2E5
:101EC8005B084FEA3202B61A65EB03055B084FEA76
:101ED80032024FF480104FF4002CB6EB020E75EB73
:101EE800030E22BFB61A754640EA0C005B084FEA9B
:101EF8003202B6EB020E75EB030E22BFB61A754618
:101F080040EA5C005B084FEA3202B6EB020E75EB62
:101F1800030E22BFB61A754640EA9C005B084FEADA
:101F28003202B6EB020E75EB030E22BFB61A7546E7
:101F380040EADC0055EA060E18D04FEA051545EAD6
:101F480016754FEA06164FEAC30343EA52734FEA7F
:101F5800C2025FEA1C1CC0D111F4801F0BD141EAF8
:101F680000014FF000004FF0004CB6E711F4801F5D
:101F780004BF01430020B4F1FD0C88BFBCF5E06F3D
:101F88003FF6AFAEB5EB030C04BFB6EB020C5FEA4D
:101F9800500C50F1000041EB045170BD0EF0004EA2
:101FA8004EEA113114EB5C04C2BFD4EB0C0541EAD4
:101FB800045170BD41F480114FF0000E013C90E6D1
:101FC80045EA060E8DE60CEA135594EA0C0F08BF95
:101FD80095EA0C0F3FF43BAF94EA0C0F0AD150EA94
:101FE80001347FF434AF95EA0C0F7FF425AF104627
:101FF80019462CE795EA0C0F06D152EA03353FF44F
:10200800FDAE1046194622E750EA410618BF52EACB
:1020180043067FF4C5AE50EA41047FF40DAF52EA9F
:1020280043057FF4EBAE12E74FF0FF3C06E000BF3C
:102038004FF0010C02E000BF4FF0010C4DF804CD49
:102048004FEA410C7FEA6C5C4FEA430C18BF7FEA09
:102058006C5C1BD001B050EA410C0CBF52EA430C37
:1020680091EA030F02BF90EA020F0020704710F1B7
:10207800000F91EA030F58BF994208BF90422CBF46
:10208800D8176FEAE37040F0010070474FEA410C3F
:102098007FEA6C5C02D150EA013C07D14FEA430C5D
:1020A8007FEA6C5CD6D152EA033CD3D05DF8040BCE
:1020B800704700BF8446104662468C461946634600
:1020C80000E000BF01B5FFF7B7FF002848BF10F1D7
:1020D800000F01BD4DF808EDFFF7F4FF0CBF01201C
:1020E80000205DF808FB00BF4DF808EDFFF7EAFF98
:1020F80034BF012000205DF808FB00BF4DF808ED53
:10210800FFF7E0FF94BF012000205DF808FB00BF47
:102118004DF808EDFFF7CEFF94BF012000205DF8D1
:1021280008FB00BF4DF808EDFFF7C4FF34BF0120DE
:1021380000205DF808FB00BF4FEA410C7FEA6C5CA9
:1021480002D150EA013C0AD14FEA430C7FEA6C5CA9
:1021580002D152EA033C02D14FF0000070474FF021
:10216800010070474FEA410212F5001215D211D54D
:102178006FF47873B3EB625212D94FEAC12343F07C
:10218800004343EA505311F0004F23FA02F018BFFE
:10219800404270474FF00000704750EA013005D1C7
:1021A80011F0004008BF6FF0004070474FF000008A
:1021B800704700BF4FEA4102B2F1E04324BFB3F5D4
:1021C800001CDCF1FE5C0DD901F0004C4FEAC002A6
:1021D8004CEA5070B2F1004F40EB830008BF20F08A
:1021E8000100704711F0804F21D113F13872BCBF44
:1021F80001F00040704741F480114FEA5252C2F199
:102208001802C2F1200C10FA0CF320FA02F018BFE1
:1022180040F001004FEAC1234FEAD32303FA0CFC34
:1022280040EA0C0023FA02F34FEA4303CCE77FEAC3
:10223800625307D150EA01331EBF4FF0FE4040F40D
:102248004000704701F0004040F0FE4040F40000BC
:10225800704700BF80F0004002E000BF81F00041FD
:1022680042001FBF5FEA410392EA030F7FEA226C34
:102278007FEA236C6AD04FEA1262D2EB1363C1BFC4
:10228800D218414048404140B8BF5B42192B88BF33
:10229800704710F0004F40F4000020F07F4018BF56
:1022A800404211F0004F41F4000121F07F4118BF76
:1022B800494292EA030F3FD0A2F1010241FA03FC1E
:1022C80010EB0C00C3F1200301FA03F100F0004306
:1022D80002D5494260EB4000B0F5000F13D3B0F1CE
:1022E800807F06D340084FEA310102F10102FE2A3D
:1022F80051D2B1F1004F40EBC25008BF20F00100AD
:1023080040EA03007047490040EB000010F4000F5A
:10231800A2F10102EDD1B0FA80FCACF1080CB2EBED
:102328000C0200FA0CF0AABF00EBC250524218434C
:10233800BCBFD0401843704792F0000F81F40001F1
:1023480006BF80F400000132013BB5E74FEA4103C4
:102358007FEA226C18BF7FEA236C21D092EA030F30
:1023680004D092F0000F08BF0846704790EA010FAA
:102378001CBF0020704712F07F4F04D1400028BFD7
:1023880040F00040704712F100723CBF00F50000B9
:10239800704700F0004343F0FE4040F400007047EF
:1023A8007FEA226216BF08467FEA2363014642029B
:1023B80006BF5FEA412390EA010F40F480007047AE
:1023C8004FF0000304E000BF10F0004348BF404254
:1023D8005FEA000C08BF704743F0964301464FF090
:1023E80000001CE050EA010208BF70474FF00003EC
:1023F8000AE000BF50EA010208BF704711F000432D
:1024080002D5404261EB41015FEA010C02BF8446FC
:102418000146002043F0B64308BFA3F18053A3F55B
:102428000003BCFA8CF2083AA3EBC25310DB01FAA2
:1024380002FC634400FA02FCC2F12002BCF1004F26
:1024480020FA02F243EB020008BF20F001007047B7
:1024580002F1200201FA02FCC2F1200250EA4C000B
:1024680021FA02F243EB020008BF20EADC70704751
:102478004FF0FF3C06E000BF4FF0010C02E000BF48
:102488004FF0010C4DF804CD4FEA40024FEA4103EA
:102498007FEA226C18BF7FEA236C11D001B052EAA0
:1024A800530C18BF90EA010F58BFB2EB030088BF66
:1024B800C81738BF6FEAE17018BF40F001007047D5
:1024C8007FEA226C02D15FEA402C05D17FEA236CB7
:1024D800E4D15FEA412CE1D05DF8040B704700BFFE
:1024E800844608466146FFE70FB5FFF7C9FF002895
:1024F80048BF10F1000F0FBD4DF808EDFFF7F4FFCE
:102508000CBF012000205DF808FB00BF4DF808ED66
:10251800FFF7EAFF34BF012000205DF808FB00BF89
:102528004DF808EDFFF7E0FF94BF012000205DF8AB
:1025380008FB00BF4DF808EDFFF7D2FF94BF01205C
:1025480000205DF808FB00BF4DF808EDFFF7C8FF55
:1025580034BF012000205DF808FB00BF4FEA4002AD
:10256800B2F1FE4F0FD34FF09E03B3EB12620DD9B9
:102578004FEA002343F0004310F0004F23FA02F023
:1025880018BF404270474FF00000704712F1610FCA
:1025980001D1420205D110F0004008BF6FF00040A1
:1025A80070474FF000007047014B1868704700BF34
:1025B800000000202DE9F041036882B0DD070446E1
:1025C80030D5AB494A6802F00C02042A00F0DA80E0
:1025D8004A6802F00C02082A00F0D0806368B3F55C
:1025E800803F00F00F81002B00F02781B3F5A02F6A
:1025F80000F0B5819E4B1A6822F480321A601A687E
:1026080022F480221A6000F097FF994D064605E0F3
:1026180000F092FF801B642800F20B812B689A035C
:10262800F6D523689F0728D5914A516811F00C0FF9
:1026380000F0B680516801F00C01082900F0AC8068
:102648002369002B00F0418101228A4B884D1A60D2
:1026580000F072FF064605E000F06EFF801B0228BE
:1026680000F2E7802B689807F6D52B68626923F09B
:10267800F80343EAC2032B6023681A0722D5A3692B
:10268800002B00F0988001227B4B794D1A6000F0F6
:1026980053FF064605E000F04FFF801B022800F2BA
:1026A800C8806B6A9B07F6D5744B754A1B68A2FBFA
:1026B80003235B0A019300BF019B5A1E0192002B62
:1026C800F9D123685D0739D5694BDA69D00040F143
:1026D800828000256B4B1A68D10540F19980E36828
:1026E800012B0FD0002B00F0D180052B604B1A6A0C
:1026F80000F0FC8022F001021A621A6A22F0040239
:102708001A6204E05A4A136A43F00103136200F0A4
:1027180013FF574E804641F2883706E000F00CFF61
:10272800A0EB0800B84200F28480336A9B07F5D515
:1027380025B14F4AD36923F08053D361E369CBB104
:102748004B4D6A6802F00C02082A30D0022B4FF079
:1027580000024D4B00F0D2801A6000F0EDFE2C46CE
:10276800054604E000F0E8FE401B022861D8236813
:102778009B01F7D4002002B0BDE8F0814A68D0037D
:102788007FF52CAF3A4A126891037FF54BAF626828
:10279800002A7FF447AF0AE05268D6033FF550AFEE
:1027A800334A1268950721D52269012A1ED00120D3
:1027B80002B0BDE8F081304A2D4D136000F0BCFE38
:1027C800064604E000F0B8FE801B022831D86B6A88
:1027D8009F07F7D475E7DA69012542F08052DA617C
:1027E800DB6903F080530093009B73E7204960691D
:1027F8000A6822F0F80242EAC0020A601A077FF566
:1028080061AF3CE71A4A136843F480331360FAE671
:102818001A681E4642F480721A6000F08DFE074660
:102828003368DA053FF55BAF00F086FEC01B64280D
:10283800F6D9032002B0BDE8F08103F1804303F527
:1028480004331A681D4622F480321A601A6822F48A
:1028580080221A6000F070FE064604E000F06CFE6C
:10286800801B6428E5D82B689B03F7D4D9E600BF02
:1028780000100240000042428004424288000020CA
:10288800D34D6210007000406000424203F1804363
:1028980003F504331A6A1E4622F001021A621A6A04
:1028A80041F2883822F004021A6200F045FE074619
:1028B80004E000F041FEC01B4045BAD8336A9807CF
:1028C800F7D4002D3FF43AAF33E72B4A2B4D136072
:1028D80000F032FE064604E000F02EFE801B0228BF
:1028E800A7D82B689907F7D42368C6E642F00402F4
:1028F8001A621A6A42F001021A6208E71A6000F0C6
:102908001BFE064604E000F017FE801B022890D844
:102918002B689901F7D4226AB2F5803F05D16B681C
:10292800A16823F400330B436B600125134B606AE5
:102938005968024321F4741111480A435A6005602A
:102948001C4600F0F9FD054605E000F0F5FD401BCA
:1029580002283FF66EAF23689A01F6D50AE703F11D
:102968008043A3F53C331A6842F480221A601A683F
:1029780042F480321A6046E60000424200100240EB
:1029880060004242644A136803F007038B420BD28B
:10299800136823F007030B431360136803F007035E
:1029A8008B4201D0012070472DE9F041036886B0C1
:1029B8009C0706D5594C8568626822F0F0022A43C4
:1029C8006260DA0705460C4624D54268534B012A53
:1029D8001B6800F09480022A00F08D809E0729D59C
:1029E8004E4E41F28838736823F003031343736033
:1029F80000F0A2FD6B680746012B6BD0022B05D1B6
:102A080073E000F099FDC01B40457CD8736813F053
:102A18000C0FF6D1404A136803F00703A3420DD9FF
:102A2800136823F0070323431360136803F00703B5
:102A3800A34203D0012006B0BDE8F0812B685807F7
:102A480006D53649E8684A6822F4E06202434A60DB
:102A5800190707D5314A2969536823F4605343EAB3
:102A6800C103536040F201222D4B06ACADF804209F
:102A78000FCB04E90F0029494A6802F00C03082B20
:102A880010D0284B254A284852682849C2F3031217
:102A9800825C0020D3400B6000F01EFD002006B0D1
:102AA800BDE8F081C2F383432344D20313F8103CFA
:102AB8002DD54A681B49C2F34042224412F8142C0F
:102AC800B1FBF2F203FB02F3DCE700F035FDC01BBB
:102AD800404518D8736803F00C03042BF5D199E727
:102AE80000F02AFDC01B40450DD8736803F00C03A5
:102AF800082BF5D18EE79F013FF572AF9AE79B034C
:102B08003FF56EAF96E7032006B0BDE8F081084AAE
:102B180002FB03F3B6E700BF0020024000100240AA
:102B28004878000800127A00307A000888000020EF
:102B380000093D00014B1868704700BF880000205D
:102B4800044B05495B68054AC3F30223CB5C106854
:102B5800D840704700100240407A000888000020E2
:102B6800704700BF00284FD090F83D3070B503F093
:102B7800FF020446002B42D002232268234E84F829
:102B88003D30B24213686168E068A56921D006F556
:102B98000066B2421DD0B2F1804F0BD0A6F5983630
:102BA800B24207D006F58066B24203D006F58066C9
:102BB800B24207D1A66823F070033343266923F491
:102BC8004073334323F080032B431360D062916238
:102BD8000FE0A66823F070033343266923F440739B
:102BE800334323F080032B431360D06291626369FF
:102BF800136301230020536184F83D3070BD80F8D1
:102C08003C20FFF7ADFFB7E701207047002C0140DB
:102C18000122036802FA01F11A6A0C4822EA010249
:102C28001A621A6A834241EA0201196208D0084A04
:102C3800934205D01A68002042F001021A607047DA
:102C48005A6C42F400425A64F4E700BF002C014079
:102C58000034014090F83C30012B00F0CB80F0B4F8
:102C68000223012480F83D3080F83C400C2A33D8F8
:102C7800DFE802F0073232326932323295323232CC
:102C88003B0003688E681D6A0F6825F001051D6208
:102C98001A6A5D6822F002029C6932436F4E24F082
:102CA8007304B34244EA070400F0A68006F5006600
:102CB800B34200F0A1804E685D609C615E631A6259
:102CC8009C690D6944F008049C61996921F004012C
:102CD80099619A692A439A610023F0BC012280F81D
:102CE8003C3080F83D201846704703688E681D6A9E
:102CF8000F6825F480551D621A6A5D6822F4005237
:102D0800DC6942EA0632554E24F4E644B34244EA0A
:102D1800072400F08E8006F50066B34200F0898033
:102D28004E685D60DC611E641A62DC690D6944F4FA
:102D38000064DC61D96921F48061D961DA6942EA09
:102D48000522DA61C8E703688E681D6A0F6825F0F6
:102D580010051D621A6A5D6822F020029C6942EA29
:102D680006123E4E24F4E644B34244EA072450D007
:102D780006F50066B3424CD04E685D609C619E6368
:102D88001A629C690D6944F400649C61996921F494
:102D9800806199619A6942EA05229A619CE7036811
:102DA8008E681D6A0F6825F480751D621A6A5D6851
:102DB80022F40072DC6942EA0622284E24F07304E9
:102DC800B34244EA07043AD006F50066B34236D067
:102DD8004E685D60DC61DE631A62DC690D6944F08F
:102DE8000804DC61D96921F00401D961DA692A4350
:102DF800DA6171E702207047CE6822F00802324398
:102E080025F44075D1E905673E4322F004023543B5
:102E180051E7CE6822F0800242EA061225F4406C9F
:102E2800D1E9056746EA070522F040024CEA850524
:102E3800A2E74E6925F4804545EA861570E7CE6815
:102E480022F4006242EA062225F44055D1E90567DA
:102E58003E4322F4806245EA0615B9E7002C01409A
:102E680090F83C3070B4012B44D00222012503684D
:102E780080F83D209A684C6822F070020E68224360
:102E880022F007023243502C80F83C509A6048D018
:102E980020D9602C32D0702C0AD1D1E902520C69A9
:102EA80099682A4342EA042221F47F410A439A603E
:102EB800002101250C46DA6822F04002DA60DA685F
:102EC80022F48042DA6080F83D5080F83C102046B9
:102ED80070BC7047402CEBD11D6A1C6A096924F04C
:102EE80001041C629A6922F0F00242EA01129A6116
:102EF8001D62DDE70224204670BC70471C6A8D689D
:102F080024F010040E691C6299691A6A21F4704150
:102F180022F0A00241EA063142EA051299611A62DA
:102F2800C6E71D6A1E6A8C6826F0010609691E62DA
:102F38009A6925F00A0522F0F0022C4342EA0112B0
:102F48009A611C62B4E700BF0422036802FA01F127
:102F58001A6A002022EA01021A621A6A11431962E7
:102F68005A6C42F400425A641A6842F001021A602C
:102F7800704700BF90F83C30012B22D00246D1E9BF
:102F8800020310B4002423F440730343486823F475
:102F980080630343086823F400630343086923F448
:102FA80080530343486923F400530343886923F497
:102FB8004043116803434B64204682F83C4010BCF0
:102FC80070470220704700BF90F83C30012B1ED09C
:102FD80002460220F0B400250126136882F83D005D
:102FE8005C680F6824F070045C6058684C6838436B
:102FF8005860986820F080009860996828462143B6
:10300800996082F83D6082F83C50F0BC704702201D
:10301800704700BF90F82420012A2AD003460120D7
:103028001A6883F824009068C00712D41248806890
:1030380010F001000DD130B4104CA24212D0012082
:103048009A6A42F020029A62002230BC83F8242057
:1030580070479A6A012042F020029A62002283F89F
:103068002420704754680D6824F470212943516066
:10307800EAE70220704700BF002801400024014011
:103088004FF6FF01064A0002D36800F4E0600B40E7
:10309800184340F0BF6040F40030D060704700BF74
:1030A80000ED00E0184B30B4DC68C4F30224C4F12E
:1030B8000705042D04F1040328BF0425062B18D99D
:1030C8004FF0FF33033CA34022EA03024FF0FF33E3
:1030D800AB4021EA0303A34013431B010028DBB2E2
:1030E8000ADB00F1604000F5614080F8003330BC35
:1030F800704700221446E9E7044A00F00F00024432
:10310800137630BC704700BF00ED00E0FCEC00E037
:10311800012300F01F01034A40098B4042F8203088
:10312800704700BF00E100E00138B0F1807F0DD2A8
:1031380030B4F02500220721054B064C586084F86E
:103148002350104630BC9A601960704701207047C0
:1031580010E000E000ED00E0044A042813680CBF0A
:1031680043F0040323F004031360704710E000E009
:10317800704700BF08B5FFF7FBFF08BD2DE9F04F0A
:103188004FF0000885B043467D4FDFF810E27D4ED2
:10319800DFF80CC203E00133102B00F08880012215
:1031A8000C689A4002EA0405AA42F4D14C68122C31
:1031B80000F0B68000F28B80022C00F0AD8079D947
:1031C800032C00F0A680112C02D1CA6802F1040871
:1031D800FF2D76D8824602689C004FF00F0909FA45
:1031E80004FB22EA0B0208FA04F42243CAF800207E
:1031F800D1F804A01AF0805FCDD0BA6923F0030497
:1032080042F00102BA61BA6904F1804402F0010295
:10321800039204F5803403F0030B039A4FEA8B0BF7
:10322800A26809FA0BF922EA0902704501921BD03B
:10323800554A904278D0554A904200F08580544AC9
:10324800904200F08A80534A904200F08F80524AA0
:1032580090420CBF4FF005094FF00609019A09FA90
:103268000BFB42EA0B020192019A1AF4803FA2601A
:10327800326803F1010314BF2A43AA43326072681B
:103288001AF4003F14BF2A43AA437260B2681AF4C2
:10329800801F14BF2A43AA43B260F4681AF4001FBF
:1032A80014BF2C43AC43102BF4607FF478AF05B007
:1032B800BDE8F08FDCB1012C8AD1FF2DD1F80C804C
:1032C80088D99C004268203C00F1040A85E76445DF
:1032D8000DD011D9DFF8CC904C4508D009F58039CC
:1032E8004C4504D0A9F580194C457FF471AF8C6822
:1032F8001CBB4FF004086BE7DFF8AC904C45F6D0E8
:1033080009F580394C457FF463AF8C68002CF0D008
:1033180013E04FF000085BE7CA6802F1080857E7B6
:10332800CA6802F10C0853E74FF00109019A09FA3B
:103338000BFB42EA0B02019296E7012C0CBF0261DB
:1033480042614FF0080843E74FF00209019A09FA71
:103358000BFB42EA0B02019286E74FF00309019A40
:1033680009FA0BFB42EA0B0201927DE74FF00409D0
:10337800019A09FA0BFB42EA0B02019274E700BFBB
:103388000010024000040140000C01400010014000
:103398000014014000180140001C014000080140D1
:1033A800000021100000311000001110836819423C
:1033B80014BF01200020704702B909040161704759
:1033C800C3685940C16070472DE9F0410446006860
:1033D80082B0C50727D53C4BDA69D1003AD53B4BBB
:1033E80000251A68D20543D5374960680A6A12F47D
:1033F80040720FD000F4407393420BD0012700268F
:103408000B6A334A23F44070176016600862D807C5
:1034180049D460682C4A136A23F440730343136247
:103428002068002D38D1830706D5274AA16853683C
:1034380023F440430B43536010F0100007D00020E2
:10344800214A6169536823F480030B43536002B037
:10345800BDE8F081DA69012542F08052DA61DB6962
:1034680003F080530193019B184B1A68D205BBD413
:103478001A681E4642F480721A6000F05DF807462A
:103488003368DB05B0D400F057F8C01B6428F7D9BF
:10349800032002B0BDE8F081D36923F08053D361E3
:1034A8008307C9D5C1E70E4600F046F841F28837D0
:1034B8008046336A9A07ACD400F03EF8A0EB0800C7
:1034C800B842F6D9E4E700BF00100240007000409F
:1034D80040044242704700BF10B50446074A084BF3
:1034E8001068A3FB00308009FFF71EFE214600226A
:1034F8004FF0FF30FFF7D6FD002010BD88000020F8
:10350800D34D6210074A08B51368032043F010032F
:103518001360FFF7B5FD0020FFF7DEFFFFF7DAFFC6
:10352800002008BD00200240024A136801331360DE
:10353800704700BFEC000020014B1868704700BFBF
:10354800EC00002030B583B00190FFF7F5FF054689
:10355800019C631C18BF0134FFF7EEFF401BA0421B
:10356800FAD303B030BD00BF704700BF002800F099
:103578008880F8B5836A0446002B65D023689A686A
:10358800D00742D4A26AD20658D4A26A534922F478
:10359800885222F0020242F002028B42A262E069E3
:1035A800626868D0D4E9021642EA4602B1F5807F23
:1035B80042EA000260694DD001290CBF4FF48077C0
:1035C8000027012869D05D68454825F469453D43D1
:1035D8005D609D68284010439860012947D000200D
:1035E800D96A404D21F470010143D9629B681D409E
:1035F800AA4248D00120A36A23F0120343F0100323
:10360800A362E36A0343E362F8BD9A6822F0010209
:103618009A60FFF791FF054623689A68D107B1D5EC
:10362800FFF78AFF401B0228F6D9A36A43F010036C
:10363800A362E36A43F00103E362A36AA36A012079
:1036480043F01003A362F8BDC36280F82430FFF78B
:103658008BFF93E701281FD05868214920F469405F
:1036680040F480705860986801401143996021695E
:1036780001390805B4E7B0F5402F08BF4FF4002022
:1036880090E7012070470020E062A36A23F003035B
:1036980043F00103A362F8BD0F46BEB1A06A40F033
:1036A8002000A062E06A40F00100E0625D680C481A
:1036B80025F469453D435D609D68B1F5807F00EA6A
:1036C800050040EA0200986087D1D0E7A069451E4E
:1036D80047EA453545F40067E8E700BF003C01408C
:1036E800FDF7E1FFFE0E1FFF0246002070B492F8BE
:1036F800243083B0012B019058D001234D68106805
:10370800062D82F824300C6805EB85034FF01F0660
:103718002AD90C2D40D8233B056B9E4025EA060587
:1037280004FA03F32B430363092C8B6804EB44016D
:1037380028D907261E39C5688E408B4025EA060120
:103748000B43A4F110010129C36023D8284B9842E8
:1037580030D00120936A43F020039362002382F85B
:10376800243003B070BC7047053B456B9E4025EA8A
:10377800060504FA03F32B43092C43638B6804EB17
:103788004401D6D8072504698D408B4024EA0501F9
:103798000B4303610020E1E7413BC56A9E4025EAEF
:1037A800060504FA03F32B43C362BDE7022003B006
:1037B80070BC704783681B02ECD48368102C43F4F8
:1037C80000038360E6D10B4B0B491B68A1FB031375
:1037D8009B0C03EB83035B000193019B002BD9D067
:1037E800019B013B0193019B002BF9D1D2E700BF5C
:1037F800002401408800002083DE1B43002370B5AD
:10380800026882B001939368DB0721D4184B194CE6
:103818001B689168A4FB034341F001019B0C916074
:103828000193019B2BB1019B013B0193019B002B51
:10383800F9D10546FFF780FE064604E0FFF77CFE57
:10384800801B022807D82B689C6814F00104F5D067
:10385800002002B070BD0120AB6A85F8244043F017
:103868001003AB62EB6A0343EB6202B070BD00BFAA
:103878008800002083DE1B4390F82430012B38D0C9
:10388800012310B580F824300446FFF7B7FF60BB6A
:10389800A36A226823F44073284923F0010343F400
:1038A80080738A42A36226D0A36A23F48013A3629A
:1038B800536859052BD4A36A002113F4805318BF09
:1038C800E36A84F8241018BF23F00603E3626FF05C
:1038D80002031360936803F46023B3F5602F1DD0CF
:1038E800936843F48013936010BD002384F8243058
:1038F80010BD02207047124B596811F4702FD3D0B5
:10390800A16A41F48011A1625B685B05D3D5A36A03
:1039180023F4405343F48053A362CCE7074B9A4205
:1039280004D0936843F4A003936010BDA3F58063AB
:103938005B6813F4702FD3D1F3E700BF0028014070
:1039480000240140704700BF00286AD090F83D303D
:1039580070B503F0FF020446002B4DD024232268E3
:1039680084F83D301368304D23F001031360FFF7EE
:10397800E7F82E4A2368A2FB00126168920CA9425C
:103988005A6024D84900B0FBF1F040F6FC710842B7
:1039980008BF042001321A620022D4E90716202544
:1039A8003143D861D4E9036019603043D4E905167E
:1039B80031439860D9601968104641F001011960D7
:1039C800226484F83D50226384F83E2070BD4FF491
:1039D800967505FB02F2164EA568A6FB02629209CF
:1039E80001321A626DB901EB4101B0FBF1F0C0F38D
:1039F8000B029AB90120CFE780F83C20FFF7A2FF1D
:103A0800ACE701EB810101EB8101B0FBF1F0C0F300
:103A18000B02002AEED040F44040BDE740F40040DD
:103A2800BAE70120704700BFA086010083DE1B4370
:103A3800D34D62102DE9F047044682B099460F46EF
:103A480090460A9DFFF778FD94F83D30202B03D06F
:103A5800022002B0BDE8F087064605E0FFF76CFDDE
:103A6800801B192800F2A88023689A69D24312F0B3
:103A7800020AF3D094F83C20012AE9D001211A68FF
:103A880084F83C10D0075FD500214FF0210C10209E
:103A98001A6822F400621A60A34A84F83DC084F8C8
:103AA8003E002164A4F82A90E262618DE26AC4F8BB
:103AB8002480042A218507D0012A05D012F5803FE9
:103AC80002D0226B122A03D11A6842F480721A605B
:103AD8006A1C7ED15A69D107FCD52269B2F5804F9C
:103AE80036D107F0FE071F616F1C04D0F8E05A6951
:103AF800570500F19D805A699207F8D50022019276
:103B08005A6901929A690192019A278D002F00F053
:103B1800FD806A1C40F0AA805A69120629D45A69A5
:103B28005005F9D500226FF48065042020215D61DD
:103B3800206484F83C20226384F83D10236C042B15
:103B480000F0F480032084E71A680A431A609BE7B0
:103B5800FA1102F0060242F0F0021A6102E05A6914
:103B6800500565D45A691207F9D5FFB21F61BBE742
:103B7800278D606A7A1E411C6162017892B21961D0
:103B8800618D2285013989B26185596949070AD54C
:103B98004AB1821C62624278023F1A61628D2785AF
:103BA800013A92B26285691C78D15A695007ACD43F
:103BB8005A695105F9D5B5E720230220C4F830A089
:103BC80084F83CA084F83D3084F83EA002B0BDE8FB
:103BD800F0875A69D0070AD4002D77D0FFF7ACFCDC
:103BE800801B854272D323685A69D107F6D52269AA
:103BF800B2F5804F3FF475AFFA1102F0060242F0B9
:103C0800F0021A615A691207AFD45A6952050FD4E3
:103C1800002D00F09D80FFF78FFC801B8542C0F0CF
:103C2800978023685A6911079FD45A695005F2D5BD
:103C380000216FF48066042520201A6842F400727F
:103C48001A605E61256484F83C10216384F83D00A5
:103C5800236C236C042B08BF01204FF0000318BF0E
:103C6800032084F83C3002B0BDE8F0875A6910069A
:103C78003FF57FAF5A6951053FF554AF002D5CD031
:103C8800FFF75AFC801B854257D323685A691106EF
:103C98003FF56EAF5A695005F2D543E75A695207A6
:103CA8003FF533AF5A6957053FF53CAF002D44D077
:103CB800FFF742FC801B85423FD323685A695007AF
:103CC8003FF523AF5A695705F2D52BE70023202289
:103CD800236384F83C3084F83D2084F83E30B8E70C
:103CE8005A6990073FF50AAF5A695105A0D47DB3C8
:103CF800FFF722FC801B85422AD323685A69920762
:103D08003FF5FCAE5A695105F2D591E720211A68B2
:103D1800384642F400721A6084F83D1084F83C700A
:103D280084F83E7095E600BF0000FFFF226801207E
:103D3800136843F4007313608BE620210022236C80
:103D480084F83C200B432364226384F83D10F5E695
:103D580000232022236384F83C3084F83D2077E751
:103D68002DE9F047044686B099460F4690460E9DC9
:103D7800FFF7E2FB94F83D30202B03D0022006B079
:103D8800BDE8F087064605E0FFF7D6FB801B19283B
:103D980000F2948023689A69D24312F0020AF3D0A1
:103DA80094F83C20012AE9D001211A6884F83C10D3
:103DB800D20755D5102000214FF0220C1A6822F4A2
:103DC80000621A609C4A84F83DC084F83E00216471
:103DD800A4F82A90E262608DE16A1A68042942F424
:103DE8008062C4F8248020851A6007D0012905D094
:103DF80011F5803F02D0226B112A03D11A6842F4D0
:103E080080721A60691C66D15A69D007FCD522698C
:103E1800B2F5804F28D147F00107FFB21F616F1C30
:103E280004D0D2E15A69570500F188805A6992078F
:103E3800F8D5228D002A40F09F8001925A6901929C
:103E48009A690192019A1A6842F400721A60002075
:103E5800202384F83C0084F83D3084F83E008EE747
:103E68001A680A431A60A5E74FEAE71808F0060837
:103E780048F0F0021A6102E05A6952055ED45A69A4
:103E88001107F9D5FFB21F6102E05A69520555D4EE
:103E98005A69D24312F00202F7D105925A69059283
:103EA8009A690592059A1A6842F480721A605A69EA
:103EB800D007FCD548F0F1021A61B0E720230220B0
:103EC800C4F830A084F83CA084F83D3084F83EA0C3
:103ED80006B0BDE8F0875A69D2070CD4002D00F06F
:103EE800DA80FFF729FB801B8542C0F0D480236865
:103EF8005A69D007F5D52269B2F5804F8BD04FEAC1
:103F0800E71808F0060848F0F0021A615A69120723
:103F180000F187815A69510510D4002D00F0B58150
:103F2800FFF70AFB801B8542C0F0AF8123685A69FE
:103F3800100700F176815A695205F1D500216FF416
:103F48008066042520201A6842F400721A605E61B7
:103F5800256484F83C10216384F83D00236C236CAD
:103F6800042B08BF01204FF0000318BF032084F87A
:103F78003C3006B0BDE8F087012A00F03E81022AF5
:103F880000F0B68000201968032A41F480611960A6
:103F980004905969049199690491049949D8012AAE
:103FA80000F0F480022A00F08B806F1C40F0B4808F
:103FB8005A695007FCD51A6822F480621A6072B6F2
:103FC8002268636A1269591C61621A70638D228DB6
:103FD800013B013A9BB2228563856A1C236840F045
:103FE800A7805A695707FCD51A68616A42F40072BB
:103FF8001A601B694A1C62620B70638D228D013B3B
:104008009BB2013A6385228562B62268636A1269A7
:10401800591C61621A70638D228D013B013A9BB273
:1040280092B263852285002A3FF411AF032A2368E0
:10403800B5D975B994E000BF0000FFFF5A69D106F1
:1040480000F1B380FFF778FA801BA84200F28F8056
:1040580023685A695006F1D5626A1B69511C61626E
:104068001370618D2368013989B2228D6185596980
:10407800013A92B24F072285D5D5626A1B69511C55
:1040880061621370228D638D013A013B92B29BB23B
:1040980022856385C7E700232022236384F83C3008
:1040A80084F83D2084F83E3059E75B695B070CD4FF
:1040B800002D48D0FFF740FA801B854243D3236880
:1040C800691CF2D15A695207FCD572B62368616A35
:1040D8001A68481C42F400721A601B6960620B700F
:1040E800638D228D013B013A9BB2228563858BE764
:1040F8001A6842F400621A6072B6002223680392BA
:104108005A6903929A690392039A1A6822F48062A0
:104118001A6062B6228D86E75A6951073FF54BAFA0
:104128008DB1FFF709FA801B85420CD323683CE761
:104138005A6950073FF558AF2DB1FFF7FDF9801BBD
:104148008542BFF44AAF002320220320236384F86A
:104158003C3084F83D2084F83E3006B0BDE8F08756
:104168005A6952063FF578AF5A69D1061DD4202204
:104178000021236C84F83C101343236484F83D2009
:10418800236C202B14BF01200320F8E535B918E073
:10419800FFF7D2F9801B8542E9D323685A69520692
:1041A8003FF56BAF5A69D706F2D500226FF01000C1
:1041B80020215861226484F83C20226384F83D1051
:1041C800DEE75A695006CFD557E75A6990073FF599
:1041D80030AE5A6951053FF5B1AE002D55D0FFF705
:1041E800ABF9801B854250D323685A6992073FF583
:1041F80020AE5A695105F2D5A0E61A6822F4806209
:104208001A6072B60022236802925A6902929A6969
:104218000292029A1A6842F400721A6062B6228DFB
:1042280001E7FFB21F615A69910711D45A6957050E
:104238003FF584AE4DB3FFF77FF9801B854224D349
:1042480023685A69910703D45A695005F3D575E66E
:10425800002205925A6905929A690592059A1A6888
:1042680042F480721A605A69D0073FF523AE002DD8
:104278003FF411AFFFF760F9801B8542FFF40BAFE5
:1042880023685A69D707F5D514E60023202223634B
:1042980084F83C3084F83D2060E600BF704700BFDA
:1042A800704700BF704700BF704700BF704700BF2E
:1042B800704700BF704700BF704700BF704700BF1E
:1042C800704700BF90F83D2038B5293A012A0446C6
:1042D800036857D990F83D20602A05D05A6815051B
:1042E8005CBF202280F83D200022226384F83E2013
:1042F8001A6822F400621A605A6812F400621ED02A
:10430800616B5A6891F8210022F4006201285A6012
:104318003ED03A4B08464B6300F076FD50B120255D
:104328002268606B1368416B23F00103136084F803
:104338003D50884794F83D30282B13D038BD94F869
:104348003D10602941D05A69520604D5626A1B693A
:10435800511C616213702046FFF7B0FF94F83D309E
:10436800282BEBD1236C5B07E8D5002320222449B6
:104378002046E162236384F83D2084F83E30FFF74D
:1043880097FF38BD00212822016380F83D20AFE760
:10439800A36B1A4A18465A6300F036FD0028C9D0A4
:1043A80023685A69500605D5626A1B69511C616207
:1043B8001370236820211A68A06B22F001021A608A
:1043C800436B84F83D109847B4E7202184F83D10EA
:1043D80022645A69510605D5626A1B69511C6162DB
:1043E800137023681A68204622F001021A60FFF74A
:1043F80067FF94F83D30282BA0D1B3E7314D000872
:104408000000FFFF03460268F0B5966950695468DA
:1044180093F83E108DB0C9B210293DD040293BD049
:1044280095490140002900F0BF80A70500F1778178
:104438009249934D31400540002900F02B81914964
:104448000140002900F07981660540F17681002D50
:1044580040F0768193F83D00598DC0B289B2C9B158
:10446800596A4C1C5C6209781161598D013989B20D
:104478005985598D89B269B929280BD12125282454
:104488005168184621F4806151601D6383F83D40EE
:10449800FFF708FF0DB0F0BD10F0011F3AD0A105DD
:1044A80000F127817849014000293CD07349744DB7
:1044B80031400540002953D07249014000294BD0B2
:1044C800660549D5002D00F06281A405E2D5D86AB9
:1044D80093F83D102129DDD1598D89B2002940F08A
:1044E8003781042800F05882082800F0558210F51A
:1044F800803F00F051825068112520F4E0602024AC
:10450800506018461D6383F83E1083F83D40FFF75E
:10451800C5FEBFE75C49014029B1A705C6D5596C5E
:10452800C9B21161C2E7544901400029BED0A505AE
:10453800BCD593F83E10DF6AD3F830C093F83D50ED
:10454800C9B2222D00F08F8100210A9151690A9188
:1045580091690A910A99A9E7002DB6D10DB0F0BD6D
:104568004A490140E1B160051AD5002D00F03C81AF
:10457800A1058FD5DC6A598D586A89B2032900F1E3
:10458800010500F0BF81598D89B2022900F0D08160
:1045980012695D6202705A8D013A92B25A8579E7C2
:1045A800002DE5D10DB0F0BD394D0540002D3FF48B
:1045B8003FAFA5057FF53CAF93F83D405068E4B2A6
:1045C80020F4E06050600B9151690B91116841F043
:1045D800010111600B99116821F480611160516823
:1045E80008050ED593F83D10222900F07F8193F835
:1045F8003D102A2900F07A81596B0968496889B207
:104608005985598D89B2E1B15169490709D5596A66
:104618001269481C58620A70598D1A68013989B2A2
:10462800598551694F0608D5596A1269481C58625C
:104638000A705A8D013A92B25A851A6C42F00402F5
:104648001A641A6C002A40F02C81A4F1280102296E
:1046580040F234811A6B222A02D0222C7FF41AAF3E
:10466800002220211A63184683F83D1083F83E2063
:10467800FFF71AFE0EE700BF020001000400100059
:104688000400010080000100080001004000010052
:1046980010000100A4490140002963D0600561D5DC
:1046A800002D62D193F83D00598DC0B289B200291E
:1046B8003FF4F0AE596A12694C1C5C620A705A8D5C
:1046C800013A92B25A855A8D92B2002A7FF4E2AE2C
:1046D8002A287FF4DFAE22252824196818464A685C
:1046E80022F480624A601D6383F83D40FFF7DCFDD9
:1046F800D0E693F83E10402900F0D9801969B1F549
:10470800804F00F0A480196D002940F0E380596CB7
:10471800C91101F0060141F0F0011161C6E6916985
:10472800926981F004011606C1F3800154BF9A8989
:104738001A8B1846FFF7BAFDACE6002D3FF4AAAE77
:10474800A4057FF5A7AE598D89B200293FF4A2AE22
:10475800596A481C5862097811615A8D013A92B217
:104768005A8597E6002D3FF495AEA1057FF592AEE8
:10477800598D89B200293FF48DAE596A1269481CD7
:1047880058620A705A8D013A92B25A8582E693F8B5
:104798003D101C8D93F83E00C9B2C0B2DD6A002CF2
:1047A80040F0BD80212900F0448140287FF472AE9A
:1047B80022297FF46FAE598D89B2002900F0348127
:1047C80093F83E104029C3D1196D002940F0B681F5
:1047D800D96C0129996C00F0DB81C1F307211161C3
:1047E8001A6D01321A6555E693F83D1022297FF4B7
:1047F80051AE598D89B20329BFD80239012940F237
:10480800078100202025D96A5C6A0229116814BF33
:1048180021F4806141F480611160516821F4E06104
:1048280051601269611C596222705A8D013A92B224
:104838005A8583F83D50186393F83E2083F83E006C
:10484800402A184600F0A580FFF72AFD22E693F8D3
:104858003D102129596C16BF41F0010101F0FE01FC
:10486800C9B2116122E61D6D15B9402900F0F78023
:104878001D6D25B91969B1F5404F00F0F780598DC4
:1048880089B2002940F0A080029151690291916992
:1048980002910299116841F40071116000211965B3
:1048A80004E618460DB0BDE8F040FFF70BBD196DE2
:1048B80011BB596C01F0FE011161F7E520211B4C79
:1048C8001846DC621A6383F83D1083F83E20FFF730
:1048D800EFFCDFE5196D01297FF4E8AD596CC911CA
:1048E80001F0060141F0F1011161DFE5996B0968FA
:1048F800496889B2598584E6596C41F00101C9B209
:104908001161D3E5042C05D0082C03D014F5803FA1
:104918007FF43EAE116821F48061116038E62129E8
:104928003FF449AF41E700BF400001000000FFFF2E
:10493800042C64D0082C62D014F5803F5FD0116835
:10494800022C14BF21F4806141F480611160516828
:1049580021F4407151600021202412695D620270C7
:104968005A8D1868013A92B25A855A6A0069551CDC
:104978005D6210705A8D1846013A92B25A8583F8D2
:104988003D40196393F83E2083F83E10402A7FF497
:104998005BAFFFF791FC7DE500202024516821F4EE
:1049A800E0615160116841F400711160186383F887
:1049B8003D4093F83E2083F83E00402A18467FF495
:1049C800A6ADFFF777FC65E5598D89B201295BD063
:1049D800598D89B2022972D0116841F48061116041
:1049E80051680F0503D5516841F480515160002189
:1049F8000991516909919169099109994EE751689D
:104A080021F440715160116841F400711160A2E70E
:104A1800DB6A022B136800F0A28023F48063136022
:104A2800136843F400631360536823F4806353608E
:104A380030E5042DB0D0082DAED015F5803FABD0B1
:104A4800112620255168184621F4E06151601E6343
:104A580083F83E4083F83D50FFF720FC1AE50095A7
:104A6800516900919169009100991FE5019551697B
:104A78000191916901910199116841F48071116066
:104A8800196D0131196511E517F5803F42D0042FE2
:104A980030D0082F2ED0BCF1120F2BD0D96A0229A2
:104AA800116814BF21F4806141F480611160002114
:104AB800059151690591916905910599EEE6D96AC3
:104AC8000025022911684ED041F400611160079554
:104AD80051690791916907910799116821F48061DB
:104AE8001160516809057FF5D9AE516841F48051CC
:104AF8005160D3E60025116821F4806111600695A4
:104B080051690691916906910699116841F40071FD
:104B18001160C3E6116821F480611160516811F4D5
:104B280000612AD00025116821F480611160039585
:104B380051690391916903910399AFE6196D0129B0
:104B48002CD0196D02297FF4A5AC93F83D102229C9
:104B58002BD093F83D1021297FF49CACF8E543F461
:104B68008063136060E741F48061116008955169C2
:104B78000891916908910899B3E7049151690491E2
:104B8800916904910499116841F40071116085E6F6
:104B9800C9B211611A6D02321A657BE4996CC9B207
:104BA80011611A6D01321A6574E4136843F4807355
:104BB80013606FE40268F8B55369044658485168B1
:104BC800034203F4813020D0CD051ED56FF48076E2
:104BD800256C45F0010525645661156845F40045C6
:104BE8001560002848D06FF40075206C13F4823FDC
:104BF80040F002002064556103F484351CD10DB1E6
:104C0800CB0531D4236C5BB9F8BD70B1C805EAD4C3
:104C180013F4823F03F48435F1D0236C002BF3D0D6
:104C28002046BDE8F840FFF74DBB13F4823F03F47C
:104C38008435E4D0C905E5D594F83E00638D94F831
:104C48003D1020289BB2C9B2266B1BD0236C43F0C1
:104C58000403236494F83E30102B40D06FF4806333
:104C68005361002DCED022686FF40061236C43F0AD
:104C7800080323645161C5E713F4823F03F48435C4
:104C8800BDD0D9E7002BE1D101F0F703212B03D0E8
:104C98002829DBD1212ED9D194F83D30E16ADBB245
:104CA800042921D008291FD0212BD7D10020202664
:104CB8006FF480611B4FE762236384F83D6084F8DA
:104CC8003E005368204623F4E06353605161136843
:104CD8000B401360FFF7E6FA002D93D0C3E7136883
:104CE80043F400731360B9E7282BDDD16FF48060BB
:104CF800002120260B4BE362536823F4E0635360E2
:104D080050611368034013602046216384F83D60B6
:104D180084F83E10FFF7CCFA002D3FF473AFA2E7FA
:104D2800000101000000FFFF38B50023406A026857
:104D3800456B1168846B21F480611160438590F89C
:104D48003D106B6360294FF02001636380F83D10CC
:104D580080F83E3006D0136823F001031360FFF794
:104D6800ADFA38BD0364136823F001031360FFF73D
:104D7800A7FA38BD002838D003461D4A0068F0B4A9
:104D8800904229D91B491C4A0144A2FB01211B4F0F
:104D9800090989004FF48075D3E9012600243243BC
:104DA800DE6819643243D3E9046132439E690A43D9
:104DB80001683243DE6921F47F51324321F030012A
:104DC8000A43DF6302601D842046C3E90A44C3E93D
:104DD8000C449C63F0BC70470949074A0144A2FB94
:104DE800012109098900074FD4E70120704700BF56
:104DF80007040240F8FBFDBFCDCCCCCC0004024038
:104E0800F8FFFDBF0000024008B590F82130022BE2
:104E180004D0042201238263184608BD036844496C
:104E28001A688B4222F00E021A601A6822F00102F8
:104E38001A60404A24D9934254D0143293425DD028
:104E4800143293425CD01432934252D014329342BB
:104E58005FD01432934262D08B4266D002F56772FB
:104E680093423FD01432934248D01432934247D0F1
:104E78001432934214BF4FF480334FF4805332E01E
:104E8800934222D01432934236D0143293423AD00D
:104E9800143293422AD01432934237D014329342B8
:104EA8003AD08B423ED002F5677293420DD014324D
:104EB800934221D01432934225D01432934214BF26
:104EC8004FF480334FF4805300E001231A4A5360B3
:104ED8004FF48072436B0284002B9DD098470023C7
:104EE800184608BD0123154A5360F1E74FF4805373
:104EF800ECE74FF48053F6E71023E7E71023F2E7D7
:104F08004FF48073EFE74FF48073DFE74FF480339B
:104F1800DCE74FF48033E6E74FF48013D6E74FF42D
:104F28008013E0E74FF08073D0E74FF08073DAE743
:104F380080000240080002400000024000040240D5
:104F4800042270B4D0E90F61346803688A402242B1
:104F58001D6842D06A0740D51A68910603D41A68BA
:104F680022F004021A609B4A9B49934240F29080C7
:104F78008B4200F0EE8014318B4200F0F280143145
:104F88008B4200F0E18014318B4200F0F58014313F
:104F98008B4200F0FD8014318B4200F00281934275
:104FA80000F00B8102F56272934200F0D280143255
:104FB800934200F0D6801432934200F0C580143238
:104FC800934214BF4FF480234FF48043834A5360C5
:104FD800C36A002B5AD170BC704702228A40224211
:104FE8003FD0AA073DD51A68910606D401211A6850
:104FF80022F00A021A6080F82110764A7649934214
:105008006DD98B4200F0A78014318B4200F0978055
:1050180014318B4200F0A78014318B4200F0AF802E
:1050280014318B4200F0BA8014318B4200F0C280F8
:10503800934200F0CB8002F56272934200F08B80BD
:10504800143293427BD01432934200F08C80143295
:10505800934214BF4FF400324FF400525F4B5A6032
:1050680062E008228A402242B5D02A07B3D501243B
:105078004FF480751A6804FA01F122F00E021A60E2
:10508800036B716084630584002BA4D070BC18473F
:105098008B425CD014318B4261D014318B4250D09A
:1050A80014318B4265D014318B426ED014318B424F
:1050B8007AD0934200F08480494A934247D0143210
:1050C80093424CD0143293423BD01432934214BFD3
:1050D8004FF480234FF48043424A536078E78B4271
:1050E8003BD014318B4228D014318B423ED014313E
:1050F8008B4247D014318B424DD014318B4256D05D
:10510800934260D0364A934227D01432934214D047
:10511800143293422AD01432934214BF4FF400320F
:105128004FF400522F4B5A600022836A80F82020E7
:10513800002B3FF450AF70BC18472022F2E7202222
:105148008CE74FF48063C7E74FF480633EE704239E
:10515800C2E704233AE7022280E70222E2E740237B
:10516800BAE7402332E74FF4007277E74FF4007252
:10517800D8E74FF48043AFE74FF4804326E74FF476
:1051880000526BE74FF40052CCE74FF48023A3E7BB
:105198004FF480231AE74FF40032C3E74FF400328C
:1051A8005CE74FF4800311E74FF4800394E74FF472
:1051B8000012B7E74FF4001250E74FF0806305E79D
:1051C8004FF0806388E74FF00072ABE74FF0007252
:1051D80044E700BF8000024008000240000402408B
:1051E8000804024000000240012238B5846990F9A1
:1051F80014302568AA4052B2CD074CBF13439343DD
:10520800DAB2027501226568AA408D074CBF1343C4
:1052180093435BB2DAB202750122A568AA404D0732
:105228004CBF1343934311F0080F4FF001015BB2D9
:10523800DAB20275E2680A4C01FA02F114BF0B43B4
:105248008B43D9B2237801750BB1012038BD2030CA
:1052580000F0E8FC0028F9D00120207038BD00BF1C
:10526800E40000202DE9F0414FF00108044682696E
:10527800037D9069864D08FA00F023EA00035BB2CB
:1052880095F800C0D8B282B00F46207504F1200608
:10529800BCF1000F54D0116908FA01F823EA080399
:1052A8005BB223750121506981400B435BB22375C2
:1052B8000121926901FA02F2134323754FF00108A4
:1052C8003946304600F0C6FCA3693A78DB6808FA2C
:1052D80003F313403B70A269D26813413B70A06985
:1052E800237D82692F7808FA02F223EA02035BB26F
:1052F800D9B22175002F7CD0826908FA02F843EAF6
:105308000803237501270DF10701304600F0A2FCC0
:10531800A069237D826995F800C007FA02F223EAA2
:1053280002035BB2D9B22175BCF1000F47D04269C4
:10533800974023EA07032375002002B0BDE8F081F7
:105348000146304600F06EFCA269002840F09580C6
:105358001169237D08FA01F123EA01035BB2287879
:10536800D9B2217500289DD1304600F05BFCA269B6
:10537800002878D1516994F814C008FA01F343EA77
:105388000C035BB22878D9B22175002890D1304639
:1053980000F048FCA36900285AD19969227D08FACF
:1053A80001F111432B78C9B22175002B86D1304603
:1053B80000F038FC002881D085F800807EE7304670
:1053C80000F030FCA369002837D15B69217D07FA1A
:1053D80003F32A7821EA03012175002AACD130466B
:1053E80000F020FC0028A7D000202F7002B0BDE8F4
:1053F800F081304600F016FCA36998B99969227DBE
:1054080008FA01F111432B78C9B22175002B7FF4FA
:1054180079AF304600F006FC00283FF473AF85F8FA
:1054280000806FE79B69227D85F8008008FA03F801
:1054380048EA020884F8148064E700205B69227D4A
:105448002F709F4022EA0707277502B0BDE8F08158
:105458009B69227D85F8008008FA03F848EA02086B
:1054680084F814802AE75369217D08FA03F30B4373
:105478005BB285F8008023751AE71169237D85F8EA
:10548800008008FA01F823EA08035BB2237509E7EC
:10549800E40000202DE9F041044601278069237DBE
:1054A8008269614D07FA02F223EA02035BB295F8BA
:1054B80000C0DAB282B00E462275BCF1000F50D09F
:1054C8000269974023EA070323750127310920461B
:1054D800FFF78AFEA069217D83692A7807FA03F31A
:1054E8000B435BB2D9B22175002A6DD0826997400F
:1054F80023EA07032375012731462046FFF774FE88
:10550800A069217D82692E7807FA02F30B435BB20A
:10551800D9B22175002E3ED08269974023EA07034D
:1055280023750DF107012046FFF79CFEFEF704F8EE
:105538009DF807300546012B09D00EE00DF1070153
:105548002046FFF78FFE9DF80730012B05D1FDF7A8
:10555800F3FF636A401B9842F0D3002002B0BDE815
:10556800F08104F120081146404600F05BFBA36976
:10557800002851D11B69217D07FA03F32A7821EA13
:1055880003012175002AA0D1404600F04BFB0028FA
:105598009BD02F7099E704F12006304600F042FBBB
:1055A800A369002830D19B69217D07FA03F32A7883
:1055B80021EA03012175002AB3D1304600F032FBFD
:1055C8000028AED02F70ACE704F12008404600F068
:1055D80029FBA36980B99B69217D07FA03F32A781F
:1055E80021EA03012175002A85D1404600F01AFB03
:1055F800002880D02F707EE79B69227D2F709F4006
:1056080022EA0707277576E79B69227D2F709F405E
:1056180022EA0707277584E71B69227D2F709F40C0
:1056280022EA0707277550E7E40000202DE9F84330
:1056380000224FF00108037F428080F801801BB1EF
:1056480001263046BDE8F883AB4B00F120078361A3
:105658000446384600F0DEFA06460028F0D132202B
:10566800FDF770FFA269237D1169A44D08FA01F1C5
:1056780023EA01035BB22878D9B22175002800F02B
:10568800B380516908FA01F823EA08035BB223756D
:105698000121926901FA02F223EA020323754FF00D
:1056A800010803212046FFF79FFDA369227D996920
:1056B8002B7808FA01F11143C9B22175002B00F0CB
:1056C800FC804FF001084046FDF73CFFA369217DAF
:1056D8009B692A7808FA03F321EA03012175002A55
:1056E80000F0E2804FF001080520FDF72BFF0321B1
:1056F8002046FFF779FDA369227D99692B7808FA7E
:1057080001F11143C9B22175002B00F0C4804FF09C
:1057180001084046FDF716FFA369217D9B692A7899
:1057280008FA03F321EA03012175002A00F0AA8090
:105738004FF001084046FDF705FF03212046FFF71B
:1057480053FDA369227D99692B7808FA01F1114369
:10575800C9B22175002B00F08C804FF0010840463B
:10576800FDF7F0FEA369217D9B692A7808FA03F307
:1057780021EA03012175002A73D04FF00108404641
:10578800FDF7E0FE02212046FFF72EFDA369227DEA
:1057980099692B7808FA01F11143C9B22175002BD8
:1057A80057D04FF001084046FDF7CCFEA369217D94
:1057B8009B692A7808FA03F321EA03012175002A74
:1057C8003FD00120FDF7BEFE2B78002B00F098801B
:1057D800012363700123A169227DC96930468B408A
:1057E80013432375BDE8F883384600F01BFAA26915
:1057F800002876D15169237D08FA01F123EA0103D3
:105808005BB22878D9B2217500287FF441AF3846B9
:1058180000F008FAA369002858D19B69217D08FA8D
:1058280003F32A7821EA03012175002A7FF437AFB0
:10583800384600F0F7F900283FF431AF85F80080CA
:105848002DE7384600F0EEF90028BAD085F8008038
:10585800B7E7384600F0E6F90028A2D085F80080BE
:105868009FE7384600F0DEF9002886D085F80080EA
:1058780083E7384600F0D6F900283FF46EAF85F884
:1058880000806AE7384600F0CDF900283FF450AFB1
:1058980085F800804CE7384600F0C4F900283FF44A
:1058A80036AF85F8008032E7384600F0BBF90028AB
:1058B8003FF418AF85F8008014E7384600F0B2F9D5
:1058C80000283FF4FEAE85F80080FAE69A69237D49
:1058D80085F8008008FA02F823EA080884F814809A
:1058E800DDE65169237D85F8008008FA01F823EA8E
:1058F80008035BB22375CBE668000020E4000020B3
:1059080021782046C900C9B241F02001FFF7C2FD45
:10591800A178E278490041F008012B78C9B2114317
:10592800002B7FF455AF2046FFF7B4FD2B78002BF2
:105938007FF44EAF01212046FFF7ACFD2B78002BFA
:105948007FF446AF4FF0010806212046FFF7A2FD7D
:105958002B7884F80180002B7FF43CAFA378E178A2
:1059680003FA08F343F00C03DBB219432046FFF7B0
:1059780091FDA269237DD16995F8009008FA01F19B
:105988001943C9B22175B9F1000F7FF45AAE3846F0
:1059980000F048F900283FF454AE85F800804E46E0
:1059A8004FE600BF2DE9F041044601278069237DB9
:1059B8008269604D07FA02F223EA02035BB295F8A6
:1059C80000C0DAB282B00E462275BCF1000F4FD08B
:1059D800026997403B432375012731092046FFF7A9
:1059E80003FCA069217D83692A7807FA03F30B4336
:1059F8005BB2D9B22175002A6DD08269974023EA3B
:105A080007032375012731462046FFF7EDFBA06900
:105A1800217D82692E7807FA02F30B435BB2D9B273
:105A28002175002E3ED08269974023EA070323752B
:105A38000DF107012046FFF715FCFDF77DFD9DF8E8
:105A480007300546012B09D00EE00DF1070120466D
:105A5800FFF708FC9DF80730012B05D1FDF76CFD19
:105A6800636A401B9842F0D3002002B0BDE8F08181
:105A780004F120081146404600F0D4F8A369002834
:105A880051D11969227D07FA01F111432B78C9B266
:105A98002175002BA0D1404600F0C4F800289BD007
:105AA8002F7099E704F12006304600F0BBF8A3698F
:105AB800002830D19B69217D07FA03F32A7821EA6F
:105AC80003012175002AB3D1304600F0ABF8002855
