:020000040800F2
:1000000000C000205D620008056200080962000867
:100010000D6200081162000815620008000000006F
:10002000000000000000000000000000196200084D
:100030001D6200080000000021620008256200081F
:10004000A5620008A5620008A5620008A562000874
:10005000A5620008A5620008A5620008A562000864
:10006000A5620008A5620008A56200086961000891
:10007000A5620008A5620008A5620008A562000844
:100080003162000841620008A5620008A56200080C
:10009000A5620008A5620008A5620008A562000824
:1000A000A5620008A5620008A5620008A562000814
:1000B000A5620008A5620008A5620008A562000804
:1000C000A5620008A5620008A5620008A5620008F4
:1000D000A5620008A5620008A5620008A5620008E4
:1000E000A5620008A5620008A5620008A5620008D4
:1000F000A5620008A5620008A5620008A5620008C4
:10010000A5620008A5620008A5620008A5620008B3
:10011000A5620008A5620008A5620008A5620008A3
:10012000A5620008A5620008A5620008A562000893
:1001300000000000000000000000000000000000BF
:1001400000000000000000000000000000000000AF
:10015000000000000000000000000000000000009F
:10016000000000000000000000000000000000008F
:10017000000000000000000000000000000000007F
:10018000000000000000000000000000000000006F
:10019000000000000000000000000000000000005F
:1001A000000000000000000000000000000000004F
:1001B000000000000000000000000000000000003F
:1001C000000000000000000000000000000000002F
:1001D000000000000000000000000000000000001F
:0401E0005FF8E0F1F3
:1001E800044B05481B1A062B02D9044B03B11847C8
:1001F800704700BF9B00002098000020000000000E
:1002080005490648091A891001EBD171491002D035
:10021800034B03B11847704798000020980000204E
:100228000000000010B5064C237843B9FFF7D8FF4B
:10023800044B13B10448AFF300800123237010BDB1
:100248009800002000000000A862000808B5084BCC
:100258001BB108490848AFF300800848036813B980
:10026800BDE80840CCE7064B002BF9D09847F7E7E4
:10027800000000009C000020A862000898000020F0
:10028800000000000028B8BF4042704770B50F4E0C
:100298000F4D761BB61018BF002405D0013455F851
:1002A800043B9847A642F9D10A4E0B4D05F0F8FFDA
:1002B800761BB61018BF002406D0013455F8043B4D
:1002C8009847A642F9D170BD70BD00BF10650008FF
:1002D80010650008146500081065000830B5154A57
:1002E80021F00043934287B01BDD134A934205DD9A
:1002F80002460B4602F0C2F907B030BD02AA00F070
:1003080077FFDDE90245DDE90423400000F0020043
:10031800C0F1010000902946204601F03DFE07B0DB
:1003280030BD012300930022002301F035FE07B001
:1003380030BD00BFFB21E93FFFFFEF7F2DE9F04F04
:100348008DB006460F4614461D4600F0EDF9DFF85D
:100358001093CDE9000199F90080B8F1FF3F46D02C
:1003680022462B462046294602F0D6FD8346002821
:100378003DD132463B463046394602F0CDFD8246F5
:10038800002874D1304639460022002302F092FD3D
:10039800002833D0002200232046294602F08AFD97
:1003A8008346B8B1A94A012300200021CDF828A02E
:1003B800CDE90467CDE90645CDE90801039202932A
:1003C800B8F1000F6CD0A24B0022104619460DB0B0
:1003D800BDE8F08F2046294601F0AAFF38B1002277
:1003E80000232046294602F06FFD00286AD1DDE986
:1003F8000023104619460DB0BDE8F08FDDE9000175
:1004080001F096FF804600287DD0DDE900014FF01D
:10041800000A4FF0000B52465B4602F04BFD0028E5
:10042800E5D03046394601F083FF0028DFD020466A
:10043800294601F07DFF0028D9D099F9003083487A
:1004480004210022022BCDE90467CDE90645CDE958
:1004580008AB039002910A9204D002A801F0F8FFB9
:10046800002847D103F0BAF82223036042E00022B3
:1004780000232046294602F01DFD0028B7D0744B02
:10048800724800220121B8F1020FCDF828B0CDE959
:100498000467CDE90645CDE9082303900291A8D069
:1004A80002A801F0D5FF00287ED00A9B43B303F0D1
:1004B80095F8DDE908230A990160104619460DB040
:1004C800BDE8F08F614999F900300122CDF828B0D4
:1004D800CDE90467CDE9064503910292002B68D067
:1004E8005C490020022BCDE9080166D103F076F8BB
:1004F800212303600A9B1BB103F070F80A9B036079
:10050800DDE9082375E73046394601F011FF002878
:100518003FF47BAF2046294601F00AFF00283FF44C
:1005280074AFDDE900231046194602F0F5FC0028F7
:100538006FD1464B99F90080039303230A90CDE9C4
:100548000467CDE906450293B8F1000F3BD1DFF807
:1005580014B14FF0604A0022002330463946CDE9F5
:1005680008AB02F0B1FC00283FF477AF00223A4B09
:100578002046294602F036FA04460D4601F070FF7F
:1005880002460B462046294602F094FC00283DD13D
:10059800324B4FF06042CDE9082399F90080B8F159
:1005A800020F7FF45AAF5DE703F018F821230360C8
:1005B8007BE700230024CDE9083402A801F048FFB6
:1005C800002897D192E7DFF8A0B04FF0000A002288
:1005D800002330463946CDE908AB02F075FC002807
:1005E800DDD000221C4B2046294602F0FBF90446C8
:1005F8000D4601F035FF02460B462046294602F01B
:1006080059FC18B9134B0022CDE9082399F9008049
:10061800C5E70E4A99F900900123CDF82880CDE965
:100628000467CDE9064503920293B9F1000FC0D0E3
:10063800002200231046194602F0FEFAB9F1020F13
:10064800CDE908013FF452AFB7E700BF04650008E1
:100658000000F03F0000F0FF0000E03FFFFFEFC7A1
:1006680064000020FFFFEF470000F07F2DE9F04F06
:100678008BB004460D4600F0D1FF284B064693F98F
:1006880000A00F46BAF1FF3F12D022462B46204663
:10069800294602F041FC834650B94FF000084FF05C
:1006A80000092046294642464B4602F00DFC20B977
:1006B800304639460BB0BDE8F08F194A0123CDF812
:1006C80020B0CDE90445CDE9024501920093BAF185
:1006D800000F15D042464B464046494602F0ACFA58
:1006E800BAF1020FCDE906010CD102F077FF212300
:1006F8000360089B63B9DDE906010BB0BDE8F08F24
:10070800CDE90689684601F0A3FE0028F1D1ECE79F
:1007180002F064FF089B0360EDE700BF640000205F
:1007280008650008000000002DE9F04F23F000489C
:1007380058EA020993B03CD0714C21F00046A64219
:1007480083460D460CDD06F1404606F5801656EA4E
:100758000B0038D183466B49584613B0BDE8F08F7B
:100768009A4696462BD0A045EDDC654CA04578D03E
:10077800002D0F468146CDE9002376DB0024BEF12B
:10078800000F27D15E4B984500F08B805D4B984554
:1007980052D0BAF1804F00F0C9835B4B9A4519D10A
:1007A800002D17DB4846394613B0BDE8F04F00F07E
:1007B80035BFCB465846534913B0BDE8F08F0028E3
:1007C800C1D1B045D1DD514813B0BDE8F04F01F0BB
:1007D80041BE00244846394601F0A6FDBBF1000F92
:1007E8001CD0ED0F013D54EA050370D0484B9845E5
:1007F80040F3948003F10473984540F30D84454B0E
:100808009E4270DDBAF1000F70DD3BA3D3E90023EF
:100818001046194602F0E6F883469DE726B1394BA3
:1008280025F040429A42DCD1BAF1000FC0F2B783FA
:10083800002D08DB83468FE7BAF1000FC0F25E8413
:10084800CB46394688E706F1404606F5801656EA53
:10085800040300F08384012CECD101F100418346AC
:100868007AE7BEF1000F83D06DE72B4B98452CDC5F
:10087800A3F15473984581DD4FEA2853A3F2FF335F
:10088800142B40F35384C3F134032EFA03F202FA13
:1008980003F39E457FF472AF02F00102C2F1020435
:1008A8006DE706F1404303F5801353EA0B0300F0AC
:1008B8003A83184B9E4240F36783BAF1000F15DB69
:1008C800DDE900349B46214646E7022457E74A46BD
:1008D80048463B46394601F0D1FE02460B4602F037
:1008E800ABF9834638E7BAF1000F8EDB4FF0000B07
:1008F800594631E7AFF300809C7500883CE4377EA9
:100908000000F07F0000F03F0000E03F0C650008A9
:100918000000E041FFFFEF3FFFFF3F43B6F5801FB8
:100928004FF0000205DAD04B02F05CF80E466FF08B
:100938003402DFF844E33315C6F31306A3F2FF339A
:1009480046F07F57764503EB020A47F4401740F319
:10095800C983C64B00229E4240F304840023CDE99C
:100968000823CDE90C23C24B0022CDE906230AF166
:10097800010AA7F5801700263946DDE90623CDE9E7
:100988000A0101F07BFEDDE9062380468946DDE9A0
:100998000A0101F075FE02460B460020B44902F038
:1009A8004BF90A4601461346CDE90E12024649465E
:1009B800404602F017F88C4683467B1043F00053FC
:1009C80003F5002399190020CDE904BC06460F461B
:1009D8004FF0000B6146584632463B46CDE910BC05
:1009E800CDE9020101F0FEFF02460B4640464946AA
:1009F80001F044FEDDE90623804689463046394643
:100A080001F03CFE02460B46DDE90A0101F036FE24
:100A1800DDE9022301F0E6FF02460B46404649465F
:100A280001F02CFEDDE90E2301F0DCFFDDE904789E
:100A3800CDE906013A4643463846414601F0D2FF21
:100A480077A3D3E9002306460F4601F0CBFF76A330
:100A5800D3E9002301F014FE32463B4601F0C2FF01
:100A680073A3D3E9002301F00BFE32463B4601F0A5
:100A7800B9FF71A3D3E9002301F002FE32463B46D9
:100A880001F0B0FF6EA3D3E9002301F0F9FD32466F
:100A98003B4601F0A7FF6CA3D3E9002301F0F0FD6A
:100AA8003246804689463B463046394601F09AFF31
:100AB80002460B464046494601F094FFDDE9022311
:100AC80006460F46DDE9040101F0DAFDDDE90623FB
:100AD80001F088FF32463B4601F0D2FDDDE90267AE
:100AE8008046894632463B463046394601F07AFF11
:100AF8000022604BCDE90A0101F0C2FD42464B4697
:100B080001F0BEFDDDE910BC0F46DDE902015A46E1
:100B18003B46CDE90EBC5E4601F064FF0022CDE9FC
:100B28000201544B3046394601F0A8FDDDE90A239D
:100B380001F0A4FD02460B464046494601F09EFDE1
:100B4800DDE9042301F04EFF324680468946DDE99F
:100B580006013B4601F046FF02460B464046494621
:100B680001F08EFD8046894602460B46DDE902010A
:100B780001F086FDDDE90EBC35A3D3E90023584614
:100B8800CDE906BC5E460F4601F02CFFDDE90223E5
:100B9800CDE904013046394601F070FD02460B46A6
:100BA8004046494601F06AFD2BA3D3E9002301F032
:100BB80019FF2BA3D3E900238046894630463946DE
:100BC80001F010FF02460B464046494601F058FD29
:100BD800DDE90C2301F054FD80465046894601F0BA
:100BE8009BFE06460F46DDE9040142464B4601F0EE
:100BF80047FDDDE9082301F043FD32463B4601F09D
:100C08003FFDDDE906BC324658463B46DA468B4690
:100C180001F034FDDDE9082330E000BFAFF30080C8
:100C2800EF4E454A287ECA3F65DBC9934A86CD3FC9
:100C380001411DA96074D13F4D268F515555D53FAF
:100C4800FFAB6FDBB66DDB3F033333333333E33F47
:100C5800000000E009C7EE3FFD033ADC09C7EE3F9C
:100C6800F5015B14E02F3EBE0000404379B60B004F
:100C78000000F03F000008408E98030001F0FEFCE1
:100C8800DDE9042301F0FAFC02460B4640464946DA
:100C980001F0F4FC80468946DDE90012013C54EA83
:100CA800050314BFD64CD74C0023CDE904340B46BA
:100CB8001446CDE9023400230293DDE902450846D3
:100CC8002B461146224601F0D9FC52465B4601F0FC
:100CD80089FEDDE9002306460F464046494601F0F5
:100CE80081FE02460B463046394601F0C9FC0646ED
:100CF8000F4622462B4650465946CDE9006701F07B
:100D080071FE0B460246804689463046394601F058
:100D1800B7FCBD4B064699420D460C4640F30E8182
:100D280001F13F4303F5E003034340F0F081A0A342
:100D3800D3E90023DDE9000101F0A2FC4246824626
:100D48008B464B463046294601F098FC02460B4636
:100D58005046594602F0D6F8002840F0D8812F4670
:100D68003B154FF48012A3F2FE3342FA03F32344F7
:100D7800C3F30A52A54EA2F2FF321641C3F3130B76
:100D88000020C2F1140523EA06014BF4801B024639
:100D98000B46002C4BFA05FB40464946B8BFCBF141
:100DA800000B01F06BFC02460B4680468946DDE9E4
:100DB800000101F065FC4FEA0B5A00247EA3D3E939
:100DC800002320460D4601F00DFE424606460F461A
:100DD8004B462046294601F051FC02460B46DDE908
:100DE800000101F04BFC76A3D3E9002301F0FAFDE2
:100DF80075A3D3E90023804689462046294601F099
:100E0800F1FD02460B464046494601F039FC804652
:100E1800894602460B463046394601F031FC3246D7
:100E28003B4604460D4601F029FC02460B46404667
:100E3800494601F023FC2246804689462B46204637
:100E4800294601F0CFFD62A3D3E9002306460F46E9
:100E580001F0C8FD60A3D3E9002301F00FFC32467E
:100E68003B4601F0BFFD5EA3D3E9002301F008FC77
:100E780032463B4601F0B6FD5BA3D3E9002301F0FF
:100E8800FDFB32463B4601F0ADFD59A3D3E90023F3
:100E980001F0F6FB32463B4601F0A4FD02460B4644
:100EA8002046294601F0EAFB06460F4602460B4655
:100EB8002046294601F096FD0022CDE900014FF0B9
:100EC80080433046394601F0D9FB02460B46DDE93E
:100ED800000101F0B1FE424606460F464B46204649
:100EE800294601F07FFD42464B4601F0C9FB024608
:100EF8000B463046394601F0C1FB22462B4601F02D
:100F0800BDFB02460B4600203D4901F0B7FB8A4471
:100F1800BAF5801FC0F237815146DDE9042301F09C
:100F280061FD834618E4F346354915E44A464846C8
:100F38003B46394601F056FD83460DE4344B21F01B
:100F480000479F4240F30181324B0B4403430CD1CD
:100F580042464B4601F092FB02460B46DDE9000192
:100F680001F0BCFF00283FF4FBAE23A3D3E9002324
:100F7800DDE9040101F036FD1FA3D3E9002301F0E8
:100F880031FD8346FFF7E8BBBAF1000FBFF6AEAC00
:100F9800DDE900349B4604F10041FFF7DDBB024662
:100FA8000B460020164901F047FE41E4AFF30080EC
:100FB800FE822B654715973C00000000432EE63F54
:100FC800EF39FAFE422EE63F396CA80C615C20BE70
:100FD800D0A4BE726937663EF16BD2C541BDBB3E37
:100FE8002CDE25AF6A56113F93BDBE166CC1663F15
:100FF8003E5555555555C53F59F3F8C21F6EA501C5
:101008000000F03F0000F0BFFFFF8F40FFFF0F0020
:10101800FFCB904000346F3F6F4B9E427FF763AC2D
:101028006E4B9E423FF7EEAB00226C4B01F026FB65
:101038005BA3D3E9002306460F4601F0D3FC5AA36D
:10104800D3E90023804689463046394601F0CAFC78
:10105800002282468B46624B3046394601F0C2FC7C
:1010680002460B4652A1D1E9000101F007FB3246C6
:101078003B4601F0B7FC02460B460020594901F0F7
:10108800FDFA3246CDE902013B463046394601F0C9
:10109800A9FC02460B46DDE9020101F0A3FC46A3C8
:1010A800D3E9002301F09EFC02460B465046594600
:1010B80001F0E4FA02460B4606460F46404649460A
:1010C80001F0DEFA42464B46002082468B4601F08C
:1010D800D5FA02460B463046394601F0CFFA80462B
:1010E8008946D9E500220023CDE90823CDE90C2360
:1010F8003A4B00220026CDE906233DE44A463B460A
:101108000020364901F098FD8346FFF725BB2CA344
:10111800D3E90023DDE9040101F064FC28A3D3E945
:10112800002301F05FFC8346FFF716BBBEF1000FFA
:101138007FF44FABC3F1140348FA03F202FA03F346
:10114800984524D07446FFF721BB264B9F423FF7B2
:1011580007AEDDE902349A469B462EE602460B4668
:10116800FFF7B9BB204B4FF48026CDE9062316A321
:10117800D3E90023CDE9082315A3D3E90023CDE95A
:101188000C23FFF7F9BB5A4601F0FAF9C5E602F05D
:101198000102C2F10204FFF7F9BA00BFAFF3008001
:1011A800000000604715F73F44DF5DF80BAE543E82
:1011B800555555555555D53FFE822B654715F73F73
:1011C8009C7500883CE4377E0000004003B8E23F8D
:1011D80006D0CF43EBFD4C3EFEFFEF3F0000F03F53
:1011E8000000D03F0000E03F0000F83F0000000092
:1011F8002DE9F04F944C21F00047A7428FB040F3FF
:1012080081801446914A0E46974226DC84A3D3E98E
:101218000023002940F3A08101F030FA8C4B80466E
:101228009F42894600F083807FA3D3E9002301F021
:1012380025FA02460B464046C4E90023494601F018
:101248001DFA79A3D3E9002301F018FA0125C4E9AE
:10125800020128460FB0BDE8F08F7E4A974240F35E
:1012680083807D4A974258DC3D15A5F21645A7EBC9
:1012780005518B46824601F065FE01F04DFB804624
:10128800894642464B4650465946CDE9088901F001
:10129800F5F90022714B01F0A5FB8B46824601F05F
:1012A80051FE01F039FB8046894642464B4650467E
:1012B8005946CDE90A8901F0E1F90022674B01F0AE
:1012C80091FB00220023CDE90C0101F0F3FD002879
:1012D80000F06A81002340464946002201F0EAFDF9
:1012E800002814BF012302235D48022101900091C8
:1012F8002A46214608A800F057FA002EC0F24A8173
:10130800054606E0C2E9000100250024C2E90245BD
:10131800002528460FB0BDE8F08F02460B4601F0C5
:10132800ADF90025C4E90201C4E90001F1E740A3D1
:10133800D3E9002301F0A2F93FA3D3E9002306462D
:101348000F4601F09BF902460B463046C4E90023DC
:10135800394601F093F938A3D3E9002301F08EF957
:101368000125C4E90201D4E700F0DEFF34A3D3E984
:1013780000238046894601F035FB0022394B01F0F5
:101388007FF901F0DFFD054601F0C6FA24A3D3E991
:101398000023CDE9040101F025FB02460B46404637
:1013A800494601F06BF920A3D3E9002382468B4616
:1013B800DDE9040101F016FB1F2DCDE9020155DC22
:1013C800294B6A1E53F822309F424FD002460B46E3
:1013D8005046594601F052F902460B468146884666
:1013E800C4E900234A4643465046594601F046F9A7
:1013F800DDE9022301F042F902460B46002EC4E95A
:10140800022386DA4A4608F1004301F1004184E8E4
:101418000C00E160A0606D427BE700BFAFF3008085
:1014280000004054FB21F93F3163621A61B4D03D9A
:101438000000601A61B4D03D7370032E8A19A33B73
:1014480083C8C96D305FE43FFB21E93F7BD9024087
:10145800FB21F93FFB213941FFFFEF7F000070417D
:10146800546300080000E03FD4620008DDE902236D
:101478005046594601F002F93F15C1F30A53FB1AC9
:10148800102B81468846C4E90001ABDD58A3D3E997
:101498000023DDE9040101F0A5FA804689460246E9
:1014A8000B465046594601F0E9F8CDE906010246D7
:1014B8000B465046594601F0E1F842464B4601F0CA
:1014C800DDF84DA3D3E9002380468946DDE9040110
:1014D80001F088FA42464B4601F0D0F802460B4626
:1014E800CDE90201DDE9060101F0C8F80B46024624
:1014F8008846C1F30A517F1A312F8146C4E9002377
:1015080072DD3FA3D3E90023DDE9040101F06AFAA3
:101518008046894602460B46DDE9060101F0AEF831
:1015280002460B4682468B46DDE9060101F0A6F825
:1015380042464B4601F0A2F833A3D3E90023804684
:101548008946DDE9040101F04DFA42464B4601F0B7
:1015580095F8CDE9020139E701F092F82E4B804663
:101568009F42894622D02AA3D3E9002301F088F8B4
:1015780002460B464046C4E90023494601F07EF87E
:1015880023A3D3E9002301F07BF84FF0FF35C4E92A
:101598000201BEE66268E36802F1004203F100431B
:1015A80045426260E360B4E603239DE610A3D3E9F5
:1015B800002301F065F810A3D3E9002306460F467F
:1015C80001F05EF802460B463046C4E9002339466E
:1015D80001F054F808A3D3E9002301F051F84FF0C3
:1015E800FF35C4E9020194E6DDE906ABFAE600BF7F
:1015F8000000601A61B4D03D7370032E8A19A33BB2
:101608000000002E8A19A33BC14920259A837B3903
:101618003163621A61B4D03DFB21F93F2DE9F041F5
:101628005F4E0C46B6460E407645054600F098805B
:1016380000290B46024674DD5FEA215E7FD0AEF2D8
:10164800FF3EC3F313031EF0010F43F4801363D16D
:1016580000273E4603EBD2710B444FEA6E0E520050
:1016680016204FF4001174189C424FEAD2754FEAC5
:10167800420202DC1B1B66180F44013805EB4303CA
:101688004FEA5101EFD1844620244FF0004109E090
:1016980020D003EBD275013C4FEA51012B444FEAAD
:1016A800420220D09E4201EB0C05F1DA002D05EB39
:1016B800010C09DBB0469542A3EB060300D9013BB8
:1016C8004646521B0844E4E7BCF1000FF2DB06F182
:1016D8000108F0E7954217D8002D05EB010C49DB0E
:1016E80098460023ECE7134310D140087B1003F120
:1016F8007F5303F50013FA0703EB0E57394648BF2B
:1017080040F00040BDE8F0813346C2E7411C35D0C7
:1017180000F001031844E8E75B0003EBD2735200C2
:1017280096E721F000460643ECD079BB8E46D30AF3
:10173800AEF1150E5205002BF9D0DD0221D400219F
:1017480000E001465B00DC0201F10100F9D5C0F1BF
:10175800200422FA04F42343C1EB0E0E82406EE704
:1017680002460B4601F03EF92A46234600F088FF60
:10177800BDE8F081BCF1000FA9DAB1E701372046D6
:10178800B4E720244FF0FF310020E2E702460B4681
:1017980000F074FF02460B4601F04EFAB2E700BFB4
:1017A8000000F07F000000002DE9F04F794CADF506
:1017B8001D7D1F460B93D31E84FB0354DB17C3EB1D
:1017C800A403A69E744C23EAE37554F826406B1CC8
:1017D80026460994A3EB83037C1E0D95029402EB25
:1017E800C3032D1B341904900A91089316D42C4472
:1017F800013422AEA79F08E057F8250001F08CF8C5
:101808000135A542E6E9020108D0002DF4DA0135D8
:1018180000200021A542E6E90201F6D1099B002B30
:101828002FDB099B74AADDF8089002EBC30B0DF5BA
:10183800E47A029B002BC0F295810B9B0026C3EB38
:10184800090824AB03EBC808049B0027A3F108058B
:1018580024AB03EBC904F5E9022374E8020101F0A3
:10186800C1F802460B463046394600F009FF4445A8
:1018780006460F46EFD1EAE90267DA4509F10109A0
:10188800D7D1099B10A91D4603F18043023B9B0059
:101898001A1D0A440B440F920E939CAB03EBC5032D
:1018A800002D53E928672BDD9CAB03EBC504A83C4E
:1018B8000DF13C0A0DF5E47B0022384B30463946E1
:1018C80001F090F801F03EFB01F026F80022344BBD
:1018D8008046894601F086F802460B46304639466E
:1018E80000F0CCFE01F02EFB74E802234AF8040F46
:1018F8004946404600F0C4FE5C4506460F46DBD12B
:10190800089C30463946224600F03AFE00224FF045
:101918007F5306460F4601F065F800F011FD0022DE
:10192800204B01F05FF802460B463046394600F07E
:10193800A5FE0F46064601F005FB814600F0ECFFC8
:1019480002460B463046394600F098FE002C064603
:101958000F4640F3EE80681E10AB53F82030C4F1F8
:10196800180243FA02F101FA02F29B1AC4F11708AD
:1019780010AA42F82030894443FA08F8B8F1000F59
:101988003DDD002D09F1010940F3D3820022144600
:101998000FA911E0ABAAAA2A606400080000703EF3
:1019A8000000704100002040C3F180700BB1086056
:1019B8000124013295420DDD51F8043F002CF3D08B
:1019C800C3F1FF13013203F57F4395420B604FF0DB
:1019D8000104F1DC089B002B0DDD012B00F0B18028
:1019E800022B08D16A1E10AB53F8223010A9C3F39A
:1019F800150341F82230B8F1020F00F0818000226F
:101A080000233046394601F055FA002800F05B8281
:101A1800099B05F1FF3B5B4510DC05F1804310AAEB
:101A2800013B0F9802EB8303002253F80419834209
:101A380042EA0102F9D1002A40F0B180099B10AABC
:101A4800013B52F82330002B40F071820E9A01239B
:101A580052F8041901330029FAD0E9186A1C8A429D
:101A68000C914BDC0D990B985118DB0001F180416A
:101A78000593A79B05440139E80003EB810A24ABD1
:101A8800D20003EB000B74AB13440193A2F10803DB
:101A9800069007934FF000095AF8040F00F03CFF36
:101AA800029BEBE80201002B4FF000064FF0000705
:101AB8001BDB069B03EB0904079B09EB030824AB1C
:101AC8001C449844049BA3F10805F5E9022374E833
:101AD800020100F087FF02460B463046394600F007
:101AE800CFFD444506460F46EFD1019B09F1080991
:101AF800E3E802670193059B9945CDD10C9DCCE69F
:101B080032463B460020B04900F0B8FD06460F4675
:101B1800002C3FF474AF089A0020AB4900F030FD68
:101B280002460B463046394600F0A8FD06460F46E9
:101B380065E710D16B1E10AA52F823304FEAE3581C
:101B48001CE76A1E10AB53F8223010A9C3F3160322
:101B580041F822304FE700229C4B01F0C9F958B9EF
:101B680080464CE700260027EAE90267DA4509F1D2
:101B780001097FF45EAE84E6002D09F10109C8BFB2
:101B88004FF002083FF702AF32463B4600208E492D
:101B980000F074FD4FF0020806460F462FE7089A3A
:101BA80010AB53F82B30183ACDF81490CDF80480C8
:101BB80008926BB90BF18043013B10A901EB830339
:101BC80053F804190BF1FF3B183A0029F8D0089292
:101BD800089A00207C4900F0D3FCBBF1000F0446B2
:101BE8000D46C0F2B6814FEACB030DF5E87810AA8E
:101BF80002EB8B0608EB03090493043609F1080786
:101C080056F8040D00F088FE22462B4600F0EAFE46
:101C1800002267E902016E4B2046294600F0E2FEE9
:101C2800B84504460D46EBD14B46CDF818B09B4657
:101C38000DF5987ACDF808A0DDF824A04FF000093A
:101C4800BAF1000FC0F226815DA3D3E90023DFF8C3
:101C580084815D4600260027002403E0A14510DBAF
:101C6800F8E90223F5E8020100F0BCFE02460B4643
:101C78003046394600F004FD0134A24506460F46B9
:101C8800ECDA029BABF1080B03EBC903C3E900676D
:101C980072AB5B4509F10109D2D1A69BDDF818B0FA
:101CA800DDF808A0032B00F28380DFE813F0D100F1
:101CB800950095000400BBF1000F40F35481049B8C
:101CC800CDF808B053449846D3E90067D34658E99D
:101CD800029A32463B464846514600F0D1FC04463B
:101CE8000D4602460B464846514600F0C7FC3246B0
:101CF8003B4600F0C5FCC8E9000168E90245C34558
:101D080026462F46E3D1DA46DDF808B0BBF1010FCD
:101D180040F32981049B0DF59C7B53449846D3E9F5
:101D28000067994659E902343046CDE902341A462B
:101D38003946234600F0A4FC04460D4602460B46ED
:101D4800DDE9020100F09AFC32463B4600F098FCBF
:101D5800C9E9000169E90245CB4526462F46E1D18C
:101D680000231D4608F1080850AC184678E90223FC
:101D7800294600F085FC444503460D46F5D1019AF5
:101D8800002A00F0D880DAF80440DAF80C200A9F1C
:101D9800DAF80010DAF8080005F1004504F100440B
:101DA80002F100427D613B617C60FA603960B86095
:101DB800059B03F007000DF51D7DBDE8F08F00BF02
:101DC80000000040FB21F93F0000F03F0000E03F29
:101DD8000000703E7064000800242146049D083508
:101DE800554475E90223204600F04AFC554504464F
:101DF800F7D1019B002B50D00A9F01F100450B46FB
:101E0800DAE9000187E83000224600F037FCBBF130
:101E1800000F03460D460DDD01241846FAE902239A
:101E2800294600F02DFC0134A34503460D46F4DA9B
:101E3800019A0AB105F10045184629460A9BC3E9EB
:101E48000201059B03F007000DF51D7DBDE8F08F2D
:101E580000231C46049A0832924418467AE9022361
:101E6800214600F00DFC0BF1FF3BBBF1FF3F0346A1
:101E78000C46F2D1019A0AB104F1004418462146F1
:101E88000A9BC3E90001059B03F007000DF51D7DC2
:101E9800BDE8F08F00260027F3E626460F462246C7
:101EA8000A9C0B46DAE90001C4E9006700F0E6FB8A
:101EB800BBF1000F03460D46AEDC184629460A9BC7
:101EC800C3E90201BDE7089B30465A423946CDF8BE
:101ED8001490CDF8048000F053FB00222C4B0646EA
:101EE8000F4601F005F8002840D00022294B304663
:101EF800394600F077FD01F025F8044600F00CFDA6
:101F08000022234B00F06EFD0B4602463946304650
:101F180000F0B4FB01F016F8089B05F1010B18332B
:101F2800089310AB43F8250043F82B4050E60123F3
:101F380093E500244EE51846DAE90067DAE902235A
:101F480029460A9DC5E90067C5E90401C5E90223D8
:101F58002EE7A69B032B3FF62BAFDFE803F0151007
:101F680010020DF5987A00231D4608E730463946D9
:101F780000F0E8FF10ABAB4643F8250028E6002444
:101F880021460DF5987A34E700231C4672E700BF16
:101F9800000070410000703E2DE9F04FDC4C21F04C
:101FA800004689B0A64289460791174600938046A5
:101FB80017DC00F0C7FF90BB4346129A1E4301325C
:101FC80056EA020300F05481129B012B00F0A8810D
:101FD80042464B460020CF4900F02EFE09B0BDE82E
:101FE800F08FCD4B9E421ADD0029C0F24C81AAA188
:101FF800D1E9000142464B4600F040FB04460D463D
:10200800A7A1D1E900013A46009B00F037FB224620
:102018002B4600F035FB804689460027009742464C
:102028004B464046494600F0DDFC02460B468246D8
:102038008B4600F0D7FC524604460D465B464046A8
:10204800494600F0CFFC98A3D3E90023CDE902016B
:102058002046294600F0C6FC95A3D3E9002300F0EA
:102068000FFB22462B4600F0BDFC93A3D3E90023C7
:1020780000F006FB22462B4600F0B4FC90A3D3E9FF
:10208800002300F0FDFA22462B4600F0ABFC8EA39D
:10209800D3E9002300F0F4FA22462B4600F0A2FC14
:1020A8008BA3D3E9002300F0EBFA52465B4600F01D
:1020B80099FC89A3D3E90023CDE9040120462946E8
:1020C80000F090FC86A3D3E9002300F0D9FA224659
:1020D8002B4600F087FC84A3D3E9002300F0D0FA54
:1020E80022462B4600F07EFC81A3D3E9002300F0B2
:1020F800C7FA22462B4600F075FC7FA3D3E90023DC
:1021080000F0BEFA22462B4600F06CFC7CA3D3E913
:10211800002300F0B5FA02460B46DDE9040100F0A1
:10212800AFFADDE9022300F05DFC009C3A46234645
:1021380000F0A6FA52465B4600F054FC02460B46F5
:102148003846214600F09CFA6FA3D3E900230446E1
:102158000D46DDE9020100F045FC22462B4600F061
:102168008FFA0B46024682468B464046494600F0A7
:1021780087FA694B04469E420D4639DC129B012BB7
:1021880033D002460B460020624900F055FD0F4649
:10219800294642464B46064600208046894600F0BE
:1021A8006DFA02460B465046594600F067FA424619
:1021B8003B4600F017FC424682468B463B4640466B
:1021C800494600F00FFC0022544B00F059FA024631
:1021D8000B465046594600F053FA32463B4600F04B
:1021E80001FC42463B4600F04BFA09B0BDE8F08FCF
:1021F800129800F091FB224606460F462B462046D1
:10220800294600F0EFFB3246CDE900013B46204667
:10221800294600F035FA02460B46DDE9000100F0D8
:102228000BFD52465B4600F029FA02460B46404633
:10223800494600F023FA02460B4600F021FA02460E
:102248000B463046394600F019FA079B04469817A2
:1022580000F00200C0F101000D4600F05DFB0246EF
:102268000B462046294600F0BDFB09B0BDE8F08FBB
:102278004046494600F058F802460B4600202749D8
:1022880000F0DAFCB1E701F100439946009B804673
:1022980003F100430093AAE6182D4454FB21E93FBB
:1022A800075C143326A6813CD47ABF74702AFB3E9F
:1022B800E9A7F0320FB8123F68108D1AF726303FA1
:1022C8001583E0FEC8DB573F93846EE9E326823F1F
:1022D800FE41B31BBAA1AB3F735360DBCB75F3BEB2
:1022E800A69237A0887E143F0165F2F2D844433F96
:1022F800280356C9226D6D3F37D60684F464963F8D
:102308007AFE10111111C13F635555555555D53FEA
:10231800FFFF2F3E0000F0BF2794E53F0000F03F8D
:102328004046494661E700BF21F00041704700BFC1
:1023380041F0004101F58010C00F70470000000017
:10234800C1F30A522DE9F843A2F2FF36132E0B46C9
:1023580004460D46884607461CDC002E3FDB3A4AF9
:10236800864642FA06F901EA0902024317D034A365
:10237800D3E9002300F084F90022002300F0C2FD15
:1023880020B1002D40DB28EA0905002738462946F8
:10239800BDE8F883332E06DDB6F5806F2FD02046D2
:1023A8001946BDE8F883A2F213424FF0FF3929FA23
:1023B80002F910EA090FF2D021A3D3E9002300F0B3
:1023C8005FF90022002300F09DFD0028DED0002DDB
:1023D80020DB454627EA090738462946D8E718A3E7
:1023E800D3E9002300F04CF90022002300F08AFD15
:1023F8000028CBD0002D18DB00273D46C6E7024653
:102408000B4600F03DF9CCE74FF4801343FA06F68B
:10241800B044B8E7142E10D00123C6F1340603FAED
:1024280006F6371928BF9844D3E725F00042074B32
:10243800224318BF1D460027A8E705F10108C8E791
:102448009C7500883CE4377EFFFF0F000000F0BF5A
:102458000020704700200149704700BF0000F87F46
:10246800F0B5C1F30A5EAEF2FF36132E83B0024612
:102478000B460C464FEAD17507462EDC002E49DB89
:102488003D49314103EA010010432BD049080B4074
:1024980053EA02070CD04FF48023132E24EA0101DB
:1024A80043FA06F444EA01040CBF4FF00047002742
:1024B800324B214603EBC505D5E90045384622468F
:1024C8002B4600F0DDF8CDE90001DDE900012246E8
:1024D8002B4600F0D3F803B0F0BD332E06DDB6F579
:1024E800806F45D01046194603B0F0BDAEF2134ECA
:1024F8004FF0FF3121FA0EF10842F3D049080842A3
:10250800D6D04FF0804320EA010143FA0EFE4EEA8E
:102518000107CDE721F0004101431946E4D0C3F398
:10252800130343EA000CCCF1000343EA0C0C134BF1
:10253800640C4FEA1C3C0CF4002C03EBC503640448
:10254800D3E900674CEA040132463B4600F098F8AC
:10255800CDE90001DDE9000132463B4600F08EF886
:10256800024621F0004141EAC57310461946BBE70F
:1025780000F086F8B8E700BFFFFF0F00B06400085E
:10258800F8B5C1F30A5604460D460B46174606BB76
:1025980021F00043034325D000222F4B00F022FAFC
:1025A8002E4A044697420D460B462ADBC1F30A56CB
:1025B800363E40F2FE723E44964228DC002E12DD82
:1025C80023F0FF4323F4E00343EA06552046294657
:1025D800F8BD40F2FF729642EBD102460B4600F07E
:1025E8004FF8F8BDF8BD16F1350F1DDA4CF250332F
:1025F8009F420CDC14A1D1E9000122462B4600F0D1
:1026080031F811A3D3E9002300F0ECF9F8BD224614
:102618000FA1D1E900012B4600F024F80CA3D3E95F
:10262800002300F0DFF9F8BD23F0FF4323F4E003B3
:10263800363643EA0655204629460022084B00F064
:10264800D1F9F8BDAFF3008059F3F8C21F6EA501A8
:102658009C7500883CE4377E00005043B03CFFFF87
:102668000000903C03F0004321F0004242EA0301DD
:10267800704700BF81F0004102E000BF83F00043D3
:1026880030B54FEA41044FEA430594EA050F08BF05
:1026980090EA020F1FBF54EA000C55EA020C7FEAC9
:1026A800645C7FEA655C00F0E2804FEA5454D4EB46
:1026B8005555B8BF6D420CDD2C4480EA020281EA10
:1026C800030382EA000083EA010180EA020281EA48
:1026D8000303362D88BF30BD11F0004F4FEA01319A
:1026E8004FF4801C4CEA113102D0404261EB4101A9
:1026F80013F0004F4FEA03334CEA133302D052422F
:1027080063EB430394EA050F00F0A780A4F10104EA
:10271800D5F1200E0DDB02FA0EFC22FA05F2801824
:1027280041F1000103FA0EF2801843FA05F359410A
:102738000EE0A5F120050EF1200E012A03FA0EFC89
:1027480028BF4CF0020C43FA05F3C01851EBE371B3
:1027580001F0004507D54FF0000EDCF1000C7EEBD0
:1027680000006EEB0101B1F5801F1BD3B1F5001F0E
:102778000CD349085FEA30004FEA3C0C04F101042D
:102788004FEA445212F5800F80F09A80BCF1004F56
:1027980008BF5FEA500C50F1000041EB045141EAD8
:1027A800050130BD5FEA4C0C404141EB010111F4D9
:1027B800801FA4F10104E9D191F0000F04BF014684
:1027C8000020B1FA81F308BF2033A3F10B03B3F162
:1027D80020020CDA0C3208DD02F1140CC2F10C02F2
:1027E80001FA0CF021FA02F10CE002F11402D8BF50
:1027F800C2F1200C01FA02F120FA0CFCDCBF41EA1C
:102808000C019040E41AA2BF01EB0451294330BDEA
:102818006FEA04041F3C1CDA0C340EDC04F11404C7
:10282800C4F1200220FA04F001FA02F340EA03009E
:1028380021FA04F345EA030130BDC4F10C04C4F1E4
:10284800200220FA02F001FA04F340EA03002946C4
:1028580030BD21FA04F0294630BD94F0000F83F40E
:10286800801306BF81F480110134013D4EE77FEAF1
:10287800645C18BF7FEA655C29D094EA050F08BF3D
:1028880090EA020F05D054EA000C04BF194610461E
:1028980030BD91EA030F1EBF0021002030BD5FEA62
:1028A800545C05D14000494128BF41F0004130BD8A
:1028B80014F580043CBF01F5801130BD01F00045DE
:1028C80045F0FE4141F470014FF0000030BD7FEA51
:1028D800645C1ABF194610467FEA655C1CBF0B464C
:1028E800024650EA013406BF52EA033591EA030F63
:1028F80041F4002130BD00BF90F0000F04BF00215B
:10290800704730B54FF4806404F132044FF000058D
:102918004FF0000150E700BF90F0000F04BF002106
:10292800704730B54FF4806404F1320410F000456C
:1029380048BF40424FF000013EE700BF42004FEA67
:10294800E2014FEA31014FEA02701FBF12F07F43E4
:1029580093F07F4F81F06051704792F0000F14BFE1
:1029680093F07F4F704730B54FF4607401F0004525
:1029780021F0004120E700BF50EA010208BF70477C
:1029880030B54FF000050AE050EA010208BF704771
:1029980030B511F0004502D5404261EB41014FF4DA
:1029A800806404F132045FEA915C3FF4DCAE4FF0DE
:1029B80003025FEADC0C18BF03325FEADC0C18BFC5
:1029C800033202EBDC02C2F1200300FA03FC20FA16
:1029D80002F001FA03FE40EA0E0021FA02F1144463
:1029E800C1E600BF70B54FF0FF0C4CF4E06C1CEA78
:1029F80011541DBF1CEA135594EA0C0F95EA0C0FED
:102A080000F0DEF82C4481EA030621EA4C5123EA5F
:102A18004C5350EA013518BF52EA033541F480118E
:102A280043F4801338D0A0FB02CE4FF00005E1FB41
:102A380002E506F00042E0FB03E54FF00006E1FB8B
:102A480003569CF0000F18BF4EF0010EA4F1FF04CE
:102A5800B6F5007F64F5407404D25FEA4E0E6D410E
:102A680046EB060642EAC62141EA55514FEAC5201F
:102A780040EA5E504FEACE2EB4F1FD0C88BFBCF59B
:102A8800E06F1ED8BEF1004F08BF5FEA500E50F14C
:102A9800000041EB045170BD06F0004646EA010112
:102AA80040EA020081EA0301B4EB5C04C2BFD4EB44
:102AB8000C0541EA045170BD41F480114FF0000E3D
:102AC800013C00F3AB8014F1360FDEBF002001F0AB
:102AD800004170BDC4F10004203C35DA0C341BDC25
:102AE80004F11404C4F1200500FA05F320FA04F0F7
:102AF80001FA05F240EA020001F0004221F000412B
:102B080010EBD37021FA04F642EB06015EEA430E9D
:102B180008BF20EAD37070BDC4F10C04C4F12005CD
:102B280000FA04F320FA05F001FA04F240EA020080
:102B380001F0004110EBD37041F100015EEA430E51
:102B480008BF20EAD37070BDC4F1200500FA05F271
:102B58004EEA020E20FA04F301FA05F243EA0203F0
:102B680021FA04F001F0004121FA04F220EA0200FF
:102B780000EBD3705EEA430E08BF20EAD37070BD45
:102B880094F0000F0FD101F00046400041EB010125
:102B980011F4801F08BF013CF7D041EA060195F007
:102BA800000F18BF704703F00046520043EB0303C1
:102BB80013F4801F08BF013DF7D043EA06037047AE
:102BC80094EA0C0F0CEA135518BF95EA0C0F0CD0B9
:102BD80050EA410618BF52EA4306D1D181EA0301FF
:102BE80001F000414FF0000070BD50EA410606BFF9
:102BF8001046194652EA430619D094EA0C0F02D13E
:102C080050EA013613D195EA0C0F05D152EA033682
:102C18001CBF104619460AD181EA030101F00041A0
:102C280041F0FE4141F470014FF0000070BD41F0E9
:102C3800FE4141F4780170BD70B54FF0FF0C4CF4C3
:102C4800E06C1CEA11541DBF1CEA135594EA0C0FE2
:102C580095EA0C0F00F0A7F8A4EB050481EA030E2F
:102C680052EA03354FEA013100F088804FEA033316
:102C78004FF0805545EA131343EA12634FEA0222E4
:102C880045EA111545EA10654FEA00260EF00041A5
:102C98009D4208BF964244F1FD0404F5407402D2F7
:102CA8005B084FEA3202B61A65EB03055B084FEA88
:102CB80032024FF480104FF4002CB6EB020E75EB85
:102CC800030E22BFB61A754640EA0C005B084FEAAD
:102CD8003202B6EB020E75EB030E22BFB61A75462A
:102CE80040EA5C005B084FEA3202B6EB020E75EB75
:102CF800030E22BFB61A754640EA9C005B084FEAED
:102D08003202B6EB020E75EB030E22BFB61A7546F9
:102D180040EADC0055EA060E18D04FEA051545EAE8
:102D280016754FEA06164FEAC30343EA52734FEA91
:102D3800C2025FEA1C1CC0D111F4801F0BD141EA0A
:102D480000014FF000004FF0004CB6E711F4801F6F
:102D580004BF01430020B4F1FD0C88BFBCF5E06F4F
:102D68003FF6AFAEB5EB030C04BFB6EB020C5FEA5F
:102D7800500C50F1000041EB045170BD0EF0004EB4
:102D88004EEA113114EB5C04C2BFD4EB0C0541EAE6
:102D9800045170BD41F480114FF0000E013C90E6E3
:102DA80045EA060E8DE60CEA135594EA0C0F08BFA7
:102DB80095EA0C0F3FF43BAF94EA0C0F0AD150EAA6
:102DC80001347FF434AF95EA0C0F7FF425AF104639
:102DD80019462CE795EA0C0F06D152EA03353FF461
:102DE800FDAE1046194622E750EA410618BF52EADE
:102DF80043067FF4C5AE50EA41047FF40DAF52EAB2
:102E080043057FF4EBAE12E74FF0FF3C06E000BF4E
:102E18004FF0010C02E000BF4FF0010C4DF804CD5B
:102E28004FEA410C7FEA6C5C4FEA430C18BF7FEA1B
:102E38006C5C1BD001B050EA410C0CBF52EA430C49
:102E480091EA030F02BF90EA020F0020704710F1C9
:102E5800000F91EA030F58BF994208BF90422CBF58
:102E6800D8176FEAE37040F0010070474FEA410C51
:102E78007FEA6C5C02D150EA013C07D14FEA430C6F
:102E88007FEA6C5CD6D152EA033CD3D05DF8040BE0
:102E9800704700BF8446104662468C461946634612
:102EA80000E000BF01B5FFF7B7FF002848BF10F1E9
:102EB800000F01BD4DF808EDFFF7F4FF0CBF01202E
:102EC80000205DF808FB00BF4DF808EDFFF7EAFFAA
:102ED80034BF012000205DF808FB00BF4DF808ED65
:102EE800FFF7E0FF94BF012000205DF808FB00BF5A
:102EF8004DF808EDFFF7CEFF94BF012000205DF8E4
:102F080008FB00BF4DF808EDFFF7C4FF34BF0120F0
:102F180000205DF808FB00BF4FEA410C7FEA6C5CBB
:102F280002D150EA013C0AD14FEA430C7FEA6C5CBB
:102F380002D152EA033C02D14FF0000070474FF033
:102F4800010070474FEA410212F5001215D211D55F
:102F58006FF47873B3EB625212D94FEAC12343F08E
:102F6800004343EA505311F0004F23FA02F018BF10
:102F7800404270474FF00000704750EA013005D1D9
:102F880011F0004008BF6FF0004070474FF000009C
:102F9800704700BF4FEA4102B2F1E04324BFB3F5E6
:102FA800001CDCF1FE5C0DD901F0004C4FEAC002B8
:102FB8004CEA5070B2F1004F40EB830008BF20F09C
:102FC8000100704711F0804F21D113F13872BCBF56
:102FD80001F00040704741F480114FEA5252C2F1AB
:102FE8001802C2F1200C10FA0CF320FA02F018BFF4
:102FF80040F001004FEAC1234FEAD32303FA0CFC47
:1030080040EA0C0023FA02F34FEA4303CCE77FEAD5
:10301800625307D150EA01331EBF4FF0FE4040F41F
:103028004000704701F0004040F0FE4040F40000CE
:10303800704700BF80F0004002E000BF81F000410F
:1030480042001FBF5FEA410392EA030F7FEA226C46
:103058007FEA236C6AD04FEA1262D2EB1363C1BFD6
:10306800D218414048404140B8BF5B42192B88BF45
:10307800704710F0004F40F4000020F07F4018BF68
:10308800404211F0004F41F4000121F07F4118BF88
:10309800494292EA030F3FD0A2F1010241FA03FC30
:1030A80010EB0C00C3F1200301FA03F100F0004318
:1030B80002D5494260EB4000B0F5000F13D3B0F1E0
:1030C800807F06D340084FEA310102F10102FE2A4F
:1030D80051D2B1F1004F40EBC25008BF20F00100BF
:1030E80040EA03007047490040EB000010F4000F6D
:1030F800A2F10102EDD1B0FA80FCACF1080CB2EB00
:103108000C0200FA0CF0AABF00EBC250524218435E
:10311800BCBFD0401843704792F0000F81F4000103
:1031280006BF80F400000132013BB5E74FEA4103D6
:103138007FEA226C18BF7FEA236C21D092EA030F42
:1031480004D092F0000F08BF0846704790EA010FBC
:103158001CBF0020704712F07F4F04D1400028BFE9
:1031680040F00040704712F100723CBF00F50000CB
:10317800704700F0004343F0FE4040F40000704701
:103188007FEA226216BF08467FEA236301464202AD
:1031980006BF5FEA412390EA010F40F480007047C0
:1031A8004FF0000304E000BF10F0004348BF404266
:1031B8005FEA000C08BF704743F0964301464FF0A2
:1031C80000001CE050EA010208BF70474FF00003FE
:1031D8000AE000BF50EA010208BF704711F000433F
:1031E80002D5404261EB41015FEA010C02BF84460F
:1031F8000146002043F0B64308BFA3F18053A3F56E
:103208000003BCFA8CF2083AA3EBC25310DB01FAB4
:1032180002FC634400FA02FCC2F12002BCF1004F38
:1032280020FA02F243EB020008BF20F001007047C9
:1032380002F1200201FA02FCC2F1200250EA4C001D
:1032480021FA02F243EB020008BF20EADC70704763
:103258004FF0FF0C1CEAD0521EBF1CEAD15392EA71
:103268000C0F93EA0C0F6FD01A4480EA010C40024D
:1032780018BF5FEA41211ED04FF0006343EA5010A7
:1032880043EA5111A0FB01310CF00040B1F5000FE9
:103298003EBF490041EAD3715B0040EA010062F198
:1032A8007F02FD2A1DD8B3F1004F40EBC25008BF82
:1032B80020F00100704790F0000F0CF0004C08BFA0
:1032C80049024CEA502040EA51207F3AC2BFD2F16D
:1032D800FF0340EAC250704740F400004FF000037B
:1032E800013A5DDC12F1190FDCBF00F000407047B5
:1032F800C2F10002410021FA02F1C2F1200200FAF3
:1033080002FC5FEA310040F1000053EA4C0308BFB9
:1033180020EADC70704792F0000F00F0004C02BF0A
:10332800400010F4000F013AF9D040EA0C0093F085
:10333800000F01F0004C02BF490011F4000F013BDF
:10334800F9D041EA0C018FE70CEAD15392EA0C0F4D
:1033580018BF93EA0C0F0AD030F0004C18BF31F0B8
:10336800004CD8D180EA010000F00040704790F08E
:10337800000F17BF90F0004F084691F0000F91F032
:10338800004F14D092EA0C0F01D142020FD193EAF8
:103398000C0F03D14B0218BF084608D180EA010080
:1033A80000F0004040F0FE4040F40000704740F05C
:1033B800FE4040F4400070474FF0FF0C1CEAD0522A
:1033C8001EBF1CEAD15392EA0C0F93EA0C0F69D086
:1033D800A2EB030280EA010C49024FEA402037D0F1
:1033E8004FF0805343EA111143EA10130CF00040E8
:1033F8008B4238BF5B0042F17D024FF4000C8B42D8
:1034080024BF5B1A40EA0C00B3EB510F24BFA3EBB7
:10341800510340EA5C00B3EB910F24BFA3EB910387
:1034280040EA9C00B3EBD10F24BFA3EBD10340EAE1
:10343800DC001B0118BF5FEA1C1CE0D1FD2A3FF627
:1034480050AF8B4240EBC25008BF20F001007047DC
:103458000CF0004C4CEA50207F32C2BFD2F1FF037F
:1034680040EAC250704740F400004FF00003013AB0
:1034780037E792F0000F00F0004C02BF400010F454
:10348800000F013AF9D040EA0C0093F0000F01F068
:10349800004C02BF490011F4000F013BF9D041EA8A
:1034A8000C0195E70CEAD15392EA0C0F08D14202BD
:1034B8007FF47DAF93EA0C0F7FF470AF084676E790
:1034C80093EA0C0F04D14B023FF44CAF08466EE769
:1034D80030F0004C18BF31F0004CCAD130F0004237
:1034E8007FF45CAF31F000437FF43CAF5FE700BF8F
:1034F8004FF0FF3C06E000BF4FF0010C02E000BFB8
:103508004FF0010C4DF804CD4FEA40024FEA410359
:103518007FEA226C18BF7FEA236C11D001B052EA0F
:10352800530C18BF90EA010F58BFB2EB030088BFD5
:10353800C81738BF6FEAE17018BF40F00100704744
:103548007FEA226C02D15FEA402C05D17FEA236C26
:10355800E4D15FEA412CE1D05DF8040B704700BF6D
:10356800844608466146FFE70FB5FFF7C9FF002804
:1035780048BF10F1000F0FBD4DF808EDFFF7F4FF3D
:103588000CBF012000205DF808FB00BF4DF808EDD6
:10359800FFF7EAFF34BF012000205DF808FB00BFF9
:1035A8004DF808EDFFF7E0FF94BF012000205DF81B
:1035B80008FB00BF4DF808EDFFF7D2FF94BF0120CC
:1035C80000205DF808FB00BF4DF808EDFFF7C8FFC5
:1035D80034BF012000205DF808FB00BF014B1868CC
:1035E800704700BF0000002082B0084B1B68084AE3
:1035F800A2FB03235B0A00FB03F0019000BF019BC1
:103608005A1E0192002BF9D102B0704768000020C1
:10361800D34D621070B582B00446036813F0010FF1
:103628006BD0A84B5B6803F00C03042B0AD0A54BA6
:103638005B6803F00C03082B0DD1A24B5B6813F4F5
:10364800803F08D09F4B1B6813F4003F55D0636838
:10365800002B52D1B8E16368B3F5803F05D1994A90
:10366800136843F48033136026E063B903F18043A1
:1036780003F504331A6822F480321A601A6822F4B7
:1036880080221A6018E0B3F5A02F0CD103F1804313
:10369800A3F53C331A6842F480221A601A6842F48F
:1036A80080321A6008E0874B1A6822F480321A6068
:1036B8001A6822F480221A6063687BB101F012F85C
:1036C800054605E001F00EF8401B642800F27E81F3
:1036D8007C4B1B6813F4003FF4D00EE001F002F8B5
:1036E800054605E000F0FEFF401B642800F27081EB
:1036F800744B1B6813F4003FF4D1236813F0020FD6
:1037080050D0704B5B6813F00C0F0AD06D4B5B68A0
:1037180003F00C03082B16D16A4B5B6813F4803F47
:1037280011D1684B1B6813F0020F03D02369012BDA
:1037380040F05081634A136823F0F803616943EA53
:10374800C10313602EE02369D3B101225E4B1A60D6
:1037580000F0C8FF054605E000F0C4FF401B022842
:1037680000F23A81574B1B6813F0020FF4D0554A08
:10377800136823F0F803616943EAC103136011E099
:103788000022514B1A6000F0ADFF054605E000F03D
:10379800A9FF401B022800F221814A4B1B6813F045
:1037A800020FF4D1236813F0080F29D0A369ABB135
:1037B8000122464B1A6000F095FF054605E000F02F
:1037C80091FF401B022800F20B813E4B5B6A13F00D
:1037D800020FF4D00120FFF707FF11E000223B4B56
:1037E8001A6000F07FFF054605E000F07BFF401BF4
:1037F800022800F2F780334B5B6A13F0020FF4D112
:10380800236813F0040F00F089802E4BDB6913F056
:10381800805F0BD12B4BDA6942F08052DA61DB69A9
:1038280003F080530193019B012500E00025284BFC
:103838001B6813F4807F13D1254A136843F48073FF
:10384800136000F04FFF064605E000F04BFF801BB9
:10385800642800F2C9801E4B1B6813F4807FF4D0E3
:10386800E368012B05D1174A136A43F00103136279
:1038780022E063B903F1804303F504331A6A22F0A6
:1038880001021A621A6A22F004021A6214E0052B75
:1038980009D10C4B1A6A42F004021A621A6A42F001
:1038A80001021A6208E0074B1A6A22F001021A6242
:1038B8001A6A22F004021A62E368CBB100F012FF20
:1038C80006460FE0001002400000424280044242D7
:1038D8000070004000F006FF801B41F288339842D8
:1038E80000F28480494B1B6A13F0020FF2D00FE0FC
:1038F80000F0F8FE064606E000F0F4FE801B41F2F8
:103908008833984274D8414B1B6A13F0020FF3D1E5
:1039180025B13E4AD36923F08053D361E369002B74
:1039280068D03A4A526802F00C02082A64D0022B86
:1039380037D10022364B1A6000F0D4FE054604E069
:1039480000F0D0FE401B022858D8304B1B6813F0FB
:10395800007FF5D1236AB3F5803F06D12B494B6828
:1039680023F40032A36813434B602848436823F4C8
:103978007411236A626A13430B4343600122244B88
:103988001A6000F0AFFE044604E000F0ABFE001B36
:10399800022835D81D4B1B6813F0007FF5D0002096
:1039A80031E000221A4B1A6000F09CFE044604E045
:1039B80000F098FE001B022824D8144B1B6813F053
:1039C800007FF5D100201EE001201CE003201AE052
:1039D800032018E0012016E0032014E0032012E081
:1039E800032010E003200EE003200CE003200AE08F
:1039F800032008E0002006E0012004E0032002E0A4
:103A0800032000E0032002B070BD00BF0010024098
:103A18006000424230B486B0164D02AC286869682E
:103A2800AA68EB680FC42B8AADF80430124B5B68A8
:103A380003F00C02082A19D1C3F3834206A90A44E9
:103A480012F8102C13F4803F0CD00B4B5B68C3F3B7
:103A580040430B4413F8140C084BB3FBF0F000FB85
:103A680002F004E0064800FB02F000E0034806B05C
:103A780030BC7047C06200080010024000127A0093
:103A880000093D0070B55C4B1B6803F007038B42CF
:103A98000BD2594A136823F007030B4313601368CA
:103AA80003F00703994240F09780036813F0020F70
:103AB80006D0524C636823F0F002836813436360B6
:103AC8000D460446036813F0010F4DD04268012AE1
:103AD80005D14A4B1B6813F4003F0DD17EE0022A42
:103AE80005D1464B1B6813F0007F05D178E0434BA6
:103AF8001B6813F0020F75D040494B6823F003038D
:103B080013434B6000F0EEFD06466368012B0ED1AF
:103B180006E000F0E7FD801B41F28833984263D845
:103B2800364B5B6803F00C03042BF2D11CE0022B2C
:103B380015D106E000F0D6FD801B41F2883398428B
:103B480054D82E4B5B6803F00C03082BF2D10BE022
:103B580000F0C8FD801B41F28833984248D8274BB3
:103B68005B6813F00C0FF3D1234B1B6803F00703BA
:103B78009D420AD2204A136823F007032B4313609F
:103B8800136803F007039D4234D1236813F0040F30
:103B980006D01A494B6823F4E062E36813434B608C
:103BA800236813F0080F07D0144A536823F46053AE
:103BB800216943EAC1035360FFF72CFF0F4B5B6891
:103BC800C3F303130E4AD35CD8400E4B1860002091
:103BD80000F058FD002070BD012070BD012070BDAF
:103BE800012070BD012070BD032070BD032070BD91
:103BF800032070BD012070BD00200240001002406B
:103C0800C064000868000020014B1868704700BFB6
:103C18006800002008B5FFF7F7FF044B5B68C3F3A3
:103C28000223034AD35CD84008BD00BF00100240FD
:103C3800D064000808B5FFF7E7FF044B5B68C3F3DF
:103C4800C223034AD35CD84008BD00BF001002401D
:103C5800D064000870B4036A23F001030362036AA6
:103C68004668826922F073020C6842EA040523F070
:103C780002028B6813430F4CA04202D00E4A9042B6
:103C880005D123F00803CA68134323F00403094C41
:103C9800A04202D0084A904205D126F440764A69EB
:103CA80032438E691643466085614A6842630362FF
:103CB80070BC7047002C01400034014030B4036AE6
:103CC80023F480730362036A4568C26922F07302B1
:103CD8000C68224323F400738C6843EA0423124CD3
:103CE800A04203D004F50064A04206D123F4006387
:103CF800CC6843EA042323F480630B4CA04203D02E
:103D080004F50064A04207D125F440554C6945EA02
:103D180004158C6945EA04154560C2614A68C263A6
:103D2800036230BC704700BF002C014030B4036A06
:103D380023F480530362036A4468C26922F4E642AA
:103D48000D6842EA052223F400538D6843EA0533DF
:103D5800094DA84203D005F50065A84204D124F412
:103D680080444D6944EA85144460C2614A6802642B
:103D7800036230BC704700BF002C014010B4036AD6
:103D8800046A24F001040462846924F0F00444EA1B
:103D9800021223F00A0319438261016210BC7047C2
:103DA80010B4036A23F0100303628469036A24F4DD
:103DB800704444EA023223F0A00343EA011182610D
:103DC800016210BC704700BF10B4846824F47F44BB
:103DD80042EA0323194344EA0103836010BC704795
:103DE80010B50468A36823F070024B68134323F0EE
:103DF80007030A681343A3604B68502B1FD002D8EF
:103E0800402B0BD010BD602B1FD0702B22D10B691B
:103E18008A68C9680068FFF7D7FF10BD03681C6A85
:103E28001A6A22F001021A620268936923F0F00309
:103E3800096943EA0113936103681C6210BD0A69AA
:103E480089680068FFF79AFF10BD0A6989680068E9
:103E5800FFF7A6FF10BD00BF704700BF38B590F848
:103E68003C30012B18D00446012580F83C50022331
:103E780080F83D30FFF7B4FF2268D36823F0400391
:103E8800D3602268D36823F48043D36084F83D501C
:103E9800002084F83C0038BD022038BD0368244A5D
:103EA800904212D002F5006290420ED0B0F1804FDD
:103EB8000BD0A2F59832904207D002F5806290426A
:103EC80003D002F58062904203D123F070034A6860
:103ED8001343174A904212D002F5006290420ED066
:103EE800B0F1804F0BD0A2F59832904207D002F57E
:103EF8008062904203D002F58062904203D123F49D
:103F08004073CA68134323F080034A69134303606C
:103F18008B68C3620B688362054B984203D003F534
:103F28000063984201D10B69036301234361704721
:103F3800002C0140B8B110B5044690F83D3013F09C
:103F4800FF0F04D1002380F83C30FFF785FF0223E0
:103F580084F83D30211D2068FFF7A0FF012384F875
:103F68003D30002010BD0120704700BF30B4036A07
:103F780023F010030362036A4468826922F4E6426C
:103F88000D6842EA052223F020038D6843EA0513F1
:103F9800114DA84203D005F50065A84206D123F0CB
:103FA8008003CD6843EA051323F040030A4DA84275
:103FB80003D005F50065A84207D124F440644D6993
:103FC80044EA85048D6944EA8504446082614A684C
:103FD8008263036230BC7047002C014038B590F80A
:103FE8003C30012B66D00D460446012380F83C3056
:103FF800022380F83D300C2A55D8DFE802F0075438
:1040080054541A5454542E54545441000068FFF721
:1040180021FE2268936943F008039361226893693B
:1040280023F004039361226891692B690B43936120
:1040380039E00068FFF79AFF2268936943F4006348
:1040480093612268936923F480639361226893697A
:10405800296943EA0123936125E00068FFF72EFEF2
:104068002268D36943F00803D3612268D36923F037
:104078000403D3612268D1692B690B43D36112E031
:104088000068FFF753FE2268D36943F40063D361E5
:104098002268D36923F48063D3612268D3692969CC
:1040A80043EA0123D361012384F83D30002084F8DA
:1040B8003C0038BD022038BD10B4012303FA01F4D6
:1040C800036A23EA04030362036A8A401A4302620A
:1040D80010BC704710B5044601220068FFF7ECFFDA
:1040E80023680C4A934205D002F50062934203D13B
:1040F800012202E0012200E000221AB15A6C42F4C7
:1041080000425A642268136843F0010313600020D8
:1041180010BD00BF002C014010B4042303FA01F4C1
:10412800036A23EA04030362036A8A401A430262A9
:1041380010BC704710B5044604220068FFF7ECFF76
:104148002268536C43F4004353642268136843F0B5
:1041580001031360002010BD90F83C30012B25D0DE
:10416800012380F83C30CB6823F440728B681343FA
:1041780023F480624B68134323F400620B681343F3
:1041880023F480520B69134323F400524B69134301
:1041980023F480438A69134323F4004313430268DA
:1041A8005364002380F83C3018467047022070475B
:1041B80090F83C30012B21D030B4012280F83C200B
:1041C800022380F83D300468636823F0700363605D
:1041D800046865680B682B4363600468A36823F070
:1041E8008003A3600468A5684B682B43A36080F82C
:1041F8003D20002380F83C30184601E0022070473B
:1042080030BC704790F82430012B27D0012380F868
:10421800243003689A6812F0010F10D1114A92688D
:1042280012F0010F0BD1104A934208D110B45A680A
:1042380022F470240A6822435A60002309E0836A42
:1042480043F0200383620123002280F824201846CB
:104258007047002280F82420184601E002207047A9
:1042680010BC70470028014000240140074AD36869
:1042780023F4E0631B041B0C000200F4E060184305
:1042880040F0BF6040F40030D060704700ED00E0BF
:1042980030B4164BDB68C3F30223C3F10704042CC4
:1042A80028BF04241D1D062D01D9DD1E00E00025B0
:1042B800012303FA04F4013C2140A940AB40013B2F
:1042C8001A400A43002806DA00F00F001201D2B2A1
:1042D800074B1A5407E01201D2B200F1604000F512
:1042E800614080F8002330BC704700BF00ED00E05B
:1042F80014ED00E0420900F01F00012303FA00F06A
:10430800014B43F82200704700E100E00138B0F1AA
:10431800807F0AD2064B5860F021064A82F82310A3
:104328000020986007221A6070470120704700BF7C
:1043380010E000E000ED00E0042805D1054A13680C
:1043480043F0040313607047024A136823F0040320
:104358001360704710E000E0704700BF08B5FFF732
:10436800FBFF08BDF0B583B000263446DFE001222C
:10437800A2400B6813409A4240F0D8804D68122D35
:104388002DD00BD8022D27D003D85DB3012D1ED018
:1043980035E0032D30D0112D1BD030E0664FBD42E3
:1043A80020D008D8A7F58017BD421BD007F5803765
:1043B800BD4224D116E0614FBD4213D007F58037C6
:1043C800BD420FD0A7F58017BD4218D10AE0CE68CC
:1043D80015E0CE68043612E0CE6808360FE0CE68E5
:1043E8000C360CE08D684DB1012D02D10261082612
:1043F80005E04261082602E0002600E00426FF2BC3
:1044080001D8864601E000F1040EFF2B01D8A20076
:1044180002E0A4F108029200DEF800700F25954032
:1044280027EA050506FA02F22A43CEF800204A6870
:1044380012F0805F7AD0424A956945F0010595618E
:10444800926902F001020192019AA708BD1C3D4A37
:1044580052F825E004F0030292000F2595402EEA59
:10446800050E394DA84215D005F58065A84213D030
:1044780005F58065A84211D005F58065A8420FD0E2
:1044880005F58065A8420DD005F58065A8420BD1D9
:1044980005250AE0002508E0012506E0022504E0DC
:1044A800032502E0042500E0062505FA02F24EEA9B
:1044B80002020237234D45F827204A6812F4803F4C
:1044C80005D005F580652A681A432A6004E01F4D67
:1044D8002A6822EA03022A604A6812F4003F04D0DC
:1044E8001A4D6A681A436A6004E0184D6A6822EA3D
:1044F80003026A604A6812F4801F04D0134DAA6848
:104508001A43AA6004E0114DAA6822EA0302AA60CD
:104518004A6812F4001F04D00C4DEA681343EB609C
:1045280004E00A4DEA6822EA0303EB6001340F2C29
:104538007FF61DAF03B0F0BD000021100000311060
:104548000010024000000140000801400004014042
:104558008368194201D0012070470020704700BFCE
:104568000AB10161704709040161704770B582B0F2
:104578000446036813F0010F5CD03E4BDB6913F06F
:10458800805F0BD13B4BDA6942F08052DA61DB691C
:1045980003F080530193019B012600E00026364B6F
:1045A8001B6813F4807F12D1334A136843F4807375
:1045B800136000F097F8054604E000F093F8401BFC
:1045C80064284FD82C4B1B6813F4807FF5D0294BF7
:1045D8001B6A13F4407321D0626802F4407293425C
:1045E8001CD0244A136A23F44070244901250D6025
:1045F80000250D60106213F0010F0FD000F072F863
:10460800054606E000F06EF8401B41F288339842F8
:104618002AD8184B1B6A13F0020FF3D015490B6AFE
:1046280023F44072636813430B621EB1CB6923F015
:104638008053CB61236813F0020F06D00D494B68F5
:1046480023F44042A36813434B60236813F0100F10
:104658000CD008494B6823F48002636913434B600C
:10466800002004E0032002E0032000E0002002B064
:1046780070BD00BF0010024000700040400442427C
:10468800704700BF10B50446074B1B680748A0FBDE
:1046980003308009FFF73AFE002221464FF0FF3031
:1046A800FFF7F6FD002010BD68000020D34D621012
:1046B80008B5074A136843F0100313600320FFF797
:1046C800D5FD0020FFF7DEFFFFF7DAFF002008BD69
:1046D80000200240024A136801331360704700BF8C
:1046E800BC000020014B1868704700BFBC000020C8
:1046F80030B583B00190FFF7F5FF0546019CB4F192
:10470800FF3F00D00134FFF7EDFF401BA042FAD372
:1047180003B030BD704700BF70B483B0002301936D
:1047280090F82430012B00F08880012380F8243091
:104738004B68062B0ED80668756B03EB8303053BA5
:104748001F249C4025EA04040A6802FA03F3234361
:1047580073631EE00C2B0ED805682A6B03EB8303EA
:10476800233B1F249C4022EA04040A6802FA03F34C
:1047780023432B630DE00568EA6A03EB8303413B9F
:104788001F249C4022EA04040A6802FA03F3234324
:10479800EB620B68092B0ED90668F56803EB430337
:1047A8001E3B07249C4025EA04048A6802FA03F3A6
:1047B8002343F3600CE00668356903EB43030724E1
:1047C8009C4025EA04048A6802FA03F32343336110
:1047D8000B68103B012B26D803681A4A93421CD158
:1047E8009A6812F4000F20D19A6842F400029A6085
:1047F8000B68102B1BD1144B1B68144AA2FB032314
:104808009B0C03EB83035A00019202E0019B013BDE
:104818000193019B002BF9D10AE0836A43F020033E
:104828008362012304E0002302E0002300E0002368
:10483800002280F82420184600E0022003B070BC53
:10484800704700BF002401406800002083DE1B433E
:1048580030B583B00023019303689A6812F0010F02
:104868002FD19A6842F001029A60174B1B68174AC9
:10487800A2FB03239B0C019302E0019B013B0193E4
:10488800019B002BF9D10446FFF72CFF054611E0E8
:10489800FFF728FF401B02280CD9A36A43F0100336
:1048A800A362E36A43F00103E362002384F824303F
:1048B800012007E023689B6813F0010FE8D000206F
:1048C80000E0002003B030BD6800002083DE1B43F9
:1048D80090F82430012B71D010B50446012380F8DC
:1048E8002430FFF7B5FF0346002863D1A26A22F4FB
:1048F800407222F0010242F48072A26222683049BA
:104908008A4205D1A1F58061496811F4702F0ED152
:10491800A16A21F48011A162516811F4806F1CD042
:10492800A16A21F4405141F48051A16215E0A16AC5
:1049380041F48011A16223498A4203D001F58061C4
:104948008A420AD11F49496811F4806F05D0A16ACB
:1049580021F4405141F48051A162A16A11F4805FB1
:1049680004D0E16A21F00601E16201E00021E16280
:10497800002184F824106FF0020111602268916808
:1049880001F46021B1F5602F0ED10D498A4205D19D
:10499800A1F58061496811F4702F05D1916841F43F
:1049A800A0019160184610BD916841F48011916092
:1049B800184610BD002284F8242010BD022070473C
:1049C800002801400024014038B503689A6812F0B5
:1049D800010F1ED004469A6822F001029A60FFF780
:1049E80081FE05460EE0FFF77DFE401B022809D92F
:1049F800A36A43F01003A362E36A43F00103E3628E
:104A0800012038BD23689B6813F0010FEBD100200B
:104A180038BD002038BD00BF002800F0888070B580
:104A28000446836A23B9C36280F82430FFF772FE14
:104A38002046FFF7C9FFA36A13F0100F71D10028B1
:104A48006FD1A36A23F4885323F0020343F00203CF
:104A5800A36263682168374A914206D1E269B2F5D8
:104A6800402F03D14FF4002200E0E2691343E568C8
:104A780043EA4503A268B2F5807F04D0012A05D134
:104A88004FF4807603E04FF4807600E000266269F8
:104A9800012A0FD135B9A269013A46EA423242F4F5
:104AA800006607E0A26A42F02002A262E26A42F0CF
:104AB8000102E2624A6822F4694232434A6021688C
:104AC8008D681D4A2A401A438A60A268B2F5807F21
:104AD80001D0012A03D12269013A110500E0002121
:104AE8002568EA6A22F470020A43EA622268916839
:104AF800124A0A40934208D10023E362A36A23F0D2
:104B0800030343F00103A36270BDA36A23F01203F9
:104B180043F01003A362E36A43F00103E362012058
:104B280070BDA36A43F01003A362012070BD012089
:104B3800704700BF003C0140FDF7E1FFFE0E1FFF7C
:104B48002DE9F843814601680B6923F44052C36894
:104B580013430B618168036919434369194300686A
:104B6800C26822F4B05323F00C030B43C360D9F896
:104B780000104B6923F44072D9F8183013434B6185
:104B8800D9F800505B4B9D4259D1FFF753F800EB21
:104B9800800000EB8000D9F80440A400B0FBF4F4D6
:104BA800554EA6FB043464092401FFF743F800EBD3
:104BB800800000EB8000D9F804309B00B0FBF3F7CD
:104BC800FFF738F800EB800000EB8000D9F80430DC
:104BD8009B00B0FBF3F3A6FB03235B094FF06408CB
:104BE80008FB13731B013233A6FB03235B0903F095
:104BF800F0031C44FFF71EF800EB800000EB800078
:104C0800D9F804309B00B0FBF3F7FFF713F800EB7B
:104C1800800000EB8000D9F804309B00B0FBF3F370
:104C2800A6FB03235B0908FB13731B013233A6FBA6
:104C38000323C3F343131C44AC60BDE8F883FEF7B9
:104C4800E9FF00EB800000EB8000D9F80440A400E5
:104C5800B0FBF4F4284EA6FB043464092401FEF7E3
:104C6800D9FF00EB800000EB8000D9F804309B00EE
:104C7800B0FBF3F7FEF7CEFF00EB800000EB8000FF
:104C8800D9F804309B00B0FBF3F3A6FB03235B09C0
:104C98004FF0640808FB13731B013233A6FB032390
:104CA8005B0903F0F0031C44FEF7B4FF00EB80003F
:104CB80000EB8000D9F804309B00B0FBF3F7FEF757
:104CC800A9FF00EB800000EB8000D9F804309B00BE
:104CD800B0FBF3F3A6FB03235B0908FB13731B016B
:104CE8003233A6FB0323C3F343131C44AC60BDE873
:104CF800F88300BF003801401F85EB51704700BFA3
:104D080068B310B5044690F8393013F0FF0F04D19A
:104D1800002380F83830FFF7F1FF242384F8393076
:104D28002268D36823F40053D3602046FFF708FFB6
:104D38002268136923F4904313612268536923F0AE
:104D48002A0353612268D36843F40053D3600020D8
:104D5800E063202384F8393084F83A3010BD01200C
:104D6800704700BF38B5C36B1A6804682568016CC2
:104D780004238B401A4200F09D8015F0040F00F0C8
:104D88009980236813F0200F03D1236823F00403CC
:104D980023600368A84A934243D9783A934221D0C2
:104DA8001432934220D0143293421FD014329342CB
:104DB8001FD0143293421FD0143293421FD01432A2
:104DC80093421FD002F5627293421ED0143293426E
:104DD8001DD0143293421CD0143293421CD14FF48C
:104DE80080421BE0042219E0402217E04FF4806261
:104DF80014E04FF4804211E04FF480220EE04FF4AB
:104E080080020BE04FF0806208E0042206E04022B6
:104E180004E04FF4806201E04FF48022874B5A602F
:104E280042E0874A934221D01432934220D0143270
:104E380093421FD0143293421FD0143293421FD092
:104E4800143293421FD0143293421FD002F562727B
:104E580093421ED0143293421DD0143293421CD078
:104E6800143293421CD14FF480421BE0042219E013
:104E7800402217E04FF4806214E04FF4804211E0C2
:104E88004FF480220EE04FF480020BE04FF0806276
:104E980008E0042206E0402204E04FF4806201E0CA
:104EA8004FF48022674B5A60C36A002B00F0C3801E
:104EB800984738BD02238B401A4200F0A18015F0B4
:104EC800020F00F09D80236813F0200F06D123689D
:104ED80023F00A032360012380F821300368564A2F
:104EE800934243D9783A934221D01432934220D046
:104EF800143293421FD0143293421FD0143293427B
:104F08001FD0143293421FD0143293421FD002F59F
:104F1800627293421ED0143293421DD014329342CF
:104F28001CD0143293421CD14FF400521BE00222D1
:104F380019E0202217E04FF4007214E04FF40052F9
:104F480011E04FF400320EE04FF400120BE04FF086
:104F5800007208E0022206E0202204E04FF400720A
:104F680001E04FF40032354B5A6042E0344A934234
:104F780021D01432934220D0143293421FD01432DD
:104F880093421FD0143293421FD0143293421FD041
:104F9800143293421FD002F5627293421ED014322B
:104FA80093421DD0143293421CD0143293421CD128
:104FB8004FF400521BE0022219E0202217E04FF4C0
:104FC800007214E04FF4005211E04FF400320EE08A
:104FD8004FF400120BE04FF0007208E0022206E0E6
:104FE800202204E04FF4007201E04FF40032154B28
:104FF8005A60002380F82030836AE3B1984738BDAF
:10500800082303FA01F10A4215D015F0080F12D04F
:10501800236823F00E032360C16B026C012303FA9B
:1050280002F24A60836380F82130002380F8203040
:10503800036B03B1984738BD80000240000402406A
:1050480008000240000002400F4B1A6842F00102BB
:105058001A6059680D4A0A405A601A6822F0847228
:1050680022F480321A601A6822F480221A605A6880
:1050780022F4FE025A604FF41F029A604FF0006259
:10508800034B9A60704700BF001002400000FFF811
:1050980000ED00E030B597B01F4BDA6942F480228A
:1050A800DA61DA6902F480220092009A5A6942F0C1
:1050B80001025A615B6903F001030193019B174DDB
:1050C80006954FF4E13307930024089409940A9451
:1050D80008230B930C940D9406A8FFF711FE6B6937
:1050E80043F080036B614FF48063029301230493C0
:1050F800022303930323059302A90948FFF732F912
:10510800084B1C60084A9A605C6090221A60702202
:105118001C3B5A6017B030BD0010024000480040E8
:10512800000C01401C000240044800402DE9F04FEB
:1051380089B07B4B9A6942F004029A619A6902F03D
:1051480004020192019A9A6942F008029A619A69E6
:1051580002F008020292029A9A6942F010029A61D9
:105168009B6903F010030393039B002305930693A5
:10517800022707974FF0200A0DEB0A0444F810ADF8
:1051880021466848FFF7EEF8402304932146654816
:10519800FFF7E8F88025049521466248FFF7E2F812
:1051A8004FF48063049321465F48FFF7DBF84FF420
:1051B8000063049321465C48FFF7D4F84FF4805607
:1051C800049621465848FFF7CDF8049621465748DB
:1051D800FFF7C8F8049721465448FFF7C3F84FF083
:1051E8000108CDF814804FF00409CDF8109021463D
:1051F8004C48FFF7B7F81026049621464B48FFF7AE
:10520800B1F8CDF810A021464848FFF7ABF80323C2
:105218000593CDF8108021464348FFF7A3F8CDF851
:10522800108021464148FFF79DF84FF0080BCDF854
:1052380010B021463C48FFF795F8049721463A48B4
:10524800FFF790F8049621463748FFF78BF8CDF81A
:1052580010A021463448FFF785F8CDF81090214674
:105268003148FFF77FF8CDF810B021462F48FFF7F7
:1052780079F8CDF8109021462C48FFF773F8059778
:105288004023049321462848FFF76CF804952146EB
:105298002548FFF767F84FF48079CDF8109021463C
:1052A8002148FFF75FF8049521462048FFF75AF890
:1052B800CDF8108021461B48FFF754F80497214683
:1052C8001848FFF74FF8CDF8109021461748FFF718
:1052D80049F84FF40073049321461448FFF742F845
:1052E8004FF48063049321461048FFF73BF84FF4CE
:1052F8000053049321460B48FFF734F84FF48043DA
:10530800049321460748FFF72DF84FF40043049310
:1053180021460448FFF726F809B0BDE8F08F00BF22
:1053280000100240000C014000100140000801403C
:105338002DE9F04F99B0754B9A6942F400629A6171
:105348009A6902F400620192019A9A6942F4005241
:105358009A619B6903F400530293029B6C4EDFF839
:10536800B891C6F80090002474604FF02008C6F881
:1053780008804FF4FA6BC6F80CB034617461B461FC
:105388003046FEF7D7FD10231693179416A930461A
:10539800FEF70EFF60230F931094119408271297BD
:1053A800139414944FF40073159322460FA93046B2
:1053B800FEF714FE04220FA93046FEF70FFE3A4608
:1053C8000FA93046FEF70AFE4FF4006308934FF426
:1053D800806309930A94CDF82C800C940D940E9454
:1053E8000DEB08013046FEF7B7FE4A4DDFF82CA159
:1053F800C5F800A06C60C5F80880C5F80CB02C6131
:105408006C61AC612846FEF795FDCDF85880802385
:10541800179316A92846FEF7CBFE049418A905236E
:1054280041F8543D2846FEF719FD60230F93109468
:1054380011941297139414944FF400731593224601
:105448000FA92846FEF7CAFD04220FA92846FEF731
:10545800C5FD3A460FA92846FEF7C0FD4FF4006384
:1054680008934FF4806309930A94CDF82C800C9428
:105478000D940E940DEB08012846FEF76DFEDAF840
:10548800443023F40043CAF84430D9F8443023F4B4
:105498000043C9F8443021462846FEF71BFE042184
:1054A8002846FEF717FE39462846FEF713FE214622
:1054B8002846FEF73FFE04212846FEF73BFE394604
:1054C8002846FEF737FE21463046FEF703FE042144
:1054D8003046FEF7FFFD39463046FEF7FBFD214614
:1054E8003046FEF727FE04213046FEF723FE3946F4
:1054F8003046FEF71FFE2B6801221A6332681368D4
:1055080043F00103136019B0BDE8F08F00100240AA
:105518008801002018030020002C014000340140BD
:105528002DE9F04387B0414EB36943F40073B3618A
:10553800B36903F400730093009B3D4C3D4B23601B
:105548004FF48073A3600025E56065614FF4402344
:10555800E36165604FF00508C4F810802046FFF746
:105568005BFA354A536843F48023536006A94FF425
:10557800C02341F8043D2046FEF744FE012304936E
:105588000E220292039302A92046FFF7C5F802955E
:105598000227039702A92046FFF7BEF804970B27B6
:1055A80002970323039302A92046FFF7B5F84FF0AB
:1055B8000C09CDF808900423039302A92046FFF7AD
:1055C800ABF8CDF80890CDF80C8002A92046FFF77B
:1055D800A3F823689A6842F480729A609A6842F045
:1055E80001029A60736943F001037361736903F000
:1055F80001030193019B114B1D60C3F80480104AFD
:105608009A60104ADA6040F6A2221A601A6842F0DC
:1056180001021A602A4629463846FEF739FE3846FE
:10562800FEF768FE07B0BDE8F08300BF0010024037
:105638005002002000240140000001400800024000
:105648004C240140C4020020F0B585B0274B9A696C
:1056580042F480629A619B6903F480630093009B23
:10566800234C244B23604FF48073A3600023E36032
:1056780063614FF46022E26163600526266120467B
:10568800FFF7CAF9012303930F220192029301A99C
:105698002046FFF741F80D2301930225029501A941
:1056A8002046FFF739F803950A2301930327029749
:1056B80001A92046FFF730F80195042302930DEB6A
:1056C80003012046FFF728F80197029601A9204612
:1056D800FFF722F823689A6842F480729A609A6801
:1056E80042F001029A6005B0F0BD00BF0010024010
:1056F8000401002000280140C0F3090040380BD401
:105708004FF47A7303FB00F0044B83FB002303443C
:10571800C017C0EBE3207047002070478100088065
:105728002DE9F04F83B006460C4615460846FDF7AE
:1057380005F9FAF7A7FDFDF7EFF8FAF7CFFD0246EE
:105748000B4600204FF08041FDF776FAFDF7FAFB93
:10575800FDF7E2F8CDE9000100224FF08043FAF7A7
:10576800EDFD8046894600222A4B40464946FCF713
:1057780087FFFAF77BFFFDF7E5FB8246002120460D
:10578800FDF704FF18B100204FF0004101E00020B0
:105798000021DDE90023FCF773FF80468946304687
:1057A800FDF7BAF806460F4602460B4640464946FC
:1057B800FDF718F9804689465046FDF7ADF8824650
:1057C8008B4602460B4640464946FDF735FAFDF73B
:1057D800B9FB286000212046FDF7D8FE18B1002249
:1057E8004FF0004301E000220023DDE90001FCF74F
:1057F80045FF02460B4630463946FDF7F3F8524658
:105808005B46FDF719FAFDF79DFB686003B0BDE83C
:10581800F08F00BF0000F03F29B1B1F57A7F01D1C8
:10582800404270470020704730B597B002250C956C
:1058380001231093102311931395002414944FF40B
:10584800601315930CA8FDF7E5FE0F230793089541
:1058580009944FF480630A930B94294607A8FEF72E
:1058680011F901954FF44043039301A8FEF77EFE1A
:10587800FEF7CAF9084BA3FB00308009FEF746FD86
:105888000420FEF759FD224621464FF0FF30FEF76F
:10589800FFFC17B030BD00BFD34D62100000000000
:1058A80030B585B0FEF704FF914CA36943F00103BE
:1058B800A361A36903F001030193019B0320FEF791
:1058C800D5FC002211466FF00B00FEF7E1FC002228
:1058D80011466FF00A00FEF7DBFC002211466FF05C
:1058E8000900FEF7D5FC002211466FF00400FEF710
:1058F800CFFC002211466FF00300FEF7C9FC00221E
:1059080011466FF00100FEF7C3FC002211464FF06C
:10591800FF30FEF7BDFCFFF787FF636923F0010343
:105928006361FFF703FCFFF703FDFFF7F9FDFFF7DE
:105938008BFEFFF7AFFB012220216E48FEF710FE19
:105948006D48FEF7C5FF6D48FEF7C2FF082405E065
:105958006B4B1C706420FEF7CBFE013C002CF7DA81
:105968000024674B1C70012204216648FEF7F8FDED
:10597800012000F0BFFB029403940520FEF7B8FE57
:10598800614C23681868FFF7B7FE05462368586816
:10599800FFF7B2FE01462846FFF73EFF054663685B
:1059A8001868FFF7A9FEFDF7FFFB02AA0146284683
:1059B800FFF7B6FE23681888A0F5006040F2D172A0
:1059C800904207DC6FF4FA62904206DB00EBD0707D
:1059D800401003E04FF47A7000E04C480290998838
:1059E800A1F5006140F2D173994207DC6FF4FA63C4
:1059F800994206DB01EBD171491003E04FF47A714B
:105A080000E04249039100F08BFB02213948FEF780
:105A18009FFDE0B1002000F06DFB02213548FEF744
:105A280097FD0028F9D10024354B1C70384B1C70A9
:105A380005E0334B1C706420FEF75AFE0134072C36
:105A4800F7DD002220212B48FEF78AFDFEE7314BC7
:105A58001C6831492046FDF799FD78B12046FCF7CE
:105A68006DFF21A3D3E90023FDF74CFA30B10522DD
:105A7800234B1A700822264B1A707EE72046FCF743
:105A88005DFF19A3D3E90023FDF71EFA58B1234996
:105A98002046FDF799FD30B10522194B1A700122F5
:105AA8001B4B1A7069E71D492046FDF76FFDA0B131
:105AB8000024174B1C70204600F01CFB05E0104B1F
:105AC8001C706420FEF714FE0134072CF7DD002259
